:020000040800F2
:1060000000FC0020E9B9000865BA0008F1BA0008F0
:106010005DBB00085FBB000861BB0008000000001A
:1060200000000000000000000000000063BB00084A
:1060300065BB00080000000067BB000867BB0008E4
:1060400039BA000839BA000885BB000839BA000817
:1060500039BA000839BA0008DBBB0008E1BB000808
:10606000E7BB0008EDBB0008F3BB000891BB0008CC
:106070009DBB0008A9BB0008B5BB000839BA0008E1
:1060800039BA000839BA000839BA000839BA000824
:1060900039BA000839BA0008F9BB000839BA000853
:1060A00039BA000839BA000839BA000839BA000804
:1060B00039BA000839BA000839BA000839BA0008F4
:1060C00001D902080DD9020839BA000839BA000806
:1060D000C1BB0008D9BB00088DBC000839BA000854
:1060E00039BA000839BC00086DBB000839BA00088D
:1060F00039BA000839BA000839BA000839BA0008B4
:1061000039BA000839BA000879BB0008A5BC0008F4
:1061100039BA000839BA000839BA000839BA000893
:1061200039BA000839BA000839BA000839BA000883
:0861300039BA000839BA000871
:1061400010B5054C237833B9044B13B10448AFF3B1
:1061500000800123237010BD2810002000000000E3
:10616000C803030808B5034B1BB103490348AFF349
:10617000008008BD000000002C100020C8030308A8
:1061800010F8012B11F8013B012A28BF9A42F7D0E1
:10619000D01A7047034613F8012B002AFBD1181AB6
:1061A00001387047000000000000000000000000FF
:1061B00001F0FF01102A2BDB10F0070F08D010F8B8
:1061C000013B013A8B422DD010F0070F42B3F6D1BC
:1061D000F0B441EA012141EA014122F007047FF0D5
:1061E00000070023F0E80256083C85EA010586EA2C
:1061F000010685FA47F5A3FA87F586FA47F6A5FA68
:1062000087F68EB9EED1F0BC01F0FF0102F0070273
:1062100032B110F8013B013A83EA010313B1F8D11E
:106220000020704701387047002D06BF35460338FF
:10623000073815F0010F07D1013015F4807F02BF38
:10624000013015F4C03F0130F0BC0138704700BF89
:1062500081F0004102E000BF83F0004330B54FEA17
:1062600041044FEA430594EA050F08BF90EA020F84
:106270001FBF54EA000C55EA020C7FEA645C7FEA17
:10628000655C00F0E2804FEA5454D4EB5555B8BF3A
:106290006D420CDD2C4480EA020281EA030382EAAB
:1062A000000083EA010180EA020281EA0303362D3D
:1062B00088BF30BD11F0004F4FEA01314FF4801C10
:1062C0004CEA113102D0404261EB410113F0004F22
:1062D0004FEA03334CEA133302D0524263EB4303D9
:1062E00094EA050F00F0A780A4F10104D5F1200E77
:1062F0000DDB02FA0EFC22FA05F2801841F10001D2
:1063000003FA0EF2801843FA05F359410EE0A5F1A5
:1063100020050EF1200E012A03FA0EFC28BF4CF0D6
:10632000020C43FA05F3C01851EBE37101F000458C
:1063300007D54FF0000EDCF1000C7EEB00006EEB99
:106340000101B1F5801F1BD3B1F5001F0CD3490823
:106350005FEA30004FEA3C0C04F101044FEA44527A
:1063600012F5800F80F09A80BCF1004F08BF5FEA01
:10637000500C50F1000041EB045141EA050130BDE1
:106380005FEA4C0C404141EB0101013C28BFB1F5F3
:10639000801FE9D291F0000F04BF01460020B1FA3E
:1063A00081F308BF2033A3F10B03B3F120020CDA11
:1063B0000C3208DD02F1140CC2F10C0201FA0CF0EF
:1063C00021FA02F10CE002F11402D8BFC2F1200C54
:1063D00001FA02F120FA0CFCDCBF41EA0C0190400A
:1063E000E41AA2BF01EB0451294330BD6FEA040453
:1063F0001F3C1CDA0C340EDC04F11404C4F120023E
:1064000020FA04F001FA02F340EA030021FA04F34F
:1064100045EA030130BDC4F10C04C4F1200220FAA6
:1064200002F001FA04F340EA0300294630BD21FAE4
:1064300004F0294630BD94F0000F83F4801306BFAA
:1064400081F480110134013D4EE77FEA645C18BF9E
:106450007FEA655C29D094EA050F08BF90EA020F35
:1064600005D054EA000C04BF1946104630BD91EA2D
:10647000030F1EBF0021002030BD5FEA545C05D130
:106480004000494128BF41F0004130BD14F580046F
:106490003CBF01F5801130BD01F0004545F0FE41E3
:1064A00041F470014FF0000030BD7FEA645C1ABF18
:1064B000194610467FEA655C1CBF0B46024650EA4F
:1064C000013406BF52EA033591EA030F41F400217B
:1064D00030BD00BF90F0000F04BF0021704730B501
:1064E0004FF4806404F132044FF000054FF00001D6
:1064F00050E700BF90F0000F04BF0021704730B597
:106500004FF4806404F1320410F0004548BF40426B
:106510004FF000013EE700BF42004FEAE2014FEAC0
:1065200031014FEA02701FBF12F07F4393F07F4F9B
:1065300081F06051704732F07F4208BF704793F09E
:106540007F4F04BF41F40021704730B54FF46074B1
:1065500001F0004521F000411CE700BF50EA0102B4
:1065600008BF704730B54FF000050AE050EA01025D
:1065700008BF704730B511F0004502D5404261EBCD
:1065800041014FF4806404F132045FEA915C3FF40E
:10659000D8AE4FF003025FEADC0C18BF03325FEAAB
:1065A000DC0C18BF033202EBDC02C2F1200300FA5C
:1065B00003FC20FA02F001FA03FE40EA0E0021FA81
:1065C00002F11444BDE600BF70B54FF0FF0C4CF46F
:1065D000E06C1CEA11541DBF1CEA135594EA0C0F21
:1065E00095EA0C0F00F0DEF82C4481EA030621EA5C
:1065F0004C5123EA4C5350EA013518BF52EA033597
:1066000041F4801143F4801338D0A0FB02CE4FF048
:106610000005E1FB02E506F00042E0FB03E54FF078
:106620000006E1FB03569CF0000F18BF4EF0010E70
:10663000A4F1FF04B6F5007F64F5407404D25FEA6C
:106640004E0E6D4146EB060642EAC62141EA55511F
:106650004FEAC52040EA5E504FEACE2EB4F1FD0C61
:1066600088BFBCF5E06F1ED8BEF1004F08BF5FEADF
:10667000500E50F1000041EB045170BD06F0004691
:1066800046EA010140EA020081EA0301B4EB5C043E
:10669000C2BFD4EB0C0541EA045170BD41F4801136
:1066A0004FF0000E013C00F3AB8014F1360FDEBF5B
:1066B000002001F0004170BDC4F10004203C35DA37
:1066C0000C341BDC04F11404C4F1200500FA05F3BA
:1066D00020FA04F001FA05F240EA020001F000425B
:1066E00021F0004110EBD37021FA04F642EB0601D1
:1066F0005EEA430E08BF20EAD37070BDC4F10C04FB
:10670000C4F1200500FA04F320FA05F001FA04F2BE
:1067100040EA020001F0004110EBD37041F10001AA
:106720005EEA430E08BF20EAD37070BDC4F12005B5
:1067300000FA05F24EEA020E20FA04F301FA05F21D
:1067400043EA020321FA04F001F0004121FA04F2C5
:1067500020EA020000EBD3705EEA430E08BF20EA95
:10676000D37070BD94F0000F0FD101F000464000CF
:1067700041EB010111F4801F08BF013CF7D041EA51
:10678000060195F0000F18BF704703F00046520055
:1067900043EB030313F4801F08BF013DF7D043EA26
:1067A0000603704794EA0C0F0CEA135518BF95EADC
:1067B0000C0F0CD050EA410618BF52EA4306D1D163
:1067C00081EA030101F000414FF0000070BD50EA82
:1067D000410606BF1046194652EA430619D094EA0C
:1067E0000C0F02D150EA013613D195EA0C0F05D1F6
:1067F00052EA03361CBF104619460AD181EA03014A
:1068000001F0004141F0FE4141F470014FF0000001
:1068100070BD41F0FE4141F4780170BD70B54FF09C
:10682000FF0C4CF4E06C1CEA11541DBF1CEA13551C
:1068300094EA0C0F95EA0C0F00F0A7F8A4EB0504FE
:1068400081EA030E52EA03354FEA013100F08880F5
:106850004FEA03334FF0805545EA131343EA1263BE
:106860004FEA022245EA111545EA10654FEA002673
:106870000EF000419D4208BF964244F1FD0404F52C
:10688000407402D25B084FEA3202B61A65EB030588
:106890005B084FEA32024FF480104FF4002CB6EB45
:1068A000020E75EB030E22BFB61A754640EA0C00C5
:1068B0005B084FEA3202B6EB020E75EB030E22BF05
:1068C000B61A754640EA5C005B084FEA3202B6EB46
:1068D000020E75EB030E22BFB61A754640EA9C0005
:1068E0005B084FEA3202B6EB020E75EB030E22BFD5
:1068F000B61A754640EADC0055EA060E18D04FEA93
:10690000051545EA16754FEA06164FEAC30343EA32
:1069100052734FEAC2025FEA1C1CC0D111F4801FFF
:106920000BD141EA00014FF000004FF0004CB6E7F8
:1069300011F4801F04BF01430020B4F1FD0C88BF97
:10694000BCF5E06F3FF6AFAEB5EB030C04BFB6EBA2
:10695000020C5FEA500C50F1000041EB045170BD95
:106960000EF0004E4EEA113114EB5C04C2BFD4EBC2
:106970000C0541EA045170BD41F480114FF0000E46
:10698000013C90E645EA060E8DE60CEA135594EAC2
:106990000C0F08BF95EA0C0F3FF43BAF94EA0C0FC5
:1069A0000AD150EA01347FF434AF95EA0C0F7FF43A
:1069B00025AF104619462CE795EA0C0F06D152EA8E
:1069C00003353FF4FDAE1046194622E750EA410672
:1069D00018BF52EA43067FF4C5AE50EA41047FF483
:1069E0000DAF52EA43057FF4EBAE12E74FF0FF3CE8
:1069F00006E000BF4FF0010C02E000BF4FF0010CB9
:106A00004DF804CD4FEA410C7FEA6C5C4FEA430C31
:106A100018BF7FEA6C5C1BD001B050EA410C0CBF80
:106A200052EA430C91EA030F02BF90EA020F0020E2
:106A3000704710F1000F91EA030F58BF994208BF49
:106A400090422CBFD8176FEAE37040F00100704706
:106A50004FEA410C7FEA6C5C02D150EA013C07D15D
:106A60004FEA430C7FEA6C5CD6D152EA033CD3D0A8
:106A70005DF8040B704700BF8446104662468C46A2
:106A80001946634600E000BF01B5FFF7B7FF0028D5
:106A900048BF10F1000F01BD4DF808EDFFF7F4FFFE
:106AA0000CBF012000205DF808FB00BF4DF808ED89
:106AB000FFF7EAFF34BF012000205DF808FB00BFAC
:106AC0004DF808EDFFF7E0FF94BF012000205DF8CE
:106AD00008FB00BF4DF808EDFFF7CEFF94BF012083
:106AE00000205DF808FB00BF4DF808EDFFF7C4FF7C
:106AF00034BF012000205DF808FB00BF4FEA410CC5
:106B00007FEA6C5C02D150EA013C0AD14FEA430CA7
:106B10007FEA6C5C02D152EA033C02D14FF00000E4
:106B200070474FF0010070474FEA410212F5001222
:106B300015D211D56FF47873B3EB625212D94FEAC4
:106B4000C12343F0004343EA505311F0004F23FAAE
:106B500002F018BF404270474FF00000704750EA03
:106B6000013005D111F0004008BF6FF000407047C0
:106B70004FF00000704700BF4FEA4102B2F1E0431E
:106B800024BFB3F5001CDCF1FE5C0DD901F0004C14
:106B90004FEAC0024CEA5070B2F1004F40EB830064
:106BA00008BF20F00100704711F0804F21D113F190
:106BB0003872BCBF01F00040704741F480114FEAC9
:106BC0005252C2F11802C2F1200C10FA0CF320FA52
:106BD00002F018BF40F001004FEAC1234FEAD3236F
:106BE00003FA0CFC40EA0C0023FA02F34FEA4303D9
:106BF000CCE77FEA625307D150EA01331EBF4FF062
:106C0000FE4040F44000704701F0004040F0FE407C
:106C100040F40000704700BF80F0004002E000BF79
:106C200081F0004142001FBF5FEA410392EA030F77
:106C30007FEA226C7FEA236C6AD04FEA1262D2EBC1
:106C40001363C1BFD218414048404140B8BF5B42C6
:106C5000192B88BF704710F0004F40F4000020F05F
:106C60007F4018BF404211F0004F41F4000121F075
:106C70007F4118BF494292EA030F3FD0A2F10102BF
:106C800041FA03FC10EB0C00C3F1200301FA03F1FD
:106C900000F0004302D5494260EB4000B0F5000F20
:106CA00013D3B0F1807F06D340084FEA310102F1DF
:106CB0000102FE2A51D2B1F1004F40EBC25008BF91
:106CC00020F0010040EA03007047490040EB00005B
:106CD000013A28BFB0F5000FEDD2B0FA80FCACF15C
:106CE000080CB2EB0C0200FA0CF0AABF00EBC25089
:106CF00052421843BCBFD0401843704792F0000F77
:106D000081F4000106BF80F400000132013BB5E7C9
:106D10004FEA41037FEA226C18BF7FEA236C21D03F
:106D200092EA030F04D092F0000F08BF08467047A4
:106D300090EA010F1CBF0020704712F07F4F04D172
:106D4000400028BF40F00040704712F100723CBF85
:106D500000F50000704700F0004343F0FE4040F4AF
:106D6000000070477FEA226216BF08467FEA23636D
:106D70000146420206BF5FEA412390EA010F40F458
:106D8000800070474FF0000304E000BF10F00043A4
:106D900048BF40425FEA000C08BF704743F096438B
:106DA00001464FF000001CE050EA010208BF7047A6
:106DB0004FF000030AE000BF50EA010208BF70472D
:106DC00011F0004302D5404261EB41015FEA010C42
:106DD00002BF84460146002043F0B64308BFA3F13A
:106DE0008053A3F50003BCFA8CF2083AA3EBC2531C
:106DF00010DB01FA02FC634400FA02FCC2F120023B
:106E0000BCF1004F20FA02F243EB020008BF20F071
:106E10000100704702F1200201FA02FCC2F12002D7
:106E200050EA4C0021FA02F243EB020008BF20EACC
:106E3000DC7070474FF0FF0C1CEAD0521EBF1CEAFA
:106E4000D15392EA0C0F93EA0C0F6FD01A4480EAE8
:106E5000010C400218BF5FEA41211ED04FF00063D1
:106E600043EA501043EA5111A0FB01310CF00040FD
:106E7000B1F5000F3EBF490041EAD3715B0040EA23
:106E8000010062F17F02FD2A1DD8B3F1004F40EBF3
:106E9000C25008BF20F00100704790F0000F0CF0C6
:106EA000004C08BF49024CEA502040EA51207F3A8A
:106EB000C2BFD2F1FF0340EAC250704740F4000065
:106EC0004FF00003013A5DDC12F1190FDCBF00F056
:106ED00000407047C2F10002410021FA02F1C2F104
:106EE000200200FA02FC5FEA310040F1000053EAA0
:106EF0004C0308BF20EADC70704792F0000F00F0EE
:106F0000004C02BF400010F4000F013AF9D040EAF3
:106F10000C0093F0000F01F0004C02BF490011F487
:106F2000000F013BF9D041EA0C018FE70CEAD15385
:106F300092EA0C0F18BF93EA0C0F0AD030F0004C05
:106F400018BF31F0004CD8D180EA010000F00040B9
:106F5000704790F0000F17BF90F0004F084691F077
:106F6000000F91F0004F14D092EA0C0F01D14202B1
:106F70000FD193EA0C0F03D14B0218BF084608D17A
:106F800080EA010000F0004040F0FE4040F40000C4
:106F9000704740F0FE4040F4400070474FF0FF0C57
:106FA0001CEAD0521EBF1CEAD15392EA0C0F93EA9E
:106FB0000C0F69D0A2EB030280EA010C49024FEAF0
:106FC000402037D04FF0805343EA111143EA1013A9
:106FD0000CF000408B4238BF5B0042F17D024FF461
:106FE000000C8B4224BF5B1A40EA0C00B3EB510F3C
:106FF00024BFA3EB510340EA5C00B3EB910F24BF25
:10700000A3EB910340EA9C00B3EBD10F24BFA3EBA9
:10701000D10340EADC001B0118BF5FEA1C1CE0D171
:10702000FD2A3FF650AF8B4240EBC25008BF20F024
:10703000010070470CF0004C4CEA50207F32C2BF78
:10704000D2F1FF0340EAC250704740F400004FF015
:107050000003013A37E792F0000F00F0004C02BF46
:10706000400010F4000F013AF9D040EA0C0093F010
:10707000000F01F0004C02BF490011F4000F013B6A
:10708000F9D041EA0C0195E70CEAD15392EA0C0FD2
:1070900008D142027FF47DAF93EA0C0F7FF470AF0A
:1070A000084676E793EA0C0F04D14B023FF44CAF4D
:1070B00008466EE730F0004C18BF31F0004CCAD1E2
:1070C00030F000427FF45CAF31F000437FF43CAF1E
:1070D0005FE700BF4FF0FF3C06E000BF4FF0010C40
:1070E00002E000BF4FF0010C4DF804CD4FEA400222
:1070F0004FEA41037FEA226C18BF7FEA236C11D06C
:1071000001B052EA530C18BF90EA010F58BFB2EB1E
:10711000030088BFC81738BF6FEAE17018BF40F09E
:10712000010070477FEA226C02D15FEA402C05D152
:107130007FEA236CE4D15FEA412CE1D05DF8040BD7
:10714000704700BF844608466146FFE70FB5FFF76A
:10715000C9FF002848BF10F1000F0FBD4DF808ED22
:10716000FFF7F4FF0CBF012000205DF808FB00BF13
:107170004DF808EDFFF7EAFF34BF012000205DF86D
:1071800008FB00BF4DF808EDFFF7E0FF94BF0120BA
:1071900000205DF808FB00BF4DF808EDFFF7D2FFB7
:1071A00094BF012000205DF808FB00BF4DF808EDFA
:1071B000FFF7C8FF34BF012000205DF808FB00BFC7
:1071C00042000ED2B2F1FE4F0BD34FF09E03B3EB51
:1071D000126209D44FEA002343F0004323FA02F07D
:1071E00070474FF00000704712F1610F01D1420269
:1071F00002D14FF0FF3070474FF00000704700BFE2
:1072000053B94AB9002908BF00281CBF4FF0FF310D
:107210004FF0FF3000F06CB9ADF1080C6DE904CE11
:1072200000F006F8DDF804E0DDE9022304B0704761
:107230002DE9F047089E0D4604468E46002B40F08F
:1072400082808A42174646D9B2FA82F24AB1C2F126
:10725000200105FA02F320FA01F1974041EA030EFA
:1072600094404FEA1748230CBEFBF8FCB9B208FB68
:107270001CEE43EA0E430CFB01F098420AD9FB18BE
:107280000CF1FF3580F01681984240F21381ACF189
:10729000020C3B441B1AA4B2B3FBF8F008FB1033FA
:1072A00044EA034400FB01F1A14209D93C1900F171
:1072B000FF3380F00181A14240F2FE8002383C445D
:1072C000641A40EA0C4000211EB1D4400023C6E9F4
:1072D0000043BDE8F08702B9FFDEB2FA82F2002A6D
:1072E0004FD1CB1B4FEA174E1FFA87F80121B3FB92
:1072F000FEFC250C0EFB1C3345EA034508FB0CF392
:10730000AB4207D97D190CF1FF3002D2AB4200F23B
:10731000E7808446ED1AA3B2B5FBFEF00EFB1055D4
:1073200043EA054408FB00F8A04507D93C1900F1E1
:10733000FF3302D2A04500F2D7801846A4EB080420
:1073400040EA0C40C0E78B4208D9002E00F0AF8025
:107350000021C6E900050846BDE8F087B3FA83F1CD
:1073600000294BD1AB4202D3824200F2B780841A8B
:1073700065EB030301209E46002EAAD0C6E9004E0D
:10738000A7E7C2F1200C01FA02F3974020FA0CF0B3
:107390004FEA174E21FA0CFC1843BCFBFEF1050C1A
:1073A0000EFB11CC1FFA87F845EA0C4501FB08F3E8
:1073B000AB4204FA02F409D97D1901F1FF3C80F0D7
:1073C0008B80AB4240F2888002393D44EB1A85B293
:1073D000B3FBFEF00EFB103345EA034500FB08F358
:1073E000AB4207D97D1900F1FF3C71D2AB426FD996
:1073F00002383D44EB1A40EA014178E7C1F1200C24
:107400008B4022FA0CF71F4320FA0CF405FA01F323
:107410004FEA174E25FA0CF51C43230CB5FBFEF979
:107420001FFA87F80EFB195543EA054509FB08FAD0
:10743000AA4502FA01F200FA01F308D97D1909F10F
:10744000FF3047D2AA4545D9A9F102093D44A5EB31
:107450000A05A4B2B5FBFEF00EFB105544EA054444
:1074600000FB08F8A04507D93C1900F1FF352DD2E3
:10747000A0452BD902383C4440EA0940A4EB08045B
:10748000A0FB02894C45C6464D4619D316D05EB1C5
:10749000B3EB0E0264EB050404FA0CFCCA404CEAA0
:1074A0000202CC40C6E900240021BDE8F087314645
:1074B00030460EE7AC46EDE6184601E74345E6D216
:1074C000B8EB020E69EB07050138E0E72846D3E781
:1074D00060468FE78146BAE7614677E708464BE7A3
:1074E000ACF1020C3D4415E702383C4426E700BFEE
:1074F000704700BF10B50C4A0C4904460C4806F012
:1075000069FA0C4B0C4A0D490948002C08BF1A4671
:1075100006F060FA0A49064806F05CFABDE8104039
:10752000642010F069BA00BF900503089B050308AA
:10753000181F00208405030887050308A105030818
:10754000D506030838B50C4C0C4A0D4905462046B3
:1075500006F040FA2A460B49204606F03BFA0A4953
:10756000204606F037FA642010F046FABDE83840AD
:107570000021012006F071BA181F0020B40503088D
:107580009B050308BA050308D506030810B50B4C84
:107590000B4A0C49204606F01DFA0B49204606F01E
:1075A00019FA0A49204606F015FA642010F024FA68
:1075B000BDE810400021012006F04FBA181F00203E
:1075C000C70503089B050308D1050308D506030872
:1075D000F7B50446564A57495748584F564E06F095
:1075E000F9F994F90C300193B4F90A3000936378F7
:1075F00022785349504806F0EDF952494E4806F0BA
:10760000E9F9642010F0F8F90025237AAB4207DD90
:10761000636839465A5D304606F0DCF90135F4E717
:107620004949454806F0B5F9237893B94149404A9C
:10763000414806F0CFF945493F4806F0CBF94149AA
:107640003D4806F0C7F9642003B0BDE8F04010F0F3
:10765000D3B963681A78AA2A62D15A78552A5FD1B9
:107660009A780F2A35D13A4A00211170D978394ACF
:10767000117001390F2925D8197993F90400507434
:1076800001390F2917D8191DC3F1FF2303F57F0313
:10769000FC335C18A04202F1010203DD11F8014F36
:1076A0001470F6E72C4800236422012103B0BDE8E2
:1076B000F04006F082B81F49284A1F4806F08AF9B0
:1076C0002749B9E71B49254A1B4806F083F9254994
:1076D000B2E7062A01D0102A1BD11D4A01211170E0
:1076E000D978214A117001390F29EBD819795182C3
:1076F00093F905305374590000231E469942D1DD99
:1077000002EB63056E70606818440233C0796870DC
:10771000F4E70849114A084806F05CF913498BE779
:1077200004490E4A044806F055F9114984E700BFA0
:10773000E10503089B050308181F0020E107030863
:10774000E7050308D5060308D40603080B0603085B
:107750007410002044100020D11F002017060308D9
:107760001D06030830060308E01000204606030843
:1077700054060308F0B585B004AB03E907003E4AA0
:107780003E493F48019C3F4F3D4E06F023F99DF98D
:107790000C30BDF90A203C49394806F01BF93B4939
:1077A000374806F017F9642010F026F900259DF8F7
:1077B0000830AB4206DD625D3946304606F00AF914
:1077C0000135F4E732492E4806F0E3F82378AA2B76
:1077D0004BD16378552B48D1A3780F2B3ED1E2785B
:1077E0002C4B1A70013A0F2A31D8227994F90410DF
:1077F0005974013A0F2A17D8221DC4F1FF2404F549
:107800007F04FC34A018814203F1010303DD12F868
:10781000010F1870F6E7204800236422012105B00B
:10782000BDE8F04005F0C9BF14491C4A144806F0F1
:10783000D1F81B49124806F0CDF81449104806F05B
:10784000C9F8642005B0BDE8F04010F0D5B80B4988
:10785000124A0B4806F0BEF81249EBE707490F4AF7
:10786000074806F0B7F81049E4E704490B4A044812
:1078700006F0B0F80D49DDE7610603089B05030833
:10788000181F0020E10703086B060308D50603084C
:10789000D406030844100020D11F00201706030857
:1078A0001D060308300603084606030854060308AD
:1078B00010B50121082006F0D0F80E4C0121084631
:1078C00006F0CBF80C4A0D49204606F083F80C4927
:1078D000204606F07FF80B49204606F07BF864202E
:1078E00010F08AF8BDE81040074A0848002302213A
:1078F00005F063BF181F0020830603089B050308DB
:1079000088060308D5060308C0270900D11F0020F8
:1079100010B5044601F0DEFB204610BD10B504464C
:10792000124A1349134874B106F054F81249114829
:1079300006F050F811490F4806F04CF8BDE8104029
:10794000642010F059B806F045F80D49094806F0D2
:1079500041F80A49074806F03DF8642010F04CF859
:1079600021460120BDE8104006F077B898060308CC
:107970009B050308181F0020A0060308D50603086E
:10798000BD0603082DE9F04F012185B0082006F05F
:1079900064F89B489B4C022306224FF4965105F055
:1079A000CBFC994B994A1F7899499A48002F00F0CF
:1079B000988006F00FF898499648984D06F00AF816
:1079C0009749944806F006F8642010F015F88F4A9D
:1079D0008F49904805F0FEFF95F9112091498D4897
:1079E00005F0F8FF8E498B4805F0F4FF642010F095
:1079F00003F895F911200023082AE380A38063800F
:107A00002380E381A381638123810BDC2946204607
:107A10009A4201F1010118DD91F9006020F8026B32
:107A20000133F5E77A49794A7A4805F0D3FF7E4970
:107A3000784805F0CFFF7A49764805F0CBFF6420FF
:107A400005B0BDE8F04F0FF0D7BF784B297819701B
:107A5000012A14BF102106215970698A59809C603F
:107A60009A80724B7248724D0ECB00F033FE05F0D7
:107A7000F9FF4FF00008044641F28736002705F071
:107A8000F1FF031B029368EB48030393DDE9022334
:107A9000964277EB030317DB284600F011FF2846D8
:107AA00000F085FD0028EAD1584A5949594805F0A7
:107AB00091FF6049574805F08DFF5949554805F039
:107AC00089FF64200FF098FF0021082005F0C5FF12
:107AD0004B4805F077FC012005B0BDE8F04F10F0F1
:107AE000D1B905F077FF54494A48544E05F072FF6A
:107AF0004B49484805F06EFF64200FF07DFF434A74
:107B00004349444805F066FF96F911204C49414825
:107B100005F060FF42493F4805F05CFF64200FF02C
:107B20006BFF96F911302780102B45DCDFF8DCB0B5
:107B3000DFF8DCA0DFF8DC80B146082596F91130CB
:107B4000BB4240DD5A465146404605F043FF99F995
:107B500001203C4902FA05F300933B4B4046002AC2
:107B600008BF0B463A46394905F034FF2C494046D8
:107B700005F030FF64200FF03FFF19F9013F228824
:107B8000AB40134351465A464046238005F022FF3E
:107B9000B4F900202E49404605F01CFF013520496C
:107BA000404605F017FFEDB264200FF025FF102DC1
:107BB00008BF00250137C1E71549144A154805F0EB
:107BC00009FF244934E7114A1149124805F002FF20
:107BD000B4F900201E490F4805F0FCFE10490D487D
:107BE00005F0F8FE64200FF007FF104B32781A7092
:107BF0000F225A7000225A8096F911202FE700BFF9
:107C0000401F00205610002074100020DB060308DF
:107C10009B050308181F0020E0060308E010002061
:107C2000D5060308080703081C070308F410002002
:107C300078100020E60703085A07030844100020C4
:107C40007E070308D7060308A11C0308C907030819
:107C5000D70703088E0703081FB59D4805F0B6FC3B
:107C6000012840F019819B4805F082FC9A4B18705E
:107C70009A4805F02DFC9A4B18709A4805F088FC3C
:107C8000994B9A491870954805F024FC98499348F7
:107C900005F030FC9749914805F024FC01210020B3
:107CA00005F0C4FE0121002005F0D7FE01210846A1
:107CB00005F0BCFE0121084605F0CFFE0223062296
:107CC0004FF4E1318C4805F037FB41F288300FF07A
:107CD00093FE8A4901A805F00FFE01A9884805F026
:107CE00019FD01A805F0C2FD8649834805F068FE2C
:107CF0008549814805F064FE84497F4805F060FEAF
:107D00007F4901A805F0F0FC019A81497A4805F005
:107D100061FE01A805F0AAFD7B49774805F050FEF9
:107D200001F012F978B97B4A7B49734805F052FE9D
:107D30007A49714805F04EFE79496F4805F04AFED0
:107D400064200FF059FE01F0E9F878B9714A7249E0
:107D5000694805F03FFE7349674805F03BFE7049EE
:107D6000654805F037FE64200FF046FE01F074F917
:107D70000021084605F071FE0121082005F056FE9D
:107D80000121082005F069FE022306224FF49651D6
:107D9000654805F0D1FA654800F0EDFB63484FF403
:107DA000FA6100F001FC624A62480123002105F0FB
:107DB000FAFC614A5F4852680023194605F0FDFC51
:107DC0005E4A5C480023012105F0EDFC5C4A5948FD
:107DD0000023022105F0E7FC3D4805F0F7FB0446CF
:107DE000002866D10146012005F037FE494A4A497C
:107DF000414805F0EFFD53493F4805F0EBFD484988
:107E00003D4805F0E7FD64200FF0F6FD2046FFF742
:107E10004FFD2F4805F0DAFB012837D12E4B3D4AA4
:107E20001B783D493448002B4ED005F0D3FD464920
:107E3000314805F0CFFD3A492F4805F0CBFD6420CD
:107E40000FF0DAFD334A34492B4805F0C3FD244BCB
:107E50003E491A78284805F0BDFD3149264805F00D
:107E6000B9FD64200FF0C8FD2A4A2B49224805F0CD
:107E7000B1FD1D4B36491A781F4805F0ABFD284966
:107E80001D4805F0A7FD64200FF0B6FD0121314823
:107E900005F0C3FD04B010BD2F49304805F0DAFAF3
:107EA0002F492E4805F0DEFA2E492C4805F0E2FA5B
:107EB000F4E60021082005F0D0FD1B4805F082FA09
:107EC00001200FF0DFFFA4E705F084FD2649AFE7AE
:107ED000F81F0020DC1F002068100020D41F0020A5
:107EE00069100020E31F002004000020D175000865
:107EF000457500081D790008181F0020F1070308C8
:107F0000781F002009080308260803085D080308F5
:107F10009D080308A50803089B050308AB08030890
:107F2000D5060308CD080308401F00207810002064
:107F3000B1780008D11F00200800002085790008D2
:107F400099810008F6080308100903083509030899
:107F500040090308691F002075770008F91F0020F9
:107F60008D750008F574000822090308014805F022
:107F70004CBD00BF681F002013B5714805F026FBFB
:107F80000128704A7049714840F0AE8005F022FD2A
:107F90006F4801F0A9F86F4902466C4805F01AFDD8
:107FA0006D496A4805F016FD64200FF025FD6B4809
:107FB00005F000FB0446664801F096F881B2A0B2D5
:107FC00001F06AF85F4A60490446604805F002FD26
:107FD000634805F0DDFA2246034662495B4805F036
:107FE000F9FC5D49594805F0F5FC64200FF004FDEB
:107FF000102C3CD1534A5449544805F0EBFC5A49E3
:10800000524805F0E7FC5449504805F0E3FC642071
:108010000FF0F2FC4E4801F067F804464C4801F0BE
:1080200065F8524B1B780193514B1B780093514BD1
:1080300002461B785048214605F025FA002849D011
:10804000404A4149414805F0C5FC414801F04CF81F
:108050004A4902463D4805F0BDFC3F493B4805F012
:10806000B9FC642002B0BDE810400FF0C5BC3C482C
:1080700005F08EFAA04213D9324A3349334805F04D
:10808000A9FC3F49314805F0A5FC33492F4805F0CC
:10809000A1FC64200FF0B0FC3148214605F07AFACB
:1080A0002F4805F075FAA042B4D2264A264927483F
:1080B00005F090FC3349254805F08CFC26492348FF
:1080C00005F088FC64200FF097FC2146244805F059
:1080D00061FA9FE71C491B4A1C4805F07BFC2A49B2
:1080E0001A4805F077FCB8E705F074FC184800F072
:1080F000FBFF26490246154805F06CFC164913485B
:1081000005F068FC64200FF077FC0021012005F0E9
:10811000A4FC0F4800F0E8FF04460D4800F0E6FF1D
:108120000123024621461A4805F07DF90028D1D0E6
:108130000549044A054805F04DFC1649D0E700BF43
:10814000F81F0020480903089B050308181F00209A
:108150006C1000204F090308D5060308F51F002006
:10816000E31F002078090308C309030869100020F1
:108170006810002005000020D41F00205E0A0308BC
:10818000D80903081A0A0308770A0308830A0308B0
:10819000F91F0020A50A03082DE9F84F0622022343
:1081A0004FF49651BA48BB4CDFF804B305F0C4F85D
:1081B0004FF4FA700FF020FCB74AB849B84805F000
:1081C00009FCB849B64805F005FCB749B44805F0C4
:1081D00001FC64200FF010FC4FF6FF732381E38055
:1081E000A380638023802382E381A3816381AF4BDB
:1081F000AF489C6040F201321A6009229A800ECB8F
:1082000000F068FA05F02EFC4FF0000A054641F236
:1082100087384FF0000905F025FC461B6AEB4A073A
:10822000B04579EB0703C0F25F81584600F048FB88
:10823000584600F0BCF90028EDD1974A9749984874
:108240009C4E05F0C7FB2088FEF754F99A4B00229C
:10825000FEF7E4FA0B4602469849914805F0BAFB4E
:1082600091498F4805F0B6FB64200FF0C5FB8A4AA0
:108270008A498B4805F0AEFBB4F90200FEF73AF9E3
:108280008D4B0022FEF7CAFA0B4602468C49844801
:1082900005F0A0FB8449824805F09CFB64200FF0A8
:1082A000ABFB7D4A7D497E4805F094FBA088FEF734
:1082B00021F90B4602468349794805F08BFB7A4940
:1082C000774805F087FB64200FF096FB724A7349EC
:1082D000734805F07FFBE088FEF70CF9764B00222F
:1082E000FEF79CFA0B46024677496D4805F072FB93
:1082F0006D496B4805F06EFB64200FF07DFB664A0C
:108300006649674805F066FB2089FEF7F3F80B46DF
:1083100002466E49624805F05DFB6349604805F01E
:1083200059FB64200FF068FB5B4A5C495C4805F030
:1083300051FB6089FEF7DEF80B4602466449584857
:1083400005F048FB5849564805F044FB64200FF0FF
:1083500053FB514A5149524805F03CFBA089FEF7B6
:10836000C9F80B4602465B494D4805F033FB4E49C0
:108370004B4805F02FFB64200FF03EFB464A47496F
:10838000474805F027FBE089FEF7B4F80B460246A4
:108390005149434805F01EFB4349414805F01AFB8B
:1083A00064200FF029FB3C4A3C493D4805F012FB94
:1083B000208AFEF79FF802460B463948474905F0E8
:1083C00009FB3949364805F005FB64200FF014FB22
:1083D000434800F086FEB4F90200FEF78BF8364BF6
:1083E0000022FEF71BFAFEF7C7FB032102463C48BA
:1083F00000F0ADFF2088FEF77DF82F4B0022FEF73E
:108400000DFAFEF7B9FB02210246354800F0A6FF3F
:10841000A2883348042100F01FFF0A25E088B0FB42
:10842000F5F0FEF7B3FC052102462D4800F088FF69
:1084300022892B48062100F00FFF62892848072176
:1084400000F00AFFA2892648082100F005FFE28912
:108450002348092100F000FF228A2148294600F024
:10846000FBFE0024304605F075F901462046FEF774
:10847000D9FB013D0446F5D11A49FEF78FFD0121D4
:108480000246174800F071FFFFF776FD2CE000BFB1
:10849000401F002056100020830603089B05030898
:1084A000181F0020B50A0308D5060308F4100020A1
:1084B00078100020CD1F002000002440D30A0308BC
:1084C000E30A0308F60A03080A0B0308140B03085F
:1084D000240B0308360B0308470B0308570B03084C
:1084E0006C100020000020410021082005F0B5FAA2
:1084F000054804F067FF01200FF0C4FCBDE8F84F09
:108500000021012005F0A9BA401F0020002310B56A
:1085100019460C4A0C480D4C00F022F80C4B002276
:10852000012119705A740B4B204619705A745A82E3
:10853000FF2100F0C3FD2046074A0849BDE810406E
:1085400001F0A2BA401F0020781000206C1000201B
:1085500044100020E01000200000002011790008E5
:1085600010B543714FF47A73A0F8563000230260BF
:108570000171036610BD10B504464079012806D983
:10858000012105F053FA6079002105F066FA2068B0
:1085900003685B6998470028F9DA0023A4F848309B
:1085A0002365A4F8543010BDA0F8561070478079A8
:1085B000704738B504464079012802D9002105F0FA
:1085C0004CFA002584F84850206803681B699847D6
:1085D00078B1206803685B69984794F84830E218DE
:1085E0000133DBB2402B107228BF012584F84830DC
:1085F000EAE7B4F850300133A4F850303DB1B4F894
:1086000054300133A4F854306FF0020038BD94F9AF
:108610004800FBE770B5083000244FF6FF734AF2BC
:108620000105E2B291420ED910F8012B5340082205
:1086300003F001065B0806B16B40013A12F0FF023D
:10864000F6D10134EDE7180240EA132080B270BD84
:1086500013B590F848100446FFF7DCFF63180212C8
:108660001A724B1C54FA83F302311872607984F841
:108670004810012802D9012105F0EFF9206894F88B
:108680004820036804F108015B6898476379012B6F
:108690000DD9206803689B689847236E0193019960
:1086A0004B1E01930029FAD1607905F0D6F92068B4
:1086B00003685B6998470028F9DA002384F848309A
:1086C00005F0D0F9B4F85230E0650133A4F8523027
:1086D00002B010BD7FB5044604A800E90E0023795E
:1086E000BDF80650BDF808009DF804609DF805200F
:1086F000BDF808106DBA40BA002B71D1A379002BD8
:1087000071D1731EDBB2F62B70D8039B6272013AF3
:10871000E364267265810F2A0DD8DFE802F00808AD
:108720000808141F0C0C0C0C0C0C0C0C2446A0811B
:10873000062384F848302046FFF78AFF0123E380B0
:10874000002004B070BDB3F90030002BD4BF00236B
:1087500001235B42237300236373E9E793F901204C
:1087600022731B88F8E7CA0802F0FE0209071CBF43
:108770000132D2B20721A273A08184F848100025EB
:1087800092B2AEB2B242D6D9710816F0010F33F9E7
:10879000110094F8481004EB010608BF00120131E3
:1087A0003072013584F84810EBE749000722A173C5
:1087B000A08184F8482019449942BCD094F848001C
:1087C00093F9015022181572421CD2B284F8482045
:1087D000224433F8025B1572023084F84800EBE75C
:1087E0006FF00100ADE74FF0FF30AAE76FF0020035
:1087F000A7E7000038B590F848500446A91E254464
:10880000C9B2FFF707FFAA79EB7943EA022398423E
:1088100006D0B4F854300133A4F85430FF2038BDEA
:1088200094F90930617A002B06DAB4F85430013338
:10883000A4F85430FB20F2E7094A082312F8010B90
:1088400081420AD0013B13F0FF03F7D1B4F8543052
:108850000133A4F854300120E1E70020DFE700BF36
:10886000620B030870B50021837ACAB2934211D912
:108870005508C46C861834F91530F67AD2074BBF08
:10888000DBB203F47F4343EA0623334324F8153075
:108890000131E9E770BD10B50022D1B2847A4B00F6
:1088A0000333B1EB540FDBB209D20344C16C1C7A21
:1088B0005B7A43EA042321F812300132EDE710BD60
:1088C00038B50446006803681B699847054605F0FB
:1088D000C9F8E36DC01AB4F85630984209D94FF47C
:1088E0007F43E380B4F854300133A4F854300020BF
:1088F00038BD15F0FF05FAD094F84930AB4205D0E9
:1089000084F8495005F0AEF8A065F0E705F0AAF844
:10891000A36DC01A0428EAD9002584F849502046DE
:10892000FFF747FE052806DCB4F85430A571013383
:10893000A4F85430DCE72046FFF75CFF10B1A571C6
:1089400040B2D5E7637A022B04D833B12046FFF753
:1089500089FF02E0033B012B04D9002394F948006E
:10896000A371C5E72046FFF796FFF6E710B598B06C
:108970001446A1490EA804F0BFFF0023CDE914332B
:10898000CDE91633636E012B06D19C492068FDF7B3
:10899000F7FB18B102240CE2002BFBD1984999484F
:1089A00005F018F89849974805F014F864200FF07E
:1089B00023F8964911A804F0B7FE11A90EA804F0F7
:1089C000ADFF11A804F052FF0EA804F0D1FF0E9ADB
:1089D0008F498C4804F0FEFF8B498A4804F0FAFF67
:1089E00064200FF009F88B4911A804F07DFE119A5C
:1089F0008949844804F0EEFF11A804F037FF82494A
:108A0000804804F0E7FF64200EF0F6FF834B8449B2
:108A10005A687C484FF47A73B2FBF3F204F0DAFF41
:108A20007949784804F0D6FF64200EF0E5FF7D48D0
:108A300004F0CCFD7C4B7D4953F82020044671485E
:108A400004F0C8FF70496F4804F0C4FF64200EF0C2
:108A5000D3FF012C40F0B381754804F097FD754BAE
:108A6000754A7649002808BF1A46664804F0B2FFE6
:108A70006549644804F0AEFF64200EF0BDFF704805
:108A800004F098FD6F49024604465E4804F0A2FFD8
:108A90005D495C4804F09EFF64200EF0ADFF6A4B18
:108AA0006A4953F82420574804F094FF5649554822
:108AB00004F090FF64200EF09FFF654804F05FFD16
:108AC0000446002800F0D48062494E4804F082FF3A
:108AD0004D494C4804F07EFF64200EF08DFF0822C3
:108AE00014A95D4804F032FD9DF8573005939DF8B8
:108AF000563004939DF8553003939DF854300293FB
:108B00009DF8533001939DF852309DF85020534901
:108B100000933C489DF8513004F05CFF3A493948D5
:108B200004F058FF64200EF067FF082214A94C4897
:108B300004F0E8FC9DF8573005939DF856300493F7
:108B40009DF8553003939DF8543002939DF85330AF
:108B500001939DF852309DF85020424900932948D6
:108B60009DF8513004F036FF2749264804F032FFC3
:108B700064200EF041FF102214A93B4804F0CBFC06
:108B80009DF85F300D939DF85E300C939DF85D303D
:108B90000B939DF85C300A939DF85B3009939DF828
:108BA0005A3008939DF8593007939DF85830069332
:108BB0009DF8573005939DF8563004939DF8553035
:108BC00003939DF8543002939DF8533001939DF820
:108BD000523000939DF850209DF8513023490948A8
:108BE00004F0F8FE0849074804F0F4FE64200EF093
:108BF00003FF0024DDE000BFD6060308783E03082B
:108C0000750B0308181F0020D4060308A81F0020B6
:108C1000840B03086C1F00208F0B03080800002042
:108C20009B0B0308F81F002010000020AB0B03086B
:108C3000DF1F00206A0B0308E21B0308BB0B0308BD
:108C4000F51F0020C60B03081C000020D10B0308F1
:108C5000DE1F0020DC0B0308D91F0020E60B0308F1
:108C6000D51F00200E0C0308D61F0020360C030869
:108C70009149924804F0AEFE9149904804F0AAFE52
:108C800064200EF0B9FE102214A98E4804F04CFCAA
:108C90009DF85F300D939DF85E300C939DF85D302C
:108CA0000B939DF85C300A939DF85B3009939DF817
:108CB0005A3008939DF8593007939DF85830069321
:108CC0009DF8573005939DF8563004939DF8553024
:108CD00003939DF8543002939DF8533001939DF80F
:108CE00052309DF850207849009374489DF85130D7
:108CF00004F070FE7249714804F06CFE64200EF0BE
:108D00007BFE102214A9714804F029FC9DF85F3005
:108D10000D939DF85E300C939DF85D300B939DF89C
:108D20005C300A939DF85B3009939DF85A300893A4
:108D30009DF8593007939DF8583006939DF85730A9
:108D400005939DF8563004939DF8553003939DF894
:108D5000543002939DF8533001939DF852309DF8A2
:108D600050205B49009355489DF8513004F032FE85
:108D70005349524804F02EFE64200EF03DFE0422BA
:108D800014A9544804F0D9FB9DF8533001939DF881
:108D9000523000939DF850209DF851304E4947487D
:108DA00004F018FE4649454804F014FE64200EF015
:108DB00023FE0EA804F05AFD204618B010BD474807
:108DC000002C52D104F023FB454902463B4804F0F5
:108DD00001FE3B49394804F0FDFD64200EF00CFE15
:108DE000404804F016FB40490246344804F0F2FDC6
:108DF0003349324804F0EEFD64200EF0FDFD3B489F
:108E000004F009FB3A4902462C4804F0E3FD2C49E2
:108E10002A4804F0DFFD64200EF0EEFD354804F032
:108E2000FCFA35490246254804F0D4FD244923487C
:108E300004F0D0FD64200EF0DFFD304804F0EFFABE
:108E40002F4902461D4804F0C5FD1D491B4804F08A
:108E5000C1FD64200EF0D0FD2A4804F0E2FA2A4950
:108E60000246164804F0B6FD9CE704F0D0FA1C490F
:108E70000246124804F0AEFD1149104804F0AAFD64
:108E800064200EF0B9FD214804F0E0FA20490246C2
:108E90000A4804F09FFD0A49084804F09BFD64203D
:108EA0000EF0AAFD1B4804F0D3FA1B490246034802
:108EB00004F090FD96E600BF7E0C0308181F00200A
:108EC000D4060308D71F0020870C0308DB1F0020EF
:108ED000D00C0308D81F0020180D03080420002020
:108EE000310D030805200020400D03080620002056
:108EF000480D030807200020500D0308082000201B
:108F0000580D0308092000206D0D03080D200020D6
:108F10007B0D03080E200020880D030807B50323EE
:108F20000193054B0093054B054A0648194604F08A
:108F300019FC03B05DF804FB9D8F0008960D030833
:108F40009E0D0308CE1F002007B502230193054B99
:108F50000093054B054A0648194604F003FC03B08C
:108F60005DF804FB6D890008F10D0308F80D030896
:108F7000CE1F002008B50021064A0748082304F048
:108F800008FC014620B9034A0348082304F001FC09
:108F9000012008BD08000020CF1F0020536E012BC8
:108FA0002DE9F041884603D002242046BDE8F08137
:108FB00016682249224D3046FDF7E2F86F680446F4
:108FC00080B942461F4920484FF47A73B7FBF3F348
:108FD00004F000FD1D491C4804F0FCFC64200EF068
:108FE0000BFDE2E73046FDF7D5F8324630449042BB
:108FF00005D012F8013B303B092BF8D9D4E70A22FF
:109000000021304601F02EFB4FF47A735843104B89
:109010009842C9D9686000210E4804F0D8FB6A68FC
:1090200022B100230B48194604F0C7FB6B689F422E
:1090300001D0FFF79FFF0024B7E700BF783E030889
:10904000080000200F0E0308181F0020D406030894
:109050007F4F1200D11F002037B50024AA250C48ED
:109060008DF8005008236A462146019404F087FBDE
:1090700048B19DF80030AB42064B06D01D705C60D5
:10908000FFF778FF204603B030BD019A5A60FAE737
:10909000CF1F00200800002010B5074B53F82020F8
:1090A000002332F813408C42D8B203D80133102B7E
:1090B000F7D1184610BD00BFD000002038B50446D7
:1090C000002508462171A57100F016FD657120602C
:1090D000204638BD10B50446006800F015FD204656
:1090E00010BD002343717047407970470068704796
:1090F0008E294ED8702903D8032943D80120704700
:1091000071391D2945D801A353F821F0FD900008BD
:1091100093910008FD900008FD900008FD90000864
:10912000FD90000893910008FD900008FD90000854
:10913000939100089391000893910008FD90000816
:109140009391000893910008FD9000089391000806
:10915000FD900008FD900008FD900008FD900008BB
:10916000FD900008FD900008FD9000089391000814
:10917000939100089391000893910008939100083F
:10918000FD900008A1F1640004288CBF002001209C
:1091900070470020704700BF882918D8702906D86A
:1091A00003290FD8012994BF00200120704771398D
:1091B0000123C9B203FA01F1064B194214BF012081
:1091C00000207047A1F167035842584170470020C2
:1091D000704700BF0101A000F8B504460D461E46C9
:1091E000FFF786FF10B90223A371F8BD8E2D98BF3B
:1091F000174B607998BF595D94F804C094BF154B24
:10920000002100EB010707F1010794BF33F8153087
:109210000B46674503DB0123A3710020E5E7734399
:109220002668471C6771325462792068561C667143
:109230008554002201326079D5B28D42084404D8A9
:109240002568801A2B541B0AF4E7C0B26071CCE782
:10925000760E0308060F030808B513460A467D215B
:10926000FFF7BAFF08BD00002DE9F84F04460E468F
:1092700090461D46FFF73CFF18B90223A371BDE8D5
:10928000F88F8E2E98BF2C4B94F805909CBF9F5D55
:109290002A4B227994BF33F816B0002709EB070355
:1092A00003F1010388BFBB46934203DB0123A37193
:1092B0000020E4E700212846FDF75AFF0021B0F125
:1092C000000A284618BF4FF0010AFDF751FF08B108
:1092D00005F100455846FDF755FD2946FDF7AAFD65
:1092E000FDF76EFF314605462046FFF755FF40B1BA
:1092F000BAF1000F05D0FA0001239340581E054033
:109300005D1B236809F10102627103F8098063792A
:109310002268591C6171D654002201326379D1B29E
:10932000B9423B4404D821689B1ACD542D0AF4E776
:10933000D8B26071A3E700BF760E0308060F0308DA
:1093400008B513460A460321FFF78EFF08BD08B58E
:1093500013460A466721FFF787FF08BD08B5134685
:109360000A466821FFF780FF08BD08B513460A4684
:109370007421FFF779FF08BD03F012BA03F015BAA4
:1093800070470000BFF34F8F0549064BCA6802F4CF
:10939000E0621343CB60BFF34F8F00BFFDE700BF18
:1093A00000ED00E00400FA0570B5002386B0CDE9B9
:1093B00004334FF0B0420F4DD16C41F00201D16443
:1093C000D26C039302F002024FF48056009201A97E
:1093D0002846CDE90163009A10F09AFE31462846EE
:1093E00010F0B6FF31460446284610F03DFF2046F7
:1093F00006B070BD000400480D2070474FF0B04328
:1094000082B0DA6C0243DA64DB6C18400190019B95
:1094100002B070472DE9F04186B01422002101A866
:1094200000F088FB0220FFF7E9FF144D144F0420E1
:10943000FFF7E4FF4FF4807601230024CDE90163B8
:1094400001A903232846CDE903434FF4005810F047
:109450005FFE01A93846CDF8048010F059FE22467F
:109460004146384610F07AFF28462246314610F031
:1094700075FF204606B0BDE8F08100BF000400483B
:1094800000080048032810B50ED8012810D868B984
:1094900002460B484FF4807110F060FF002209482B
:1094A0004FF4005110F05AFF002010BD0122F0E7E8
:1094B000002203484FF4807110F050FF0122EEE7C4
:1094C0000004004800080048022070470020704750
:1094D0000120704710B59AB04822002108A800F07A
:1094E00029FB1822002102A800F024FB10F048FFFD
:1094F0004FF0B0420024D2F8903023F01803C2F8A5
:109500009030D2F8003423F4C06343F40073C2F8FF
:109510000034D2F80034119403F4C06301934FF483
:109520008072019B0C922E234022089381230B937F
:109530000D920123B02208A8CDE90E3410931292A7
:10954000139411F06FF808B103F07EFA4F23022153
:1095500002A8CDE90234CDE90444CDE9064411F076
:1095600001FB08B103F070FA1AB010BD13B503780F
:10957000082B11D8DFE803F0128287108E8E0510B9
:109580009200047920460CF0B1FF20460CF02EFF2B
:10959000002120460CF0B2FF02B010BD00200CF0FC
:1095A000A5FF012839D101200CF0A0FF012804D02B
:1095B00001200EF061FE00283DDC02200CF096FF39
:1095C0000128E9D002200EF057FE0028E4DD012238
:1095D00001A902200EF004FD02200CF087FF0028F4
:1095E000F0D102200EF010FE00283FD19DF80410AB
:1095F00002200CF067FEE5E7012201A900200EF031
:10960000EFFC00200CF072FF044630B90EF0FCFDB8
:1096100048B99DF804100CF055FE00200EF02CFE09
:109620000028E9DCBFE70128F7D19DF804102046A7
:109630000EF042FDF1E7012201A910460EF0D0FC28
:1096400001200CF053FF0028B2D101200EF0DCFD08
:1096500028B99DF8041001200CF034FEA8E7012879
:10966000A6D19DF804100EF027FDA1E70128A9D18D
:109670009DF8041002200EF01FFDA3E717F082FEF4
:1096800004F086FA88E7074B1B68002B84D04068FB
:10969000984781E740680EF09DFE7DE740680EF038
:1096A00011FB79E7746A002030B52D4B2D4A9A6082
:1096B00085B00EF0C3FEFFF70DFF4FF0B0430B2057
:1096C0009A6C42F004029A649A6C02F004020392CB
:1096D000039A9A6C42F001029A649B6C002203F098
:1096E000010311460293029B0FF010FB0B200FF0B9
:1096F0003FFB0EF051FE0EF027F90DF001F80024AB
:1097000001460546234603220120CDE900440EF020
:1097100093FB2346032229460220CDE900440EF0A4
:109720008BFB0CF0AFFE0DF099F806F0C1F9E5B235
:1097300028460CF0DBFE10B928460CF057FE013429
:10974000032CF4D10EF00CFE0DF0A8FD012804D17D
:1097500005B0BDE8304006F0A7BC05B030BD00BF85
:1097600000ED00E0006000080EF008BEF7B5FFF75E
:109770009BFF4FF0B0432E4EDA6C2E4C42F00202AB
:10978000DA64DB6C03F002030193019B08F0BEFC7A
:10979000294B341B1427474300251C44BD4223D3C7
:1097A00002F01EF9FFF700FE98B3244804F0AEF96A
:1097B000234B24481A68244B196804F0A7F923485E
:1097C0000EF0D2FB04F096FD012824D0022824D00C
:1097D00010B91F480EF0C8FB1E4C0EF0CFFD2378C9
:1097E000EBB902F0FFF8F8E76A46042160190EF0C1
:1097F0001DF969463246042312F801CB11F8010B1A
:10980000844518BF02F8010C013BF5D1043504363C
:10981000C4E71148CAE71148DCE71148DAE70CF061
:10982000ABFE0028D9D000200EF0D0FAD5E700BF5B
:10983000C404002000000020104603082410030880
:109840008C0100203A100308A40100204A100308EC
:109850005E100308001100202F1003086A1003088F
:1098600075100308054808B50823036011F048FD8A
:1098700018B1BDE8084003F0E7B808BD5C630020FC
:109880004FF0B04307B55A6E42F001025A665B6E64
:10989000002203F00103019311463220019B0FF0D7
:1098A00035FA322003B05DF804EB0FF061BA000026
:1098B000024B9868024BC043186070470028004074
:1098C00004110020014B1868704700BF04110020EC
:1098D000034B044A9B681068DB43181A704700BFAB
:1098E0000028004004110020034B187810B1034BEE
:1098F0009868C043704700BF011100200028004055
:109900000320704708B501464FF47A720023C00364
:10991000490CFDF775FC08BD4FF47A72A0FB0223D9
:10992000D00B40EA4340704710B5074B074C01226B
:10993000DA654FF48071204611F012FA4FF0FF33D0
:109940002363002010BD00BF00280040A865002050
:1099500002460021014811F018BC00BFA865002094
:1099600002460121014811F010BC00BFA86500208B
:1099700010B58CB02C220021044601A800F0DAF8C2
:10998000FFF7D2FF0C4B186800230444089306939A
:109990004FF00053E4430793084802944FF4807358
:1099A000012201A90B9311F0F1FA08B103F04CF870
:1099B00000200CB010BD00BF04110020A8650020DD
:1099C0000C4B70B59C68064602210B4811F0E4FB75
:1099D000E44300221219C2F30E044FF47A71A4FB7F
:1099E000014540F10003E40BD00B348040EA4340D2
:1099F00070BD00BF00280040A8650020014800217C
:109A000011F0CABBA86500200148012111F0C4BBB8
:109A1000A8650020F8B5114E3578E5B9104C2A46F6
:109A200029464FF0FF372846276302F023FEFFF751
:109A30007BFF4FF48071204611F092F92046276396
:109A400011F04EFB2A460221204611F09EFBFFF743
:109A50002FFF012333700020F8BD00BF011100204B
:109A6000A865002014F0CEBE10B5064C0221204699
:109A700011F092FB0221421C2046BDE8104011F07B
:109A800084BB00BFA86500200B460146184600F0C5
:109A900001B8000010B504460448134620B10A4638
:109AA00002202146AFF3008010BD00BF000000007F
:109AB00070B50D4D0D4C641BA4100026A64209D1B3
:109AC0000B4D0C4C26F080FC641BA4100026A64213
:109AD00005D170BD55F8043B98470136EEE755F8BF
:109AE000043B98470136F2E7F8450308F8450308B8
:109AF000F845030808460308024B0146186800F0C1
:109B00006FB800BFA8010020024B0146186800F0A2
:109B100019B800BFA80100200A44914200F1FF33A8
:109B200000D1704710B511F8014B03F8014F914275
:109B3000F9D110BD02440346934200D1704703F8A7
:109B4000011BF9E738B50546002945D051F8043C1A
:109B50000C1F002BB8BFE41801F0F0FB1F4A13687C
:109B6000104633B9636014602846BDE8384001F000
:109B7000EBBBA3420BD921686218934204BF1A6859
:109B80005B68636004BF521822600460ECE71A4609
:109B90005B680BB1A342FAD911685018A0420BD1EF
:109BA00020680144501883421160DDD118685B6859
:109BB000536001441160D7E702D90C232B60D3E72F
:109BC000206821188B4204BF19685B68636004BF7A
:109BD000091821605460C7E738BD00BF0811002094
:109BE000F8B5CD1C25F0030508350C2D38BF0C2524
:109BF000002D064601DBA94203D90C233360002067
:109C0000F8BD01F09BFB21490A6814469CB9204F1E
:109C10003B6823B92146304600F098FC386029465D
:109C2000304600F093FC431C23D10C2333603046B4
:109C300001F08AFBE3E723685B1B17D40B2B03D9E6
:109C400023601C44256004E06368A2420CBF0B60E3
:109C50005360304601F078FB04F10B00231D20F027
:109C60000700C21ACCD01B1AA350C9E72246646869
:109C7000CCE7C41C24F00304A042E3D0211A3046F0
:109C800000F064FC0130DDD1CFE700BF08110020F7
:109C90000C1100202DE9F04788B0002B1F46144618
:109CA000B8BF03F10043129A109DDDF84CA0B6BF77
:109CB0001F4600232D231370149B23F02008B8F1B6
:109CC000460F05D0B8F1450F00D10135022300E061
:109CD000032307AA049206AACDE902A2CDE9003522
:109CE00022463B4600F054FDB8F1470F064602D12C
:109CF000119BDB0722D5B8F1460F06EB050910D101
:109D00003378302B0AD10022002320463946FCF755
:109D1000C3FE18B9C5F10105CAF80050DAF80030E1
:109D200099440022002320463946FCF7B5FE08B1CD
:109D3000CDF81C903022079B4B4507D3079B159A03
:109D40009B1B3046136008B0BDE8F087591C079193
:109D50001A70F0E7F7B503460029B8BF494203F887
:109D6000022BB4BF2D222B22092942702ADD0DF1CE
:109D70000704A4460A27A6460A4691FBF7F607FB06
:109D800016153035632A04F1FF340EF8015C3146B4
:109D9000F1DC3031AEF1020504F8011C441C294607
:109DA00061450AD30DF10902A2EB0E02654588BF99
:109DB00000221344181A03B0F0BD11F8012B04F867
:109DC000012FEDE7302330318370C170031DF1E7BF
:109DD0002DE9F04F91B00C46DDF8688016461F461D
:109DE000054601F0A7FA036809931846FCF7D2F973
:109DF00000230E93D8F800300A90073323F00703AE
:109E000003F1080294F81890D4F800B0C8F80020C4
:109E1000D3E90023C4E91223D4E9128A2AF00043CB
:109E20000B930B999C4B4FF0FF324046FCF766FEBC
:109E300070BB994B0B994FF0FF324046FCF740FE48
:109E400030BB0022002340465146FCF72FFE10B1E4
:109E50002D2384F84330914B9148B9F1470F94BFBB
:109E600098468046032323612BF0040323604FF0C0
:109E7000000A009733460FAA2146284600F0D2F97F
:109E8000013040F08F804FF0FF3011B0BDE8F08F0F
:109E90004246534640465146FCF730FE40B1BAF1C7
:109EA000000FBCBF2D2384F843307E487E4BD4E79F
:109EB00063685A1C09F0DF0142D106236360002267
:109EC00006920EAACDE904920DAA4BF48063039288
:109ED0000DF13302CDE901322360636800934246FD
:109EE000534628460B91FFF7D5FE0B99472980462C
:109EF0000D9908D1C81C02DB6368994240DDA9F1C5
:109F000002095FFA89F9B9F1650F1FD801394A468C
:109F100004F150000D91FFF71DFF0E9A1318012A4E
:109F20008246236102DC2268D20701D50133236116
:109F30009DF83330002B9CD02D2384F8433098E7D4
:109F40004729BCD1002BBAD10123B7E7B9F1660F7D
:109F500018D1002963680BDD216113B92268D0078D
:109F600002D501330B442361A1654FF0000ADFE7FE
:109F700013B92268D20701D50233F4E70123F2E7CF
:109F80004FF067090E9B994205DB23682161D807D2
:109F9000EAD54B1CE7E70029D4BFC1F10202012238
:109FA0001344E0E723685A0507D423694246314643
:109FB0002846B84701302BD165E7B9F1650F40F26B
:109FC000DC80D4E9120100220023FCF765FD0028A3
:109FD00033D0364A012331462846B84701303FF492
:109FE00052AFDDE90D239A4202DB2368D8070FD573
:109FF000DDE9092331462846B84701303FF443AF35
:10A000004FF0000804F11A090E9B013B434509DC9F
:10A0100023689B0700F10181E0680F9B9842B8BF5D
:10A02000184632E701234A4631462846B8470130F0
:10A030003FF429AF08F10108E6E70D9B002B37DC60
:10A040001A4A012331462846B84701303FF41BAF76
:10A05000DDE90D23134302D12368D907D8D5DDE903
:10A06000092331462846B84701303FF40CAF4FF082
:10A07000000904F11A0A0D9B5B424B4501DC0E9B63
:10A0800094E70123524631462846B84701303FF451
:10A09000FAAE09F10109EEE7FFFFEF7FB511030802
:10A0A000B9110308C1110308BD110308070803080B
:10A0B0000E9AA36D9A42A8BF1A46002A914637DC31
:10A0C0004FF0000B29EAE97904F11A02D4F858A0FC
:10A0D000AAEB09035B4533DCDDE90D239A423BDB48
:10A0E0002368DA0738D40E9A0D99A2EB0A03A2EB83
:10A0F00001099945A8BF9946B9F1000F34DC4FF02A
:10A10000000829EAE97904F11A0ADDE90D239B1A0E
:10A11000A3EB090343457FF77BAF0123524631464A
:10A120002846B84701303FF4AEAE08F10108ECE72D
:10A130001346314642462846B8470130C0D1A2E610
:10A140000123314628460B92B84701303FF49BAEBD
:10A150000B9A0BF1010BB9E7DDE9092331462846DB
:10A16000B8470130BFD18EE64B4608EB0A023146B4
:10A170002846B8470130C2D185E60E9A012A01DC93
:10A18000DB0737D50123424631462846B847013020
:10A190003FF479AEDDE9092331462846B84701305E
:10A1A0003FF471AED4E9120100220023FCF774FCE5
:10A1B000D8B90E9B08F10102013B31462846B84749
:10A1C00001300ED15FE601234A4631462846B847A2
:10A1D00001303FF458AE08F101080E9B013B4345A6
:10A1E000F1DC534604F15002E1E64FF0000804F1BF
:10A1F0001A09F2E701234246DFE701234A463146C6
:10A200002846B84701303FF43EAE08F10108E36844
:10A210000F995B1A4345F0DCFEE64FF0000804F1AD
:10A220001909F4E72DE9F047164699468A680B6943
:10A23000DDF820809342B8BF1346336091F8432085
:10A2400007460C460AB1013333602368990642BFC2
:10A25000336802333360256815F0060506D104F132
:10A26000190AE36832689B1AAB4226DC94F8432053
:10A27000131E226818BF012392062BD404F1430257
:10A2800049463846C04701301ED02368E568326829
:10A2900003F00603042B08BFAD1AA36822690CBFA4
:10A2A00025EAE57500259342C4BF9B1AED180026E8
:10A2B0001A34B5421AD1002008E00123524649461B
:10A2C0003846C047013003D14FF0FF30BDE8F0877A
:10A2D0000135C6E7E1185A1C302081F843002244BA
:10A2E00094F8451082F843100233C7E70123224651
:10A2F00049463846C0470130E6D00136D9E700006C
:10A300002DE9FF470C469146277E0C99782F804611
:10A310009A4604F1430207D8622F0AD8002F00F0B2
:10A32000D880582F00F0A38004F1420684F84270D0
:10A330003AE0A7F16303152BF6D801A050F823F0FB
:10A3400099A30008ADA3000829A3000829A30008C9
:10A3500029A3000829A30008ADA3000829A3000829
:10A3600029A3000829A3000829A30008B9A400080C
:10A37000DDA300089BA4000829A3000829A3000866
:10A38000DBA4000829A30008DDA3000829A3000816
:10A3900029A30008A3A400080B681A1D1B680A6003
:10A3A00004F1420684F842300123A3E025680868DE
:10A3B0002E0600F104030AD505680B60002D03DAB0
:10A3C0002D236D4284F843305E480A2319E015F0CE
:10A3D000400F05680B6018BF2DB2EFE70B682568CA
:10A3E000181D0860280601D51D6802E06906FBD526
:10A3F0001D8854486F2F0CBF08230A23002184F8BE
:10A4000043106668A660002EA2BF216821F00401F7
:10A4100021600DB9002E4DD01646B5FBF3F103FBBC
:10A420001157C75D06F8017D2F46BB420D46F4D992
:10A43000082B0BD12368DF0708D52369616899428F
:10A44000DEBF302306F8013C06F1FF36921B226185
:10A45000CDF800A04B4603AA21464046FFF7E2FE96
:10A4600001304CD14FF0FF3004B0BDE8F0873548E3
:10A4700084F8457023680E681F0656F8045B0E606A
:10A4800014D5D90744BF43F0200323601DB92368C6
:10A4900023F0200323601023B0E7236843F0200358
:10A4A00023607823284884F84530E3E75E0648BFF8
:10A4B000ADB2E6E71646BBE70B68266860691D1D6E
:10A4C0000D6035061B6801D5186002E07106FBD5EA
:10A4D0001880002323611646BAE70B681A1D0A602C
:10A4E0001E68626800213046FBF762FE08B1801BDF
:10A4F000606063682361002384F84330A8E7236920
:10A50000324649464046D0470130ABD023689B07CE
:10A5100013D4E068039B9842B8BF1846A4E7012310
:10A52000324649464046D04701309BD00135E3686A
:10A5300003995B1AAB42F2DCEBE7002504F1190644
:10A54000F5E700BFC5110308D611030838B5064D5D
:10A550000023044608462B6001F034FA431C02D164
:10A560002B6803B1236038BD686300202DE9F043F8
:10A570003B4E86468C4660461CF8014BA55D15F0A7
:10A580000805F8D12D2C34D19CF800404FF001087B
:10A5900000F1020C002B5ED0102B0CD1302C0AD114
:10A5A0009CF8000000F0DF0058284FD19CF80140D3
:10A5B00010230CF1020C4FF0FF370025B7FBF3F727
:10A5C00003FB07F96FEA09092846A4F13006092EB2
:10A5D00018D83446A34224DD002D1FDB87421DD34B
:10A5E00001D1A1451ADB00FB034001251CF8014BFA
:10A5F000EBE72B2C08BF9CF80040A84608BF00F1F1
:10A60000020CC7E7A4F14106192E01D8373CE1E757
:10A61000A4F16106192E04D8573CDBE74FF0FF3553
:10A62000E4E7002D07DA2223CEF800304FF0FF30A8
:10A6300042B9BDE8F083B8F1000F00D04042002AD3
:10A64000F7D00DB10CF1FF311160F2E73024002B8F
:10A65000B1D10823AFE7302CA2D00A23ABE700BF6B
:10A66000E811030813460A46014602480068FFF74E
:10A670007DBF00BFA80100202DE9F74F03690C69D9
:10A68000A3420746C0F28180013C01F1140800F1A9
:10A69000140505EB8403019358F8243055F8242061
:10A6A00001339A424FEA840B08EB8409B2FBF3F6BC
:10A6B00031D34FF0000E4046AC46F24650F8042B22
:10A6C00093B206FB03E34FEA134E9BB2AAEB0303DC
:10A6D000120CDCF800A006FB02E213FA8AF34FEA40
:10A6E000124E1FFA82FADCF80020CAEB124202EB8B
:10A6F00023429BB243EA024381454CF8043B4FEAB4
:10A70000224ADBD255F80B302BB9019B043B9D420A
:10A710001A462ED33C61384601F045F8002824DB68
:10A72000013628464FF0000C58F8042BD0F800E012
:10A7300093B2ACEB0303120C13FA8EF3C2EB1E427E
:10A7400002EB23429BB243EA0243C14540F8043B7B
:10A750004FEA224CE8D255F8242005EB840322B9B5
:10A76000043B9D421A460AD33C61304603B0BDE823
:10A77000F08F1268043B002ACCD1013CC7E7126875
:10A78000043B002AF0D1013CEBE70020EEE700009B
:10A790002DE9F04F446A99B016461F46CDE904678B
:10A7A000DDF8948005463CB91020FFF7A5F9C0E913
:10A7B000014468620460C4606B6A196851B15A68E8
:10A7C0004A60012393408B60284600F0F7FD6B6AD6
:10A7D00000221A603B1EB9BF23F0004305930023FB
:10A7E000C8F80030DDF81490A74BBCBF0122C8F8B0
:10A7F000002033EA090319D1249A42F20F7313603F
:10A80000C9F31303334300F06D85269B53B99F4B67
:10A8100023E09F4B03930833269A1360039819B0E3
:10A82000BDE8F08F994B03930333F5E7DDE904347A
:10A83000CDE90C34DDE90C0100220023FCF72CF9F2
:10A84000804660B1249A01231360269B002B00F000
:10A850004685904B269A1360013B0393DEE716ABC7
:10A86000019317AB00932846DDE90C2301F02CF887
:10A87000C9F30A548346002C7ED00D9BCDF84C8042
:10A88000C3F31303DDE90C0143F07F5141F44011A0
:10A89000A4F2FF34804B0022FBF7DEFC74A3D3E963
:10A8A0000023FBF791FE74A3D3E90023FBF7D6FC4A
:10A8B000064620460F46FBF71DFE71A3D3E9002391
:10A8C000FBF782FE02460B4630463946FBF7C6FCD4
:10A8D00006460F46FCF728F9002282460023304640
:10A8E0003946FCF7E3F848B15046FBF703FE324621
:10A8F0003B46FCF7D1F808B90AF1FF3ABAF1160F56
:10A9000057D8664B03EBCA03D3E90023DDE90C01FA
:10A91000FCF7CCF800284ED00AF1FF3A00230F9341
:10A92000169B1C1B631E099345BFC4F101030693CC
:10A93000002300234CBF09930693BAF1000F3CDBC0
:10A94000099BCDF838A05344099300230A93229B16
:10A95000092B00F2B580052BC4BF043B2293229B38
:10A96000A3F10203CCBF00240124032B00F2B48026
:10A97000DFE803F02D987AA4DDE916431C4404F2C5
:10A980003243202BC3BFC3F1400304F2124009FA43
:10A9900003F3C3F12003C6BF26FA00F0184306FAFA
:10A9A00003F0FBF797FD0123A1F1F871013C13932C
:10A9B00070E70123B3E70F90B2E7069BA3EB0A030E
:10A9C0000693CAF100030A9300230E93BFE7002306
:10A9D0000B93239B002B00F382804FF00109CDF8ED
:10A9E00020904B46CDF88C906E6A00227260042253
:10A9F00002F114009842716877D9284600F0AAFC49
:10AA00006B6A30601B680393089B0E2B00F2EE808C
:10AA1000002C00F0EB80BAF1000F7ADD1F4A0AF03B
:10AA20000F0302EBC303D3E900341AF4807FCDE9AE
:10AA300010344FEA2A145CD0194BDDE90C01D3E93C
:10AA40000823FBF7EBFECDE9040104F00F04032714
:10AA5000134E002C4FD1DDE91023DDE90401FBF793
:10AA6000DDFECDE904016EE00123B1E7AFF3008024
:10AA700061436F63A787D23FB3C8608B288AC63F04
:10AA8000FB799F501344D33F0000F07FF11203087D
:10AA9000E8120308080803080000F83F2013030821
:10AAA000F812030800230B93239B0AEB030909F117
:10AAB0000103012B0893B8BF012395E70123F2E7B7
:10AAC0000124002322930B944FF0FF390022CDF88C
:10AAD00020901223239287E701230B93F4E7DDF8FC
:10AAE0008C90CDF820904B467EE70131716052008A
:10AAF0007EE70227ACE7E10708D5DDE91001D6E9DA
:10AB00000023FBF761FDCDE9100101376410083621
:10AB10009FE700F0A580CAF10004A44BA44E04F006
:10AB20000F0203EBC203D3E90023DDE90C01FBF7BD
:10AB30004BFDCDE90401241100230227002C40F035
:10AB40008480002B8DD10F9B002B00F08B80DDE9E2
:10AB50000434CDE91034DDE91001964B0022FBF7F7
:10AB6000A5FF00287ED0089B002B7BD0B9F1000FF9
:10AB700038DDDDE91001904B0022FBF725FDCDE922
:10AB800004010AF1FF3801374C463846FBF7B2FCA6
:10AB9000DDE90423FBF718FD884B0022FBF75EFB81
:10ABA000A1F15076CDE910011196002C5DD1DDE9BF
:10ABB0000401834B0022FBF74FFB02460B46CDE915
:10ABC0000423109A3346FBF78FFF002840F097824A
:10ABD000DDE90401109A06F10043FBF767FF002846
:10ABE00040F08B82DDE90C34CDE90434179B002B57
:10ABF000C0F25181BAF10E0F00F34D816B4B03EBA4
:10AC0000CA03D3E90034CDE90634239B002B80F23C
:10AC1000DB80089B002B00F3D78040F06D82684BEF
:10AC20000022DDE90601FBF7CFFCDDE90423FBF799
:10AC300051FF089C2646002840F04382039F3123A1
:10AC400007F8013B0AF1010A3FE2E20705D5D6E920
:10AC50000023FBF7B9FC01370123641008366DE7C8
:10AC6000022770E7089CD0468FE703994F4B214499
:10AC700012910B9903EBC403DDE9106753E902233A
:10AC8000002946D04F490020FBF7C8FD3B4632461D
:10AC9000FBF7E2FACDE91001039FDDE90401FBF7C0
:10ACA00043FF0446FBF726FC02460B46DDE90401A0
:10ACB000FBF7D2FA303402460B46CDE9042307F8FD
:10ACC000014BDDE91023FBF7F1FE002865D1DDE93A
:10ACD000042338490020FBF7BFFADDE91023FBF716
:10ACE000E5FE002840F0B680129B9F423FF47AAF09
:10ACF000DDE91001304B0022FBF766FC2E4BCDE95D
:10AD000010010022DDE90401FBF75EFCCDE904013E
:10AD1000C3E730463946FBF757FCCDE91001129BDB
:10AD2000039C1493DDE90401FBF7FEFE1590FBF78D
:10AD3000E1FB02460B46DDE90401FBF78DFA159BAA
:10AD4000303304F8013B129B9C4206460F464FF0FD
:10AD5000000224D11B4BDDE91001FBF77FFA02460C
:10AD60000B4630463946FBF7BFFE002871D1DDE9BE
:10AD7000102314490020FBF76FFA02460B463046B9
:10AD80003946FBF793FE00283FF42CAF149F7B1E3F
:10AD9000149317F8013C302BF8D0C24649E0064B1B
:10ADA000FBF712FCCDE90401BCE700BF2013030848
:10ADB000F81203080000F03F0000244000001C408F
:10ADC000000014400000E03FDDE90489039FDDE955
:10ADD000062340464946FBF721FDFBF7A5FE044646
:10ADE000FBF788FBDDE90623FBF7EEFB04F13006F9
:10ADF0000B46024649464046FBF72EFA07F8016B20
:10AE0000039E089BBE1BB34238D102460B46FBF79C
:10AE100025FADDE9062380468946FBF765FE58BB27
:10AE2000DDE9062340464946FBF736FE08B1E10757
:10AE300022D42846594600F0C1FA00233B70249BD7
:10AE40000AF101001860269B002B3FF4E7AC1F605D
:10AE5000E4E427463B461F4613F8012D392A07D163
:10AE6000039A9A42F7D10399302208F101080A7037
:10AE70001A7801321A7090E7D046EBE7A14B002216
:10AE8000FBF7A2FB0022002380468946FBF704FE65
:10AE900000289CD0CDE70B9A002A00F0CD80229AA2
:10AEA000012A00F3AF80139A002A00F0A78003F272
:10AEB00033430A9C069F069A1A440692099A012176
:10AEC0001A442846099200F01CFB0646002F0CDDB0
:10AED000099B002B09DDBB42069AA8BF3B46D21A4C
:10AEE0000692099AFF1AD31A09930A9BF3B10B9B96
:10AEF000002B00F0A580002C10DD314622462846AC
:10AF000000F0A4FB5A4601460646284600F002FB24
:10AF100059468046284600F051FAC3460A9B1A1B40
:10AF200004D05946284600F091FB8346012128466B
:10AF300000F0E7FA0E9B002B044640F383801A468C
:10AF40000146284600F082FB229B012B04467CDD53
:10AF50004FF00008236904EB8303186900F083FABB
:10AF6000C0F12000099B184410F01F0000F08E80F3
:10AF7000C0F12003042B40F38780C0F11C00069B26
:10AF800003440693099B034407440993069B002B43
:10AF900005DD59461A46284600F0A6FB8346099B64
:10AFA000002B05DD21461A46284600F09DFB04468D
:10AFB0000F9B002B6CD02146584600F0F4FB002874
:10AFC00066DA002359460A22284600F00EFA0B9B47
:10AFD0000AF1FF3A8346002B00F08B8131460023B3
:10AFE0000A22284600F001FAB9F1000F064600F3E4
:10AFF0009180229B022B40F38D8051E0169BC3F180
:10B00000360356E7089B5C1E0A9BA342BFBF0A9B00
:10B010000A94E21A0E9BB6BF9B181C1B0E93089B4A
:10B02000B8BF0024002BB9BF069B089A069F089B57
:10B03000BCBF9F1A00233EE70A9C069F0B9E45E774
:10B040000A9A6EE7229B012B19DC049BBBB9059B76
:10B05000C3F313039BB9059B23F000431B0D1B0592
:10B0600083B1069B01330693099B013309934FF08B
:10B0700001080E9B002B7FF46DAF012072E74FF0AB
:10B080000008F6E79846F4E780D018461C3076E7CB
:10B09000089B002B38DC229B022B35DDDDF820904D
:10B0A000B9F1000F0DD121464B460522284600F08C
:10B0B0009CF901460446584600F075FB00283FF70E
:10B0C000BDAD239B039F6FEA030A4FF000082146A2
:10B0D000284600F073F9002E3FF4ABAEB8F1000F34
:10B0E00005D0B04503D04146284600F067F9314607
:10B0F000284600F063F99CE600242646E1E7C246B4
:10B1000026469BE5000024400B9BDDF82090002B99
:10B1100000F0F680002F05DD31463A46284600F063
:10B12000E3FA0646B8F1000F55D07168284600F0E2
:10B1300011F9326902320746920006F10C010C3017
:10B14000FEF7EAFC01223946284600F0CDFA039BBF
:10B1500001330893039B4B440A93049B03F00103C0
:10B16000B04609930646089B2146013B5846049386
:10B17000FFF782FA034630330690414658460B9358
:10B1800000F011FB324681462146284600F026FB9E
:10B19000C2680B9B074602BB0146584600F003FB02
:10B1A0000B9B024639462846CDE90B3200F006F9E2
:10B1B000229B0C9A089F43EA0201099B0B430B9BBD
:10B1C0000DD1392B29D0B9F1000F01DD069B3133A8
:10B1D000049A13707BE73046B9E70122E2E7B9F140
:10B1E000000F06DB229941EA0909099959EA010190
:10B1F00020D1002AECDD594601222846089300F0B0
:10B2000073FA2146834600F0CEFA0028089B02DC40
:10B21000DED1DA07DCD5392BD8D1049A3923137063
:10B220003B461F46013B17F8012C392A50D001320A
:10B230001A704CE7002A03DD392BEED00133C7E743
:10B24000089A0A9902F8013C8A422AD059460023FA
:10B250000A22284600F0C9F8B04583464FF00003A3
:10B260004FF00A024146284607D100F0BEF880465A
:10B270000646089B0133089375E700F0B6F831469F
:10B28000804600230A22284600F0AFF80646F0E781
:10B29000B9F1000F039ACCBF4F46012717444FF076
:10B2A0000008594601222846089300F01DFA21465D
:10B2B000834600F078FA0028B2DC02D1089BDB0755
:10B2C000AED43B461F4613F8012D302AFAD0FEE6D5
:10B2D000039A9A42A5D10AF1010A312379E7134B67
:10B2E000FFF7BBBA269B002B7FF493AA104BFFF706
:10B2F000B4BAB9F1000F03DC229B022B3FF7D0AEAA
:10B30000039F21465846FFF7B7F900F1300307F8CD
:10B31000013B039ABA1A9145BADD594600230A2225
:10B32000284600F062F88346EBE700BF07080308F1
:10B33000E812030800487047FC020020014800F0B2
:10B3400020BB00BF70630020014800F01BBB00BFA2
:10B350007063002070B5466A04460D463EB9102061
:10B36000FEF7CAFBC0E9016660620660C660666AF5
:10B37000F36883B1636ADB6853F82500B8B901212B
:10B3800001FA05F6721D9200204600F0ECFA60B159
:10B39000C0E901560EE021220421204600F0E3FA24
:10B3A000636AF060DB68002BE4D1002070BD0268A6
:10B3B00043F825200023C0E90333F7E770B5466A58
:10B3C00005460C463EB91020FEF796FBC0E9016623
:10B3D00068620660C6603CB16B6A6268DB6853F8FD
:10B3E0002210216043F8224070BD2DE9F0410E6922
:10B3F000074698460C4601F1140000230568A9B2DF
:10B4000002FB01814FEA114C2D0C02FB05C589B2EC
:10B41000013301EB05419E4240F8041B4FEA1548F9
:10B42000ECDCB8F1000F1BD0A368B34212DC6168FA
:10B4300038460131FFF78EFF2269023204F10C0118
:10B44000054692000C30FEF767FB21463846FFF7B1
:10B45000B5FF2C4604EB86030136C3F81480266141
:10B460002046BDE8F081020C12040346CAB9030469
:10B47000102013F07F4F04BF1B02083013F0704FF1
:10B4800004BF1B01043013F0404F04BF9B00023087
:10B49000002B05DB13F0804F00F1010008BF2020D6
:10B4A00070470020E5E70368024613F007000BD061
:10B4B000D90722D4980749BF5B089B080120136075
:10B4C0005CBF13600220704799B209B91B0C1020B1
:10B4D00013F0FF0F04BF1B0A0830190704BF1B0934
:10B4E0000430990704BF9B080230D90703D45B08D6
:10B4F00000F1010003D01360704700207047202046
:10B50000704710B50C460121FFF724FF012244616A
:10B51000026110BD2DE9F04F15460A692B699A4268
:10B52000B8BF0B460C46BCBF2C461D462769D5F854
:10B530001090A368616807EB0906B342B8BF0131F8
:10B5400085B0FFF707FF00F1140101EB86080B46F9
:10B55000002243451DD304F1140305F1140203EB4B
:10B56000870702EB890302933B1B153B23F0030380
:10B57000043304F11505AF4238BF04230193029B45
:10B580000392934208D8002E5ADC066105B0BDE84C
:10B59000F08F43F8042BDCE7B2F800A0BAF1000FFB
:10B5A00024D004F1140E89464FF0000C5EF8045BC1
:10B5B000D9F800B0ABB21FFA8BFB0AFB03B34FEA1A
:10B5C000154BD9F8005063444FEA154C0AFB0BC5E4
:10B5D00005EB13459BB243EA0543774549F8043B25
:10B5E0004FEA154CE2D8019B41F803C0039BB3F826
:10B5F00002900432B9F1000F20D00B6804F1140C52
:10B600008E464FF0000ABCF80050BEF802B009FBAD
:10B6100005B5AA449BB243EA0A434EF8043B5CF8E2
:10B62000043BBEF800501B0C09FB035303EB1A4309
:10B6300067454FEA134AE6D8019D4B5104319EE716
:10B6400058F8043D002BA0D1013E9CE72DE9F843BA
:10B65000154612F0030206460F4607D0214C013A68
:10B66000002354F82220FFF7C0FE0746AD1035D066
:10B67000746A3CB91020FEF73FFAC0E901447062D9
:10B680000460C460D6F82480D8F808404CB940F271
:10B6900071213046FFF735FF0023C8F80800044643
:10B6A00003604FF00009EB070AD5394622463046C1
:10B6B000FFF730FF394680463046FFF77FFE4746AA
:10B6C0006D100BD0206838B9224621463046FFF76E
:10B6D00021FF2060C0F800900446E4E73846BDE84A
:10B6E000F88300BFE81303082DE9F0470C464968CA
:10B6F000236903EB6218A368074691464FEA621A72
:10B7000008F10106B3423FDB3846FFF723FE002372
:10B71000054600F1140100F110021846534536DBCE
:10B7200020692AEAEA7A04F1140319F01F0901EBEF
:10B730008A0103EB800C2ED0C9F1200E8A4600222C
:10B74000186800FA09F002434AF8042B53F8042B56
:10B750009C4522FA0EF2F3D8ACEB0403153B23F020
:10B760000303043304F11500604588BF0423CA5065
:10B770000AB108F10206013E38462E612146FFF764
:10B780001DFE2846BDE8F08701315B00BAE742F8AC
:10B79000040F0133C2E7043953F8042B41F8042F96
:10B7A0009C45F9D8E7E70A6903460069801A30B575
:10B7B0000DD11433143103EB820401EB820154F8F0
:10B7C000045D51F8042D954202D004D3012030BD10
:10B7D000A342F4D3FBE74FF0FF30F8E72DE9F84F31
:10B7E0000C460646114620461746FFF7DCFF051EAD
:10B7F00008D129463046FFF7ADFD0123C0E90435E5
:10B80000BDE8F88FA4BF3B46274630467968A6BFFF
:10B810001C4600250125FFF79DFD3E69C560256991
:10B8200007F1140104F1140900F1140E07F11002DC
:10B8300001EB860C09EB8505F246002759F8043B1D
:10B8400052F804BF1FFA83F817FA8BF71B0CA7EB0B
:10B850000808C3EB1B4303EB28431FFA88F81F14A7
:10B860004D4548EA03434AF8043BE7D82B1B153BF8
:10B8700023F0030304331534A54238BF04231944CD
:10B8800073449E460D4665450ED30CF10302521AD1
:10B8900022F0030203398C4538BF00221A4452F8C3
:10B8A000043D7BB10661ABE755F8048B17FA88F4C9
:10B8B000221402EB1842A4B244EA02444EF8044BAC
:10B8C0001714E0E7013EEAE72DE9F34101211C46A8
:10B8D000DDE908659046FFF73DFDC4F31303C4F3AB
:10B8E0000A5407462CBB0193B8F1000326D06846E2
:10B8F0000093FFF7D8FD0099F0B1019AC0F1200341
:10B9000002FA03F30B43C2407B610192019BBB61CE
:10B91000002B14BF022101213961C4B1A4F23344C8
:10B920000444C0F1350034602860384602B0BDE8F8
:10B93000F08143F48013D6E77961E7E701A8FFF7C8
:10B94000B2FD019B7B61012139612030E5E707EB06
:10B950008103A0F2324030601869FFF784FDC0EB2C
:10B9600041112960E1E738B502FB01F52946FEF7F0
:10B9700037F9044618B12A460021FEF7DBF82046C5
:10B9800038BD7047704782B001B901A942B14BB1CF
:10B9900013780B601278101E18BF012002B0704798
:10B9A0001046FBE76FF00100F8E70346084641B197
:10B9B000FF2A04D98A221A604FF0FF3070470A70BC
:10B9C00001207047044A05491368002B08BF0B4645
:10B9D000184410601846704710110020F8810020AC
:10B9E000FCF73AB9FCF7C2BA0D48854621F084FC51
:10B9F0000C480D490D4A002302E0D458C4500433CA
:10BA0000C4188C42F9D30A4A0A4C002301E013609F
:10BA10000432A242FBD3FEF74BF8FDF7A7FEFEE788
:10BA200000FC002000000020281000201046030821
:10BA300028100020F881002000F05AB80368074A57
:10BA4000934206D1DA69D20606D510221A6201F0B5
:10BA500083BA034A9342F5D0704700BF008000408C
:10BA6000003801404FF0B0434FF0FF319A6B9963BB
:10BA7000DA6BD9639A6B00229A63D86BDA63186C1D
:10BA80001964186C1A64586C5964586C5A64986A32
:10BA90009962986A9A62D86AD962D86ADA62186B2F
:10BAA0001963196B1A635A6C42F001025A645A6C9A
:10BAB00022F001025A64D3F8902042F48032C3F895
:10BAC0009020D3F8902022F48032C3F89020BFF366
:10BAD0004F8F0549054BCA6802F4E0621343CB60FF
