:020000022000DC
:1070000000000420C5CB0200EDCB0200EFCB020054
:10701000F1CB0200F3CB0200F5CB02000000000030
:10702000000000000000000000000000F7CB02009C
:10703000F9CB02000000000000000000000000008A
:1070400055650400FBCB0200D58304002D6B0400C2
:10705000FBCB0200956104006D5F0400D18905003F
:10706000FBCB02006D6A0400816A0400FBCB0200C6
:10707000FBCB0200FBCB0200FBCB0200FBCB0200F0
:10708000D59605006D370400FBCB0200FBCB020058
:10709000FBCB0200FBCB020059800500FBCB0200BA
:1070A000FBCB0200FBCB0200956A0400A96A040036
:1070B000FBCB0200FBCB0200000000000000000040
:1070C000FBCB0200FBCB0200FBCB02000D8F0500C7
:1070D00085670400FBCB0200FBCB0200E5800400C7
:1070E000D9C30500FBCB020019EB0500000000002E
:1070F00000000000FBCB020000000000DD92050054
:10710000000000000000000000000000000000007F
:10711000000000000000000000000000000000006F
:10712000000000000000000000000000000000005F
:10713000000000000000000000000000000000004F
:10714000000000000000000000000000000000003F
:10715000000000000000000000000000000000002F
:10716000000000000000000000000000000000001F
:10717000000000000000000000000000000000000F
:1071800000000000000000000000000000000000FF
:1071900000000000000000000000000000000000EF
:1071A00000000000000000000000000000000000DF
:1071B00000000000000000000000000000000000CF
:1071C00000000000000000000000000000000000BF
:1071D00000000000000000000000000000000000AF
:1071E000000000000000000000000000000000009F
:1071F000000000000000000000000000000000008F
:1072000010B5054C237833B9044B13B10448AFF3E0
:1072100000800123237010BDA0D2002000000000D8
:10722000D802070008B5034B1BB103490348AFF36D
:10723000008008BD00000000A4D20020D802070092
:10724000154B002B08BF134B9D46A3F5803A002138
:107250008B460F461348144A121A03F009FB0F4BD2
:10726000002B00D098470E4B002B00D098470020F1
:10727000002104000D000D48002802D00C48AFF397
:10728000008003F0B3FA2000290003F03DF803F07A
:1072900099FA00BF00000800000004200000000070
:1072A00000000000A0D2002050BB01200000000020
:1072B0000000000070B50121222006F082FF0121AC
:1072C000242006F07EFF134C134B144E1449154D29
:1072D00001221A702046144A06F030FF314620463B
:1072E00006F02CFF2046114C294606F027FF3146B8
:1072F000204606F023FF2946204606F01FFF6420A3
:107300000CF0C2FBBDE87040094A0A480023022184
:1073100006F0FDBD10D900206CD30020CB41060043
:10732000C541060065470600C041060074D900202B
:10733000E0930400F1D9002010B5044602F0C0FB30
:10734000204610BD2DE9F04F012185B0222006F026
:1073500038FFB448B44C012306224FF4965106F08E
:1073600079FBB24BB24A1F78B249B348002F00F004
:10737000BA8006F0E3FEB149AF48B14D06F0DEFE3B
:10738000B049AD4806F0DAFEAC49AF4806F0D6FE8B
:10739000AC49AD4806F0D2FE64200CF075FBA44A5F
:1073A000A449A54806F0CAFE95F91120A749A248AC
:1073B00006F0C4FEA349A04806F0C0FE95F91120CE
:1073C000A249A14806F0BAFE9E499F4806F0B6FEC3
:1073D00064200CF059FB95F911200023082AE38062
:1073E000A38063802380E381A381638123810BDCFD
:1073F000294620469A4201F1010120DD91F9006001
:1074000020F8026B0133F5E7894A8A498A4806F079
:1074100095FE8F49884806F091FE8A49864806F015
:107420008DFE8B49884806F089FE8649864806F01D
:1074300085FE642005B0BDE8F04F0CF025BB854B00
:1074400029781970012A14BF102106215970698A00
:1074500059809C609A807F4B7F487F4D0ECB01F016
:10746000E9F806F0B3FE4FF00008044641F2873613
:10747000002706F0ABFE031B029368EB480303935F
:10748000DDE90223964277EB03031FDB284601F078
:10749000C7F9284601F03BF80028EAD1644A65495B
:1074A000654806F04BFE6D49634806F047FE6549A6
:1074B000614806F043FE6949634806F03FFE6149B2
:1074C000614806F03BFE64200CF0DEFA0021222029
:1074D00006F077FE534806F001FB012005B0BDE839
:1074E000F04F0CF089BD06F029FE5D4952485D4E13
:1074F00006F024FE5349504806F020FE58495248F1
:1075000006F01CFE4F49504806F018FE64200CF0AF
:10751000BBFA474A4749484806F010FE96F9112041
:107520005149454806F00AFE4649434806F006FE22
:1075300096F911204C49444806F000FE4149424862
:1075400006F0FCFD64200CF09FFA96F911302780BC
:10755000102B00F39380DFF8D8B0DFF8D8A0DFF865
:10756000D880B146082596F91130BB4240F395808A
:107570005A465146404606F0E1FD99F901303B4933
:1075800003FA05F200923A4A002B18BF0A46134646
:1075900038493A46404606F0D1FD2A49404606F0B1
:1075A000CDFD99F901303149274803FA05F20092DF
:1075B0002F4A002B18BF0A4613462E493A4606F0BA
:1075C000BDFD2049204806F0B9FD64200CF05CFAAE
:1075D00019F9013F2288AB40134351465A464046B1
:1075E000238006F0ABFDB4F900202349404606F0A5
:1075F000A5FD1449404606F0A1FDB4F900201E493E
:10760000114806F09BFD01350E490F4806F096FD26
:10761000EDB264200CF038FA102D08BF00250137B8
:10762000A1E700BF38D90020CED20020ECD2002044
:10763000DF410600C541060010D90020E4410600E4
:1076400058D300206547060074D900200C4206007C
:107650002042060070D30020F0D20020EA4206004B
:107660005E420600BCD2002082420600C15D0600D8
:10767000DB410600CD420600DB4206001A4A1B49E8
:107680001B4806F05BFD1B49194806F057FD1A49D7
:10769000174806F053FD1749C4E6134A1349144826
:1076A00006F04CFDB4F900201449114806F046FDDF
:1076B00011490F4806F042FDB4F900200F49104867
:1076C00006F03CFD0C490E4806F038FD64200CF035
:1076D000DBF90C4B32781A700F225A7000225A8054
:1076E00096F91120B5E600BFDF410600C54106004E
:1076F00010D900209242060065470600DB420600D2
:1077000074D9002070D300201FB5B54806F006FBE1
:10771000012840F0B781B34806F0D1FAB24B187097
:10772000B24806F07CFAB24B1870B24806F0D7FAAD
:10773000B14BB2491870AD4806F073FAB049AB4886
:1077400006F07FFAAF49A94806F073FA0121232019
:1077500006F020FD0121232006F033FD0121242025
:1077600006F018FD0121242006F02BFD022306223D
:107770004FF4E131A44806F06DF941F288300CF085
:1077800083F9A24901A806F069FC01A9A04806F006
:1077900069FB01A806F01CFC9E499B4806F0C4FC4E
:1077A0009D49994806F0C0FC9C49974806F0BCFCEE
:1077B000974901A806F040FB019A9949924806F0C2
:1077C000BDFC01A806F004FC93498F4806F0ACFC10
:1077D00002F09CF8B8B9934A93498B4806F0AEFC86
:1077E0009249894806F0AAFC9149874806F0A6FC10
:1077F0008E49904806F0A2FC8D498E4806F09EFC0A
:1078000064200CF041F902F049F8B8B9854A86497C
:107810007D4806F093FC88497B4806F08FFC84493C
:10782000794806F08BFC8449824806F087FC804941
:10783000804806F083FC64200CF026F902F046F83C
:10784000B8B9784A7849704806F078FC7B496E48A8
:1078500006F074FC76496C4806F070FC7749754870
:1078600006F06CFC7249734806F068FC64200CF06A
:107870000BF902F0E7F80021232006F0A2FC012119
:10788000222006F087FC0121222006F09AFC6C4899
:1078900006F024F96A48012306224FF4965106F0B7
:1078A000D9F8684A68480123002106F026FB674B97
:1078B0005A6822B100236448194606F028FB644A3E
:1078C00061480023012106F018FB624A5E4800234C
:1078D000022106F012FB424806F020FA0446002876
:1078E00040F0DD800146242006F06BFC4D4A4E49F5
:1078F000454806F023FC5849434806F01FFC4C4914
:10790000414806F01BFC54494A4806F017FC484918
:10791000484806F013FC64200CF0B6F82046FFF748
:10792000C9FC2F4806F0FAF9012852D12E4B3D4AE6
:107930001B783D493448002B00F0BC8006F0FEFB6C
:107940004649314806F0FAFB39492F4806F0F6FB64
:1079500042493848264C06F0F1FB3549354806F0D7
:10796000EDFB64200CF090F82E4A2F49264806F0D3
:10797000E5FB22783A49244806F0E0FB2C492248EE
:1079800006F0DCFB227836492A481B4C06F0D6FB71
:107990002749284806F0D2FB64200CF075F8214AEC
:1079A0002149194806F0CAFB22782E49164806F0EC
:1079B000C5FB1F49144806F0C1FB227829491D4820
:1079C00006F0BCFB1A491B4806F0B8FB64200CF01B
:1079D0005BF80121244806F0D4FB002346E000BFF9
:1079E0004DDA002031DA0020E0D2002029DA002030
:1079F000E1D2002038DA002094A100205989020049
:107A00006D8B0200CD88020010D90020F5420600DF
:107A100098D900200D4306002A4306006143060062
:107A2000A1430600A9430600C5410600AF43060076
:107A30006547060074D90020D3430600FE430600C4
:107A400038D90020B5720200F1D9002098A1002099
:107A500045730200D57D020027440600414406001C
:107A6000664406007144060089D9002006221748A2
:107A70004FF4E13105F0EEFF1E21154806F063F8E2
:107A800004B010BD1349144806F08AF8134912488F
:107A900006F08EF81249104806F092F856E60021DA
:107AA000222006F08EFB0F4806F018F801200CF09B
:107AB000A3FA36E706F042FB0B490C4806F03EFB02
:107AC0000B490A4806F03AFB074942E774D90020FF
:107AD00010DA0020D18B02004EDA0020698D0200FE
:107AE000C98D020038D900205344060010D9002067
:107AF00065470600014806F03CBB00BF88D900205E
:107B00001FB59D4806F00AF901289C4A9C499D48EA
:107B100040F0F38006F012FB9B4801F0DBFF9B492D
:107B20000246984806F00AFB9949964806F006FB7B
:107B3000954801F0CFFF95490246964806F0FEFAB7
:107B40009349944806F0FAFA64200BF09DFF92489E
:107B500006F0D8F804468C4801F0BCFF81B2A0B210
:107B600001F090FF854A86490446864806F0E6FA09
:107B70008A4806F0B4F8224603468949814806F04F
:107B8000DDFA83497F4806F0D9FA844806F0A7F861
:107B90002246034682497F4806F0D0FA7C497D4858
:107BA00006F0CCFA64200BF06FFF102C50D1734A12
:107BB0007349744806F0C2FA7A49724806F0BEFA70
:107BC0007349704806F0BAFA7649724806F0B6FA78
:107BD0006F49704806F0B2FA64200BF055FF6A480E
:107BE00001F078FF0390684801F076FF6E4B03992F
:107BF0001B7801936D4B1B7800936D4B02461B78ED
:107C00006C4805F0E6FF002865D05C4A5C495D4899
:107C100006F094FA5C4801F05DFF67490246594856
:107C200006F08CFA5A49574806F088FA564801F08F
:107C300051FF61490246574806F080FA54495548B9
:107C400006F07CFA642004B0BDE810400BF01CBFC5
:107C5000524806F044F8A0421BD9484A48494948CE
:107C600006F06CFA5549474806F068FA4849454815
:107C700006F064FA5149474806F060FA444945481D
:107C800006F05CFA64200BF0FFFE4448214606F043
:107C900028F8424806F023F8A042A0D2374A3849D3
:107CA000384806F04BFA4649364806F047FA384954
:107CB000344806F043FA4249364806F03FFA344960
:107CC000344806F03BFA64200BF0DEFE21463348D0
:107CD00006F007F883E7294A29492A4806F02EFAD0
:107CE0003849284806F02AFA2949264806F026FA93
:107CF0003449284806F022FAA0E706F01FFA224885
:107D000001F0E8FE304902461E4806F017FA204905
:107D10001C4806F013FA1C4801F0DCFE2A49024612
:107D20001C4806F00BFA1A491A4806F007FA6420B4
:107D30000BF0AAFE0021242006F043FA124801F0BD
:107D4000C9FE0390104801F0C7FE039902460123C3
:107D50001E4805F00DFF0028BDD0084A0849094813
:107D600006F0ECF91A49074806F0E8F90849054811
:107D700006F0E4F91649BCE74DDA00207944060024
:107D8000C541060010D90020E4D20020804406003E
:107D90006547060074D900204ADA002038DA00204E
:107DA000A9440600F4440600E1D20020E0D20020FD
:107DB00095A1002029DA00208F450600094506001C
:107DC0004B450600A8450600B44506004EDA0020E3
:107DD000D64506002DE9F0472DED028B012388B032
:107DE00006224FF49651054669486A4C6A4F05F0E1
:107DF00031FE4FF4FA700BF047FE674800F06BFB62
:107E00004FF4FA61644800F07FFB4FF4FA700BF016
:107E10003BFE624A6249634806F090F96249614854
:107E200006F08CF961495F4806F088F95E496048C0
:107E300006F084F95D495E4806F080F964200BF095
:107E400023FE4FF6FF732381E380A38063802380AA
:107E50002382E381A3816381564B4F489C6040F2AB
:107E600001321A6009229A800ECB00F0E3FB06F083
:107E7000ADF94FF0000A064606F0A8F941F2873244
:107E8000B0EB06086AEB4A090023424573EB09038D
:107E90006EDB384600F0C4FC384600F038FB0028A2
:107EA000EAD1B4F900303D4A3D493E48013340F043
:107EB0008B8006F043F940493A4806F03FF93B49C8
:107EC000384806F03BF93C49394806F037F937495C
:107ED000374806F033F964200BF0D6FD2F4A3049BD
:107EE000304806F02BF9B4F910300693B4F90E308F
:107EF0000593B4F90C300493B4F90A300393B4F940
:107F000008300293B4F906300193B4F90430B4F99F
:107F100000202A4900932348B4F9023006F00EF9F4
:107F20002249204806F00AF9B4F910300693B4F952
:107F30000E300593B4F90C300493B4F90A3003936E
:107F4000B4F908300293B4F906300193B4F904305F
:107F5000B4F90020194900931548B4F9023006F02D
:107F6000EDF81249124806F0E9F864200BF08CFD98
:107F7000002D00F0548212490A4806F0DFF80B4940
:107F8000084806F0DBF80E49094806F0D7F838E251
:107F900038D90020CED20020F0D20020C041060007
:107FA000C541060010D90020E645060065470600D9
:107FB00074D9002070D30020044606001546060040
:107FC000054706000000000006F0B8F820881FED05
:107FD000038ABE4F3BF0BAFBBD4B00223BF04AFD8B
:107FE00002460B46BB48BC4906F0A8F8BB49B94855
:107FF00006F0A4F820883BF0A9FBB54B00223BF02B
:1080000039FD0B460246B449B54806F097F8B34926
:10801000B34806F093F864200BF036FDB14AB2493C
:10802000AC4806F08BF8B4F902003BF08FFBA84B8C
:1080300000223BF01FFD02460B46A648AB4906F066
:108040007DF8A649A34806F079F8B4F902003BF0A0
:108050007DFB9F4B00223BF00DFD0B460246A349E2
:108060009F4806F06BF89D499D4806F067F864202C
:108070000BF00AFD9B4A9C49964806F05FF8A088E1
:108080003BF064FB02460B469248994906F056F8CD
:108090009249904806F052F8A0883BF057FB0B46F7
:1080A000024693498E4806F049F88C498C4806F000
:1080B00045F864200BF0E8FC8A4A8B49854806F0B5
:1080C0003DF8E0883BF042FB814B00223BF0D2FCC4
:1080D00002460B467F48874906F030F87F497D48C5
:1080E00006F02CF8E0883BF031FB794B00223BF0A6
:1080F000C1FC0B4602467F49794806F01FF87749D4
:10810000774806F01BF864200BF0BEFC754A7649F0
:10811000704806F013F820893BF018FB02460B4626
:108120006C48754906F00AF86C496A4806F006F88A
:1081300020893BF00BFB0B4602466F49684805F06F
:10814000FDFF6649664805F0F9FF64200BF09CFCD2
:10815000644A65495F4805F0F1FF60893BF0F6FA33
:1081600002460B465B48654905F0E8FF5B49594804
:1081700005F0E4FF60893BF0E9FA0B4602465F49EF
:10818000574805F0DBFF5549554805F0D7FF6420F7
:108190000BF07AFC534A54494E4805F0CFFFA089B2
:1081A0003BF0D4FA02460B464A48554905F0C6FF53
:1081B0004A49484805F0C2FFA0893BF0C7FA0B4680
:1081C00002464F49464805F0B9FF4449444805F086
:1081D000B5FF64200BF058FC424A43493D4805F086
:1081E000ADFFE0893BF0B2FA02460B4639484549FB
:1081F00005F0A4FF3949374805F0A0FFE0893BF0BE
:10820000A5FA0B4602463F49354805F097FF33492A
:10821000334805F093FF64200BF036FC314A3249B5
:108220002C4805F08BFF208A3BF090FA02460B4663
:108230002848354905F082FF2849264805F07EFF89
:10824000208A3BF083FA02460B4625482E4905F06A
:1082500075FF2249224805F071FF64200BF014FCE1
:108260002A4801F034FCB4F902003BF06FFA184BD5
:1082700000223BF0FFFB3BF0CBFD032100EE100A98
:10828000224801F053FD20883BF060FA104B002299
:108290003BF0F0FB3BF0BCFD022100EE100A1B4856
:1082A00001F04AFDA2881948042101F0CBFC0A26FE
:1082B000E388B3FBF6F300EE103A0521B8EEC00AEE
:1082C000124801F02DFD228922E000BFEDD90020E7
:1082D0000000244010D900204346060065470600F0
:1082E00074D90020C0410600C5410600534606006F
:1082F000664606007A460600844606009446060056
:10830000A6460600B7460600C7460600E4D200208F
:108310004E48062101F096FC62894C48072101F085
:1083200091FCA2894948082101F08CFCE289474868
:10833000092101F087FC228A4448314601F082FC81
:10834000384605F0AFFD013E38EE008AF8D1B2EEB6
:10835000040A88EE000A3D48012101F0F3FC002DDB
:108360005BD020883BF0F2F9394B00223BF082FBD6
:108370000646A0880F463BF0E9F9CDE90401E08804
:108380003BF0E4F9324B00223BF074FBCDE90201F3
:1083900060883BF0DBF92E4B00223BF06BFB324652
:1083A0003B46CDE900012B492B4805F0C7FE2B4980
:1083B000294805F0C3FE20883BF0C8F9244B002271
:1083C0003BF058FB0646A0880F463BF0BFF9CDE9CD
:1083D0000401E0883BF0BAF91D4B00223BF04AFB58
:1083E000CDE9020160883BF0B1F9194B00223BF066
:1083F00041FB3246CDE900013B461649184805F0DD
:108400009DFE1649164805F099FE642008B0BDECA3
:10841000028BBDE8F0470BF037BBFFF771FB002183
:10842000222005F0CEFE0F4805F058FB01200BF08E
:10843000E3FD0021242005F0C4FE0B4B00221A703E
:1084400008B0BDEC028BBDE8F08700BFE4D200208D
:1084500000002440D246060010D9002065470600DF
:1084600074D9002038D900206CD30020002310B527
:1084700019460C4A0C480D4C00F022F80C4B002217
:10848000012119705A740B4B204619705A745A8284
:10849000FF2101F009FB2046074A0849BDE81040CA
:1084A00002F07CB938D90020F0D20020E4D20020BC
:1084B000BCD2002058D3002090A1002039730200C4
:1084C00010B543714FF47A73A0F856300023026060
:1084D0000171036610BD10B504464079012806D924
:1084E000012105F057FE6079002105F06AFE206841
:1084F00003685B6998470028F9DA0023A4F848303C
:108500002365A4F8543010BDA0F856107047807948
:10851000704738B504464079012802D9002105F09A
:1085200050FE002584F84850206803681B6998476E
:1085300078B1206803685B69984794F84830E2187E
:108540000133DBB2402B107228BF012584F848307C
:10855000EAE7B4F850300133A4F850303DB1B4F834
:1085600054300133A4F854306FF0020038BD94F950
:108570004800FBE770B5083000244FF6FF734AF25D
:108580000105E2B291420ED910F8012B53400822A6
:1085900003F001065B0806B16B40013A12F0FF02DE
:1085A000F6D10134EDE7180240EA132080B270BD25
:1085B00013B590F848100446FFF7DCFF6318021269
:1085C0001A724B1C54FA83F302311872607984F8E2
:1085D0004810012802D9012105F0F3FD206894F824
:1085E0004820036804F108015B6898476379012B10
:1085F0000DD9206803689B689847236E0193019901
:108600004B1E01930029FAD1607905F0DAFD20684C
:1086100003685B6998470028F9DA002384F848303A
:1086200005F0D4FDB4F85230E0650133A4F85230BF
:1086300002B010BD7FB5044604A800E90E002379FE
:10864000BDF80650BDF808009DF804609DF80520AF
:10865000BDF808106DBA40BA002B71D1A379002B78
:1086600071D1731EDBB2F62B70D8039B6272013A94
:10867000E364267265810F2A0DD8DFE802F008084E
:108680000808141F0C0C0C0C0C0C0C0C2446A081BC
:10869000062384F848302046FFF78AFF0123E38051
:1086A000002004B070BDB3F90030002BD4BF00230C
:1086B00001235B42237300236373E9E793F90120ED
:1086C00022731B88F8E7CA0802F0FE0209071CBFE4
:1086D0000132D2B20721A273A08184F8481000258C
:1086E00092B2AEB2B242D6D9710816F0010F33F988
:1086F000110094F8481004EB010608BF0012013184
:108700003072013584F84810EBE749000722A17365
:10871000A08184F8482019449942BCD094F84800BC
:1087200093F9015022181572421CD2B284F84820E5
:10873000224433F8025B1572023084F84800EBE7FC
:108740006FF00100ADE74FF0FF30AAE76FF00200D5
:10875000A7E7000038B590F848500446A91E254404
:10876000C9B2FFF707FFAA79EB7943EA02239842DF
:1087700006D0B4F854300133A4F85430FF2038BD8B
:1087800094F90930617A002B06DAB4F854300133D9
:10879000A4F85430FB20F2E7094A082312F8010B31
:1087A00081420AD0013B13F0FF03F7D1B4F85430F3
:1087B0000133A4F854300120E1E70020DFE700BFD7
:1087C0002147060070B50021837ACAB2934211D9BD
:1087D0005508C46C861834F91530F67AD2074BBFA9
:1087E000DBB203F47F4343EA0623334324F8153016
:1087F0000131E9E770BD10B50022D1B2847A4B0097
:108800000333B1EB540FDBB209D20344C16C1C7AC1
:108810005B7A43EA042321F812300132EDE710BD00
:1088200038B50446006803681B699847054605F09B
:10883000CDFCE36DC01AB4F85630984209D94FF414
:108840007F43E380B4F854300133A4F8543000205F
:1088500038BD15F0FF05FAD094F84930AB4205D089
:1088600084F8495005F0B2FCA065F0E705F0AEFCD5
:10887000A36DC01A0428EAD9002584F8495020467F
:10888000FFF747FE052806DCB4F85430A571013324
:10889000A4F85430DCE72046FFF75CFF10B1A57167
:1088A00040B2D5E7637A022B04D833B12046FFF7F4
:1088B00089FF02E0033B012B04D9002394F948000F
:1088C000A371C5E72046FFF796FFF6E710B504460B
:1088D0001A4A1B491B48B4B105F030FC1A49194823
:1088E00005F02CFC1949174805F028FC16491848D2
:1088F00005F024FC1549164805F020FCBDE81040A1
:1089000064200BF0C1B805F019FC12490D4805F0C0
:1089100015FC0E490B4805F011FC0E490C4805F0FA
:108920000DFC0A490A4805F009FC64200BF0ACF87C
:1089300021462420BDE8104005F043BC294706002D
:10894000C541060010D900203147060065470600E2
:1089500074D900204E470600F7B50446724A7349A1
:108960007348744F724E05F0E9FB94F90C30019393
:10897000B4F90A300093637822786F496C4805F0A7
:10898000DDFB6E496A4805F0D9FB94F90C30019380
:10899000B4F90A300093637822786749684805F093
:1089A000CDFB6649664805F0C9FB64200BF06CF806
:1089B0000025237AAB4207DD636839465A5D3046AD
:1089C00005F0BCFB0135F4E75C49594805F095FB1F
:1089D0002378D3B9544A5549554805F0AFFB594956
:1089E000534805F0ABFB5549514805F0A7FB5549E5
:1089F000534805F0A3FB5149514805F09FFB642003
:108A000003B0BDE8F0400BF03FB863681A78AA2ABB
:108A10007AD15A78552A77D19A780F2A45D14A4A7D
:108A200000211170D978494A117001390F292DD8C8
:108A3000197993F90400507401390F2917D8191DB9
:108A4000C3F1FF2303F57F03FC335C18A04202F15E
:108A5000010203DD11F8014F1470F6E73C480023D2
:108A60006422012103B0BDE8F04005F050BA394A54
:108A70002E492F4805F062FB37492D4805F05EFB73
:108A80002E492B4805F05AFB3349B1E7314A2749B3
:108A9000274805F053FB3149254805F04FFB27498E
:108AA000234805F04BFB2D49A2E7062A01D0102AE6
:108AB0001BD1254A01211170D978294A1170013939
:108AC0000F29E3D81979518293F90530537459006D
:108AD00000231E469942C1DD02EB63056E7060689B
:108AE00018440233C0796870F4E71A4A0F491048F5
:108AF00005F024FB1B490E4805F020FB0F490C48EC
:108B000005F01CFB174973E7124A0849084805F0AD
:108B100015FB1549064805F011FB0849044805F006
:108B20000DFB114964E700BF68470600C541060018
:108B300010D90020878306006E47060065470600AF
:108B400074D9002092470600ECD20020BCD200204D
:108B5000F1D900209E470600A4470600B74706004B
:108B600058D30020CD470600DB470600F8B5124D6C
:108B7000124F134A1349144E0446284605F0DEFAF4
:108B800022463946284605F0D9FA28460F4D314687
:108B900005F0D4FA22463946284605F0CFFA314688
:108BA000284605F0CBFA64200AF06EFFBDE8F840D5
:108BB0000021242005F005BB10D90020EE47060057
:108BC000E8470600C54106006547060074D9002045
:108BD000F0B585B004AB03E90700BDF90A509DF973
:108BE0000C30534A534954480093019C534F524E02
:108BF00005F0A4FA2A46009B51494F4805F09EFA19
:108C000050494D4805F09AFA2A46009B4C494E4877
:108C100005F094FA4B494C4805F090FA64200AF0AC
:108C200033FF00259DF80830AB4206DD625D394612
:108C3000304605F083FA0135F4E742493E4805F035
:108C40005CFA2378AA2B63D16378552B60D1A37883
:108C50000F2B4ED1E2783D4B1A70013A0F2A39D8CA
:108C6000227994F904105974013A0F2A17D8221D59
:108C7000C4F1FF2404F57F04FC34A018814203F101
:108C8000010303DD12F8010F1870F6E730480023E6
:108C90006422012105B0BDE8F04005F038B92D4A45
:108CA0002449254805F04AFA2B49234805F046FA9D
:108CB0002449214805F042FA2749234805F03EFAA5
:108CC0002049214805F03AFA642005B0BDE8F0409B
:108CD0000AF0DABE1F4A1749174805F02FFA1F4954
:108CE000154805F02BFA1749134805F027FA1B49D8
:108CF000E3E7184A0F49104805F020FA18490E48D2
:108D000005F01CFA0F490C4805F018FA1449D4E78D
:108D1000104A0849084805F011FA1249064805F0BA
:108D20000DFA0849044805F009FA0E49C5E700BFE5
:108D3000FB470600C541060010D9002087830600C6
:108D4000054806006547060074D90020BCD2002003
:108D5000F1D900209E470600A4470600B747060049
:108D6000CD470600DB47060070B5114C114E124A84
:108D70001249134D204605F0E1F93146204605F031
:108D8000DDF920460F4C294605F0D8F9314620463A
:108D900005F0D4F92946204605F0D0F964200AF000
:108DA00073FEBDE870400021242005F00ABA00BF20
:108DB00010D90020274806001D480600C5410600BE
:108DC0006547060074D9002013B5114A11490446BD
:108DD000114805F0B3F9114B114A12490E48002C05
:108DE00018BF1A46019205F0A9F90F490A4805F083
:108DF000A5F9019A0B490D4805F0A0F90A490B485D
:108E000005F09CF9642002B0BDE810400AF03CBEB9
:108E100043480600C541060010D900203A48060024
:108E2000374806004E4806006547060074D9002002
:108E3000536E012B70B5204C08D12049106802F008
:108E400063FA28B100232370022070BD002B30D1BB
:108E5000237803F0FF022BB9194B1E7801252570EA
:108E600016B122700320F0E71649174805F066F99D
:108E70001649154805F062F91249154805F05EF9E2
:108E80001249134805F05AF964200AF0FDFD2946FD
:108E9000222005F096F92946232005F092F90D4885
:108EA000334641F28832032105F031F8002020706A
:108EB000CBE7FBDDC6E700BF7CD300202C620600B9
:108EC0006CD300206148060010D9002065470600D9
:108ED00074D90020F1D9002013B500240DF107004A
:108EE0008DF80740FEF776FF2146222005F069F94C
:108EF000054804F0F3FD01200BF07EF82146232005
:108F000005F05FF902B010BD38D9002030B599B036
:108F1000144609490EA805F0A1F80023CDE9143341
:108F2000CDE91633636E012B0AD10449206802F0A3
:108F3000EBF938B1022486E3674706002C6206008D
:108F4000002BF7D1B649B748B74D05F0F7F8B74948
:108F5000B44805F0F3F8B249B54805F0EFF8B34965
:108F6000B34805F0EBF864200AF08EFDB14911A872
:108F700004F082FF11A90EA805F083F811A805F0EE
:108F800027F80EA805F0A8F80E9AAB49A54805F0F9
:108F9000D5F8A649A34805F0D1F80E9AA649A448E9
:108FA00005F0CCF8A149A24805F0C8F864200AF001
:108FB0006BFDA24911A804F03FFF119AA0499948FE
:108FC00005F0BCF811A805F003F89849954805F09C
:108FD000B5F89A4911A804F02FFF119A98499448BE
:108FE00005F0ACF811A804F0F3FF9049904805F0A3
:108FF000A5F864200AF048FD4FF47A746A68914934
:10900000B2FBF4F2874805F099F88849854805F0E5
:1090100095F86A688B49B2FBF4F285488A4D05F0F1
:109020008DF88249824805F089F864200AF02CFD09
:109030004FF4967285497B4805F080F87B49794862
:1090400005F07CF84FF496728049794805F076F87F
:109050007649774805F072F864200AF015FD7C48DF
:1090600004F05CFE7B4955F8202004466D4805F06D
:1090700065F86E496B4805F061F855F8242075498C
:109080006B4805F05BF86949694805F057F86420BA
:109090000AF0FAFC012C40F0F1826F486F4D704CE1
:1090A00004F01BFE6F49002814BF2A4622465D4883
:1090B00005F044F85D495B4805F040F8664804F067
:1090C0000CFE6849002814BF2A4622465848664DBF
:1090D00005F034F85549564805F030F864200AF098
:1090E000D3FC624804F00EFE6149044602464D4836
:1090F00005F024F84D494B4805F020F822465C491C
:109100004B4805F01BF84949494805F017F8642019
:109110000AF0BAFC55F824205649424805F00EF8EA
:109120004249404805F00AF855F824205149404882
:1091300005F004F83D493E4805F000F864200AF0C7
:10914000A3FC4D4804F0C2FD0446002800F0548101
:109150004A49344804F0F2FF3449324804F0EEFF43
:109160004649334804F0EAFF3049314804F0E6FF4D
:1091700064200AF089FC082214A9414804F08DFDFE
:109180009DF8573005939DF8563004939DF855305F
:1091900003939DF8543002939DF8533001939DF84A
:1091A00052309DF85020374900931E489DF85130A9
:1091B00004F0C4FF1D491B4804F0C0FF9DF8573060
:1091C00005939DF8563004939DF8553003939DF810
:1091D000543002939DF8533001939DF852309DF81E
:1091E00050202849009312489DF8513004F0A6FF02
:1091F0000E490F4804F0A2FF64200AF045FC082243
:1092000014A9214804F025FD9DF8573005939DF8D9
:10921000563004939DF8553003939DF8543035E053
:109220007C48060010D9002098A100206547060060
:1092300074D90020C8D900208B4806008CD90020A2
:10924000254E060096480600A0A10020A64806006C
:109250004DDA0020BA48060034DA0020025D06002C
:1092600071480600CA480600ACA100204ADA002076
:10927000D5480600E048060033DA0020EB48060037
:109280002EDA0020F54806002ADA002002939DF825
:10929000533001939DF852309DF85020504900936F
:1092A00050489DF8513004F049FF4F494D4804F0B3
:1092B00045FF9DF8573005939DF8563004939DF86F
:1092C000553003939DF8543002939DF85330019329
:1092D0009DF852309DF850204149009343489DF835
:1092E000513004F02BFF4049404804F027FF642030
:1092F0000AF0CAFB102214A93D4804F0B3FC9DF803
:109300005F300D939DF85E300C939DF85D300B93AC
:109310009DF85C300A939DF85B3009939DF85A30B4
:1093200008939DF8593007939DF8583006939DF89F
:10933000573005939DF8563004939DF855300393AC
:109340009DF8543002939DF8533001939DF85230AC
:109350009DF850202749009322489DF8513004F091
:10936000EDFE21491F4804F0E9FE9DF85F300D93A2
:109370009DF85E300C939DF85D300B939DF85C304A
:109380000A939DF85B3009939DF85A3008939DF835
:10939000593007939DF8583006939DF85730059340
:1093A0009DF8563004939DF8553003939DF8543042
:1093B00002939DF8533001939DF8523000939DF82D
:1093C00050209DF851300B49084804F0B7FE06497B
:1093D000064804F0B3FE64200AF056FB002432E194
:1093E0001D49060010D900206547060074D90020E9
:1093F0002BDA0020454906009649974804F09EFE66
:109400009649954804F09AFE9249954804F096FED4
:109410009249934804F092FE64200AF035FB102232
:1094200014A9904804F027FC9DF85F300D939DF837
:109430005E300C939DF85D300B939DF85C300A9381
:109440009DF85B3009939DF85A3008939DF8593088
:1094500007939DF8583006939DF8573005939DF873
:10946000563004939DF8553003939DF85430029381
:109470009DF8533001939DF852309DF850207A4961
:10948000009375489DF8513004F058FE73497248B6
:1094900004F054FE9DF85F300D939DF85E300C9300
:1094A0009DF85D300B939DF85C300A939DF85B301E
:1094B00009939DF85A3008939DF8593007939DF809
:1094C000583006939DF8573005939DF85630049315
:1094D0009DF8553003939DF8543002939DF8533016
:1094E00001939DF852309DF850205F4900935C48ED
:1094F0009DF8513004F022FE5849594804F01EFEF0
:1095000064200AF0C1FA102214A9584804F0CEFBD6
:109510009DF85F300D939DF85E300C939DF85D30A3
:109520000B939DF85C300A939DF85B3009939DF88E
:109530005A3008939DF8593007939DF85830069398
:109540009DF8573005939DF8563004939DF855309B
:1095500003939DF8543002939DF8533001939DF886
:1095600052309DF85020424900933B489DF85130BD
:1095700004F0E4FD3949384804F0E0FD9DF85F301F
:109580000D939DF85E300C939DF85D300B939DF824
:109590005C300A939DF85B3009939DF85A3008932C
:1095A0009DF8593007939DF8583006939DF8573031
:1095B00005939DF8563004939DF8553003939DF81C
:1095C000543002939DF8533001939DF852309DF82A
:1095D00050202749009322489DF8513004F0AEFDF9
:1095E0001E491F4804F0AAFD64200AF04DFA042227
:1095F00014A9204804F048FB9DF8533001939DF8CE
:1096000052309DF850201C49009313489DF851306A
:1096100004F094FD1149104804F090FD9DF853307A
:1096200001939DF8523000939DF850209DF85130E1
:1096300011490B4804F082FD0849094804F07EFDF9
:1096400064200AF021FA0EA804F0C2FC204619B0EA
:1096500030BD00BF8D49060010D9002065470600C7
:1096600074D900202CDA00209649060030DA002058
:10967000DF4906002DDA0020274A06007448002C36
:1096800040F09B8004F068FA72490246724804F088
:1096900055FD7249704804F051FD6D4804F05CFAC4
:1096A0006C4902466E4804F049FD6C496C4804F070
:1096B00045FD64200AF0E8F96A4804F04FFA6A4967
:1096C0000246654804F03AFD6449634804F036FDFB
:1096D000644804F043FA64490246614804F02EFDF0
:1096E0005E495F4804F02AFD64200AF0CDF95F4826
:1096F00004F036FA5E490246574804F01FFD574908
:10970000554804F01BFD594804F02AFA584902460E
:10971000534804F013FD5149514804F00FFD6420F3
:109720000AF0B2F9534804F01DFA534902464A4878
:1097300004F004FD4949484804F000FD4D4804F098
:1097400011FA4D490246464804F0F8FC43494448A2
:1097500004F0F4FC64200AF097F9484804F004FA95
:10976000474902463C4804F0E9FC3C493A4804F0C9
:10977000E5FC424804F0F8F941490246384804F053
:10978000DDFC3649364804F0D9FC64200AF07CF947
:109790003C4804F0EBF93C4902462F4804F0CEFC6B
:1097A0002E492D4804F0CAFC364804F0DFF936494A
:1097B00002462B4804F0C2FC3EE704F0CDF92549EF
:1097C0000246254804F0BAFC2449234804F0B6FCBC
:1097D0001F4804F0C1F91F490246214804F0AEFCBD
:1097E0001E491F4804F0AAFC64200AF04DF92748DE
:1097F00004F0D2F926490246174804F09FFC1749A5
:10980000154804F09BFC214804F0C6F920490246A3
:10981000134804F093FC1149114804F08FFC6420B4
:109820000AF032F91B4804F0B9F91B4902460A480C
:1098300004F084FC0949084804F080FC154804F051
:10984000ADF915490246064804F078FCBFE500BFB3
:1098500059DA0020404A060010D90020654706006A
:1098600074D900205ADA00204F4A06005BDA002043
:10987000574A06005CDA00205F4A06005DDA0020E5
:10988000674A06005EDA00207C4A060062DA0020A1
:109890008A4A060063DA0020974A060007B50323C8
:1098A0000193054B0093054A054B0649064804F011
:1098B00002FB03B05DF804FB65990200B34A0600A1
:1098C000A54A0600064B0600EED9002013B5094C48
:1098D000094A00230321204604F00FFB03230193D0
:1098E000064B0093064A074B0749E01E04F0E3FAD3
:1098F00002B010BDF1D90020D98E0200318E0200D5
:109900001A4B06000E4B0600264B060007B5022335
:109910000193054B0093054A054B0649064804F0A0
:10992000CAFA03B05DF804FB0D8F02003A4B060043
:109930002C4B0600514B0600EED9002008B5002143
:10994000064A0748082304F0CEFA014620B9034A24
:109950000348082304F0C7FA012008BD98A100209D
:10996000EFD900202DE9F843536E012B0E4603D0AA
:1099700002242046BDE8F88315682A49DFF8C09024
:10998000284601F0C1FC4F46D9F804800446E8B9E6
:1099900032464FF47A752449B8FBF5F3234804F0B6
:1099A000CDFB2349214804F0C9FBD9F804301E49F6
:1099B000B3FBF5F332461F4804F0C0FB1C491D48B9
:1099C00004F0BCFB64200AF05FF8D2E7284601F0FF
:1099D000A5FC2A462844904205D012F8013B303BB2
:1099E000092BF8D9C4E70A220021284601F01AFD04
:1099F0004FF47A735843104B9842B9D978600021DC
:109A00000E4804F08EFA7A6822B100230B481946FA
:109A100004F07DFA7B68984501D0FFF78FFF0024A2
:109A2000A7E700BF2C620600584B060010D90020A3
:109A30006547060074D90020BF270900F1D900202E
:109A400098A1002037B50024AA250C488DF80050B5
:109A500008236A462146019404F03BFA48B19DF878
:109A60000030AB42064B06D01D705C60FFF766FF0E
:109A7000204603B030BD019A5A60FAE7EFD90020C2
:109A800098A1002010B5074B53F82020002332F88E
:109A900013408C42D8B203D80133102BF7D11846AB
:109AA00010BD00BF60A2002038B50446002508465E
:109AB0002171A57100F0BEFE65712060204638BDA1
:109AC00010B50446006800F0BDFE204610BD00231E
:109AD0004371704740797047006870478E294ED8AF
:109AE000702903D8032943D80120704771391D29F3
:109AF00045D801A353F821F0E99A02007F9B0200A8
:109B0000E99A0200E99A0200E99A0200E99A020041
:109B10007F9B0200E99A0200E99A02007F9B020003
:109B20007F9B02007F9B0200E99A02007F9B02005C
:109B30007F9B0200E99A02007F9B0200E99A0200E3
:109B4000E99A0200E99A0200E99A0200E99A020001
:109B5000E99A0200E99A02007F9B02007F9B0200C3
:109B60007F9B02007F9B02007F9B0200E99A02001C
:109B7000A1F1640004288CBF002001207047002060
:109B8000704700BF882918D8702906D803290FD834
:109B9000012994BF00200120704771390123C9B207
:109BA00003FA01F1064B194214BF0120002070474F
:109BB000A1F167035842584170470020704700BF29
:109BC0000101A000F8B504460D461E46FFF786FFCA
:109BD00010B90223A371F8BD8E2D98BF174B607981
:109BE00098BF595D94F804C094BF154B002100EB59
:109BF000010707F1010794BF33F815300B4667459D
:109C000003DB0123A3710020E5E773432668471CAB
:109C10006771325462792068561C66718554002041
:109C200001306279C5B28D420A4404D82568121AFF
:109C3000AB541B0AF4E7D0B26071CCE7BF4B06000F
:109C40004E4C060008B513460A467D21FFF7BAFFC1
:109C500008BD00002DE9F84304460E46FFF73EFF1D
:109C600018B90223A371BDE8F8838E2E98BF2A4B42
:109C700094F8058098BF9F5D207994BF274B0027FB
:109C800008EB070101F1010194BF33F816303B46A0
:109C9000814203DB0123A3710020E4E707EE903A41
:109CA000B5EEC00AF1EE10FAF8EEE77A48BFB1EE71
:109CB000400A27EE800A3146FCEEC07A20464CBFAF
:109CC0004FF001094FF0000917EE905AFFF75AFFC5
:109CD00040B1B9F1000F05D0F90001238B40591EA6
:109CE0000D405D1B236808F10101617103F8082034
:109CF00063792268591C6171D6540022013263795C
:109D0000D1B2B9423B4404D821689B1ACD542D0AE4
:109D1000F4E7D8B26071A6E7BF4B06004E4C0600D0
:109D200008B50A460321FFF795FF08BD08B50A46A6
:109D30006721FFF78FFF08BD08B50A466821FFF7C6
:109D400089FF08BD08B50A467421FFF783FF08BDE7
:109D500003F0D8BA03F0D8BA13B50B4C23780BB97B
:109D600000F07EF82B232A22CDE9003207482D236C
:109D70002C22002100F010FB00F058FB23780BB9D7
:109D80000123237002B010BD7DD300206CAC0120F4
:109D90002920704709F08DBEF8B50C462F2C9DF890
:109DA0001850079F0646114605DC631C047002D05C
:109DB00012B1012A12D0F8BD012D0DD0022D01D013
:109DC00025B90221204609F0C9FFB57220460021BD
:109DD000BDE8F84009F0C0BF2946F3E7204609F086
:109DE000BBFF391E204618BF0121BDE8F84009F02D
:109DF000B7BF38B5044690F900002F281D4615DC82
:109E0000A3B1022923610DD003290DD001290DD161
:109E1000032109F0A9FF94F900002946BDE8384064
:109E200009F0A4BF0521F4E70621F2E738BD90F957
:109E300000002F2806DC431C04D0003918BF012184
:109E400009F08EBF704708B590F900002F2804DC98
:109E5000431C02D009F086FF08BD0020FCE700008B
:109E600010B5054C23782BB9044902200AF048F8B4
:109E70000123237010BD00BF7ED300206D190400A4
:109E800010B502200AF044F8064B1A681860044620
:109E900000219442596002D203F04AF9044420465A
:109EA00010BD00BF80D30020014B1868704700BF71
:109EB00080D300200A2070470AF020B80AF01CB8AE
:109EC00002200AF023B8000007B50190022003F039
:109ED000D3F8044A0199022003B05DF804EB0AF0BC
:109EE00013B800BF80D30020FFF7EEBF022003F0BD
:109EF000DFB8000008B5034B02201A6800230AF0FF
:109F00000BF808BD80D3002070B5064602200AF089
:109F100001F84FF47A72002305460C4639F0C8FF69
:109F20000023328028464FF47A72214639F0C0FF70
:109F300070BD10B50C4608F053FC2046BDE810403B
:109F400008F060BC38B50C46054608F043FC2860B4
:109F500008F052FC206038BD704708B518F058FE74
:109F600018F046FC0028FBD1642009F0A2FDBDE8F2
:109F7000084002F03CBE08B5022009F0C9FF08BD48
:109F800008B507480B460749401AC00800040649AF
:109F900040F0010018F07DFDBDE80840FFF7DDBF8F
:109FA000D40407005C0407006C4D060013B50B4693
:109FB000084C09490092641AE4082404024607493F
:109FC00044F0010018F06FFD02B0BDE81040FFF74B
:109FD000C4BF00BFD40407005C040700724D060034
:109FE00008B507484FF4004118F082FB18B1054A44
:109FF0007121FFF7C5FFBDE8084018F0B9BA00BFEE
:10A00000779F0200A44D060013B503780B2B12D8DE
:10A01000DFE803F0135C82A8B111B9B9BD06D9DD40
:10A020000479204608F0EAFA204608F091FA002167
:10A03000204608F0EBFA02B010BD012008F0DEFA6D
:10A0400001282ED1002008F0D9FA0128F3D00020F1
:10A050000AF0EAF90028EEDD012201A900200AF049
:10A0600093F8002008F0CAFA04460028EFD10AF05D
:10A07000A3F918BB9DF8041008F0D6F9E7E7012210
:10A0800001A910460AF080F8012008F0B7FA40B99B
:10A0900001200AF091F950B99DF80410012008F050
:10A0A000C3F901200AF0C0F90028E8DCCAE701285A
:10A0B000F7D19DF804100AF0D5F8F2E70128C6D1CF
:10A0C0009DF8041020460AF0CDF8C0E7032008F000
:10A0D00095FA0128AFD003200AF0A6F90028AADDDE
:10A0E000012201A903200AF04FF8032008F086FAA4
:10A0F0000028F0D103200AF05FF928B99DF8041078
:10A10000032008F091F9E6E70128E4D19DF8041056
:10A1100003200AF0A7F8DEE7042008F06FFA012810
:10A1200089D004200AF080F9002884DD012201A9E9
:10A1300004200AF029F8042008F060FA0028F0D181
:10A1400004200AF039F928B99DF80410042008F019
:10A150006BF9E6E70128E4D19DF8041004200AF029
:10A1600081F8DEE71C4B1B6E03B198470BF02CFC0B
:10A1700005F016F95FE7194B1B68002B3FF45BAF46
:10A180004068984757E740680AF028FA53E70520E7
:10A1900008F034FA01283FF44EAF05200AF044F9E4
:10A1A00000287FF748AF012201A9052009F0ECFF44
:10A1B000052008F023FA0028EFD19DF804100520AF
:10A1C00008F032F9E9E7002009F0B0FE33E7406813
:10A1D00009F0D2FD2FE700BF4C6F0600A0A30120BD
:10A1E00070B54FF0804390B000240126CDE90444BF
:10A1F000CDE9024406948DF81C40C3F878651BF045
:10A2000045FCFFF7EDFE374B37483849C01AC00808
:10A21000374B00041A6840F0030018F031FC0AF0D4
:10A22000BFF909F049FC09F073FB09F05BFE03225A
:10A23000104623462146CDE9004409F079FE09F095
:10A24000BFFB09F0F7FB032003F078FB08F0FAFAF4
:10A2500023460546014603222046CDE9004409F085
:10A2600067FE2346032229463046CDE9004409F023
:10A270005FFE08210DEB010004F0D6F99DF80F30C8
:10A280009DF80D201B49009308A89DF80E3001F0A1
:10A290001BF808A801F042F8C1B208A809F09EFB1B
:10A2A0000C2104A808F0A6FB04A809F099FB23469A
:10A2B000032229460520CDE9004409F039FE08F0C3
:10A2C000A9FB05F0ABFEE5B2284608F097F910B9F6
:10A2D000284608F03DF90134062CF4D10AF044F97F
:10A2E00010B070BD5C040700D4040700214E0600C6
:10A2F00014A40020314E060008B517F089FCBDE813
:10A3000008400AF03FB9000007B5FFF769FF194B95
:10A3100019481A49C01AC008000440F0030001900F
:10A3200018F0AAFB02F04AFC1549019818F0A4FBAA
:10A33000144809F0EDFE04F061FA01280DD002285E
:10A340000DD010B9104809F0E3FE104CFFF7D4FF10
:10A35000237833B902F034FCF8E70D48F3E70D48F1
:10A36000F1E708F08FF90028F0D0002009F08CFD0B
:10A37000ECE700BF5C040700D4040700424E06006F
:10A380004C4E06005B4E06006F4E060088D3002040
:10A390007B4E0600864E06002DE9F3410C46002553
:10A3A000064600F8044B02249DF9208011461F4602
:10A3B00022462B46CDE9004517F0D8F82B46224619
:10A3C000394606F11800CDE9004517F0CFF806F13F
:10A3D0002C00CDE900452B462246414617F0C6F831
:10A3E000204602B0BDE8F0410AF08EB87FB50023E8
:10A3F000ADF80E108DF8173020B90A4A0A484921E5
:10A40000FFF7BEFD01220023CDE900230DF10E016F
:10A410000DF1170302200AF08FF89DF8170007B01E
:10A420005DF804FB8D4E06005EA55EA573B5174D65
:10A4300001240023CDE90034224628462A2117F0C2
:10A4400095F8002300932246A5F1A400019426214B
:10A4500017F08CF802260023CDE900631A46A5F117
:10A4600090002E2117F082F80023CDE900631A46F0
:10A47000A5F17C002F2117F079F8234632462146BA
:10A48000252002B0BDE8704009F064BCACAC0120EE
:10A49000034603220148012117F070B830AC0120B7
:10A4A0004FF42071012016F08BBE0A207047012066
:10A4B00016F07ABE014B1878704700BF89D3002090
:10A4C000014B1870704700BF89D3002010B50A4CAB
:10A4D0000A2017F049F80021204617F051F81420FF
:10A4E00017F042F82046012117F04AF8BDE8104065
:10A4F0000A2017F039B800BF08AC012010B5034C92
:10A50000204617F03FF80128FAD010BD1CAC0120FE
:10A5100038B50C4C00212046A4F1400517F030F866
:10A52000C0212846FFF762FF00212846FFF75EFFA3
:10A530000121204617F024F8FFF7E0FF024B01222B
:10A540001A7038BDACAC012089D30020F8B515468F
:10A5500006460C4616F033FC0E480F4F002117F04C
:10A560000FF80D483146FFF741FF2544AC4209D1B1
:10A570000848012117F004F8842E09D0BDE8F840FE
:10A58000FFF7BCBF14F8011B3846FFF72FFFEDE7BC
:10A59000F8BD00BFACAC01206CAC0120F8B515468D
:10A5A00006460C4616F00BFC0F48104F002116F023
:10A5B000E7FF31460D48FFF719FF0C480021FFF770
:10A5C00015FF2544C6B2AC4207D10748012116F059
:10A5D000D7FFFFF793FF3046F8BD00213846FFF75D
:10A5E00005FF04F8010BEEE7ACAC01206CAC0120D8
:10A5F00070B5154606460C4616F0E1FB10480021E2
:10A6000016F0BEFF0D210F48FFF7F0FE310A0D488E
:10A61000FFF7ECFEF1B20B480A4EFFF7E7FE2544C8
:10A62000AC4207D10648012116F0AAFFBDE87040F0
:10A63000FFF764BF14F8011B3046FFF7D7FEEFE7C2
:10A64000ACAC01206CAC012007B501228DF80710DD
:10A650000DF10701FFF7CCFF03B05DF804FB00002C
:10A6600070B5154606460C4616F0A9FB13480021A6
:10A6700016F086FF1D211248FFF7B8FE310A104878
:10A68000FFF7B4FEF1B20E480D4EFFF7AFFE0C48D7
:10A690000021FFF7ABFE2544AC4207D1074801215A
:10A6A00016F06EFFBDE87040FFF728BF002130466E
:10A6B000FFF79CFE04F8010BEEE700BFACAC0120F5
:10A6C0006CAC012007B501220DF10701FFF7C8FFAF
:10A6D0009DF8070003B05DF804FB0000F8B51446D0
:10A6E00005460E4616F06BFB0F48104F002116F082
:10A6F00047FF0E210D48FFF779FE29460B48FFF76B
:10A7000075FE0025A4B2ABB29C4207D806480121D1
:10A7100016F036FFBDE8F840FFF7F0BE715D384631
:10A72000FFF764FE0135EEE7ACAC01206CAC012014
:10A73000F8B5144605460E4616F041FB1248134F75
:10A74000002116F01DFF1E211048FFF74FFE29467D
:10A750000E48FFF74BFE0D480021FFF747FE00258E
:10A76000A4B2ABB29C4207D80748012116F008FFFB
:10A77000BDE8F840FFF7C2BE00213846FFF736FEBD
:10A7800070550135EDE700BFACAC01206CAC012089
:10A79000022116F063BD7047704770470B460146B3
:10A7A000184600F001B8000010B5054C13462CB156
:10A7B0000A4601460220AFF3008010BD2046FCE7A8
:10A7C0000000000008B5074B044613B10021AFF3A9
:10A7D0000080054B1868836A03B19847204602F051
:10A7E000EBF900BF00000000FC4F060070B50D4DF6
:10A7F0000D4C641BA4100026A64209D10B4D0C4C35
:10A8000039F0D2FC641BA4100026A64205D170BD0D
:10A8100055F8043B98470136EEE755F8043B984756
:10A820000136F2E748D2002048D2002048D200206A
:10A8300058D20020024B0146186800F071B800BFE2
:10A8400018A40020024B0146186800F019B800BF98
:10A8500018A400200A44914200F1FF3300D1704750
:10A8600010B511F8014B03F8014F9142F9D110BD19
:10A8700002440346934200D1704703F8011BF9E7F5
:10A8800037B5002948D051F8043C0190002BA1F1C4
:10A890000404B8BFE41801F093FC204A019813683F
:10A8A000154633B96360146003B0BDE8304001F071
:10A8B0008DBCA3420BD921686218934204BF1A6869
:10A8C0005B68636004BF521822602C60ECE71A4694
:10A8D0005B680BB1A342FAD911685518A5420BD198
:10A8E000246821445418A3421160DDD11C685B68C0
:10A8F000536021441160D7E702D90C230360D3E7EA
:10A90000256861198B4204BF19685B68636004BFE6
:10A91000491921605460C7E703B030BD8CD30020D3
:10A92000F8B5CD1C25F0030508350C2D38BF0C25D6
:10A93000002D064601DBA94203D90C233360002019
:10A94000F8BD01F03DFC21490A6814469CB9204F2E
:10A950003B6823B92146304600F0A6FC3860294602
:10A96000304600F0A1FC431C23D10C233360304659
:10A9700001F02CFCE3E723685B1B17D40B2B03D9F6
:10A9800023601C44256004E06368A2420CBF0B6096
:10A990005360304601F01AFC04F10B00231D20F037
:10A9A0000700C21ACCD01B1AA350C9E7224664681C
:10A9B000CCE7C41C24F00304A042E3D0211A3046A3
:10A9C00000F072FC0130DDD1CFE700BF8CD3002056
:10A9D00090D300202DE9FF4755EC104B002D0E467B
:10A9E00019462B46BBBF05F100431D4600232D230E
:10A9F0000B700D9BDDF830A0914623F02008BCBF02
:10AA000022461446B8F1460F05D0B8F1450F00D1E3
:10AA10000136022100E0032103AB019302AB009356
:10AA200045EC104B5346324600F092FDB8F1470F0B
:10AA3000074602D119F0010F22D0B8F1460F07EBFB
:10AA4000060910D13B78302B0AD100220023204682
:10AA5000294639F04DF918B9C6F10106CAF8006067
:10AA6000DAF800309944002200232046294639F0C4
:10AA70003FF908B1CDF80C903022039B4B4507D32A
:10AA8000039B0E9ADB1B3846136004B0BDE8F087C9
:10AA9000591C03911A70F0E7F7B503460029B8BFB7
:10AAA000494203F8022BB4BF2D222B220929427000
:10AAB0002ADD0DF10704A4460A27A6460A4691FBA3
:10AAC000F7F607FB16153035632A04F1FF340EF84C
:10AAD000015C3146F1DC3031AEF1020504F8011CB5
:10AAE000441C294661450AD30DF10902A2EB0E026E
:10AAF000654588BF00221344181A03B0F0BD11F851
:10AB0000012B04F8012FEDE7302330318370C17041
:10AB1000031DF1E72DE9F04F2DED028B8DB00C46B2
:10AB2000DDF8608016461F46054601F0EFFAD0F8C2
:10AB300000A0504600F0F2FB00230A93236805931F
:10AB4000D8F8003094F818B0073323F0070303F166
:10AB50000802C8F80020D3E90023C4E91223D4E98D
:10AB6000128929F000430793CDF8188008EE100AE7
:10AB70009F4BDDE906014FF0FF3239F0EBF888BB5F
:10AB8000DDE906019A4B4FF0FF3239F0C5F848BBBA
:10AB9000002200234046494639F0B4F810B12D2375
:10ABA00084F84330934B9448BBF1470F94BF9846C9
:10ABB000804603232361059B23F0040222604FF0AB
:10ABC0000009009733460BAA2146284600F0D8F921
:10ABD000013040F090804FF0FF300DB0BDEC028BA3
:10ABE000BDE8F08F42464B464046494639F0B2F840
:10ABF00040B14B46002BBCBF2D2384F843307F4827
:10AC00007F4BD1E763680BF0DF0206925A1C3FD1FD
:10AC100006236360059B616843F48062002303930D
:10AC20000AABCDE901B309AB49EC108B009322606C
:10AC30000DF123032846FFF7CDFE069B0999472B0C
:10AC4000804608D1C81C02DB6368994241DDABF144
:10AC5000020B5FFA8BFBBBF1650F20D801395A4616
:10AC600004F150000991FFF717FF0A9A1318012AFF
:10AC70008146236102DC2268D20701D501332361BA
:10AC80009DF82330002B9CD02D2384F8433098E787
:10AC9000069A472ABED1002BBCD10123B9E7BBF1EC
:10ACA000660F18D1002963680BDD216113B9226892
:10ACB000D00702D501330B442361A1654FF0000991
:10ACC000DEE713B92268D20701D50233F4E7012386
:10ACD000F2E74FF0670B0A9B994205DB236821617D
:10ACE000D807EAD54B1CE7E70029D4BFC1F102021F
:10ACF00001221344E0E723685A0507D4236942463A
:10AD000031462846B84701302CD164E7BBF1650FC6
:10AD100040F2E080D4E912010022002338F0E8FF7D
:10AD2000002834D0374A012331462846B84701303D
:10AD30003FF451AFDDE909239A4202DB2368D807CB
:10AD400010D518EE103A524631462846B847013021
:10AD50003FF441AF4FF0000804F11A090A9B013B90
:10AD6000434509DC23689B0700F10581E0680B9BE4
:10AD70009842B8BF184630E701234A463146284674
:10AD8000B84701303FF427AF08F10108E6E7099B17
:10AD9000002B39DC1B4A012331462846B8470130D5
:10ADA0003FF419AFDDE90923134302D12368D90722
:10ADB000D8D518EE103A524631462846B8470130E9
:10ADC0003FF409AF4FF0000904F11A0A099B5B42F6
:10ADD0004B4501DC0A9B92E7012352463146284647
:10ADE000B84701303FF4F7AE09F10109EEE700BFC3
:10ADF000FFFFEF7F00500600045006000C500600D5
:10AE0000085006000B4306000A9AA36D9A42A8BF99
:10AE10001A46002A914637DC4FF0000B29EAE979FF
:10AE200004F11A02A36D0593A3EB09035B4533DC20
:10AE3000DDE909239A423BDB2368DA0738D40A9A12
:10AE4000059B0999D31AA2EB01099945A8BF994618
:10AE5000B9F1000F35DC4FF0000829EAE97904F177
:10AE60001A0ADDE909239B1AA3EB090343457FF77F
:10AE700079AF0123524631462846B84701303FF4A6
:10AE8000AAAE08F10108ECE71346314642462846CF
:10AE9000B8470130C0D19EE60123314628460592CD
:10AEA000B84701303FF497AE059A0BF1010BB9E7B3
:10AEB00018EE103A524631462846B8470130BED106
:10AEC00089E6059A4B46424431462846B847013048
:10AED000C1D180E60A9A012A01DCDB0738D50123BB
:10AEE000424631462846B84701303FF474AE18EE6A
:10AEF000103A524631462846B84701303FF46BAE0F
:10AF0000D4E912010022002338F0F2FED8B90A9BDE
:10AF100008F10102013B31462846B84701300ED105
:10AF200059E60123524631462846B84701303FF4DE
:10AF300052AE08F101080A9B013B4345F1DC4B4648
:10AF400004F15002DCE64FF0000804F11A0AF2E7BF
:10AF500001234246DFE701234A4631462846B847E7
:10AF600001303FF438AE08F10108E3680B995B1A31
:10AF70004345F0DCFAE64FF0000804F11909F4E764
:10AF80002DE9F047164699468A680B69DDF820805E
:10AF90009342B8BF1346336091F8432007460C46EE
:10AFA0000AB1013333602368990642BF3368023324
:10AFB0003360256815F0060506D104F1190AE36827
:10AFC00032689B1AAB4226DC94F84320131E226899
:10AFD00018BF012392062BD404F143024946384698
:10AFE000C04701301ED02368E568326803F00603CD
:10AFF000042B08BFAD1AA36822690CBF25EAE575CA
:10B0000000259342C4BF9B1AED1800261A34B5429E
:10B010001AD1002008E00123524649463846C0476D
:10B02000013003D14FF0FF30BDE8F0870135C6E7AE
:10B03000E1185A1C302081F84300224494F845104E
:10B0400082F843100233C7E70123224649463846B7
:10B05000C0470130E6D00136D9E700002DE9FF47AF
:10B060000C469146277E0C99782F80469A4604F12B
:10B07000430207D8622F0AD8002F00F0D880582F3B
:10B0800000F0A38004F1420684F842703AE0A7F190
:10B090006303152BF6D801A050F823F0F5B0020099
:10B0A00009B1020085B0020085B0020085B002003F
:10B0B00085B0020009B1020085B0020085B002002F
:10B0C00085B0020085B0020015B2020039B102005D
:10B0D000F7B1020085B0020085B0020037B202006D
:10B0E00085B0020039B1020085B0020085B00200CF
:10B0F000FFB102000B681A1D1B680A6004F14206CA
:10B1000084F842300123A3E0256808682E0600F188
:10B1100004030AD505680B60002D03DA2D236D4268
:10B1200084F843305E480A2319E015F0400F0568A3
:10B130000B6018BF2DB2EFE70B682568181D08607B
:10B14000280601D51D6802E06906FBD51D88544814
:10B150006F2F0CBF08230A23002184F84310666870
:10B16000A660002EA2BF216821F0040121600DB964
:10B17000002E4DD01646B5FBF3F103FB1157C75D0A
:10B1800006F8017D2F46BB420D46F4D9082B0BD1A2
:10B190002368DF0708D5236961689942DEBF302341
:10B1A00006F8013C06F1FF36921B2261CDF800A0A3
:10B1B0004B4603AA21464046FFF7E2FE01304CD140
:10B1C0004FF0FF3004B0BDE8F087354884F8457093
:10B1D00023680E681F0656F8045B0E6014D5D90765
:10B1E00044BF43F0200323601DB9236823F02003EC
:10B1F00023601023B0E7236843F020032360782303
:10B20000284884F84530E3E75E0648BFADB2E6E77C
:10B210001646BBE70B68266860691D1D0D60350684
:10B220001B6801D5186002E07106FBD51880002369
:10B2300023611646BAE70B681A1D0A601E68626829
:10B240000021304600F06CFF08B1801B606063682D
:10B250002361002384F84330A8E723693246494636
:10B260004046D0470130ABD023689B0713D4E06839
:10B27000039B9842B8BF1846A4E7012332464946CB
:10B280004046D04701309BD00135E36803995B1AF3
:10B29000AB42F2DCEBE7002504F11906F5E700BF4D
:10B2A000105006002150060038B5064D0023044614
:10B2B00008462B6001F072FC431C02D12B6803B1DD
:10B2C000236038BD90A301200EB400B59CB01DAB27
:10B2D000029006906FF000410948079104910949D6
:10B2E00053F8042B05910068019302A901F0ECFAD0
:10B2F000029B00221A701CB05DF804EB03B070478B
:10B3000018A400200802FFFF10F8012B11F8013BE0
:10B31000012A28BF9A42F7D0D01A7047034613F883
:10B32000012B002AFBD1181A013870472DE9F04390
:10B330003B4E86468C4660461CF8014BA55D15F0D9
:10B340000805F8D12D2C34D19CF800404FF00108AD
:10B3500000F1020C002B5ED0102B0CD1302C0AD146
:10B360009CF8000000F0DF0058284FD19CF8014005
:10B3700010230CF1020C4FF0FF370025B7FBF3F759
:10B3800003FB07F96FEA09092846A4F13006092EE4
:10B3900018D83446A34224DD002D1FDB87421DD37D
:10B3A00001D1A1451ADB00FB034001251CF8014B2C
:10B3B000EBE72B2C08BF9CF80040A84608BF00F123
:10B3C000020CC7E7A4F14106192E01D8373CE1E78A
:10B3D000A4F16106192E04D8573CDBE74FF0FF3586
:10B3E000E4E7002D07DA2223CEF800304FF0FF30DB
:10B3F00042B9BDE8F083B8F1000F00D04042002A06
:10B40000F7D00DB10CF1FF311160F2E73024002BC1
:10B41000B1D10823AFE7302CA2D00A23ABE700BF9D
:10B420003350060013460A46014602480068FFF7FB
:10B430007DBF00BF18A400202DE9F74F03690C69F8
:10B44000A3420746C0F28180013C01F1140800F1DB
:10B45000140505EB8403019358F8243055F8242093
:10B4600001339A424FEA840B08EB8409B2FBF3F6EE
:10B4700031D34FF0000E4046AC46F24650F8042B54
:10B4800093B206FB03E34FEA134E9BB2AAEB03030E
:10B49000120CDCF800A006FB02E213FA8AF34FEA72
:10B4A000124E1FFA82FADCF80020CAEB124202EBBD
:10B4B00023429BB243EA024381454CF8043B4FEAE6
:10B4C000224ADBD255F80B302BB9019B043B9D423D
:10B4D0001A462ED33C61384601F0A9F8002824DB37
:10B4E000013628464FF0000C58F8042BD0F800E045
:10B4F00093B2ACEB0303120C13FA8EF3C2EB1E42B1
:10B5000002EB23429BB243EA0243C14540F8043BAD
:10B510004FEA224CE8D255F8242005EB840322B9E7
:10B52000043B9D421A460AD33C61304603B0BDE855
:10B53000F08F1268043B002ACCD1013CC7E71268A7
:10B54000043B002AF0D1013CEBE70020EEE70000CD
:10B550002DE9F04F2DED028B57EC106B95B0456A3D
:10B56000DDF880800591CDE90267044609920F93CA
:10B570003DB91020FFF75EF9C0E901556062056032
:10B58000C560636A196851B15A684A6001239340E3
:10B590008B60204600F054FE636A00221A603B1E56
:10B5A000B9BF23F0004303930023C8F80030DDF84F
:10B5B0000C90B74BBCBF0122C8F8002033EA090346
:10B5C0001BD10F9A42F20F731360C9F31303334375
:10B5D00000F07585219B63B9AE4B25E0AE4B00931F
:10B5E0000833219A1360009815B0BDEC028BBDE8BA
:10B5F000F08FA84B00930333F3E79DED027B00220D
:10B6000051EC170B00238DED0A7B38F071FB80465F
:10B6100060B10F9A01231360219B002B00F04C8531
:10B620009E4B219A1360013B0093DCE79DED0A0BD2
:10B6300012AA13A9204601F08CF8C9F30A558246D4
:10B64000002D7ED00B9BCDF84080C3F31303DDE9C2
:10B650000A6743F07F5747F44017A5F2FF35904B38
:10B6600000223046394637F023FF83A3D3E9002375
:10B6700038F0D6F882A3D3E9002337F01BFF064643
:10B6800028460F4638F062F87FA3D3E9002338F04C
:10B69000C7F802460B463046394637F00BFF0646E0
:10B6A0000F4638F06DFB00228146002330463946B4
:10B6B00038F028FB48B1484638F048F832463B4657
:10B6C00038F016FB08B909F1FF39B9F1160F56D851
:10B6D000744B03EBC903D3E90023DDE90A0138F019
:10B6E00011FB00284DD009F1FF3900230E93129B66
:10B6F0005D1B6B1E049343BF0023C5F10108049337
:10B700004FF00008B9F1000F3DDB049BCDF83490F9
:10B710004B44049300230693059B092B00F29A8067
:10B72000052BC4BF043B0593059BA3F10203CCBFCB
:10B7300000250125032B00F29980DFE803F02C7D22
:10B740007B89DDE912531D4405F23243202BC1BF32
:10B75000C3F1400305F2124009FA03F326FA00F0A0
:10B76000DABFC3F1200306FA03F0184337F0DEFF17
:10B7700001230646A1F1F877013D10936FE70123FD
:10B78000B4E70E90B3E7C9F1000306930023A8EBDA
:10B7900009080D93C0E700230893099B002B00F3D1
:10B7A00085804FF0010BCDF804B05B46CDF824B096
:10B7B000666A00227260042202F1140098427168E5
:10B7C0007AD9204600F008FD636A30601B68009358
:10B7D000019B0E2B00F2F580002D00F0F280B9F1F4
:10B7E000000F7DDD2F4A09F00F0302EBC30393ED39
:10B7F000007B19F4807F4FEA2917B0EE478AF0EEFC
:10B80000678A5DD0284BDDE90A01D3E9082338F0C7
:10B8100031F9CDE9020107F00F070325224E002F71
:10B8200050D1DDE9020153EC182B38F023F9CDE9B2
:10B8300002016FE00123AFE700230893099B09EBA6
:10B84000030B0BF10103012B0193B8BF0123AFE7F9
:10B850000123F2E701250023059308954FF0FF3BF4
:10B860000022CDF804B012230992A1E70123089326
:10B87000F4E700BFAFF3008061436F63A787D23F57
:10B88000B3C8608B288AC63FFB799F501344D33FCF
:10B890000000F07F3C510600335106000C430600C7
:10B8A0000000F83F6851060040510600DDF824B062
:10B8B000CDF804B05B467BE70131716052007BE755
:10B8C0000225ABE7F90708D551EC180BD6E90023A0
:10B8D00037F0A6FF41EC180B01357F1008369EE7C4
:10B8E00000F0AB80C9F10006AA4BAB4F06F00F0287
:10B8F00003EBC203D3E90023DDE90A0137F090FF2F
:10B90000CDE90201361100230225002E40F08A8085
:10B91000002B8CD10E9B002B00F09180DDE902679B
:10B920009E4B00223046394638F0ECF9002800F0F2
:10B930008680019B002B00F08280BBF1000F3CDD74
:10B9400009F1FF3307930022954B3046394637F013
:10B9500067FFCDE902010135CDF830B0DDE90267BE
:10B96000284637F0F3FE32463B4637F059FF8D4B01
:10B97000002237F09FFDA1F15073CDE9020103933E
:10B980000C9B002B60D1884B00223046394637F0A3
:10B990008FFDDDE9022306460F4638F0D1F9002875
:10B9A00040F09982DDE90221304601F10043394639
:10B9B00038F0A8F9002840F08B82DDE90A23CDE9B0
:10B9C0000223139B002BC0F25B81B9F10E0F00F331
:10B9D0005781704B03EBC90393ED007B099BB0EEDD
:10B9E000478AF0EE678A002B80F2E280019B002BF1
:10B9F00000F3DE8040F06C826B4B51EC170B0022A1
:10BA000037F00EFFDDE9022338F090F9019E37464A
:10BA1000002840F04282009D312305F8013B09F1E6
:10BA200001093EE2F20705D5D7E9002337F0F8FE19
:10BA3000013501237610083767E702256AE7019B85
:10BA4000CDF81C900C9389E700990C980C9A514BF7
:10BA50009DED027B014402910899B0EE478AF0EE19
:10BA6000678A03EBC20353E90223002945D04F49FB
:10BA7000002037F0FFFF53EC182B37F019FD009D25
:10BA800041EC180B3946304638F07AF90C9037F013
:10BA90005DFE02460B463046394637F009FD0C9BE9
:10BAA000303305F8013B53EC182B06460F4638F0AF
:10BAB00029F9002865D132463B463849002037F045
:10BAC000F7FC53EC182B38F01DF9002840F0B88033
:10BAD000029B9D423FF471AF314B51EC180B002299
:10BAE00037F09EFE2E4B41EC180B002230463946B3
:10BAF00037F096FE06460F46C4E751EC170B37F0B9
:10BB00008FFE029B009D0C9341EC180B394630468A
:10BB100038F036F9119037F019FE02460B463046E0
:10BB2000394637F0C5FC119B303305F8013B029BC9
:10BB30009D4206460F464FF0000225D11B4B51ECAB
:10BB4000180B37F0B7FC02460B463046394638F042
:10BB5000F7F8002874D153EC182B1449002037F063
:10BB6000A7FC02460B463046394638F0CBF8002891
:10BB70003FF423AF0C9D6B1E0C9315F8013C302B4A
:10BB8000F8D0DDF81C9049E0054B37F049FE064639
:10BB90000F46BBE768510600405106000000F03F29
:10BBA0000000244000001C40000014400000E03F62
:10BBB000DDE90267009D53EC182B3046394637F01B
:10BBC00059FF38F0DDF8804637F0C0FD53EC182BF4
:10BBD00037F026FE02460B463046394608F130065D
:10BBE00037F066FC05F8016B009E019FAE1BB74263
:10BBF00002460B4637D137F05DFC53EC182B064656
:10BC00000F4638F09DF8C8B953EC182B304639462A
:10BC100038F06EF810B118F0010F0FD120465146E0
:10BC200000F00EFB00232B700F9B09F10100186040
:10BC3000219B002B3FF4D7AC1D60D4E4CDF81C90C1
:10BC40002B461D4613F8012D392A08D1009A9A4235
:10BC5000F7D1079A00990132079230220A701A78B8
:10BC600001321A708DE79E4B002237F0D9FD002279
:10BC7000002306460F4638F03BF800289BD0CDE75E
:10BC8000089A002A00F0C680059A012A00F3AA80CB
:10BC9000109A002A00F0A28003F23343069E454624
:10BCA000049A01211A4420469844049200F06DFB46
:10BCB0000746002D0BDD049B002B08DDAB42049AE8
:10BCC000A8BF2B46A8EB0308ED1AD31A0493069BD2
:10BCD000FBB1089B002B00F0A180002E11DD39463E
:10BCE0003246204600F0F6FB524601460746204603
:10BCF00000F054FB51460790204600F0A1FA079B44
:10BD00009A46069B9A1B04D05146204600F0E2FB5F
:10BD100082460121204600F038FB0D9B002B064691
:10BD20007EDD1A460146204600F0D4FB059B012B20
:10BD3000064678DD00230693336906EB8303186912
:10BD400000F0D3FAC0F12000049B184410F01F004B
:10BD500000F08880C0F12003042B40F38180C0F103
:10BD60001C00049B0344804405440493B8F1000F75
:10BD700005DD51464246204600F0FAFB8246049B10
:10BD8000002B05DD31461A46204600F0F1FB064641
:10BD90000E9B002B68D03146504600F048FC00282E
:10BDA00062DA002351460A22204600F060FA089B1E
:10BDB00009F1FF398246002B00F0888139460023C3
:10BDC0000A22204600F053FABBF1000F074600F3A9
:10BDD0008F80059B022B40F38B804DE0129BC3F1BB
:10BDE00036035BE7019B5E1E069BB342BFBF069B0B
:10BDF0000696F21A0D9BB6BF9B189E1B0D93019BD6
:10BE0000B8BF0026002BB5BFA8EB0305019B00239C
:10BE1000454645E7069E089F45464AE7069A73E76A
:10BE2000059B012B18DC029BB3B9039BC3F31303DF
:10BE3000A3B9039B23F000431B0D1B052BB1049BEF
:10BE40000133049308F10108012306930D9B002B95
:10BE50007FF472AF012077E70023F6E7029BF4E757
:10BE600084D018461C307CE7019B002B3ADC059BF4
:10BE7000022B37DDDDF804B0BBF1000F0DD13146E8
:10BE80005B460522204600F0F2F901460646504680
:10BE900000F0CDFB00283FF7BEAD099B009D6FEA87
:10BEA00003094FF000083146204600F0C9F9002F81
:10BEB0003FF4B4AEB8F1000F05D0B84503D0414609
:10BEC000204600F0BDF93946204600F0B9F9A5E654
:10BED00000263746E1E70C9EDDF81C9037469AE5D0
:10BEE00000002440089BDDF804B0002B00F0F58032
:10BEF000002D05DD39462A46204600F039FB07466D
:10BF0000069B002B55D07968204600F065F93A6908
:10BF100002320546920007F10C010C30FEF79AFC44
:10BF200001222946204600F023FB009B01330193A8
:10BF3000009B5B440793029B03F00103B846069302
:10BF40000746019B3146504603F1FF3BFFF774FA69
:10BF500003463033029041465046089300F067FB99
:10BF60003A4604903146204600F07DFBC268089BAB
:10BF7000054602BB0146504600F059FB089B0246AD
:10BF800029462046CDE9083200F05AF9059B099A66
:10BF9000019D43EA0201069B0B43089B0DD1392BFF
:10BFA00027D0049A002A01DD029B31338BF8003040
:10BFB00079E73846B9E70122E2E70499002904DB72
:10BFC000059801430698014320D1002AEEDD514631
:10BFD00001222046019300F0CBFA3146824600F060
:10BFE00026FB0028019B02DCE0D1DA07DED5392BE5
:10BFF000DAD139238BF800302B461D46013B15F86A
:10C00000012C392A50D001321A704CE7002A03DD86
:10C01000392BEED00133C9E7019A079902F8013CA8
:10C020008A422AD0514600230A22204600F01FF9F6
:10C03000B84582464FF000034FF00A0241462046C1
:10C0400007D100F014F980460746019B01330193A4
:10C0500077E700F00CF93946804600230A22204693
:10C0600000F005F90746F0E7BBF1000F009ACCBFDE
:10C070005D46012515444FF0000851460122204637
:10C08000019300F075FA3146824600F0D0FA00289C
:10C09000B2DC02D1019BDB07AED42B461D4613F860
:10C0A000012D302AFAD0FEE6009A9A42A5D131231A
:10C0B00009F101091370F6E6124BFFF7B5BA219B9F
:10C0C000002B7FF48BAA104BFFF7AEBABBF1000F29
:10C0D00003DC059B022B3FF7CFAE009D3146504657
:10C0E000FFF7AAF900F1300305F8013B009AAA1AFC
:10C0F0009345B9DD514600230A22204600F0B7F8E7
:10C100008246EBE70B4306003351060000487047B8
:10C110006CA50020000000000000000000000000EE
:10C1200001F0FF01102A2BDB10F0070F08D010F8E8
:10C13000013B013A8B422DD010F0070F42B3F6D1EC
:10C14000F0B441EA012141EA014122F007047FF005
:10C1500000070023F0E80256083C85EA010586EA5C
:10C16000010685FA47F5A3FA87F586FA47F6A5FA98
:10C1700087F68EB9EED1F0BC01F0FF0102F00702A4
:10C1800032B110F8013B013A83EA010313B1F8D14F
:10C190000020704701387047002D06BF3546033830
:10C1A000073815F0010F07D1013015F4807F02BF69
:10C1B000013015F4C03F0130F0BC0138704700BFBA
:10C1C000014800F081BC00BF94A30120014800F0A9
:10C1D0007CBC00BF94A3012070B5466A04460D469E
:10C1E0003EB91020FEF726FBC0E9016660620660DA
:10C1F000C660666AF36883B1636ADB6853F825003A
:10C20000B8B9012101FA05F6721D9200204600F02E
:10C21000F0FA60B1C0E901560EE021220421204667
:10C2200000F0E7FA636AF060DB68002BE4D10020DD
:10C2300070BD026843F825200023C0E90333F7E707
:10C2400070B5466A05460C463EB91020FEF7F2FA74
:10C25000C0E9016668620660C6603CB16B6A6268EC
:10C26000DB6853F82210216043F8224070BD2DE9AD
:10C27000F0410E69074698460C4601F11400002370
:10C280000568A9B202FB01814FEA114C2D0C02FB9B
:10C2900005C589B2013301EB05419E4240F8041BFC
:10C2A0004FEA1548ECDCB8F1000F1BD0A368B3428D
:10C2B00012DC616838460131FFF78EFF22690232D5
:10C2C00004F10C01054692000C30FEF7C3FA21463A
:10C2D0003846FFF7B5FF2C4604EB86030136C3F85A
:10C2E000148026612046BDE8F081030C1B04D3B9FD
:10C2F0000004102310F07F4F04BF0002083310F039
:10C30000704F04BF0001043310F0404F04BF8000A1
:10C310000233002805DB10F0804F03F1010308BF52
:10C320002023184670470023E4E7036813F0070250
:10C3300001460BD0DA0724D4980749BF5B089B0855
:10C3400001200B605CBF0B600220704798B2B0B94F
:10C350001B0C102013F0FF0F04BF1B0A08301A0734
:10C3600004BF1B0904309A0704BF9B080230DA0798
:10C3700003D45B0800F1010005D00B607047104644
:10C38000E8E7002070472020704710B50C460121D7
:10C39000FFF722FF01224461026110BD2DE9F04F39
:10C3A00015460A692B699A42B8BF0B460C46BCBFBA
:10C3B0002C461D462769D5F81090A368616807EBE5
:10C3C0000906B342B8BF013185B0FFF705FF00F1A0
:10C3D000140101EB86080B46002243451DD304F1EE
:10C3E000140305F1140203EB870702EB89030293A0
:10C3F0003B1B153B23F00303043304F11505AF4247
:10C4000038BF04230193029B0392934208D8002E65
:10C410005ADC066105B0BDE8F08F43F8042BDCE779
:10C42000B2F800A0BAF1000F24D004F1140E89462E
:10C430004FF0000C5EF8045BD9F800B0ABB21FFA05
:10C440008BFB0AFB03B34FEA154BD9F8005063444A
:10C450004FEA154C0AFB0BC505EB13459BB243EAAB
:10C460000543774549F8043B4FEA154CE2D8019B58
:10C4700041F803C0039BB3F802900432B9F1000FF6
:10C4800020D00B6804F1140C8E464FF0000ABCF863
:10C490000050BEF802B009FB05B5AA449BB243EABE
:10C4A0000A434EF8043B5CF8043BBEF800501B0CFA
:10C4B00009FB035303EB1A4367454FEA134AE6D8D7
:10C4C000019D4B5104319EE758F8043D002BA0D14B
:10C4D000013E9CE72DE9F843154612F0030206469B
:10C4E0000F4607D0214C013A002354F82220FFF7D1
:10C4F000BEFE0746AD1035D0746A3CB91020FEF779
:10C5000099F9C0E9014470620460C460D6F82480DF
:10C51000D8F808404CB940F271213046FFF735FF9A
:10C520000023C8F80800044603604FF00009EB0739
:10C530000AD5394622463046FFF730FF3946804655
:10C540003046FFF77DFE47466D100BD0206838B9A6
:10C55000224621463046FFF721FF2060C0F80090B8
:10C560000446E4E73846BDE8F88300BF30520600D1
:10C570002DE9F0470C464968236903EB6218A3686C
:10C58000074691464FEA621A08F10106B3423FDBC3
:10C590003846FFF721FE0023054600F1140100F1A3
:10C5A00010021846534536DB20692AEAEA7A04F17C
:10C5B000140319F01F0901EB8A0103EB800C2ED044
:10C5C000C9F1200E8A460022186800FA09F00243D9
:10C5D0004AF8042B53F8042B9C4522FA0EF2F3D8A8
:10C5E000ACEB0403153B23F00303043304F1150003
:10C5F000604588BF0423CA500AB108F10206013E13
:10C6000038462E612146FFF71BFE2846BDE8F0871D
:10C6100001315B00BAE742F8040F0133C2E7043985
:10C6200053F8042B41F8042F9C45F9D8E7E730B5BF
:10C6300002690C69121B0ED100F11403143103EBD3
:10C64000840001EB840150F8045D51F8044DA542CB
:10C6500003D005D30122104630BD8342F3D3FAE75D
:10C660004FF0FF32F7E72DE9F84F0C46064611462A
:10C6700020461746FFF7DBFF051E08D12946304646
:10C68000FFF7AAFD0123C0E90435BDE8F88FA4BF78
:10C690003B46274630467968A6BF1C460025012543
:10C6A000FFF79AFD3E69C560256907F1140104F1A1
:10C6B000140900F1140E07F1100201EB860C09EBCE
:10C6C0008505F246002759F8043B52F804BF1FFACB
:10C6D00083F817FA8BF71B0CA7EB0808C3EB1B4377
:10C6E00003EB28431FFA88F81F144D4548EA03431B
:10C6F0004AF8043BE7D82B1B153B23F00303043314
:10C700001534A54238BF0423194473449E460D4690
:10C7100065450ED30CF10302521A22F003020339CD
:10C720008C4538BF00221A4452F8043D7BB10661A3
:10C73000ABE755F8048B17FA88F4221402EB184281
:10C74000A4B244EA02444EF8044B1714E0E7013E59
:10C75000EAE72DE9F7438946012157EC106B904633
:10C76000FFF73AFDC7F30A550446C7F3130335BB79
:10C77000002E019328D068460096FFF7D6FD009959
:10C7800000B3019AC0F1200302FA03F30B43C24045
:10C7900063610192019BA361002B14BF022201225D
:10C7A0002261D5B1A5F233450544C9F80050C0F166
:10C7B0003500C8F80000204603B0BDE8F08343F41C
:10C7C0008013D5E76161E5E701A8FFF7AEFD019BA6
:10C7D0006361012222612030E3E704EB8203A0F2CF
:10C7E0003240C9F800001869FFF77FFDC0EB421026
:10C7F000DFE713B54A4311460192FEF791F804466C
:10C8000018B1019A0021FEF733F8204602B010BD9E
:10C810002DE9F0478E689E4282460C4690461F46A0
:10C8200038D88A8912F4906F32D025680969A5EB4F
:10C830000109656905EB450505EBD57501334B44E9
:10C840006D109D4238BF1D46530531D52946FEF770
:10C8500067F8064650B90C23CAF80030A38943F0A4
:10C860004003A3814FF0FF30BDE8F08721694A46BD
:10C87000FDF7F0FFA38923F4906343F08003A381C5
:10C88000266165614E44A5EB09052660A5603E461C
:10C89000BE4200D93E4632462068414600F028F9A3
:10C8A000A36822689B1B3244A36022600020DBE760
:10C8B0002A4600F037F906460028E1D121695046A2
:10C8C000FDF7DEFFC7E700002DE9F04F98468B89A2
:10C8D0001B069DB007460D4614460ED50B6963B97D
:10C8E0004021FEF71DF82860286120B90C233B6029
:10C8F0004FF0FF30D1E040236B61002309932023E8
:10C900008DF82930CDF80C803023DFF8A8818DF820
:10C910002A304FF0010923469A4613F8012B0AB139
:10C92000252AF9D1BAEB040B0BD05B4622462946E7
:10C930003846FFF76DFF013000F0AA80099A5A448B
:10C9400009929AF80030002B00F0A28000234FF0EB
:10C95000FF32CDE905230AF1010A049307938DF80C
:10C9600053301A935446052214F8011B5148FFF71F
:10C97000D7FB049AD8B9D00644BF20238DF8533092
:10C98000110744BF2B238DF853309AF800302A2B1F
:10C9900015D0079A544600204FF00A0C214611F892
:10C9A000013B303B092B4ED9B0B1079214E0A0EB0C
:10C9B000080309FA03F313430493A246D2E7039B47
:10C9C000191D1B680391002BBBBF5B4242F00202A2
:10C9D00007930793B8BF049223782E2B0CD163786A
:10C9E0002A2B35D1039B1A1D1B680392002BB8BF5D
:10C9F0004FF0FF3302340593DFF8C8A021780322FB
:10CA00005046FFF78DFB40B14023A0EB0A0003FA2C
:10CA100000F0049B03430134049314F8011B2648DF
:10CA20008DF828100622FFF77BFB002838D0234B17
:10CA30001BBB039B073323F0070308330393099BB6
:10CA40003344099367E70CFB02320C460120A5E74B
:10CA500000230134059319464FF00A0C204610F8C4
:10CA6000012B303A092A03D9002BC5D00591C3E721
:10CA70000CFB012104460123F0E703AB00932A4697
:10CA80000F4B04A93846FEF745F8421C0646D6D19E
:10CA9000AB895B063FF52CAF09981DB0BDE8F08F60
:10CAA00003AB00932A46064B04A93846FEF7D6FA94
:10CAB000EBE700BF3C5206004652060015AB0200F1
:10CAC00011C80200425206007047704782B001B997
:10CAD00001A942B14BB113780B601278101E18BF38
