:020000040800F2
:1060000000FC0020F1BE00086DBF0008F9BF0008C9
:1060100065C0000867C0000869C0000800000000F3
:106020000000000000000000000000006BC000083D
:106030006DC00008000000006FC000086FC00008BD
:1060400041BF000841BF00088DC0000841BF0008E3
:1060500041BF000841BF0008E3C00008E9C00008D4
:10606000EFC00008F5C00008FBC0000899C0000898
:10607000A5C00008B1C00008BDC0000841BF0008AD
:1060800041BF000841BF000841BF000841BF0008F0
:1060900041BF000841BF000801C1000841BF00081E
:1060A00041BF000841BF000841BF000841BF0008D0
:1060B00041BF000841BF000841BF000841BF0008C0
:1060C00045BA020851BA020841BF000841BF0008A2
:1060D000C9C00008E1C0000895C1000841BF000820
:1060E00041BF000841C1000875C0000841BF000859
:1060F00041BF000841BF000841BF000841BF000880
:1061000041BF000841BF000881C00008ADC10008C0
:1061100041BF000841BF000841BF000841BF00085F
:1061200041BF000841BF000841BF000841BF00084F
:0861300041BF000841BF000857
:1061400010B5054C237833B9044B13B10448AFF3B1
:1061500000800123237010BD380F002000000000D4
:10616000C8E5020808B5034B1BB103490348AFF368
:10617000008008BD000000003C0F0020C8E50208B8
:1061800010F8012B11F8013B012A28BF9A42F7D0E1
:10619000D01A7047034613F8012B002AFBD1181AB6
:1061A00001387047000000000000000000000000FF
:1061B00001F0FF01102A2BDB10F0070F08D010F8B8
:1061C000013B013A8B422DD010F0070F42B3F6D1BC
:1061D000F0B441EA012141EA014122F007047FF0D5
:1061E00000070023F0E80256083C85EA010586EA2C
:1061F000010685FA47F5A3FA87F586FA47F6A5FA68
:1062000087F68EB9EED1F0BC01F0FF0102F0070273
:1062100032B110F8013B013A83EA010313B1F8D11E
:106220000020704701387047002D06BF35460338FF
:10623000073815F0010F07D1013015F4807F02BF38
:10624000013015F4C03F0130F0BC0138704700BF89
:1062500081F0004102E000BF83F0004330B54FEA17
:1062600041044FEA430594EA050F08BF90EA020F84
:106270001FBF54EA000C55EA020C7FEA645C7FEA17
:10628000655C00F0E2804FEA5454D4EB5555B8BF3A
:106290006D420CDD2C4480EA020281EA030382EAAB
:1062A000000083EA010180EA020281EA0303362D3D
:1062B00088BF30BD11F0004F4FEA01314FF4801C10
:1062C0004CEA113102D0404261EB410113F0004F22
:1062D0004FEA03334CEA133302D0524263EB4303D9
:1062E00094EA050F00F0A780A4F10104D5F1200E77
:1062F0000DDB02FA0EFC22FA05F2801841F10001D2
:1063000003FA0EF2801843FA05F359410EE0A5F1A5
:1063100020050EF1200E012A03FA0EFC28BF4CF0D6
:10632000020C43FA05F3C01851EBE37101F000458C
:1063300007D54FF0000EDCF1000C7EEB00006EEB99
:106340000101B1F5801F1BD3B1F5001F0CD3490823
:106350005FEA30004FEA3C0C04F101044FEA44527A
:1063600012F5800F80F09A80BCF1004F08BF5FEA01
:10637000500C50F1000041EB045141EA050130BDE1
:106380005FEA4C0C404141EB0101013C28BFB1F5F3
:10639000801FE9D291F0000F04BF01460020B1FA3E
:1063A00081F308BF2033A3F10B03B3F120020CDA11
:1063B0000C3208DD02F1140CC2F10C0201FA0CF0EF
:1063C00021FA02F10CE002F11402D8BFC2F1200C54
:1063D00001FA02F120FA0CFCDCBF41EA0C0190400A
:1063E000E41AA2BF01EB0451294330BD6FEA040453
:1063F0001F3C1CDA0C340EDC04F11404C4F120023E
:1064000020FA04F001FA02F340EA030021FA04F34F
:1064100045EA030130BDC4F10C04C4F1200220FAA6
:1064200002F001FA04F340EA0300294630BD21FAE4
:1064300004F0294630BD94F0000F83F4801306BFAA
:1064400081F480110134013D4EE77FEA645C18BF9E
:106450007FEA655C29D094EA050F08BF90EA020F35
:1064600005D054EA000C04BF1946104630BD91EA2D
:10647000030F1EBF0021002030BD5FEA545C05D130
:106480004000494128BF41F0004130BD14F580046F
:106490003CBF01F5801130BD01F0004545F0FE41E3
:1064A00041F470014FF0000030BD7FEA645C1ABF18
:1064B000194610467FEA655C1CBF0B46024650EA4F
:1064C000013406BF52EA033591EA030F41F400217B
:1064D00030BD00BF90F0000F04BF0021704730B501
:1064E0004FF4806404F132044FF000054FF00001D6
:1064F00050E700BF90F0000F04BF0021704730B597
:106500004FF4806404F1320410F0004548BF40426B
:106510004FF000013EE700BF42004FEAE2014FEAC0
:1065200031014FEA02701FBF12F07F4393F07F4F9B
:1065300081F06051704732F07F4208BF704793F09E
:106540007F4F04BF41F40021704730B54FF46074B1
:1065500001F0004521F000411CE700BF50EA0102B4
:1065600008BF704730B54FF000050AE050EA01025D
:1065700008BF704730B511F0004502D5404261EBCD
:1065800041014FF4806404F132045FEA915C3FF40E
:10659000D8AE4FF003025FEADC0C18BF03325FEAAB
:1065A000DC0C18BF033202EBDC02C2F1200300FA5C
:1065B00003FC20FA02F001FA03FE40EA0E0021FA81
:1065C00002F11444BDE600BF70B54FF0FF0C4CF46F
:1065D000E06C1CEA11541DBF1CEA135594EA0C0F21
:1065E00095EA0C0F00F0DEF82C4481EA030621EA5C
:1065F0004C5123EA4C5350EA013518BF52EA033597
:1066000041F4801143F4801338D0A0FB02CE4FF048
:106610000005E1FB02E506F00042E0FB03E54FF078
:106620000006E1FB03569CF0000F18BF4EF0010E70
:10663000A4F1FF04B6F5007F64F5407404D25FEA6C
:106640004E0E6D4146EB060642EAC62141EA55511F
:106650004FEAC52040EA5E504FEACE2EB4F1FD0C61
:1066600088BFBCF5E06F1ED8BEF1004F08BF5FEADF
:10667000500E50F1000041EB045170BD06F0004691
:1066800046EA010140EA020081EA0301B4EB5C043E
:10669000C2BFD4EB0C0541EA045170BD41F4801136
:1066A0004FF0000E013C00F3AB8014F1360FDEBF5B
:1066B000002001F0004170BDC4F10004203C35DA37
:1066C0000C341BDC04F11404C4F1200500FA05F3BA
:1066D00020FA04F001FA05F240EA020001F000425B
:1066E00021F0004110EBD37021FA04F642EB0601D1
:1066F0005EEA430E08BF20EAD37070BDC4F10C04FB
:10670000C4F1200500FA04F320FA05F001FA04F2BE
:1067100040EA020001F0004110EBD37041F10001AA
:106720005EEA430E08BF20EAD37070BDC4F12005B5
:1067300000FA05F24EEA020E20FA04F301FA05F21D
:1067400043EA020321FA04F001F0004121FA04F2C5
:1067500020EA020000EBD3705EEA430E08BF20EA95
:10676000D37070BD94F0000F0FD101F000464000CF
:1067700041EB010111F4801F08BF013CF7D041EA51
:10678000060195F0000F18BF704703F00046520055
:1067900043EB030313F4801F08BF013DF7D043EA26
:1067A0000603704794EA0C0F0CEA135518BF95EADC
:1067B0000C0F0CD050EA410618BF52EA4306D1D163
:1067C00081EA030101F000414FF0000070BD50EA82
:1067D000410606BF1046194652EA430619D094EA0C
:1067E0000C0F02D150EA013613D195EA0C0F05D1F6
:1067F00052EA03361CBF104619460AD181EA03014A
:1068000001F0004141F0FE4141F470014FF0000001
:1068100070BD41F0FE4141F4780170BD70B54FF09C
:10682000FF0C4CF4E06C1CEA11541DBF1CEA13551C
:1068300094EA0C0F95EA0C0F00F0A7F8A4EB0504FE
:1068400081EA030E52EA03354FEA013100F08880F5
:106850004FEA03334FF0805545EA131343EA1263BE
:106860004FEA022245EA111545EA10654FEA002673
:106870000EF000419D4208BF964244F1FD0404F52C
:10688000407402D25B084FEA3202B61A65EB030588
:106890005B084FEA32024FF480104FF4002CB6EB45
:1068A000020E75EB030E22BFB61A754640EA0C00C5
:1068B0005B084FEA3202B6EB020E75EB030E22BF05
:1068C000B61A754640EA5C005B084FEA3202B6EB46
:1068D000020E75EB030E22BFB61A754640EA9C0005
:1068E0005B084FEA3202B6EB020E75EB030E22BFD5
:1068F000B61A754640EADC0055EA060E18D04FEA93
:10690000051545EA16754FEA06164FEAC30343EA32
:1069100052734FEAC2025FEA1C1CC0D111F4801FFF
:106920000BD141EA00014FF000004FF0004CB6E7F8
:1069300011F4801F04BF01430020B4F1FD0C88BF97
:10694000BCF5E06F3FF6AFAEB5EB030C04BFB6EBA2
:10695000020C5FEA500C50F1000041EB045170BD95
:106960000EF0004E4EEA113114EB5C04C2BFD4EBC2
:106970000C0541EA045170BD41F480114FF0000E46
:10698000013C90E645EA060E8DE60CEA135594EAC2
:106990000C0F08BF95EA0C0F3FF43BAF94EA0C0FC5
:1069A0000AD150EA01347FF434AF95EA0C0F7FF43A
:1069B00025AF104619462CE795EA0C0F06D152EA8E
:1069C00003353FF4FDAE1046194622E750EA410672
:1069D00018BF52EA43067FF4C5AE50EA41047FF483
:1069E0000DAF52EA43057FF4EBAE12E74FF0FF3CE8
:1069F00006E000BF4FF0010C02E000BF4FF0010CB9
:106A00004DF804CD4FEA410C7FEA6C5C4FEA430C31
:106A100018BF7FEA6C5C1BD001B050EA410C0CBF80
:106A200052EA430C91EA030F02BF90EA020F0020E2
:106A3000704710F1000F91EA030F58BF994208BF49
:106A400090422CBFD8176FEAE37040F00100704706
:106A50004FEA410C7FEA6C5C02D150EA013C07D15D
:106A60004FEA430C7FEA6C5CD6D152EA033CD3D0A8
:106A70005DF8040B704700BF8446104662468C46A2
:106A80001946634600E000BF01B5FFF7B7FF0028D5
:106A900048BF10F1000F01BD4DF808EDFFF7F4FFFE
:106AA0000CBF012000205DF808FB00BF4DF808ED89
:106AB000FFF7EAFF34BF012000205DF808FB00BFAC
:106AC0004DF808EDFFF7E0FF94BF012000205DF8CE
:106AD00008FB00BF4DF808EDFFF7CEFF94BF012083
:106AE00000205DF808FB00BF4DF808EDFFF7C4FF7C
:106AF00034BF012000205DF808FB00BF4FEA410CC5
:106B00007FEA6C5C02D150EA013C0AD14FEA430CA7
:106B10007FEA6C5C02D152EA033C02D14FF00000E4
:106B200070474FF0010070474FEA410212F5001222
:106B300015D211D56FF47873B3EB625212D94FEAC4
:106B4000C12343F0004343EA505311F0004F23FAAE
:106B500002F018BF404270474FF00000704750EA03
:106B6000013005D111F0004008BF6FF000407047C0
:106B70004FF00000704700BF4FEA4102B2F1E0431E
:106B800024BFB3F5001CDCF1FE5C0DD901F0004C14
:106B90004FEAC0024CEA5070B2F1004F40EB830064
:106BA00008BF20F00100704711F0804F21D113F190
:106BB0003872BCBF01F00040704741F480114FEAC9
:106BC0005252C2F11802C2F1200C10FA0CF320FA52
:106BD00002F018BF40F001004FEAC1234FEAD3236F
:106BE00003FA0CFC40EA0C0023FA02F34FEA4303D9
:106BF000CCE77FEA625307D150EA01331EBF4FF062
:106C0000FE4040F44000704701F0004040F0FE407C
:106C100040F40000704700BF80F0004002E000BF79
:106C200081F0004142001FBF5FEA410392EA030F77
:106C30007FEA226C7FEA236C6AD04FEA1262D2EBC1
:106C40001363C1BFD218414048404140B8BF5B42C6
:106C5000192B88BF704710F0004F40F4000020F05F
:106C60007F4018BF404211F0004F41F4000121F075
:106C70007F4118BF494292EA030F3FD0A2F10102BF
:106C800041FA03FC10EB0C00C3F1200301FA03F1FD
:106C900000F0004302D5494260EB4000B0F5000F20
:106CA00013D3B0F1807F06D340084FEA310102F1DF
:106CB0000102FE2A51D2B1F1004F40EBC25008BF91
:106CC00020F0010040EA03007047490040EB00005B
:106CD000013A28BFB0F5000FEDD2B0FA80FCACF15C
:106CE000080CB2EB0C0200FA0CF0AABF00EBC25089
:106CF00052421843BCBFD0401843704792F0000F77
:106D000081F4000106BF80F400000132013BB5E7C9
:106D10004FEA41037FEA226C18BF7FEA236C21D03F
:106D200092EA030F04D092F0000F08BF08467047A4
:106D300090EA010F1CBF0020704712F07F4F04D172
:106D4000400028BF40F00040704712F100723CBF85
:106D500000F50000704700F0004343F0FE4040F4AF
:106D6000000070477FEA226216BF08467FEA23636D
:106D70000146420206BF5FEA412390EA010F40F458
:106D8000800070474FF0000304E000BF10F00043A4
:106D900048BF40425FEA000C08BF704743F096438B
:106DA00001464FF000001CE050EA010208BF7047A6
:106DB0004FF000030AE000BF50EA010208BF70472D
:106DC00011F0004302D5404261EB41015FEA010C42
:106DD00002BF84460146002043F0B64308BFA3F13A
:106DE0008053A3F50003BCFA8CF2083AA3EBC2531C
:106DF00010DB01FA02FC634400FA02FCC2F120023B
:106E0000BCF1004F20FA02F243EB020008BF20F071
:106E10000100704702F1200201FA02FCC2F12002D7
:106E200050EA4C0021FA02F243EB020008BF20EACC
:106E3000DC7070474FF0FF0C1CEAD0521EBF1CEAFA
:106E4000D15392EA0C0F93EA0C0F6FD01A4480EAE8
:106E5000010C400218BF5FEA41211ED04FF00063D1
:106E600043EA501043EA5111A0FB01310CF00040FD
:106E7000B1F5000F3EBF490041EAD3715B0040EA23
:106E8000010062F17F02FD2A1DD8B3F1004F40EBF3
:106E9000C25008BF20F00100704790F0000F0CF0C6
:106EA000004C08BF49024CEA502040EA51207F3A8A
:106EB000C2BFD2F1FF0340EAC250704740F4000065
:106EC0004FF00003013A5DDC12F1190FDCBF00F056
:106ED00000407047C2F10002410021FA02F1C2F104
:106EE000200200FA02FC5FEA310040F1000053EAA0
:106EF0004C0308BF20EADC70704792F0000F00F0EE
:106F0000004C02BF400010F4000F013AF9D040EAF3
:106F10000C0093F0000F01F0004C02BF490011F487
:106F2000000F013BF9D041EA0C018FE70CEAD15385
:106F300092EA0C0F18BF93EA0C0F0AD030F0004C05
:106F400018BF31F0004CD8D180EA010000F00040B9
:106F5000704790F0000F17BF90F0004F084691F077
:106F6000000F91F0004F14D092EA0C0F01D14202B1
:106F70000FD193EA0C0F03D14B0218BF084608D17A
:106F800080EA010000F0004040F0FE4040F40000C4
:106F9000704740F0FE4040F4400070474FF0FF0C57
:106FA0001CEAD0521EBF1CEAD15392EA0C0F93EA9E
:106FB0000C0F69D0A2EB030280EA010C49024FEAF0
:106FC000402037D04FF0805343EA111143EA1013A9
:106FD0000CF000408B4238BF5B0042F17D024FF461
:106FE000000C8B4224BF5B1A40EA0C00B3EB510F3C
:106FF00024BFA3EB510340EA5C00B3EB910F24BF25
:10700000A3EB910340EA9C00B3EBD10F24BFA3EBA9
:10701000D10340EADC001B0118BF5FEA1C1CE0D171
:10702000FD2A3FF650AF8B4240EBC25008BF20F024
:10703000010070470CF0004C4CEA50207F32C2BF78
:10704000D2F1FF0340EAC250704740F400004FF015
:107050000003013A37E792F0000F00F0004C02BF46
:10706000400010F4000F013AF9D040EA0C0093F010
:10707000000F01F0004C02BF490011F4000F013B6A
:10708000F9D041EA0C0195E70CEAD15392EA0C0FD2
:1070900008D142027FF47DAF93EA0C0F7FF470AF0A
:1070A000084676E793EA0C0F04D14B023FF44CAF4D
:1070B00008466EE730F0004C18BF31F0004CCAD1E2
:1070C00030F000427FF45CAF31F000437FF43CAF1E
:1070D0005FE700BF4FF0FF3C06E000BF4FF0010C40
:1070E00002E000BF4FF0010C4DF804CD4FEA400222
:1070F0004FEA41037FEA226C18BF7FEA236C11D06C
:1071000001B052EA530C18BF90EA010F58BFB2EB1E
:10711000030088BFC81738BF6FEAE17018BF40F09E
:10712000010070477FEA226C02D15FEA402C05D152
:107130007FEA236CE4D15FEA412CE1D05DF8040BD7
:10714000704700BF844608466146FFE70FB5FFF76A
:10715000C9FF002848BF10F1000F0FBD4DF808ED22
:10716000FFF7F4FF0CBF012000205DF808FB00BF13
:107170004DF808EDFFF7EAFF34BF012000205DF86D
:1071800008FB00BF4DF808EDFFF7E0FF94BF0120BA
:1071900000205DF808FB00BF4DF808EDFFF7D2FFB7
:1071A00094BF012000205DF808FB00BF4DF808EDFA
:1071B000FFF7C8FF34BF012000205DF808FB00BFC7
:1071C00042000ED2B2F1FE4F0BD34FF09E03B3EB51
:1071D000126209D44FEA002343F0004323FA02F07D
:1071E00070474FF00000704712F1610F01D1420269
:1071F00002D14FF0FF3070474FF00000704700BFE2
:1072000053B94AB9002908BF00281CBF4FF0FF310D
:107210004FF0FF3000F06CB9ADF1080C6DE904CE11
:1072200000F006F8DDF804E0DDE9022304B0704761
:107230002DE9F047089E0D4604468E46002B40F08F
:1072400082808A42174646D9B2FA82F24AB1C2F126
:10725000200105FA02F320FA01F1974041EA030EFA
:1072600094404FEA1748230CBEFBF8FCB9B208FB68
:107270001CEE43EA0E430CFB01F098420AD9FB18BE
:107280000CF1FF3580F01681984240F21381ACF189
:10729000020C3B441B1AA4B2B3FBF8F008FB1033FA
:1072A00044EA034400FB01F1A14209D93C1900F171
:1072B000FF3380F00181A14240F2FE8002383C445D
:1072C000641A40EA0C4000211EB1D4400023C6E9F4
:1072D0000043BDE8F08702B9FFDEB2FA82F2002A6D
:1072E0004FD1CB1B4FEA174E1FFA87F80121B3FB92
:1072F000FEFC250C0EFB1C3345EA034508FB0CF392
:10730000AB4207D97D190CF1FF3002D2AB4200F23B
:10731000E7808446ED1AA3B2B5FBFEF00EFB1055D4
:1073200043EA054408FB00F8A04507D93C1900F1E1
:10733000FF3302D2A04500F2D7801846A4EB080420
:1073400040EA0C40C0E78B4208D9002E00F0AF8025
:107350000021C6E900050846BDE8F087B3FA83F1CD
:1073600000294BD1AB4202D3824200F2B780841A8B
:1073700065EB030301209E46002EAAD0C6E9004E0D
:10738000A7E7C2F1200C01FA02F3974020FA0CF0B3
:107390004FEA174E21FA0CFC1843BCFBFEF1050C1A
:1073A0000EFB11CC1FFA87F845EA0C4501FB08F3E8
:1073B000AB4204FA02F409D97D1901F1FF3C80F0D7
:1073C0008B80AB4240F2888002393D44EB1A85B293
:1073D000B3FBFEF00EFB103345EA034500FB08F358
:1073E000AB4207D97D1900F1FF3C71D2AB426FD996
:1073F00002383D44EB1A40EA014178E7C1F1200C24
:107400008B4022FA0CF71F4320FA0CF405FA01F323
:107410004FEA174E25FA0CF51C43230CB5FBFEF979
:107420001FFA87F80EFB195543EA054509FB08FAD0
:10743000AA4502FA01F200FA01F308D97D1909F10F
:10744000FF3047D2AA4545D9A9F102093D44A5EB31
:107450000A05A4B2B5FBFEF00EFB105544EA054444
:1074600000FB08F8A04507D93C1900F1FF352DD2E3
:10747000A0452BD902383C4440EA0940A4EB08045B
:10748000A0FB02894C45C6464D4619D316D05EB1C5
:10749000B3EB0E0264EB050404FA0CFCCA404CEAA0
:1074A0000202CC40C6E900240021BDE8F087314645
:1074B00030460EE7AC46EDE6184601E74345E6D216
:1074C000B8EB020E69EB07050138E0E72846D3E781
:1074D00060468FE78146BAE7614677E708464BE7A3
:1074E000ACF1020C3D4415E702383C4426E700BFEE
:1074F000704700BF10B5044602F06EF8204610BD7C
:10750000014806F04EBD00BF7C1E0020002310B5D0
:1075100019460C4A0C480D4C00F0B4FF0C4B0022ED
:10752000012119705A740B4B204619705A745A82F3
:10753000FF2102F045F82046074A0849BDE81040FF
:1075400002F024BD541E0020880F00207C0F002074
:10755000540F0020F00F002000000020F5740008F8
:1075600010B50121082006F044FD0121084606F06F
:1075700040FD0F4C0F4B104901221A7020460F4A54
:1075800006F0F4FC0E49204606F0F0FC0D492046BA
:1075900006F0ECFC204606F04EF9642010F0F8FCF2
:1075A000BDE81040084A09480023022106F089BBC3
:1075B0002C1E0020041000201DE7020818E7020816
:1075C00023E7020815ED0208E0930400E51E002001
:1075D00010B5B94890B006F07DFA012840F0BF819F
:1075E000B64806F049FAB64B1870B64806F0F4F9FA
:1075F000B54B1870B54806F04FFAB54BB549187041
:10760000B04806F0EBF9B449AE4806F0F7F9B349D3
:10761000AC4806F0EBF90121002006F0D3FC012173
:10762000002006F0E6FC0121084606F0CBFC012113
:10763000084606F0DEFC022306224FF4E131A8489A
:1076400006F0FEF841F2883010F0A2FCA54907A828
:1076500006F0D6FB0A22012104A806F00DFC04A9BD
:1076600007A806F032FCA04906F03BFC0A220446BB
:1076700001210AA806F000FC0AA9204606F025FC14
:10768000994906F02EFC0A22044600210DA806F0B6
:10769000F3FB0DA9204606F018FC014601A806F0F0
:1076A000D0FB0DA806F066FB0AA806F063FB04A851
:1076B00006F060FB07A806F05DFB01A90DA806F027
:1076C000C0FB0DA9894806F0A9FA0DA806F052FBE7
:1076D0008749834806F040FC8649814806F03CFC17
:1076E00085497F4806F038FC80490DA806F080FAED
:1076F0000D9A82497A4806F039FC0DA806F03AFB4B
:107700007C49774806F028FC01F04AFE90B97C4A93
:107710007C49734806F02AFC7B49714806F026FC38
:107720007A496F4806F022FC6D4806F084F8642020
:1077300010F02EFC01F0FCFD90B9714A71496848C7
:1077400006F014FC7249664806F010FC6F49644864
:1077500006F00CFC624806F06EF8642010F018FC8D
:1077600001F0FEFD90B9664A66495D4806F0FEFBF1
:1077700068495B4806F0FAFB6449594806F0F6FB95
:10778000574806F058F8642010F002FC01F092FE11
:107790000021084606F02DFC0121082006F012FC0D
:1077A0000121082006F025FC5B4806F08FF85A48B6
:1077B000012306224FF4965106F042F8574A5848E2
:1077C0000123002106F073FA564B5A6822B10023B8
:1077D0005348194606F075FA534A514800230121CF
:1077E00006F065FA514A4E480023022106F05FFA7E
:1077F000314806F06FF90446002840F0BD8001468C
:10780000012006F0F6FB3E4A3E49354806F0AEFB45
:107810004749334806F0AAFB3C49314806F0A6FB2D
:107820002F4806F008F8642010F0B2FB2046FFF75E
:1078300097FE214806F04EF9012840F08780204B42
:107840002F4A1B782F492648002B00F0A08006F015
:107850008DFB3849224806F089FB2C49204806F068
:1078600085FB1F4805F0E7FF642010F091FB244AD8
:1078700024491B4806F07AFB134B2F491A78184805
:1078800006F074FB2149164806F070FB144805F019
:10789000D2FF642010F07CFB194A1A49104806F008
:1078A00065FB0B4B25491A780D4806F05FFB17491D
:1078B0000B4806F05BFB43E00C1F0020F01E00208D
:1078C000780F0020E81E0020790F0020F71E00200E
:1078D0000400002005890008B58A00089188000886
:1078E0002C1E002033E7020846E702088C1E002009
:1078F00048E7020865E702089CE70208DCE702089F
:10790000E4E702081DE70208EAE7020815ED0208AD
:107910000EE8020839E80208541E002061750008CC
:10792000E51E002008000020B9790008097F000842
:1079300062E802087CE80208A1E80208ACE8020854
:10794000154805F078FF642010F022FB0121134850
:1079500006F02FFB01A806F00DFA10B010BD10497B
:10796000104805F0FBFF10490E4805F0FFFF0F49D6
:107970000C4806F003F84EE60021082006F039FB1B
:107980000B4805F0A3FF012010F048FD51E706F079
:10799000EDFA08495EE700BF2C1E00207D1E002086
:1079A000058B00080D1F00204D8C0008998C0008E5
:1079B000541E00208EE802082DE9F04F012185B009
:1079C000082006F016FBA848A84C012306224FF415
:1079D000965105F035FFA64BA64A1F78A649A74841
:1079E000002F00F0A48006F0C1FAA549A348A54DD8
:1079F00006F0BCFAA449A14806F0B8FA9F4805F081
:107A00001AFF642010F0C4FA9A4A9B499B4806F07A
:107A1000ADFA95F911209D49984806F0A7FA9A49C0
:107A2000964806F0A3FA954805F005FF642010F08B
:107A3000AFFA95F911200023082AE380A380638020
:107A40002380E381A381638123810BDC29462046C7
:107A50009A4201F101011BDD91F9006020F8026BEF
:107A60000133F5E78449834A844806F07FFA884960
:107A7000824806F07BFA8449804806F077FA7F480E
:107A800005F0D9FE642005B0BDE8F04F10F080BAD3
:107A9000804B29781970012A14BF102106215970D2
:107AA000698A59809C609A807A4B7B487A4D0ECBCC
:107AB00000F0A2FD06F0A2FA4FF00008044641F2E1
:107AC0008736002706F09AFA031B029368EB4803F7
:107AD0000393DDE90223964277EB03031ADB284682
:107AE00000F080FE284600F0F4FC0028EAD1614A4C
:107AF0006149624806F03AFA6849604806F036FA89
:107B000061495E4806F032FA5C4805F094FE642054
:107B100010F03EFA0021082006F06BFA524805F0FA
:107B2000D5FE012005B0BDE8F04F10F077BC06F09F
:107B30001DFA5B4951485B4E06F018FA52494F480E
:107B400006F014FA4D4805F076FE642010F020FA95
:107B5000484A4949494806F009FA96F9112052491C
:107B6000464806F003FA4849444806F0FFF94348FE
:107B700005F061FE642010F00BFA96F911302780B1
:107B8000102B4BDCDFF8ECB0DFF8ECA0DFF8EC807A
:107B9000B146082596F91130BB4246DD5A4651469A
:107BA000404606F0E3F999F90120404902FA05F34D
:107BB00000933F4B4046002A08BF0B463A463D49DA
:107BC00006F0D4F93049404606F0D0F9404605F0B9
:107BD00032FE642010F0DCF919F9013F2288AB4035
:107BE000134351465A464046238006F0BFF9B4F984
:107BF00000203149404606F0B9F92349404606F0D5
:107C0000B5F90135404605F016FEEDB2642010F0DE
:107C1000BFF9102D08BF00250137BBE71649154AEB
:107C2000164806F0A3F9254922E7124A12491348DB
:107C300006F09CF9B4F900201F49104806F096F9A7
:107C400011490E4806F092F90C4805F0F4FD642045
:107C500010F09EF90F4B32781A700F225A700022E2
:107C60005A8096F911201DE7541E0020660F00204F
:107C7000840F0020B8E802081DE702082C1E00202F
:107C8000BDE80208F00F002015ED0208E5E8020843
:107C9000F9E8020808100020880F0020C3E9020854
:107CA00037E90208540F00205BE90208B4E8020833
:107CB000D1FF0208A6E90208B4E902086BE902084C
:107CC00013B57B4805F006FF01287A4A7A497B48BC
:107CD00040F0C08006F04AF9794801F087FC794904
:107CE0000246764806F042F97749744806F03EF9B4
:107CF000724805F0A0FD642010F04AF9734805F0C1
:107D0000DDFE04466E4801F071FC81B2A0B201F0C4
:107D100045FC684A68490446684806F027F96C48FB
:107D200005F0BAFE224603466A49644806F01EF989
:107D30006549624806F01AF9604805F07CFD642048
:107D400010F026F9102C42D15A4A5B495B4806F0E4
:107D50000DF96149594806F009F95B49574806F0A1
:107D600005F9564805F067FD642010F011F95448F4
:107D700001F03CFC0446524801F03AFC574B1B789A
:107D80000193574B1B780093564B02461B7856487D
:107D9000214605F0FCFD002852D0464A4649474896
:107DA00006F0E4F8464801F021FC504902464348F9
:107DB00006F0DCF84449414806F0D8F83F4805F0A1
:107DC0003AFD642002B0BDE8104010F0E1B8404830
:107DD00005F062FEA04216D9364A3749374806F008
:107DE000C5F84349354806F0C1F83749334806F02D
:107DF000BDF8324805F01FFD642010F0C9F8344882
:107E0000214605F04BFE324805F046FEA042AED2B8
:107E1000284A2949294806F0A9F83649274806F092
:107E2000A5F82949254806F0A1F8244805F003FDE6
:107E3000642010F0ADF82146254805F02FFE96E7A6
:107E40001D491C4A1D4806F091F82B491B4806F0B5
:107E50008DF8AFE706F08AF8194801F0C7FB27490B
:107E60000246164806F082F81749144806F07EF8D4
:107E7000124805F0E0FC642010F08AF8002101208F
:107E800006F0B7F80E4801F0B1FB04460C4801F0CB
:107E9000AFFB012302462146194805F048FD0028A2
:107EA000CED00549034A054806F060F81549CDE7EC
:107EB0000C1F0020CEE902081DE702082C1E00203E
:107EC0007C0F0020D5E9020815ED0208091F0020EB
:107ED000F71E0020FEE9020849EA0208790F002097
:107EE000780F002005000020E81E0020E4EA0208C8
:107EF0005EEA0208A0EA0208FDEA020809EB0208AD
:107F00000D1F00202BEB02082DE9F0470546744AAF
:107F10007449754888B0002D00F0DD8006F026F821
:107F200072497148724C734F06F020F872496E48DE
:107F300006F01CF86C4805F07EFC642010F028F870
:107F400001236E4806224FF4965105F079FC644AED
:107F50006449654806F00AF86949634806F006F87E
:107F60006549614806F002F85F4805F064FC64204A
:107F700010F00EF84FF4FA7010F00AF85D4800F0B7
:107F80008CFA5C484FF4FA6100F0A0FA544A554963
:107F9000554805F0EBFF5B49534805F0E7FF5649AC
:107FA000514805F0E3FF504805F045FC64200FF010
:107FB000EFFF4FF4FA700FF0EBFF494A49494A4886
:107FC00005F0D4FF5049484805F0D0FF4A494648DB
:107FD00005F0CCFF444805F02EFC64200FF0D8FFDC
:107FE0004FF6FF732381E380A38063802380238285
:107FF000E381A3816381454B3E489C6040F201329E
:108000001A6009229A800ECB00F0F6FA05F0F6FF0E
:108010004FF0000A064605F0F1FF41F28732B0EB5F
:1080200006086AEB4A090023424573EB09034ADB61
:10803000384600F0D7FB384600F04BFA0028EAD16A
:10804000B4F90030264A27492748013368D105F0A2
:108050008DFF2F49244805F089FF2749224805F064
:1080600085FF214805F0E7FB64200FF091FF1C4AD3
:108070001C491D4805F07AFFB4F910300693B4F995
:108080000E300593B4F90C300493B4F90A3003931D
:10809000B4F908300293B4F906300193B4F904300E
:1080A000B4F900201B4900930F48B4F9023005F0E1
:1080B0005DFF11490C4805F059FF0B4805F0BBFB6B
:1080C00064200FF065FF002D00F0C48112490648BE
:1080D00005F04CFF8CE105F049FF104921E700BF96
:1080E00018E702081DE702082C1E00203BEB0208DF
:1080F000660F0020880F002015ED0208541E002096
:1081000068EB02087BEB020895EB020808100020E0
:10811000B3EB0208C4EB0208B4EC02084FEB020810
:1081200005F024FF2088DFF82483FEF7E3F9B54B40
:108130000022FEF773FB0B460246B349B34805F035
:1081400015FFB349B14805F011FFB04805F073FBC6
:1081500064200FF01DFFAF4AAF49AC4805F006FFA1
:10816000B4F90200FEF7C6F9A64B0022FEF756FB53
:108170000B460246A949A54805F0F8FEA449A348C4
:1081800005F0F4FEA14805F056FB64200FF000FF57
:10819000A04AA1499D4805F0E9FEA088FEF7AAF98A
:1081A0000B4602469E49994805F0E0FE98499748DB
:1081B00005F0DCFE954805F03EFB64200FF0E8FE7C
:1081C000944A9549914805F0D1FEE088FEF792F96E
:1081D0008C4B0022FEF722FB0B46024691498B484E
:1081E00005F0C4FE8A49894805F0C0FE874805F0BD
:1081F00022FB64200FF0CCFE864A8749834805F0B5
:10820000B5FE2089FEF776F90B46024686497F487F
:1082100005F0ACFE7E497D4805F0A8FE7B4805F0E0
:108220000AFB64200FF0B4FE7A4A7B49774805F0D8
:108230009DFE6089FEF75EF90B4602467B49734856
:1082400005F094FE7249714805F090FE6F4805F004
:10825000F2FA64200FF09CFE6E4A6F496B4805F0FD
:1082600085FEA089FEF746F90B460246704967482D
:1082700005F07CFE6649654805F078FE634805F028
:10828000DAFA64200FF084FE624A63495F4805F021
:108290006DFEE089FEF72EF90B46024665495B4804
:1082A00005F064FE5A49594805F060FE574805F04C
:1082B000C2FA64200FF06CFE564A5749534805F045
:1082C00055FE208AFEF716F902460B464F485A49DA
:1082D00005F04CFE4E494D4805F048FE4B4805F070
:1082E000AAFA64200FF054FE544801F07CF9B4F966
:1082F0000200FEF7FFF8434B0022FEF78FFAFEF76D
:108300003BFC032102464D4801F0A3FA2088FEF70A
:10831000F1F83C4B0022FEF781FAFEF72DFC02211A
:108320000246464801F09CFAA2884448042101F024
:1083300015FA0A26E088B0FBF6F0FEF727FD0521C6
:1083400002463E4801F07EFA22893C48062101F0AF
:1083500005FA62893948072101F000FAA2893748F5
:10836000082101F0FBF9E2893448092101F0F6F90E
:10837000228A3248314601F0F1F90027404605F0E3
:108380006DFC01463846FEF74DFC013E0746F5D12F
:108390002B49FEF703FE01210246284801F067FA47
:1083A000002D55D02088FEF7A5F8164B0022FEF7C9
:1083B00035FA0646A0880F46FEF79CF8CDE9040181
:1083C000E088FEF797F80F4B0022FEF727FACDE979
:1083D00002016088FEF78EF80A4B0022FEF71EFAB3
:1083E0003246CDE900013B461649084805F0BEFD7E
:1083F0001549064805F0BAFD642008B0BDE8F0470D
:108400000FF0C6BD00002440F2EB02082C1E002035
:1084100015ED020818E702081DE7020802EC020841
:1084200015EC020829EC020833EC020843EC0208C0
:1084300055EC020866EC020876EC02087C0F00207E
:108440000000204181EC020814ED0208E11E00202A
:10845000FFF736FC0021082005F0CBFD074805F0AA
:1084600035FA01200FF0DAFF0021012005F0C1FDEF
:10847000034B00221A7008B0BDE8F087541E00209C
:108480000410002010B543714FF47A73A0F85630F1
:10849000002302600171036610BD10B504464079E7
:1084A000012806D9012105F08DFD6079002105F034
:1084B000A0FD206803685B6998470028F9DA00236B
:1084C000A4F848302365A4F8543010BDA0F8561025
:1084D00070478079704738B504464079012802D941
:1084E000002105F086FD002584F8485020680368C7
:1084F0001B69984778B1206803685B69984794F8CE
:108500004830E2180133DBB2402B107228BF01253E
:1085100084F84830EAE7B4F850300133A4F850301A
:108520003DB1B4F854300133A4F854306FF0020078
:1085300038BD94F94800FBE770B5083000244FF6C9
:10854000FF734AF20105E2B291420ED910F8012BF5
:108550005340082203F001065B0806B16B40013A64
:1085600012F0FF02F6D10134EDE7180240EA1320C1
:1085700080B270BD13B590F848100446FFF7DCFFD9
:10858000631802121A724B1C54FA83F302311872E8
:10859000607984F84810012802D9012105F029FDED
:1085A000206894F84820036804F108015B68984744
:1085B0006379012B0DD9206803689B689847236E67
:1085C000019301994B1E01930029FAD1607905F0BE
:1085D00010FD206803685B6998470028F9DA0023DA
:1085E00084F8483005F00AFDB4F85230E0650133F4
:1085F000A4F8523002B010BD7FB5044604A800E9CB
:108600000E002379BDF80650BDF808009DF80460FF
:108610009DF80520BDF808106DBA40BA002B71D145
:10862000A379002B71D1731EDBB2F62B70D8039B9C
:108630006272013AE364267265810F2A0DD8DFE881
:1086400002F008080808141F0C0C0C0C0C0C0C0C85
:108650002446A081062384F848302046FFF78AFF8D
:108660000123E380002004B070BDB3F90030002B7B
:10867000D4BF002301235B42237300236373E9E724
:1086800093F9012022731B88F8E7CA0802F0FE0262
:1086900009071CBF0132D2B20721A273A08184F85E
:1086A0004810002592B2AEB2B242D6D9710816F087
:1086B000010F33F9110094F8481004EB010608BFCC
:1086C000001201313072013584F84810EBE749009F
:1086D0000722A173A08184F8482019449942BCD094
:1086E00094F8480093F9015022181572421CD2B236
:1086F00084F84820224433F8025B1572023084F873
:108700004800EBE76FF00100ADE74FF0FF30AAE75C
:108710006FF00200A7E7000038B590F84850044613
:10872000A91E2544C9B2FFF707FFAA79EB7943EAEE
:108730000223984206D0B4F854300133A4F85430E0
:10874000FF2038BD94F90930617A002B06DAB4F8BD
:1087500054300133A4F85430FB20F2E7094A0823CF
:1087600012F8010B81420AD0013B13F0FF03F7D14D
:10877000B4F854300133A4F854300120E1E700206C
:10878000DFE700BFD0EC020870B50021837ACAB2DF
:10879000934211D95508C46C861834F91530F67A0D
:1087A000D2074BBFDBB203F47F4343EA06233343D4
:1087B00024F815300131E9E770BD10B50022D1B2BF
:1087C000847A4B000333B1EB540FDBB209D203447C
:1087D000C16C1C7A5B7A43EA042321F8123001321F
:1087E000EDE710BD38B50446006803681B6998477B
:1087F000054605F003FCE36DC01AB4F85630984204
:1088000009D94FF47F43E380B4F854300133A4F81E
:108810005430002038BD15F0FF05FAD094F84930E7
:10882000AB4205D084F8495005F0E8FBA065F0E7BD
:1088300005F0E4FBA36DC01A0428EAD9002584F8EA
:1088400049502046FFF747FE052806DCB4F85430AF
:10885000A5710133A4F85430DCE72046FFF75CFF34
:1088600010B1A57140B2D5E7637A022B04D833B1B9
:108870002046FFF789FF02E0033B012B04D90023C8
:1088800094F94800A371C5E72046FFF796FFF6E785
:1088900010B50446154A164916488CB105F066FB1A
:1088A0001549144805F062FB1449124805F05EFBB7
:1088B000104804F0C0FFBDE8104064200FF068BB12
:1088C00005F054FB0E490B4805F050FB0B490948D5
:1088D00005F04CFB074804F0AEFF64200FF058FB96
:1088E00021460120BDE8104005F083BBD8EC02080A
:1088F0001DE702082C1E0020E0EC020815ED02081E
:10890000FDEC0208F7B50446594A5A495A485B4FEC
:10891000594E05F02BFB94F90C300193B4F90A3051
:108920000093637822785649534805F01FFB554958
:10893000514805F01BFB504804F07DFF64200FF008
:1089400027FB0025237AAB4207DD636839465A5D71
:10895000304605F00BFB0135F4E74B49464805F07E
:10896000E5FA2378ABB94349414A434805F0FEFA9A
:108970004649414805F0FAFA42493F4805F0F6FAFF
:108980003D4804F058FF642003B0BDE8F0400FF00C
:10899000FFBA63681A78AA2A62D15A78552A5FD139
:1089A0009A780F2A35D13A4A00211170D978394A7C
:1089B000117001390F2925D8197993F904005074E1
:1089C00001390F2917D8191DC3F1FF2303F57F03C0
:1089D000FC335C18A04202F1010203DD11F8014FE3
:1089E0001470F6E72C4800236422012103B0BDE88F
:1089F000F04005F066B91F49284A1F4805F0B6FA4D
:108A00002749B6E71B49254A1B4805F0AFFA254917
:108A1000AFE7062A01D0102A1BD11D4A012111708F
:108A2000D978214A117001390F29EBD8197951826F
:108A300093F905305374590000231E469942D1DD45
:108A400002EB63056E70606818440233C079687089
:108A5000F4E70849114A084805F088FA134988E7FD
:108A600004490E4A044805F081FA114981E700BF24
:108A700017ED02081DE702082C1E0020BEE90208BF
:108A80001DED020815ED020814ED020841ED020883
:108A9000840F0020540F0020E51E00204DED020839
:108AA00053ED020866ED0208F00F00207CED02088D
:108AB0008AED020838B50E4C0E4A0F49054620468D
:108AC00005F054FA2A460D49204605F04FFA0C49A4
:108AD000204605F04BFA204604F0ADFE64200FF06E
:108AE00057FABDE838400021012005F082BA00BFE6
:108AF0002C1E002097ED02081DE702089DED0208DC
:108B000015ED0208F0B585B004AB03E90700414A52
:108B100041494248019C424F404E05F027FA9DF9D9
:108B20000C30BDF90A203F493C4805F01FFA3E4988
:108B30003A4805F01BFA394804F07DFE64200FF036
:108B400027FA00259DF80830AB4206DD625D394604
:108B5000304605F00BFA0135F4E734492F4805F0AB
:108B6000E5F92378AA2B4ED16378552B4BD1A37806
:108B70000F2B41D1E2782E4B1A70013A0F2A34D8CC
:108B8000227994F904105974013A0F2A17D8221D3A
:108B9000C4F1FF2404F57F04FC34A018814203F1E2
:108BA000010303DD12F8010F1870F6E721480023D6
:108BB0006422012105B0BDE8F04005F082B81649F5
:108BC0001D4A164805F0D2F91C49144805F0CEF9A3
:108BD0001549124805F0CAF9104804F02CFE64202B
:108BE00005B0BDE8F0400FF0D3B90B49124A0B486D
:108BF00005F0BCF91249E8E707490F4A074805F0B4
:108C0000B5F91049E1E704490B4A044805F0AEF90B
:108C10000D49DAE7AAED02081DE702082C1E002024
:108C2000BEE90208B4ED020815ED020814ED0208D1
:108C3000540F0020E51E00204DED020853ED020800
:108C400066ED02087CED02088AED020810B50D4CB5
:108C50000D4A0E49204605F089F90D49204605F0D8
:108C600085F90C49204605F081F9204604F0E3FD22
:108C700064200FF08DF9BDE810400021012005F0BF
:108C8000B8B900BF2C1E0020CCED02081DE7020879
:108C9000D6ED020815ED020810B50D4A0D4904463F
:108CA0000D4805F063F90D4B0D4A0E490A48002C9A
:108CB00008BF1A4605F05AF90B49074805F056F95E
:108CC000054804F0B8FDBDE8104064200FF060B91D
:108CD000F2ED02081DE702082C1E0020E6ED020856
:108CE000E9ED0208FDED020815ED020810B598B097
:108CF0001446A7490EA805F083F80023CDE91433E4
:108D0000CDE91633636E012B06D1A2492068FDF729
:108D100037FA18B102241AE2002BFBD19E499F4872
:108D200005F024F99E499D4805F020F964200FF0D4
:108D30002FF99C4911A804F07BFF11A90EA805F09A
:108D400071F811A805F016F80EA805F0DEF80E9AD5
:108D50009549924805F00AF99149904805F006F9BD
:108D600064200FF015F9914911A804F041FF119A00
:108D70008F498A4805F0FAF811A804F0FBFF8849EA
:108D8000864805F0F3F864200FF002F9894B8A4910
:108D90005A6882484FF47A73B2FBF3F205F0E6F8B2
:108DA0007F497E4805F0E2F864200FF0F1F84FF4B7
:108DB00096728249794805F0D9F87949774805F0E3
:108DC000D5F864200FF0E4F87D4804F083FE7D4B75
:108DD0007D4953F820200446704805F0C7F87049D3
:108DE0006E4805F0C3F864200FF0D2F8012C40F073
:108DF000B481764804F04EFE754B764A76490028D9
:108E000008BF1A46654805F0B1F86549634805F0A2
:108E1000ADF864200FF0BCF8704804F04FFE7049C4
:108E2000024604465D4805F0A1F85D495B4805F03F
:108E30009DF864200FF0ACF86A4B6B4953F824207E
:108E4000564805F093F85649544805F08FF86420C9
:108E50000FF09EF8654804F016FE0446002800F066
:108E6000D58063494D4805F081F84D494B4805F0E0
:108E70007DF864200FF08CF8082214A95D4804F0F6
:108E8000E9FD9DF8573005939DF8563004939DF801
:108E9000553003939DF8543002939DF8533001935D
:108EA0009DF852309DF85020534900933B489DF85F
:108EB000513005F05BF83A49384805F057F864201E
:108EC0000FF066F8082214A94C4804F09FFD9DF8A5
:108ED000573005939DF8563004939DF85530039311
:108EE0009DF8543002939DF8533001939DF8523011
:108EF0009DF850204249009328489DF8513005F0D4
:108F000035F82749254805F031F864200FF040F87E
:108F1000102214A93B4804F082FD9DF85F300D93A8
:108F20009DF85E300C939DF85D300B939DF85C309E
:108F30000A939DF85B3009939DF85A3008939DF889
:108F4000593007939DF8583006939DF85730059394
:108F50009DF8563004939DF8553003939DF8543096
:108F600002939DF8533001939DF8523000939DF881
:108F700050209DF851302449084804F0F7FF084973
:108F8000064804F0F3FF64200FF002F80024DEE04E
:108F900016ED0208A82103081BEE02082C1E002073
:108FA00014ED0208BC1E00202AEE0208801E0020DC
:108FB00035EE02080800002041EE020851EE0208DA
:108FC0000C1F00201000002065EE0208F31E002098
:108FD00010EE020812FF020875EE0208091F0020B9
:108FE00080EE02081C0000208BEE0208F21E00201A
:108FF00096EE0208ED1E0020A0EE0208E91E0020F9
:10900000C8EE0208EA1E0020F0EE020891499248DC
:1090100004F0ACFF9149904804F0A8FF64200EF0E2
:10902000B7FF102214A98E4804F002FD9DF85F30AE
:109030000D939DF85E300C939DF85D300B939DF879
:109040005C300A939DF85B3009939DF85A30089381
:109050009DF8593007939DF8583006939DF8573086
:1090600005939DF8563004939DF8553003939DF871
:10907000543002939DF8533001939DF852309DF87F
:1090800050207849009374489DF8513004F06EFFE9
:109090007249714804F06AFF64200EF079FF1022D3
:1090A00014A9714804F0DFFC9DF85F300D939DF822
:1090B0005E300C939DF85D300B939DF85C300A9305
:1090C0009DF85B3009939DF85A3008939DF859300C
:1090D00007939DF8583006939DF8573005939DF8F7
:1090E000563004939DF8553003939DF85430029305
:1090F0009DF8533001939DF852309DF850205B4904
:10910000009355489DF8513004F030FF53495248C0
:1091100004F02CFF64200EF03BFF042214A95448F5
:1091200004F08FFC9DF8533001939DF8523000936A
:109130009DF850209DF851304E49474804F016FFE5
:109140004649454804F012FF64200EF021FF0EA8A6
:1091500004F010FE204618B010BD4748002C52D134
:1091600004F0D9FB454902463B4804F0FFFE3B4969
:10917000394804F0FBFE64200EF00AFF404804F07A
:10918000CCFB40490246344804F0F0FE33493248F3
:1091900004F0ECFE64200EF0FBFE3B4804F0BFFB45
:1091A0003A4902462C4804F0E1FE2C492A4804F0D2
:1091B000DDFE64200EF0ECFE354804F0B2FB3549CC
:1091C0000246254804F0D2FE2449234804F0CEFE8E
:1091D00064200EF0DDFE304804F0A5FB2F49024666
:1091E0001D4804F0C3FE1D491B4804F0BFFE642067
:1091F0000EF0CEFE2A4804F098FB2A490246164893
:1092000004F0B4FE9CE704F086FB1C4902461248B9
:1092100004F0ACFE1149104804F0A8FE64200EF0E2
:10922000B7FE214804F096FB204902460A4804F0A4
:109230009DFE0A49084804F099FE64200EF0A8FE3D
:109240001B4804F089FB1B490246034804F08EFECC
:1092500095E600BF38EF02082C1E002014ED02082E
:10926000EB1E002041EF0208EF1E00208AEF0208EB
:10927000EC1E0020D2EF0208181F0020EBEF0208BE
:10928000191F0020FAEF02081A1F002002F002083E
:109290001B1F00200AF002081C1F002012F0020809
:1092A0001D1F002027F00208211F002035F00208B2
:1092B000221F002042F00208536E012B10B506D188
:1092C00015491068FCF75CFF18B102201FE0002B65
:1092D0001ED1124B1C78ECB91149124804F046FE1D
:1092E0001149104804F042FE64200EF051FE0121A5
:1092F000082004F07EFE0121204604F07AFE0B488F
:10930000234641F28832032104F0DBFC002010BD2B
:10931000FCDDDAE70320FAE7A821030804100020A7
:1093200050F002082C1E002014ED0208E51E00205B
:1093300007B503230193054B0093054A054B0649E6
:10934000064804F093FC03B05DF804FBF9930008B1
:109350006EF0020860F00208C1F00208E21E002070
:1093600013B5094C094A00230321204604F09FFC51
:1093700003230193064B0093064A074B0749E01E5F
:1093800004F074FC02B010BDE51E0020F594000846
:10939000B9920008D5F00208C9F00208E1F002080D
:1093A00007B502230193054B0093054A054B064977
:1093B000064804F05BFC03B05DF804FBED8C00088C
:1093C000F5F00208E7F002080CF10208E21E0020A6
:1093D00008B50021064A0748082304F05EFC014650
:1093E00020B9034A0348082304F057FC012008BDB4
:1093F00008000020E31E0020536E012B2DE9F041F0
:10940000884603D002242046BDE8F0811668224930
:10941000224D3046FCF7B4FE6F68044680B94246E0
:109420001F4920484FF47A73B7FBF3F304F09EFD15
:109430001D491C4804F09AFD64200EF0A9FDE2E7E6
:109440003046FCF7A7FE32463044904205D012F871
:10945000013B303B092BF8D9D4E70A2200213046E2
:1094600001F082FB4FF47A735843104B9842C9D9EC
:10947000686000210E4804F02EFC6A6822B10023C7
:109480000B48194604F01DFC6B689F4201D0FFF7A2
:109490009FFF0024B7E700BFA821030808000020B1
:1094A00013F102082C1E002014ED0208BF2709004A
:1094B000E51E002037B50024AA250C488DF8005081
:1094C00008236A462146019404F0DDFB48B19DF86B
:1094D0000030AB42064B06D01D705C60FFF778FF92
:1094E000204603B030BD019A5A60FAE7E31E00201F
:1094F000080000202DE9F341214CDFF89C80214F2A
:10950000214E42463946204604F030FD1F49204690
:1095100004F02CFD3146204604F028FD204604F0DE
:109520008AF964200EF034FD00250DF107008DF856
:109530000750FEF7E9FC42463946204604F016FD86
:109540001349204604F012FD3146204604F00EFD7A
:10955000204604F070F964200EF01AFD2946082018
:1095600004F047FD0B4804F0B1F901200EF056FF5E
:109570002946284604F03DFD02B0BDE8F08100BF59
:109580002C1E00201DE7020815ED02081AF1020842
:109590002FF10208541E00200506030810B5074BE2
:1095A00053F82020002332F813408C42D8B203D85D
:1095B0000133102BF7D1184610BD00BFD00000209A
:1095C00038B50446002508462171A57100F016FD46
:1095D00065712060204638BD10B50446006800F073
:1095E00015FD204610BD0023437170474079704738
:1095F000006870478E294ED8702903D8032943D8B4
:109600000120704771391D2945D801A353F821F075
:109610000196000897960008019600080196000838
:109620000196000801960008979600080196000828
:1096300001960008979600089796000897960008EC
:109640000196000897960008979600080196000872
:1096500097960008019600080196000801960008F8
:10966000019600080196000801960008019600087E
:109670009796000897960008979600089796000816
:109680009796000801960008A1F1640004288CBF99
:109690000020012070470020704700BF882918D89B
:1096A000702906D803290FD8012994BF0020012072
:1096B000704771390123C9B203FA01F1064B19420F
:1096C00014BF012000207047A1F1670358425841A0
:1096D00070470020704700BF0101A000F8B50446A4
:1096E0000D461E46FFF786FF10B90223A371F8BD91
:1096F0008E2D98BF174B607998BF595D94F804C0C0
:1097000094BF154B002100EB010707F1010794BF3F
:1097100033F815300B46674503DB0123A3710020A6
:10972000E5E773432668471C677132546279206805
:10973000561C66718554002201326079D5B28D4283
:10974000084404D82568801A2B541B0AF4E7C0B2D9
:109750006071CCE7A7F1020836F2020808B513469B
:109760000A467D21FFF7BAFF08BD00002DE9F84F3A
:1097700004460E4690461D46FFF73CFF18B90223EB
:10978000A371BDE8F88F8E2E98BF2C4B94F80590EE
:109790009CBF9F5D2A4B227994BF33F816B00027F7
:1097A00009EB070303F1010388BFBB46934203DBC8
:1097B0000123A3710020E4E700212846FDF7D8FC2F
:1097C0000021B0F1000A284618BF4FF0010AFDF74A
:1097D000CFFC08B105F100455846FDF7D3FA2946FC
:1097E000FDF728FBFDF7ECFC314605462046FFF768
:1097F00055FF40B1BAF1000F05D0FA0001239340A4
:10980000581E05405D1B236809F10102627103F8CF
:10981000098063792268591C6171D6540022013293
:109820006379D1B2B9423B4404D821689B1ACD5424
:109830002D0AF4E7D8B26071A3E700BFA7F10208D0
:1098400036F2020808B513460A460321FFF78EFFD9
:1098500008BD08B513460A466721FFF787FF08BD14
:1098600008B513460A466821FFF780FF08BD08B512
:1098700013460A467421FFF779FF08BD03F014BAB6
:1098800003F017BA70470000BFF34F8F0549064B2E
:10989000CA6802F4E0621343CB60BFF34F8F00BF8E
:1098A000FDE700BF00ED00E00400FA0570B50023FD
:1098B00086B0CDE904334FF0B0420F4DD16C41F08A
:1098C0000201D164D26C039302F002024FF480567D
:1098D000009201A92846CDE90163009A10F0E4FE48
:1098E0003146284611F000F831460446284610F06B
:1098F00087FF204606B070BD000400480D20704769
:109900004FF0B04382B0DA6C0243DA64DB6C18408B
:109910000190019B02B070472DE9F04186B01422FE
:10992000002101A800F088FB0220FFF7E9FF144D99
:10993000144F0420FFF7E4FF4FF480760123002446
:10994000CDE9016301A903232846CDE903434FF480
:10995000005810F0A9FE01A93846CDF8048010F097
:10996000A3FE22464146384610F0C4FF2846224650
:10997000314610F0BFFF204606B0BDE8F08100BFC1
:109980000004004800080048032810B50ED801283C
:1099900010D868B902460B484FF4807110F0AAFF46
:1099A000002209484FF4005110F0A4FF002010BD20
:1099B0000122F0E7002203484FF4807110F09AFF73
:1099C0000122EEE70004004800080048022070472A
:1099D000002070470120704710B59AB0482200213E
:1099E00008A800F029FB1822002102A800F024FB9F
:1099F00010F092FF4FF0B0420024D2F8903023F0E4
:109A00001803C2F89030D2F8003423F4C06343F452
:109A10000073C2F80034D2F80034119403F4C06328
:109A200001934FF48072019B0C922E2340220893E5
:109A300081230B930D920123B02208A8CDE90E34A7
:109A400010931292139411F0B9F808B103F080FA50
:109A50004F23022102A8CDE90234CDE90444CDE927
:109A6000064411F04BFB08B103F072FA1AB010BDB6
:109A700013B50378082B11D8DFE803F012828710A2
:109A80008E8E05109200047920460CF0FBFF2046D4
:109A90000CF078FF002120460CF0FCFF02B010BD56
:109AA00000200CF0EFFF012839D101200CF0EAFF73
:109AB000012804D001200EF0ABFE00283DDC02207E
:109AC0000CF0E0FF0128E9D002200EF0A1FE0028F2
:109AD000E4DD012201A902200EF04EFD02200CF06F
:109AE000D1FF0028F0D102200EF05AFE00283FD10D
:109AF0009DF8041002200CF0B1FEE5E7012201A957
:109B000000200EF039FD00200CF0BCFF044630B9F7
:109B10000EF046FE48B99DF804100CF09FFE0020A0
:109B20000EF076FE0028E9DCBFE70128F7D19DF8AA
:109B3000041020460EF08CFDF1E7012201A9104629
:109B40000EF01AFD01200CF09DFF0028B2D101207B
:109B50000EF026FE28B99DF8041001200CF07EFEC0
:109B6000A8E70128A6D19DF804100EF071FDA1E729
:109B70000128A9D19DF8041002200EF069FDA3E789
:109B800017F0CCFE04F0D0FA88E7074B1B68002BD7
:109B900084D04068984781E740680EF0E7FE7DE793
:109BA00040680EF05BFB79E72068002030B52D4B54
:109BB0002D4A9A6085B00EF00DFFFFF70DFF4FF0B4
:109BC000B0430B209A6C42F004029A649A6C02F043
:109BD00004020392039A9A6C42F001029A649B6C0D
:109BE000002203F0010311460293029B0FF05AFB7F
:109BF0000B200FF089FB0EF09BFE0EF071F90DF0BB
:109C00004BF8002401460546234603220120CDE9F6
:109C100000440EF0DDFB2346032229460220CDE955
:109C200000440EF0D5FB0CF0F9FE0DF0E3F806F061
:109C30000BFAE5B228460CF025FF10B928460CF0C7
:109C4000A1FE0134032CF4D10EF056FE0DF0F2FD0E
:109C5000012804D105B0BDE8304006F0F1BC05B0E4
:109C600030BD00BF00ED00E0006000080EF052BE05
:109C7000F7B5FFF79BFF4FF0B0432E4EDA6C2E4C3A
:109C800042F00202DA64DB6C03F002030193019BF1
:109C900008F008FD294B341B1427474300251C44BA
:109CA000BD4223D302F020F9FFF700FE98B3244809
:109CB00004F0F8F9234B24481A68244B196804F07F
:109CC000F1F923480EF01CFC04F0E0FD012824D03B
:109CD000022824D010B91F480EF012FC1E4C0EF0C2
:109CE00019FE2378EBB902F001F9F8E76A4604217E
:109CF00060190EF067F969463246042312F801CB69
:109D000011F8010B844518BF02F8010C013BF5D195
:109D100004350436C4E71148CAE71148DCE71148A6
:109D2000DAE70CF0F5FE0028D9D000200EF01AFB7F
:109D3000D5E700BFC40400200000002098280308D5
:109D400054F302088C0100206AF30208A4010020E9
:109D50007AF302088EF30208141000205FF3020861
:109D60009AF30208A5F30208054808B50823036022
:109D700011F092FD18B1BDE8084003F0E9B808BD44
:109D8000086100204FF0B04307B55A6E42F001025F
:109D90005A665B6E002203F00103019311463220E4
:109DA000019B0FF07FFA322003B05DF804EB0FF057
:109DB000ABBA0000024B9868024BC0431860704772
:109DC0000028004018100020014B1868704700BFA1
:109DD00018100020034B044A9B681068DB43181AD4
:109DE000704700BF0028004018100020034B18786F
:109DF00010B1034B9868C043704700BF1510002096
:109E0000002800400320704708B501464FF47A72DD
:109E10000023C003490CFDF7F3F908BD4FF47A7233
:109E2000A0FB0223D00B40EA4340704710B5074B1C
:109E3000074C0122DA654FF48071204611F05CFA7C
:109E40004FF0FF332363002010BD00BF0028004007
:109E50005463002002460021014811F062BC00BF9B
:109E60005463002002460121014811F05ABC00BF92
:109E70005463002010B58CB02C220021044601A8A8
:109E800000F0DAF8FFF7D2FF0C4B18680023044407
:109E9000089306934FF00053E44307930848029455
:109EA0004FF48073012201A90B9311F03BFB08B121
:109EB00003F04EF800200CB010BD00BF18100020B9
:109EC000546300200C4B70B59C68064602210B4879
:109ED00011F02EFCE44300221219C2F30E044FF4D9
:109EE0007A71A4FB014540F10003E40BD00B3480F0
:109EF00040EA434070BD00BF00280040546300208A
:109F00000148002111F014BC5463002001480121D4
:109F100011F00EBC54630020F8B5114E3578E5B948
:109F2000104C2A4629464FF0FF372846276302F097
:109F300025FEFFF77BFF4FF48071204611F0DCF91E
:109F40002046276311F098FB2A460221204611F093
:109F5000E8FBFFF72FFF012333700020F8BD00BF9F
:109F6000151000205463002014F018BF10B5064CE3
:109F70000221204611F0DCFB0221421C2046BDE8F4
:109F8000104011F0CEBB00BF546300200B460146C9
:109F9000184600F001B8000010B504460448134606
:109FA00020B10A4602202146AFF3008010BD00BF59
:109FB0000000000070B50D4D0D4C641BA410002670
:109FC000A64209D10B4D0C4C24F0FEFA641BA410E0
:109FD0000026A64205D170BD55F8043B98470136CE
:109FE000EEE755F8043B98470136F2E7802803086E
:109FF000802803088028030890280308024B0146A4
:10A00000186800F06FB800BFA8010020024B01469D
:10A01000186800F019B800BFA80100200A44914256
:10A0200000F1FF3300D1704710B511F8014B03F870
:10A03000014F9142F9D110BD02440346934200D131
:10A04000704703F8011BF9E738B50546002945D0EC
:10A0500051F8043C0C1F002BB8BFE41801F0F2FBD0
:10A060001F4A1368104633B9636014602846BDE880
:10A07000384001F0EDBBA3420BD92168621893422E
:10A0800004BF1A685B68636004BF521822600460F2
:10A09000ECE71A465B680BB1A342FAD91168501875
:10A0A000A0420BD120680144501883421160DDD1D9
:10A0B00018685B68536001441160D7E702D90C232C
:10A0C0002B60D3E7206821188B4204BF19685B68B6
:10A0D000636004BF091821605460C7E738BD00BF42
:10A0E0001C100020F8B5CD1C25F0030508350C2DFB
:10A0F00038BF0C25002D064601DBA94203D90C23ED
:10A1000033600020F8BD01F09DFB21490A68144628
:10A110009CB9204F3B6823B92146304600F098FC9B
:10A1200038602946304600F093FC431C23D10C23B1
:10A130003360304601F08CFBE3E723685B1B17D4E8
:10A140000B2B03D923601C44256004E06368A24202
:10A150000CBF0B605360304601F07AFB04F10B003A
:10A16000231D20F00700C21ACCD01B1AA350C9E748
:10A1700022466468CCE7C41C24F00304A042E3D068
:10A18000211A304600F064FC0130DDD1CFE700BF7A
:10A190001C100020201000202DE9F04788B0002B73
:10A1A0001F461446B8BF03F10043129A109DDDF814
:10A1B0004CA0B6BF1F4600232D231370149B23F021
:10A1C0002008B8F1460F05D0B8F1450F00D1013590
:10A1D000022300E0032307AA049206AACDE902A203
:10A1E000CDE9003522463B4600F056FDB8F1470F59
:10A1F000064602D1119BDB0722D5B8F1460F06EBCC
:10A20000050910D13378302B0AD1002200232046D3
:10A210003946FCF741FC18B9C5F10105CAF80050F0
:10A22000DAF8003099440022002320463946FCF732
:10A2300033FC08B1CDF81C903022079B4B4507D367
:10A24000079B159A9B1B3046136008B0BDE8F0874A
:10A25000591C07911A70F0E7F7B503460029B8BFFB
:10A26000494203F8022BB4BF2D222B220929427048
:10A270002ADD0DF10704A4460A27A6460A4691FBEB
:10A28000F7F607FB16153035632A04F1FF340EF894
:10A29000015C3146F1DC3031AEF1020504F8011CFD
:10A2A000441C294661450AD30DF10902A2EB0E02B6
:10A2B000654588BF00221344181A03B0F0BD11F899
:10A2C000012B04F8012FEDE7302330318370C1708A
:10A2D000031DF1E72DE9F04F91B00C46DDF86880E1
:10A2E00016461F46054601F0A9FA03680993184669
:10A2F000FBF750FF00230E93D8F800300A90073385
:10A3000023F0070303F1080294F81890D4F800B082
:10A31000C8F80020D3E90023C4E91223D4E9128A43
:10A320002AF000430B930B999C4B4FF0FF324046B1
:10A33000FCF7E4FB70BB994B0B994FF0FF324046A2
:10A34000FCF7BEFB30BB0022002340465146FCF721
:10A35000ADFB10B12D2384F84330914B9148B9F1F6
:10A36000470F94BF98468046032323612BF00403D4
:10A3700023604FF0000A009733460FAA2146284673
:10A3800000F0D2F9013040F08F804FF0FF3011B073
:10A39000BDE8F08F4246534640465146FCF7AEFBBF
:10A3A00040B1BAF1000FBCBF2D2384F843307E4882
:10A3B0007E4BD4E763685A1C09F0DF0142D10623C3
:10A3C0006360002206920EAACDE904920DAA4BF416
:10A3D000806303920DF13302CDE90132236063689B
:10A3E00000934246534628460B91FFF7D5FE0B9942
:10A3F000472980460D9908D1C81C02DB6368994241
:10A4000040DDA9F102095FFA89F9B9F1650F1FD89A
:10A4100001394A4604F150000D91FFF71DFF0E9AD5
:10A420001318012A8246236102DC2268D20701D573
:10A43000013323619DF83330002B9CD02D2384F809
:10A44000433098E74729BCD1002BBAD10123B7E7A5
:10A45000B9F1660F18D1002963680BDD216113B9CA
:10A460002268D00702D501330B442361A1654FF068
:10A47000000ADFE713B92268D20701D50233F4E7F7
:10A480000123F2E74FF067090E9B994205DB236831
:10A490002161D807EAD54B1CE7E70029D4BFC1F1F9
:10A4A000020201221344E0E723685A0507D4236916
:10A4B000424631462846B84701302BD165E7B9F10D
:10A4C000650F40F2DC80D4E9120100220023FCF782
:10A4D000E3FA002833D0364A012331462846B847EC
:10A4E00001303FF452AFDDE90D239A4202DB2368CD
:10A4F000D8070FD5DDE9092331462846B847013092
:10A500003FF443AF4FF0000804F11A090E9B013BE2
:10A51000434509DC23689B0700F10181E0680F9B3C
:10A520009842B8BF184632E701234A4631462846CA
:10A53000B84701303FF429AF08F10108E6E70D9B69
:10A54000002B37DC1A4A012331462846B847013030
:10A550003FF41BAFDDE90D23134302D12368D90774
:10A56000D8D5DDE9092331462846B84701303FF404
:10A570000CAF4FF0000904F11A0A0D9B5B424B45EA
:10A5800001DC0E9B94E70123524631462846B8472A
:10A5900001303FF4FAAE09F10109EEE7FFFFEF7F6A
:10A5A000E5F40208E9F40208F1F40208EDF4020807
:10A5B0009E2103080E9AA36D9A42A8BF1A46002A4C
:10A5C000914637DC4FF0000B29EAE97904F11A02D1
:10A5D000D4F858A0AAEB09035B4533DCDDE90D2371
:10A5E0009A423BDB2368DA0738D40E9A0D99A2EB26
:10A5F0000A03A2EB01099945A8BF9946B9F1000FDA
:10A6000034DC4FF0000829EAE97904F11A0ADDE99F
:10A610000D239B1AA3EB090343457FF77BAF01236F
:10A62000524631462846B84701303FF4AEAE08F1F5
:10A630000108ECE71346314642462846B847013048
:10A64000C0D1A2E60123314628460B92B84701301B
:10A650003FF49BAE0B9A0BF1010BB9E7DDE909233F
:10A6600031462846B8470130BFD18EE64B4608EB4D
:10A670000A0231462846B8470130C2D185E60E9A13
:10A68000012A01DCDB0737D5012342463146284643
:10A69000B84701303FF479AEDDE909233146284659
:10A6A000B84701303FF471AED4E912010022002313
:10A6B000FCF7F2F9D8B90E9B08F10102013B3146D3
:10A6C0002846B84701300ED15FE601234A4631469D
:10A6D0002846B84701303FF458AE08F101080E9BF8
:10A6E000013B4345F1DC534604F15002E1E64FF0F3
:10A6F000000804F11A09F2E701234246DFE70123CB
:10A700004A4631462846B84701303FF43EAE08F18C
:10A710000108E3680F995B1A4345F0DCFEE64FF051
:10A72000000804F11909F4E72DE9F04716469946A7
:10A730008A680B69DDF820809342B8BF1346336006
:10A7400091F8432007460C460AB101333360236871
:10A75000990642BF336802333360256815F0060559
:10A7600006D104F1190AE36832689B1AAB4226DC71
:10A7700094F84320131E226818BF012392062BD49D
:10A7800004F1430249463846C04701301ED02368D1
:10A79000E568326803F00603042B08BFAD1AA3680E
:10A7A00022690CBF25EAE57500259342C4BF9B1AB8
:10A7B000ED1800261A34B5421AD1002008E0012312
:10A7C000524649463846C047013003D14FF0FF306A
:10A7D000BDE8F0870135C6E7E1185A1C302081F842
:10A7E0004300224494F8451082F843100233C7E72F
:10A7F0000123224649463846C0470130E6D001369B
:10A80000D9E700002DE9FF470C469146277E0C99B9
:10A81000782F80469A4604F1430207D8622F0AD85F
:10A82000002F00F0D880582F00F0A38004F14206DA
:10A8300084F842703AE0A7F16303152BF6D801A023
:10A8400050F823F09DA80008B1A800082DA8000822
:10A850002DA800082DA800082DA80008B1A8000800
:10A860002DA800082DA800082DA800082DA8000874
:10A87000BDA90008E1A800089FA900082DA80008AC
:10A880002DA80008DFA900082DA80008E1A80008ED
:10A890002DA800082DA80008A7A900080B681A1DFC
:10A8A0001B680A6004F1420684F842300123A3E0E9
:10A8B000256808682E0600F104030AD505680B60B8
:10A8C000002D03DA2D236D4284F843305E480A23BD
:10A8D00019E015F0400F05680B6018BF2DB2EFE7C7
:10A8E0000B682568181D0860280601D51D6802E060
:10A8F0006906FBD51D8854486F2F0CBF08230A2317
:10A90000002184F843106668A660002EA2BF21686B
:10A9100021F0040121600DB9002E4DD01646B5FB83
:10A92000F3F103FB1157C75D06F8017D2F46BB42CB
:10A930000D46F4D9082B0BD12368DF0708D523690E
:10A9400061689942DEBF302306F8013C06F1FF360C
:10A95000921B2261CDF800A04B4603AA2146404637
:10A96000FFF7E2FE01304CD14FF0FF3004B0BDE8FC
:10A97000F087354884F8457023680E681F0656F83E
:10A98000045B0E6014D5D90744BF43F02003236055
:10A990001DB9236823F0200323601023B0E7236848
:10A9A00043F0200323607823284884F84530E3E708
:10A9B0005E0648BFADB2E6E71646BBE70B68266801
:10A9C00060691D1D0D6035061B6801D5186002E029
:10A9D0007106FBD51880002323611646BAE70B6881
:10A9E0001A1D0A601E68626800213046FBF7E0FB12
:10A9F00008B1801B606063682361002384F84330E2
:10AA0000A8E72369324649464046D0470130ABD0DB
:10AA100023689B0713D4E068039B9842B8BF18468D
:10AA2000A4E70123324649464046D04701309BD037
:10AA30000135E36803995B1AAB42F2DCEBE70025D2
:10AA400004F11906F5E700BFF5F4020806F502085F
:10AA500038B5064D0023044608462B6001F036FA4F
:10AA6000431C02D12B6803B1236038BD1461002060
:10AA70002DE9F0433B4E86468C4660461CF8014B60
:10AA8000A55D15F00805F8D12D2C34D19CF80040B7
:10AA90004FF0010800F1020C002B5ED0102B0CD1FE
:10AAA000302C0AD19CF8000000F0DF0058284FD16C
:10AAB0009CF8014010230CF1020C4FF0FF370025E9
:10AAC000B7FBF3F703FB07F96FEA09092846A4F17E
:10AAD0003006092E18D83446A34224DD002D1FDB92
:10AAE00087421DD301D1A1451ADB00FB034001259C
:10AAF0001CF8014BEBE72B2C08BF9CF80040A84644
:10AB000008BF00F1020CC7E7A4F14106192E01D8D5
:10AB1000373CE1E7A4F16106192E04D8573CDBE786
:10AB20004FF0FF35E4E7002D07DA2223CEF800309E
:10AB30004FF0FF3042B9BDE8F083B8F1000F00D00C
:10AB40004042002AF7D00DB10CF1FF311160F2E75D
:10AB50003024002BB1D10823AFE7302CA2D00A2338
:10AB6000ABE700BF18F5020813460A460146024843
:10AB70000068FFF77DBF00BFA80100202DE9F74F57
:10AB800003690C69A3420746C0F28180013C01F1D0
:10AB9000140800F1140505EB8403019358F82430E0
:10ABA00055F8242001339A424FEA840B08EB8409BC
:10ABB000B2FBF3F631D34FF0000E4046AC46F246FE
:10ABC00050F8042B93B206FB03E34FEA134E9BB2FB
:10ABD000AAEB0303120CDCF800A006FB02E213FA56
:10ABE0008AF34FEA124E1FFA82FADCF80020CAEB11
:10ABF000124202EB23429BB243EA024381454CF8E6
:10AC0000043B4FEA224ADBD255F80B302BB9019BAB
:10AC1000043B9D421A462ED33C61384601F047F86A
:10AC2000002824DB013628464FF0000C58F8042B8E
:10AC3000D0F800E093B2ACEB0303120C13FA8EF3DE
:10AC4000C2EB1E4202EB23429BB243EA0243C145E0
:10AC500040F8043B4FEA224CE8D255F8242005EB9B
:10AC6000840322B9043B9D421A460AD33C61304614
:10AC700003B0BDE8F08F1268043B002ACCD1013C40
:10AC8000C7E71268043B002AF0D1013CEBE7002043
:10AC9000EEE70000000000002DE9F04F446A99B093
:10ACA00016461F46CDE90467DDF8948005463CB999
:10ACB0001020FFF7A3F9C0E9014468620460C46092
:10ACC0006B6A196851B15A684A60012393408B60DE
:10ACD000284600F0F7FD6B6A00221A603B1EB9BFE0
:10ACE00023F0004305930023C8F80030DDF81490EA
:10ACF000A74BBCBF0122C8F8002033EA090319D1D1
:10AD0000249A42F20F731360C9F31303334300F024
:10AD10006D85269B53B99F4B23E09F4B03930833CC
:10AD2000269A1360039819B0BDE8F08F994B0393EE
:10AD30000333F5E7DDE90434CDE90C34DDE90C013A
:10AD400000220023FBF7A8FE804660B1249A01236D
:10AD50001360269B002B00F04685904B269A1360CB
:10AD6000013B0393DEE716AB019317AB0093284634
:10AD7000DDE90C2301F02CF8C9F30A548346002CBA
:10AD80007ED00D9BCDF84C80C3F31303DDE90C019D
:10AD900043F07F5141F44011A4F2FF34804B002274
:10ADA000FBF75AFA74A3D3E90023FBF70DFC74A355
:10ADB000D3E90023FBF752FA064620460F46FBF77D
:10ADC00099FB71A3D3E90023FBF7FEFB02460B4678
:10ADD00030463946FBF742FA06460F46FBF7A4FE1B
:10ADE00000228246002330463946FBF75FFE48B119
:10ADF0005046FBF77FFB32463B46FBF74DFE08B95A
:10AE00000AF1FF3ABAF1160F57D8664B03EBCA03A3
:10AE1000D3E90023DDE90C01FBF748FE00284ED002
:10AE20000AF1FF3A00230F93169B1C1B631E099324
:10AE300045BFC4F101030693002300234CBF0993CF
:10AE40000693BAF1000F3CDB099BCDF838A05344C0
:10AE5000099300230A93229B092B00F2B580052B4E
:10AE6000C4BF043B2293229BA3F10203CCBF002466
:10AE70000124032B00F2B480DFE803F02D987AA4BC
:10AE8000DDE916431C4404F23243202BC3BFC3F157
:10AE9000400304F2124009FA03F3C3F12003C6BFD2
:10AEA00026FA00F0184306FA03F0FBF713FB012320
:10AEB000A1F1F871013C139370E70123B3E70F9000
:10AEC000B2E7069BA3EB0A030693CAF100030A93B9
:10AED00000230E93BFE700230B93239B002B00F36B
:10AEE00082804FF00109CDF820904B46CDF88C9030
:10AEF0006E6A00227260042202F1140098427168A6
:10AF000077D9284600F0AAFC6B6A30601B6803936F
:10AF1000089B0E2B00F2EE80002C00F0EB80BAF1C3
:10AF2000000F7ADD1F4A0AF00F0302EBC303D3E9D7
:10AF300000341AF4807FCDE910344FEA2A145CD033
:10AF4000194BDDE90C01D3E90823FBF767FCCDE9D8
:10AF5000040104F00F040327134E002C4FD1DDE948
:10AF60001023DDE90401FBF759FCCDE904016EE093
:10AF70000123B1E7AFF3008061436F63A787D23F3E
:10AF8000B3C8608B288AC63FFB799F501344D33FD8
:10AF90000000F07F21F6020818F602089F2103083E
:10AFA0000000F83F50F6020828F6020800230B9331
:10AFB000239B0AEB030909F10103012B0893B8BF96
:10AFC000012395E70123F2E70124002322930B9448
:10AFD0004FF0FF390022CDF820901223239287E70B
:10AFE00001230B93F4E7DDF88C90CDF820904B46CD
:10AFF0007EE70131716052007EE70227ACE7E1078E
:10B0000008D5DDE91001D6E90023FBF7DDFACDE92B
:10B0100010010137641008369FE700F0A580CAF1DF
:10B020000004A44BA44E04F00F0203EBC203D3E9C7
:10B030000023DDE90C01FBF7C7FACDE90401241177
:10B0400000230227002C40F08480002B8DD10F9B21
:10B05000002B00F08B80DDE90434CDE91034DDE90C
:10B060001001964B0022FBF721FD00287ED0089BA3
:10B07000002B7BD0B9F1000F38DDDDE91001904BDA
:10B080000022FBF7A1FACDE904010AF1FF380137EC
:10B090004C463846FBF72EFADDE90423FBF794FA19
:10B0A000884B0022FBF7DAF8A1F15076CDE91001C8
:10B0B0001196002C5DD1DDE90401834B0022FBF7E2
:10B0C000CBF802460B46CDE90423109A3346FBF732
:10B0D0000BFD002840F09782DDE90401109A06F18B
:10B0E0000043FBF7E3FC002840F08B82DDE90C34E1
:10B0F000CDE90434179B002BC0F25181BAF10E0F39
:10B1000000F34D816B4B03EBCA03D3E90034CDE967
:10B110000634239B002B80F2DB80089B002B00F37E
:10B12000D78040F06D82684B0022DDE90601FBF715
:10B130004BFADDE90423FBF7CDFC089C26460028EA
:10B1400040F04382039F312307F8013B0AF1010AD3
:10B150003FE2E20705D5D6E90023FBF735FA0137D0
:10B160000123641008366DE7022770E7089CD0467B
:10B170008FE703994F4B214412910B9903EBC403C2
:10B18000DDE9106753E90223002946D04F4900202A
:10B19000FBF744FB3B463246FBF75EF8CDE9100176
:10B1A000039FDDE90401FBF7BFFC0446FBF7A2F9AE
:10B1B00002460B46DDE90401FBF74EF83034024647
:10B1C0000B46CDE9042307F8014BDDE91023FBF71B
:10B1D0006DFC002865D1DDE9042338490020FBF728
:10B1E0003BF8DDE91023FBF761FC002840F0B68056
:10B1F000129B9F423FF47AAFDDE91001304B0022F1
:10B20000FBF7E2F92E4BCDE910010022DDE9040144
:10B21000FBF7DAF9CDE90401C3E730463946FBF71D
:10B22000D3F9CDE91001129B039C1493DDE90401CD
:10B23000FBF77AFC1590FBF75DF902460B46DDE95A
:10B240000401FBF709F8159B303304F8013B129B0E
:10B250009C4206460F464FF0000224D11B4BDDE90D
:10B260001001FAF7FBFF02460B4630463946FBF762
:10B270003BFC002871D1DDE9102314490020FAF7C6
:10B28000EBFF02460B4630463946FBF70FFC002821
:10B290003FF42CAF149F7B1E149317F8013C302B06
:10B2A000F8D0C24649E0064BFBF78EF9CDE9040120
:10B2B000BCE700BF50F6020828F602080000F03F85
:10B2C0000000244000001C40000014400000E03F4B
:10B2D000DDE90489039FDDE9062340464946FBF783
:10B2E0009DFAFBF721FC0446FBF704F9DDE9062390
:10B2F000FBF76AF904F130060B4602464946404620
:10B30000FAF7AAFF07F8016B039E089BBE1BB34226
:10B3100038D102460B46FAF7A1FFDDE90623804645
:10B320008946FBF7E1FB58BBDDE906234046494669
:10B33000FBF7B2FB08B1E10722D42846594600F0DA
:10B34000C1FA00233B70249B0AF101001860269B80
:10B35000002B3FF4E7AC1F60E4E427463B461F4662
:10B3600013F8012D392A07D1039A9A42F7D103998C
:10B37000302208F101080A701A7801321A7090E739
:10B38000D046EBE7A14B0022FBF71EF90022002379
:10B3900080468946FBF780FB00289CD0CDE70B9ABE
:10B3A000002A00F0CD80229A012A00F3AF80139A80
:10B3B000002A00F0A78003F233430A9C069F069AF6
:10B3C0001A440692099A01211A442846099200F06B
:10B3D0001CFB0646002F0CDD099B002B09DDBB4240
:10B3E000069AA8BF3B46D21A0692099AFF1AD31AA8
:10B3F00009930A9BF3B10B9B002B00F0A580002C56
:10B4000010DD31462246284600F0A4FB5A4601468C
:10B410000646284600F002FB59468046284600F0C2
:10B4200051FAC3460A9B1A1B04D05946284600F01D
:10B4300091FB83460121284600F0E7FA0E9B002B82
:10B44000044640F383801A460146284600F082FBFA
:10B45000229B012B04467CDD4FF00008236904EB9E
:10B460008303186900F083FAC0F12000099B184497
:10B4700010F01F0000F08E80C0F12003042B40F379
:10B480008780C0F11C00069B03440693099B03447C
:10B4900007440993069B002B05DD59461A462846AA
:10B4A00000F0A6FB8346099B002B05DD21461A46CA
:10B4B000284600F09DFB04460F9B002B6CD02146D4
:10B4C000584600F0F4FB002866DA002359460A22A9
:10B4D000284600F00EFA0B9B0AF1FF3A8346002B38
:10B4E00000F08B81314600230A22284600F001FA41
:10B4F000B9F1000F064600F39180229B022B40F326
:10B500008D8051E0169BC3F1360356E7089B5C1E05
:10B510000A9BA342BFBF0A9B0A94E21A0E9BB6BFC6
:10B520009B181C1B0E93089BB8BF0024002BB9BFAF
:10B53000069B089A069F089BBCBF9F1A00233EE704
:10B540000A9C069F0B9E45E70A9A6EE7229B012BF9
:10B5500019DC049BBBB9059BC3F313039BB9059B83
:10B5600023F000431B0D1B0583B1069B013306939B
:10B57000099B013309934FF001080E9B002B7FF4C8
:10B580006DAF012072E74FF00008F6E79846F4E748
:10B5900080D018461C3076E7089B002B38DC229BB5
:10B5A000022B35DDDDF82090B9F1000F0DD12146D9
:10B5B0004B460522284600F09CF9014604465846B1
:10B5C00000F075FB00283FF7BDAD239B039F6FEA9A
:10B5D000030A4FF000082146284600F073F9002EB8
:10B5E0003FF4ABAEB8F1000F05D0B04503D04146F3
:10B5F000284600F067F93146284600F063F99CE6DA
:10B6000000242646E1E7C24626469BE5000024408A
:10B610000B9BDDF82090002B00F0F680002F05DD5D
:10B6200031463A46284600F0E3FA0646B8F1000FE4
:10B6300055D07168284600F011F932690232074688
:10B64000920006F10C010C30FEF7E8FC01223946AD
:10B65000284600F0CDFA039B01330893039B4B442B
:10B660000A93049B03F00103B04609930646089B26
:10B670002146013B58460493FFF780FA03463033D6
:10B680000690414658460B9300F011FB3246814626
:10B690002146284600F026FBC2680B9B074602BBEA
:10B6A0000146584600F003FB0B9B024639462846EC
:10B6B000CDE90B3200F006F9229B0C9A089F43EA71
:10B6C0000201099B0B430B9B0DD1392B29D0B9F1FA
:10B6D000000F01DD069B3133049A13707BE730467F
:10B6E000B9E70122E2E7B9F1000F06DB229941EA4E
:10B6F0000909099959EA010120D1002AECDD5946CE
:10B7000001222846089300F073FA2146834600F090
:10B71000CEFA0028089B02DCDED1DA07DCD5392B13
:10B72000D8D1049A392313703B461F46013B17F8C2
:10B73000012C392A50D001321A704CE7002A03DD5F
:10B74000392BEED00133C7E7089A0A9902F8013C79
:10B750008A422AD0594600230A22284600F0C9F816
:10B76000B04583464FF000034FF00A024146284699
:10B7700007D100F0BEF880460646089B01330893C7
:10B7800075E700F0B6F83146804600230A222846C5
:10B7900000F0AFF80646F0E7B9F1000F039ACCBF0E
:10B7A0004F46012717444FF000085946012228460A
:10B7B000089300F01DFA2146834600F078FA00282D
:10B7C000B2DC02D1089BDB07AED43B461F4613F820
:10B7D000012D302AFAD0FEE6039A9A42A5D10AF149
:10B7E000010A312379E7134BFFF7BBBA269B002BE5
:10B7F0007FF493AA104BFFF7B4BAB9F1000F03DC42
:10B80000229B022B3FF7D0AE039F21465846FFF7FD
:10B81000B5F900F1300307F8013B039ABA1A9145D4
:10B82000BADD594600230A22284600F062F8834612
:10B83000EBE700BF9E21030818F602080048704796
:10B84000FC020020014800F020BB00BF1C6100206A
:10B85000014800F01BBB00BF1C61002070B5466AA8
:10B8600004460D463EB91020FEF7C8FBC0E901664C
:10B8700060620660C660666AF36883B1636ADB680B
:10B8800053F82500B8B9012101FA05F6721D92009E
:10B89000204600F0ECFA60B1C0E901560EE021222A
:10B8A0000421204600F0E3FA636AF060DB68002BB5
:10B8B000E4D1002070BD026843F825200023C0E9D0
:10B8C0000333F7E770B5466A05460C463EB91020CB
:10B8D000FEF794FBC0E9016668620660C6603CB191
:10B8E0006B6A6268DB6853F82210216043F82240DB
:10B8F00070BD2DE9F0410E69074698460C4601F1EE
:10B90000140000230568A9B202FB01814FEA114C23
:10B910002D0C02FB05C589B2013301EB05419E42A6
:10B9200040F8041B4FEA1548ECDCB8F1000F1BD0BF
:10B93000A368B34212DC616838460131FFF78EFF1D
:10B940002269023204F10C01054692000C30FEF728
:10B9500065FB21463846FFF7B5FF2C4604EB86030E
:10B960000136C3F8148026612046BDE8F081020C40
:10B9700012040346CAB90304102013F07F4F04BF1A
:10B980001B02083013F0704F04BF1B01043013F08A
:10B99000404F04BF9B000230002B05DB13F0804FAB
:10B9A00000F1010008BF202070470020E5E7036890
:10B9B000024613F007000BD0D90722D4980749BFDD
:10B9C0005B089B08012013605CBF13600220704776
:10B9D00099B209B91B0C102013F0FF0F04BF1B0A0A
:10B9E0000830190704BF1B090430990704BF9B08DE
:10B9F0000230D90703D45B0800F1010003D01360C3
:10BA00007047002070472020704710B50C46012178
:10BA1000FFF724FF01224461026110BD2DE9F04FC0
:10BA200015460A692B699A42B8BF0B460C46BCBF43
:10BA30002C461D462769D5F81090A368616807EB6E
:10BA40000906B342B8BF013185B0FFF707FF00F127
:10BA5000140101EB86080B46002243451DD304F177
:10BA6000140305F1140203EB870702EB8903029329
:10BA70003B1B153B23F00303043304F11505AF42D0
:10BA800038BF04230193029B0392934208D8002EEF
:10BA90005ADC066105B0BDE8F08F43F8042BDCE703
:10BAA000B2F800A0BAF1000F24D004F1140E8946B8
:10BAB0004FF0000C5EF8045BD9F800B0ABB21FFA8F
:10BAC0008BFB0AFB03B34FEA154BD9F800506344D4
:10BAD0004FEA154C0AFB0BC505EB13459BB243EA35
