:020000040800F2
:1060000000FC0020C1B900083DBA0008C9BA000868
:1060100035BB000837BB000839BB00080000000092
:106020000000000000000000000000003BBB000872
:106030003DBB0008000000003FBB00083FBB00085C
:1060400011BA000811BA00085DBB000811BA0008B7
:1060500011BA000811BA0008B3BB0008B9BB0008A8
:10606000BFBB0008C5BB0008CBBB000869BB00086C
:1060700075BB000881BB00088DBB000811BA000881
:1060800011BA000811BA000811BA000811BA0008C4
:1060900011BA000811BA0008D1BB000811BA0008F3
:1060A00011BA000811BA000811BA000811BA0008A4
:1060B00011BA000811BA000811BA000811BA000894
:1060C000D9D80208E5D8020811BA000811BA0008A8
:1060D00099BB0008B1BB000865BC000811BA0008F4
:1060E00011BA000811BC000845BB000811BA00082D
:1060F00011BA000811BA000811BA000811BA000854
:1061000011BA000811BA000851BB00087DBC000894
:1061100011BA000811BA000811BA000811BA000833
:1061200011BA000811BA000811BA000811BA000823
:0861300011BA000811BA0008C1
:1061400010B5054C237833B9044B13B10448AFF3B1
:1061500000800123237010BD2810002000000000E3
:10616000A003030808B5034B1BB103490348AFF371
:10617000008008BD000000002C100020A0030308D0
:1061800010F8012B11F8013B012A28BF9A42F7D0E1
:10619000D01A7047034613F8012B002AFBD1181AB6
:1061A00001387047000000000000000000000000FF
:1061B00001F0FF01102A2BDB10F0070F08D010F8B8
:1061C000013B013A8B422DD010F0070F42B3F6D1BC
:1061D000F0B441EA012141EA014122F007047FF0D5
:1061E00000070023F0E80256083C85EA010586EA2C
:1061F000010685FA47F5A3FA87F586FA47F6A5FA68
:1062000087F68EB9EED1F0BC01F0FF0102F0070273
:1062100032B110F8013B013A83EA010313B1F8D11E
:106220000020704701387047002D06BF35460338FF
:10623000073815F0010F07D1013015F4807F02BF38
:10624000013015F4C03F0130F0BC0138704700BF89
:1062500081F0004102E000BF83F0004330B54FEA17
:1062600041044FEA430594EA050F08BF90EA020F84
:106270001FBF54EA000C55EA020C7FEA645C7FEA17
:10628000655C00F0E2804FEA5454D4EB5555B8BF3A
:106290006D420CDD2C4480EA020281EA030382EAAB
:1062A000000083EA010180EA020281EA0303362D3D
:1062B00088BF30BD11F0004F4FEA01314FF4801C10
:1062C0004CEA113102D0404261EB410113F0004F22
:1062D0004FEA03334CEA133302D0524263EB4303D9
:1062E00094EA050F00F0A780A4F10104D5F1200E77
:1062F0000DDB02FA0EFC22FA05F2801841F10001D2
:1063000003FA0EF2801843FA05F359410EE0A5F1A5
:1063100020050EF1200E012A03FA0EFC28BF4CF0D6
:10632000020C43FA05F3C01851EBE37101F000458C
:1063300007D54FF0000EDCF1000C7EEB00006EEB99
:106340000101B1F5801F1BD3B1F5001F0CD3490823
:106350005FEA30004FEA3C0C04F101044FEA44527A
:1063600012F5800F80F09A80BCF1004F08BF5FEA01
:10637000500C50F1000041EB045141EA050130BDE1
:106380005FEA4C0C404141EB0101013C28BFB1F5F3
:10639000801FE9D291F0000F04BF01460020B1FA3E
:1063A00081F308BF2033A3F10B03B3F120020CDA11
:1063B0000C3208DD02F1140CC2F10C0201FA0CF0EF
:1063C00021FA02F10CE002F11402D8BFC2F1200C54
:1063D00001FA02F120FA0CFCDCBF41EA0C0190400A
:1063E000E41AA2BF01EB0451294330BD6FEA040453
:1063F0001F3C1CDA0C340EDC04F11404C4F120023E
:1064000020FA04F001FA02F340EA030021FA04F34F
:1064100045EA030130BDC4F10C04C4F1200220FAA6
:1064200002F001FA04F340EA0300294630BD21FAE4
:1064300004F0294630BD94F0000F83F4801306BFAA
:1064400081F480110134013D4EE77FEA645C18BF9E
:106450007FEA655C29D094EA050F08BF90EA020F35
:1064600005D054EA000C04BF1946104630BD91EA2D
:10647000030F1EBF0021002030BD5FEA545C05D130
:106480004000494128BF41F0004130BD14F580046F
:106490003CBF01F5801130BD01F0004545F0FE41E3
:1064A00041F470014FF0000030BD7FEA645C1ABF18
:1064B000194610467FEA655C1CBF0B46024650EA4F
:1064C000013406BF52EA033591EA030F41F400217B
:1064D00030BD00BF90F0000F04BF0021704730B501
:1064E0004FF4806404F132044FF000054FF00001D6
:1064F00050E700BF90F0000F04BF0021704730B597
:106500004FF4806404F1320410F0004548BF40426B
:106510004FF000013EE700BF42004FEAE2014FEAC0
:1065200031014FEA02701FBF12F07F4393F07F4F9B
:1065300081F06051704732F07F4208BF704793F09E
:106540007F4F04BF41F40021704730B54FF46074B1
:1065500001F0004521F000411CE700BF50EA0102B4
:1065600008BF704730B54FF000050AE050EA01025D
:1065700008BF704730B511F0004502D5404261EBCD
:1065800041014FF4806404F132045FEA915C3FF40E
:10659000D8AE4FF003025FEADC0C18BF03325FEAAB
:1065A000DC0C18BF033202EBDC02C2F1200300FA5C
:1065B00003FC20FA02F001FA03FE40EA0E0021FA81
:1065C00002F11444BDE600BF70B54FF0FF0C4CF46F
:1065D000E06C1CEA11541DBF1CEA135594EA0C0F21
:1065E00095EA0C0F00F0DEF82C4481EA030621EA5C
:1065F0004C5123EA4C5350EA013518BF52EA033597
:1066000041F4801143F4801338D0A0FB02CE4FF048
:106610000005E1FB02E506F00042E0FB03E54FF078
:106620000006E1FB03569CF0000F18BF4EF0010E70
:10663000A4F1FF04B6F5007F64F5407404D25FEA6C
:106640004E0E6D4146EB060642EAC62141EA55511F
:106650004FEAC52040EA5E504FEACE2EB4F1FD0C61
:1066600088BFBCF5E06F1ED8BEF1004F08BF5FEADF
:10667000500E50F1000041EB045170BD06F0004691
:1066800046EA010140EA020081EA0301B4EB5C043E
:10669000C2BFD4EB0C0541EA045170BD41F4801136
:1066A0004FF0000E013C00F3AB8014F1360FDEBF5B
:1066B000002001F0004170BDC4F10004203C35DA37
:1066C0000C341BDC04F11404C4F1200500FA05F3BA
:1066D00020FA04F001FA05F240EA020001F000425B
:1066E00021F0004110EBD37021FA04F642EB0601D1
:1066F0005EEA430E08BF20EAD37070BDC4F10C04FB
:10670000C4F1200500FA04F320FA05F001FA04F2BE
:1067100040EA020001F0004110EBD37041F10001AA
:106720005EEA430E08BF20EAD37070BDC4F12005B5
:1067300000FA05F24EEA020E20FA04F301FA05F21D
:1067400043EA020321FA04F001F0004121FA04F2C5
:1067500020EA020000EBD3705EEA430E08BF20EA95
:10676000D37070BD94F0000F0FD101F000464000CF
:1067700041EB010111F4801F08BF013CF7D041EA51
:10678000060195F0000F18BF704703F00046520055
:1067900043EB030313F4801F08BF013DF7D043EA26
:1067A0000603704794EA0C0F0CEA135518BF95EADC
:1067B0000C0F0CD050EA410618BF52EA4306D1D163
:1067C00081EA030101F000414FF0000070BD50EA82
:1067D000410606BF1046194652EA430619D094EA0C
:1067E0000C0F02D150EA013613D195EA0C0F05D1F6
:1067F00052EA03361CBF104619460AD181EA03014A
:1068000001F0004141F0FE4141F470014FF0000001
:1068100070BD41F0FE4141F4780170BD70B54FF09C
:10682000FF0C4CF4E06C1CEA11541DBF1CEA13551C
:1068300094EA0C0F95EA0C0F00F0A7F8A4EB0504FE
:1068400081EA030E52EA03354FEA013100F08880F5
:106850004FEA03334FF0805545EA131343EA1263BE
:106860004FEA022245EA111545EA10654FEA002673
:106870000EF000419D4208BF964244F1FD0404F52C
:10688000407402D25B084FEA3202B61A65EB030588
:106890005B084FEA32024FF480104FF4002CB6EB45
:1068A000020E75EB030E22BFB61A754640EA0C00C5
:1068B0005B084FEA3202B6EB020E75EB030E22BF05
:1068C000B61A754640EA5C005B084FEA3202B6EB46
:1068D000020E75EB030E22BFB61A754640EA9C0005
:1068E0005B084FEA3202B6EB020E75EB030E22BFD5
:1068F000B61A754640EADC0055EA060E18D04FEA93
:10690000051545EA16754FEA06164FEAC30343EA32
:1069100052734FEAC2025FEA1C1CC0D111F4801FFF
:106920000BD141EA00014FF000004FF0004CB6E7F8
:1069300011F4801F04BF01430020B4F1FD0C88BF97
:10694000BCF5E06F3FF6AFAEB5EB030C04BFB6EBA2
:10695000020C5FEA500C50F1000041EB045170BD95
:106960000EF0004E4EEA113114EB5C04C2BFD4EBC2
:106970000C0541EA045170BD41F480114FF0000E46
:10698000013C90E645EA060E8DE60CEA135594EAC2
:106990000C0F08BF95EA0C0F3FF43BAF94EA0C0FC5
:1069A0000AD150EA01347FF434AF95EA0C0F7FF43A
:1069B00025AF104619462CE795EA0C0F06D152EA8E
:1069C00003353FF4FDAE1046194622E750EA410672
:1069D00018BF52EA43067FF4C5AE50EA41047FF483
:1069E0000DAF52EA43057FF4EBAE12E74FF0FF3CE8
:1069F00006E000BF4FF0010C02E000BF4FF0010CB9
:106A00004DF804CD4FEA410C7FEA6C5C4FEA430C31
:106A100018BF7FEA6C5C1BD001B050EA410C0CBF80
:106A200052EA430C91EA030F02BF90EA020F0020E2
:106A3000704710F1000F91EA030F58BF994208BF49
:106A400090422CBFD8176FEAE37040F00100704706
:106A50004FEA410C7FEA6C5C02D150EA013C07D15D
:106A60004FEA430C7FEA6C5CD6D152EA033CD3D0A8
:106A70005DF8040B704700BF8446104662468C46A2
:106A80001946634600E000BF01B5FFF7B7FF0028D5
:106A900048BF10F1000F01BD4DF808EDFFF7F4FFFE
:106AA0000CBF012000205DF808FB00BF4DF808ED89
:106AB000FFF7EAFF34BF012000205DF808FB00BFAC
:106AC0004DF808EDFFF7E0FF94BF012000205DF8CE
:106AD00008FB00BF4DF808EDFFF7CEFF94BF012083
:106AE00000205DF808FB00BF4DF808EDFFF7C4FF7C
:106AF00034BF012000205DF808FB00BF4FEA410CC5
:106B00007FEA6C5C02D150EA013C0AD14FEA430CA7
:106B10007FEA6C5C02D152EA033C02D14FF00000E4
:106B200070474FF0010070474FEA410212F5001222
:106B300015D211D56FF47873B3EB625212D94FEAC4
:106B4000C12343F0004343EA505311F0004F23FAAE
:106B500002F018BF404270474FF00000704750EA03
:106B6000013005D111F0004008BF6FF000407047C0
:106B70004FF00000704700BF4FEA4102B2F1E0431E
:106B800024BFB3F5001CDCF1FE5C0DD901F0004C14
:106B90004FEAC0024CEA5070B2F1004F40EB830064
:106BA00008BF20F00100704711F0804F21D113F190
:106BB0003872BCBF01F00040704741F480114FEAC9
:106BC0005252C2F11802C2F1200C10FA0CF320FA52
:106BD00002F018BF40F001004FEAC1234FEAD3236F
:106BE00003FA0CFC40EA0C0023FA02F34FEA4303D9
:106BF000CCE77FEA625307D150EA01331EBF4FF062
:106C0000FE4040F44000704701F0004040F0FE407C
:106C100040F40000704700BF80F0004002E000BF79
:106C200081F0004142001FBF5FEA410392EA030F77
:106C30007FEA226C7FEA236C6AD04FEA1262D2EBC1
:106C40001363C1BFD218414048404140B8BF5B42C6
:106C5000192B88BF704710F0004F40F4000020F05F
:106C60007F4018BF404211F0004F41F4000121F075
:106C70007F4118BF494292EA030F3FD0A2F10102BF
:106C800041FA03FC10EB0C00C3F1200301FA03F1FD
:106C900000F0004302D5494260EB4000B0F5000F20
:106CA00013D3B0F1807F06D340084FEA310102F1DF
:106CB0000102FE2A51D2B1F1004F40EBC25008BF91
:106CC00020F0010040EA03007047490040EB00005B
:106CD000013A28BFB0F5000FEDD2B0FA80FCACF15C
:106CE000080CB2EB0C0200FA0CF0AABF00EBC25089
:106CF00052421843BCBFD0401843704792F0000F77
:106D000081F4000106BF80F400000132013BB5E7C9
:106D10004FEA41037FEA226C18BF7FEA236C21D03F
:106D200092EA030F04D092F0000F08BF08467047A4
:106D300090EA010F1CBF0020704712F07F4F04D172
:106D4000400028BF40F00040704712F100723CBF85
:106D500000F50000704700F0004343F0FE4040F4AF
:106D6000000070477FEA226216BF08467FEA23636D
:106D70000146420206BF5FEA412390EA010F40F458
:106D8000800070474FF0000304E000BF10F00043A4
:106D900048BF40425FEA000C08BF704743F096438B
:106DA00001464FF000001CE050EA010208BF7047A6
:106DB0004FF000030AE000BF50EA010208BF70472D
:106DC00011F0004302D5404261EB41015FEA010C42
:106DD00002BF84460146002043F0B64308BFA3F13A
:106DE0008053A3F50003BCFA8CF2083AA3EBC2531C
:106DF00010DB01FA02FC634400FA02FCC2F120023B
:106E0000BCF1004F20FA02F243EB020008BF20F071
:106E10000100704702F1200201FA02FCC2F12002D7
:106E200050EA4C0021FA02F243EB020008BF20EACC
:106E3000DC7070474FF0FF0C1CEAD0521EBF1CEAFA
:106E4000D15392EA0C0F93EA0C0F6FD01A4480EAE8
:106E5000010C400218BF5FEA41211ED04FF00063D1
:106E600043EA501043EA5111A0FB01310CF00040FD
:106E7000B1F5000F3EBF490041EAD3715B0040EA23
:106E8000010062F17F02FD2A1DD8B3F1004F40EBF3
:106E9000C25008BF20F00100704790F0000F0CF0C6
:106EA000004C08BF49024CEA502040EA51207F3A8A
:106EB000C2BFD2F1FF0340EAC250704740F4000065
:106EC0004FF00003013A5DDC12F1190FDCBF00F056
:106ED00000407047C2F10002410021FA02F1C2F104
:106EE000200200FA02FC5FEA310040F1000053EAA0
:106EF0004C0308BF20EADC70704792F0000F00F0EE
:106F0000004C02BF400010F4000F013AF9D040EAF3
:106F10000C0093F0000F01F0004C02BF490011F487
:106F2000000F013BF9D041EA0C018FE70CEAD15385
:106F300092EA0C0F18BF93EA0C0F0AD030F0004C05
:106F400018BF31F0004CD8D180EA010000F00040B9
:106F5000704790F0000F17BF90F0004F084691F077
:106F6000000F91F0004F14D092EA0C0F01D14202B1
:106F70000FD193EA0C0F03D14B0218BF084608D17A
:106F800080EA010000F0004040F0FE4040F40000C4
:106F9000704740F0FE4040F4400070474FF0FF0C57
:106FA0001CEAD0521EBF1CEAD15392EA0C0F93EA9E
:106FB0000C0F69D0A2EB030280EA010C49024FEAF0
:106FC000402037D04FF0805343EA111143EA1013A9
:106FD0000CF000408B4238BF5B0042F17D024FF461
:106FE000000C8B4224BF5B1A40EA0C00B3EB510F3C
:106FF00024BFA3EB510340EA5C00B3EB910F24BF25
:10700000A3EB910340EA9C00B3EBD10F24BFA3EBA9
:10701000D10340EADC001B0118BF5FEA1C1CE0D171
:10702000FD2A3FF650AF8B4240EBC25008BF20F024
:10703000010070470CF0004C4CEA50207F32C2BF78
:10704000D2F1FF0340EAC250704740F400004FF015
:107050000003013A37E792F0000F00F0004C02BF46
:10706000400010F4000F013AF9D040EA0C0093F010
:10707000000F01F0004C02BF490011F4000F013B6A
:10708000F9D041EA0C0195E70CEAD15392EA0C0FD2
:1070900008D142027FF47DAF93EA0C0F7FF470AF0A
:1070A000084676E793EA0C0F04D14B023FF44CAF4D
:1070B00008466EE730F0004C18BF31F0004CCAD1E2
:1070C00030F000427FF45CAF31F000437FF43CAF1E
:1070D0005FE700BF4FF0FF3C06E000BF4FF0010C40
:1070E00002E000BF4FF0010C4DF804CD4FEA400222
:1070F0004FEA41037FEA226C18BF7FEA236C11D06C
:1071000001B052EA530C18BF90EA010F58BFB2EB1E
:10711000030088BFC81738BF6FEAE17018BF40F09E
:10712000010070477FEA226C02D15FEA402C05D152
:107130007FEA236CE4D15FEA412CE1D05DF8040BD7
:10714000704700BF844608466146FFE70FB5FFF76A
:10715000C9FF002848BF10F1000F0FBD4DF808ED22
:10716000FFF7F4FF0CBF012000205DF808FB00BF13
:107170004DF808EDFFF7EAFF34BF012000205DF86D
:1071800008FB00BF4DF808EDFFF7E0FF94BF0120BA
:1071900000205DF808FB00BF4DF808EDFFF7D2FFB7
:1071A00094BF012000205DF808FB00BF4DF808EDFA
:1071B000FFF7C8FF34BF012000205DF808FB00BFC7
:1071C00042000ED2B2F1FE4F0BD34FF09E03B3EB51
:1071D000126209D44FEA002343F0004323FA02F07D
:1071E00070474FF00000704712F1610F01D1420269
:1071F00002D14FF0FF3070474FF00000704700BFE2
:1072000053B94AB9002908BF00281CBF4FF0FF310D
:107210004FF0FF3000F06CB9ADF1080C6DE904CE11
:1072200000F006F8DDF804E0DDE9022304B0704761
:107230002DE9F047089E0D4604468E46002B40F08F
:1072400082808A42174646D9B2FA82F24AB1C2F126
:10725000200105FA02F320FA01F1974041EA030EFA
:1072600094404FEA1748230CBEFBF8FCB9B208FB68
:107270001CEE43EA0E430CFB01F098420AD9FB18BE
:107280000CF1FF3580F01681984240F21381ACF189
:10729000020C3B441B1AA4B2B3FBF8F008FB1033FA
:1072A00044EA034400FB01F1A14209D93C1900F171
:1072B000FF3380F00181A14240F2FE8002383C445D
:1072C000641A40EA0C4000211EB1D4400023C6E9F4
:1072D0000043BDE8F08702B9FFDEB2FA82F2002A6D
:1072E0004FD1CB1B4FEA174E1FFA87F80121B3FB92
:1072F000FEFC250C0EFB1C3345EA034508FB0CF392
:10730000AB4207D97D190CF1FF3002D2AB4200F23B
:10731000E7808446ED1AA3B2B5FBFEF00EFB1055D4
:1073200043EA054408FB00F8A04507D93C1900F1E1
:10733000FF3302D2A04500F2D7801846A4EB080420
:1073400040EA0C40C0E78B4208D9002E00F0AF8025
:107350000021C6E900050846BDE8F087B3FA83F1CD
:1073600000294BD1AB4202D3824200F2B780841A8B
:1073700065EB030301209E46002EAAD0C6E9004E0D
:10738000A7E7C2F1200C01FA02F3974020FA0CF0B3
:107390004FEA174E21FA0CFC1843BCFBFEF1050C1A
:1073A0000EFB11CC1FFA87F845EA0C4501FB08F3E8
:1073B000AB4204FA02F409D97D1901F1FF3C80F0D7
:1073C0008B80AB4240F2888002393D44EB1A85B293
:1073D000B3FBFEF00EFB103345EA034500FB08F358
:1073E000AB4207D97D1900F1FF3C71D2AB426FD996
:1073F00002383D44EB1A40EA014178E7C1F1200C24
:107400008B4022FA0CF71F4320FA0CF405FA01F323
:107410004FEA174E25FA0CF51C43230CB5FBFEF979
:107420001FFA87F80EFB195543EA054509FB08FAD0
:10743000AA4502FA01F200FA01F308D97D1909F10F
:10744000FF3047D2AA4545D9A9F102093D44A5EB31
:107450000A05A4B2B5FBFEF00EFB105544EA054444
:1074600000FB08F8A04507D93C1900F1FF352DD2E3
:10747000A0452BD902383C4440EA0940A4EB08045B
:10748000A0FB02894C45C6464D4619D316D05EB1C5
:10749000B3EB0E0264EB050404FA0CFCCA404CEAA0
:1074A0000202CC40C6E900240021BDE8F087314645
:1074B00030460EE7AC46EDE6184601E74345E6D216
:1074C000B8EB020E69EB07050138E0E72846D3E781
:1074D00060468FE78146BAE7614677E708464BE7A3
:1074E000ACF1020C3D4415E702383C4426E700BFEE
:1074F000704700BF10B50C4A0C4904460C4806F012
:1075000055FA0C4B0C4A0D490948002C08BF1A4685
:1075100006F04CFA0A49064806F048FABDE8104061
:10752000642010F055BA00BF68050308730503080E
:10753000181F00205C0503085F0503087905030890
:10754000AD06030838B50C4C0C4A0D4905462046DB
:1075500006F02CFA2A460B49204606F027FA0A497B
:10756000204606F023FA642010F032FABDE83840D5
:107570000021012006F05DBA181F00208C050308C9
:107580007305030892050308AD06030810B50B4CFC
:107590000B4A0C49204606F009FA0B49204606F032
:1075A00005FA0A49204606F001FA642010F010FAA4
:1075B000BDE810400021012006F03BBA181F002052
:1075C0009F05030873050308A9050308AD06030812
:1075D000F7B50446564A57495748584F564E06F095
:1075E000E5F994F90C300193B4F90A30009363780B
:1075F00022785349504806F0D9F952494E4806F0CE
:10760000D5F9642010F0E4F90025237AAB4207DDB8
:10761000636839465A5D304606F0C8F90135F4E72B
:107620004949454806F0A1F9237893B94149404AB0
:10763000414806F0BBF945493F4806F0B7F94149D2
:107640003D4806F0B3F9642003B0BDE8F04010F007
:10765000BFB963681A78AA2A62D15A78552A5FD1CD
:107660009A780F2A35D13A4A00211170D978394ACF
:10767000117001390F2925D8197993F90400507434
:1076800001390F2917D8191DC3F1FF2303F57F0313
:10769000FC335C18A04202F1010203DD11F8014F36
:1076A0001470F6E72C4800236422012103B0BDE8E2
:1076B000F04006F06EB81F49284A1F4806F076F9D8
:1076C0002749B9E71B49254A1B4806F06FF92549A8
:1076D000B2E7062A01D0102A1BD11D4A01211170E0
:1076E000D978214A117001390F29EBD819795182C3
:1076F00093F905305374590000231E469942D1DD99
:1077000002EB63056E70606818440233C0796870DC
:10771000F4E70849114A084806F048F913498BE78D
:1077200004490E4A044806F041F9114984E700BFB4
:10773000B905030873050308181F0020B9070308DB
:10774000BF050308AD060308AC060308E3050308FC
:107750007410002044100020D11F0020EF05030802
:10776000F505030808060308E01000201E060308BC
:107770002C060308F0B585B004AB03E907003E4AC8
:107780003E493F48019C3F4F3D4E06F00FF99DF9A1
:107790000C30BDF90A203C49394806F007F93B494D
:1077A000374806F003F9642010F012F900259DF81F
:1077B0000830AB4206DD625D3946304606F0F6F829
:1077C0000135F4E732492E4806F0CFF82378AA2B8A
:1077D0004BD16378552B48D1A3780F2B3ED1E2785B
:1077E0002C4B1A70013A0F2A31D8227994F90410DF
:1077F0005974013A0F2A17D8221DC4F1FF2404F549
:107800007F04FC34A018814203F1010303DD12F868
:10781000010F1870F6E7204800236422012105B00B
:10782000BDE8F04005F0B5BF14491C4A144806F005
:10783000BDF81B49124806F0B9F81449104806F083
:10784000B5F8642005B0BDE8F04010F0C1B80B49B0
:10785000124A0B4806F0AAF81249EBE707490F4A0B
:10786000074806F0A3F81049E4E704490B4A044826
:1078700006F09CF80D49DDE7390603087305030897
:10788000181F0020B907030843060308AD060308C4
:10789000AC06030844100020D11F0020EF050308A8
:1078A000F5050308080603081E0603082C0603084E
:1078B00010B50121082006F0BCF80E4C0121084645
:1078C00006F0B7F80C4A0D49204606F06FF80C494F
:1078D000204606F06BF80B49204606F067F8642056
:1078E00010F076F8BDE81040074A0848002302214E
:1078F00005F04FBF181F00205B060308730503083F
:1079000060060308AD060308C0270900D11F002048
:1079100010B5044601F012FC204610BD10B5044617
:10792000124A1349134874B106F040F8124911483D
:1079300006F03CF811490F4806F038F8BDE8104051
:10794000642010F045B806F031F80D49094806F0FA
:107950002DF80A49074806F029F8642010F038F895
:1079600021460120BDE8104006F063B87006030808
:1079700073050308181F002078060308AD060308E6
:10798000950603082DE9F04F012185B0082006F087
:1079900050F89B489B4C022306224FF4965105F069
:1079A000B7FC994B994A1F7899499A48002F00F0E3
:1079B000988005F0FBFF98499648984D05F0F6FF32
:1079C0009749944805F0F2FF642010F001F88F4ABF
:1079D0008F49904805F0EAFF95F9112091498D48AB
:1079E00005F0E4FF8E498B4805F0E0FF64200FF0BE
:1079F000EFFF95F911200023082AE380A38063801C
:107A00002380E381A381638123810BDC2946204607
:107A10009A4201F1010118DD91F9006020F8026B32
:107A20000133F5E77A49794A7A4805F0BFFF7E4984
:107A3000784805F0BBFF7A49764805F0B7FF642027
:107A400005B0BDE8F04F0FF0C3BF784B297819702F
:107A5000012A14BF102106215970698A59809C603F
:107A60009A80724B7248724D0ECB00F067FE05F0A3
:107A7000E5FF4FF00008044641F28736002705F085
:107A8000DDFF031B029368EB48030393DDE9022348
:107A9000964277EB030317DB284600F045FF2846A4
:107AA00000F0B9FD0028EAD1584A5949594805F073
:107AB0007DFF6049574805F079FF5949554805F061
:107AC00075FF64200FF084FF0021082005F0B1FF4E
:107AD0004B4805F063FC012005B0BDE8F04F10F005
:107AE000BDB905F063FF54494A48544E05F05EFFA6
:107AF0004B49484805F05AFF64200FF069FF434A9C
:107B00004349444805F052FF96F911204C49414839
:107B100005F04CFF42493F4805F048FF64200FF054
:107B200057FF96F911302780102B45DCDFF8DCB0C9
:107B3000DFF8DCA0DFF8DC80B146082596F91130CB
:107B4000BB4240DD5A465146404605F02FFF99F9A9
:107B500001203C4902FA05F300933B4B4046002AC2
:107B600008BF0B463A46394905F020FF2C494046EC
:107B700005F01CFF64200FF02BFF19F9013F22884C
:107B8000AB40134351465A464046238005F00EFF52
:107B9000B4F900202E49404605F008FF0135204980
:107BA000404605F003FFEDB264200FF011FF102DE9
:107BB00008BF00250137C1E71549144A154805F0EB
:107BC000F5FE244934E7114A1149124805F0EEFE4A
:107BD000B4F900201E490F4805F0E8FE10490D4891
:107BE00005F0E4FE64200FF0F3FE104B32781A70BB
:107BF0000F225A7000225A8096F911202FE700BFF9
:107C0000401F00205610002074100020B306030807
:107C100073050308181F0020B8060308E0100020B1
:107C2000AD060308E0060308F4060308F41000207C
:107C300078100020BE070308320703084410002014
:107C400056070308AF060308791C0308A1070308B9
:107C5000AF070308660703081FB59D4805F0A2FC9F
:107C6000012840F019819B4805F06EFC9A4B187072
:107C70009A4805F019FC9A4B18709A4805F074FC64
:107C8000994B9A491870954805F010FC984993480B
:107C900005F01CFC9749914805F010FC01210020DB
:107CA00005F0B0FE0121002005F0C3FE01210846C9
:107CB00005F0A8FE0121084605F0BBFE02230622BE
:107CC0004FF4E1318C4805F023FB41F288300FF08E
:107CD0007FFE8A4901A805F0FBFD01A9884805F04F
:107CE00005FD01A805F0AEFD8649834805F054FE68
:107CF0008549814805F050FE84497F4805F04CFED7
:107D00007F4901A805F0DCFC019A81497A4805F019
:107D10004DFE01A805F096FD7B49774805F03CFE35
:107D200001F046F978B97B4A7B49734805F03EFE7D
:107D30007A49714805F03AFE79496F4805F036FEF8
:107D400064200FF045FE01F01DF978B9714A7249BF
:107D5000694805F02BFE7349674805F027FE704916
:107D6000654805F023FE64200FF032FE01F0A8F90B
:107D70000021084605F05DFE0121082005F042FEC5
:107D80000121082005F055FE022306224FF49651EA
:107D9000654805F0BDFA654800F021FC63484FF4E2
:107DA000FA6100F035FC624A62480123002105F0C7
:107DB000E6FC614A5F4852680023194605F0E9FC79
:107DC0005E4A5C480023012105F0D9FC5C4A594811
:107DD0000023022105F0D3FC3D4805F0E3FB0446F7
:107DE000002866D10146012005F023FE494A4A4990
:107DF000414805F0DBFD53493F4805F0D7FD4849B0
:107E00003D4805F0D3FD64200FF0E2FD2046FFF76A
:107E10004FFD2F4805F0C6FB012837D12E4B3D4AB8
:107E20001B783D493448002B4ED005F0BFFD464934
:107E3000314805F0BBFD3A492F4805F0B7FD6420F5
:107E40000FF0C6FD334A34492B4805F0AFFD244BF3
:107E50003E491A78284805F0A9FD3149264805F021
:107E6000A5FD64200FF0B4FD2A4A2B49224805F0F5
:107E70009DFD1D4B36491A781F4805F097FD28498E
:107E80001D4805F093FD64200FF0A2FD012131484B
:107E900005F0AFFD04B010BD2F49304805F0C6FA1B
:107EA0002F492E4805F0CAFA2E492C4805F0CEFA83
:107EB000F4E60021082005F0BCFD1B4805F06EFA31
:107EC00001200FF0CBFFA4E705F070FD2649AFE7D6
:107ED000F81F0020DC1F002068100020D41F0020A5
:107EE00069100020E31F002004000020D175000865
:107EF000457500081D790008181F0020C9070308F0
:107F0000781F0020E1070308FE070308350803086F
:107F1000750803087D080308730503088308030830
:107F2000AD060308A5080308401F002078100020B4
:107F3000B1780008D11F00200800002085790008D2
:107F400099810008CE080308E80803080D09030812
:107F500018090308691F002075770008F91F002021
:107F60008D750008F5740008FA080308014805F04B
:107F700038BD00BF681F002013B5714805F012FB23
:107F80000128704A7049714840F0AE8005F00EFD3E
:107F90006F4801F0DDF86F4902466C4805F006FDB8
:107FA0006D496A4805F002FD64200FF011FD6B4831
:107FB00005F0ECFA0446664801F0CAF881B2A0B2B6
:107FC00001F09EF85F4A60490446604805F0EEFC07
:107FD000634805F0C9FA2246034662495B4805F04A
:107FE000E5FC5D49594805F0E1FC64200FF0F0FC28
:107FF000102C3CD1534A5449544805F0D7FC5A49F7
:10800000524805F0D3FC5449504805F0CFFC642099
:108010000FF0DEFC4E4801F09BF804464C4801F09E
:1080200099F8524B1B780193514B1B780093514B9D
:1080300002461B785048214605F011FA002849D025
:10804000404A4149414805F0B1FC414801F080F8FF
:108050004A4902463D4805F0A9FC3F493B4805F026
:10806000A5FC642002B0BDE810400FF0B1BC3C4854
:1080700005F07AFAA04213D9324A3349334805F061
:1080800095FC3F49314805F091FC33492F4805F0F4
:108090008DFC64200FF09CFC3148214605F066FA07
:1080A0002F4805F061FAA042B4D2264A2649274853
:1080B00005F07CFC3349254805F078FC2649234827
:1080C00005F074FC64200FF083FC2146244805F081
:1080D0004DFA9FE71C491B4A1C4805F067FC2A49DA
:1080E0001A4805F063FCB8E705F060FC184801F099
:1080F0002FF826490246154805F058FC1649134842
:1081000005F054FC64200FF063FC0021012005F011
:1081100090FC0F4801F01CF804460D4801F01AF8D5
:108120000123024621461A4805F069F90028D1D0FA
:108130000549044A054805F039FC1649D0E700BF57
:10814000F81F00202009030873050308181F0020EA
:108150006C10002027090308AD060308F51F002056
:10816000E31F0020500903089B0903086910002041
:108170006810002005000020D41F0020360A0308E4
:10818000B0090308F20903084F0A03085B0A030851
:10819000F91F00207D0A03082DE9F84F062202236B
:1081A0004FF49651C448C54CDFF82CB305F0B0F835
:1081B0004FF4FA700FF00CFCC14AC249C24805F0F6
:1081C000F5FBC249C04805F0F1FBC149BE4805F0C6
:1081D000EDFB64200FF0FCFB4FF6FF732381E3807F
:1081E000A380638023802382E381A3816381B94BD1
:1081F000B9489C6040F201321A6009229A800ECB85
:1082000000F09CFA05F01AFC4FF0000A054641F216
:1082100087384FF0000905F011FC461B6AEB4A074E
:10822000B04579EB0703C0F28E81584600F07CFB25
:10823000584600F0F0F90028EDD1A14AA149A24822
:10824000A64E05F0B3FBB4F90000FEF753F9A44BBA
:108250000022FEF7E3FA0B460246A2499A4805F0CF
:10826000A5FB9B49984805F0A1FB64200FF0B0FBEB
:10827000934A9449944805F099FBB4F90200FEF73B
:1082800039F9974B0022FEF7C9FA0B460246964988
:108290008D4805F08BFB8E498B4805F087FB6420E9
:1082A0000FF096FB864A8749874805F07FFBB4F9B3
:1082B0000400FEF71FF90B4602468C49824805F080
:1082C00075FB8349804805F071FB64200FF080FB4B
:1082D0007B4A7C497C4805F069FBB4F90600FEF74F
:1082E00009F97F4B0022FEF799FA0B4602468049B6
:1082F000754805F05BFB7649734805F057FB642031
:108300000FF066FB6E4A6F496F4805F04FFBB4F9FA
:108310000800FEF7EFF80B46024676496A4805F07A
:1083200045FB6B49684805F041FB64200FF050FBAA
:10833000634A6449644805F039FBB4F90A00FEF762
:10834000D9F80B4602466C495F4805F02FFB60499F
:108350005D4805F02BFB64200FF03AFB584A594961
:10836000594805F023FBB4F90C00FEF7C3F80B469F
:1083700002466249544805F019FB5549524805F038
:1083800015FB64200FF024FB4D4A4E494E4805F082
:108390000DFBB4F90E00FEF7ADF80B460246584946
:1083A000494805F003FB4A49474805F0FFFA6420B5
:1083B0000FF00EFB424A4349434805F0F7FAB4F97F
:1083C0001000FEF797F802460B463F484D4905F06E
:1083D000EDFA3F493C4805F0E9FA64200FF0F8FA5D
:1083E000494800F0B2FEB4F90200FEF783F83C4BB6
:1083F0000022FEF713FAFEF7BFFB032102464248B4
:1084000000F091FFB4F90000FEF774F8344B00223D
:10841000FEF704FAFEF7B0FB022102463A4800F0EC
:1084200089FFB4F90400FEF765F8FEF7A5FB042107
:108430000246354800F070FFB4F90600FEF75AF81E
:10844000274B0022FEF7EAF9FEF796FB05210246CC
:108450002D4800F061FFB4F90800FEF74BF8FEF775
:108460008BFB06210246284800F056FFB4F90A00AB
:10847000FEF740F8FEF780FB07210246224800F095
:108480004BFFB4F90C00FEF735F8FEF775FB082139
:1084900002461D4800F040FFB4F90E00FEF72AF82E
:1084A000FEF76AFB09210246174800F035FFB4F9D0
:1084B0001000FEF71FF829E0401F00205610002092
:1084C0005B06030873050308181F00208D0A0308C4
:1084D000AD060308F410002078100020CD1F002006
:1084E00000002440AB0A0308BB0A0308CE0A0308B5
:1084F000E20A0308EC0A0308FC0A03080E0B03084F
:108500001F0B03082F0B03086C100020FEF734FB31
:108510000A210246144800F0FFFE0A2500243046D6
:1085200005F004F901462046FEF77CFB013D0446B8
:10853000F5D10E49FEF732FD012102460A4800F04E
:1085400000FFFFF719FD0021082005F072FA084826
:1085500004F024FF01200FF081FCBDE8F84F00215A
:10856000012005F066BA00BF6C1000200000204119
:10857000401F0020002310B519460C4A0C480D4C32
:1085800000F022F80C4B0022012119705A740B4B99
:10859000204619705A745A82FF2100F0C3FD20460C
:1085A000074A0849BDE8104001F05ABA401F0020B0
:1085B000781000206C10002044100020E0100020F3
:1085C000000000201179000810B543714FF47A7350
:1085D000A0F85630002302600171036610BD10B58B
:1085E00004464079012806D9012105F00BFA60798B
:1085F000002105F01EFA206803685B69984700288F
:10860000F9DA0023A4F848302365A4F8543010BDEB
:10861000A0F8561070478079704738B50446407905
:10862000012802D9002105F004FA002584F84850F9
:10863000206803681B69984778B1206803685B6904
:10864000984794F84830E2180133DBB2402B10729F
:1086500028BF012584F84830EAE7B4F850300133E8
:10866000A4F850303DB1B4F854300133A4F854307C
:108670006FF0020038BD94F94800FBE770B5083090
:1086800000244FF6FF734AF20105E2B291420ED97F
:1086900010F8012B5340082203F001065B0806B1D5
:1086A0006B40013A12F0FF02F6D10134EDE71802F7
:1086B00040EA132080B270BD13B590F8481004460C
:1086C000FFF7DCFF631802121A724B1C54FA83F393
:1086D00002311872607984F84810012802D901210A
:1086E00005F0A7F9206894F84820036804F1080110
:1086F0005B6898476379012B0DD9206803689B68F4
:108700009847236E019301994B1E01930029FAD1DA
:10871000607905F08EF9206803685B699847002846
:10872000F9DA002384F8483005F088F9B4F85230BB
:10873000E0650133A4F8523002B010BD7FB50446A5
:1087400004A800E90E002379BDF80650BDF8080022
:108750009DF804609DF80520BDF808106DBA40BA78
:10876000002B71D1A379002B71D1731EDBB2F62BD4
:1087700070D8039B6272013AE364267265810F2A06
:108780000DD8DFE802F008080808141F0C0C0C0CC8
:108790000C0C0C0C2446A081062384F8483020469B
:1087A000FFF78AFF0123E380002004B070BDB3F916
:1087B0000030002BD4BF002301235B42237300232E
:1087C0006373E9E793F9012022731B88F8E7CA086D
:1087D00002F0FE0209071CBF0132D2B20721A273C8
:1087E000A08184F84810002592B2AEB2B242D6D928
:1087F000710816F0010F33F9110094F8481004EBDA
:10880000010608BF001201313072013584F84810AA
:10881000EBE749000722A173A08184F8482019449E
:108820009942BCD094F8480093F90150221815726F
:10883000421CD2B284F84820224433F8025B1572FD
:10884000023084F84800EBE76FF00100ADE74FF02D
:10885000FF30AAE76FF00200A7E7000038B590F8F4
:1088600048500446A91E2544C9B2FFF707FFAA795C
:10887000EB7943EA0223984206D0B4F8543001332E
:10888000A4F85430FF2038BD94F90930617A002BE8
:1088900006DAB4F854300133A4F85430FB20F2E780
:1088A000094A082312F8010B81420AD0013B13F058
:1088B000FF03F7D1B4F854300133A4F85430012049
:1088C000E1E70020DFE700BF3A0B030870B50021A5
:1088D000837ACAB2934211D95508C46C861834F908
:1088E0001530F67AD2074BBFDBB203F47F4343EA7D
:1088F0000623334324F815300131E9E770BD10B584
:108900000022D1B2847A4B000333B1EB540FDBB2B7
:1089100009D20344C16C1C7A5B7A43EA042321F830
:1089200012300132EDE710BD38B504460068036827
:108930001B699847054605F081F8E36DC01AB4F845
:108940005630984209D94FF47F43E380B4F854304D
:108950000133A4F85430002038BD15F0FF05FAD0DB
:1089600094F84930AB4205D084F8495005F066F8D8
:10897000A065F0E705F062F8A36DC01A0428EAD9F3
:10898000002584F849502046FFF747FE052806DCFD
:10899000B4F85430A5710133A4F85430DCE7204614
:1089A000FFF75CFF10B1A57140B2D5E7637A022BE7
:1089B00004D833B12046FFF789FF02E0033B012BC7
:1089C00004D9002394F94800A371C5E72046FFF7B6
:1089D00096FFF6E710B598B01446A1490EA804F02A
:1089E00077FF0023CDE91433CDE91633636E012BF5
:1089F00006D19C492068FDF7C3FB18B102240CE2A4
:108A0000002BFBD19849994804F0D0FF984997482A
:108A100004F0CCFF64200EF0DBFF964911A804F0AF
:108A20006FFE11A90EA804F065FF11A804F00AFF5B
:108A30000EA804F089FF0E9A8F498C4804F0B6FF07
:108A40008B498A4804F0B2FF64200EF0C1FF8B49C5
:108A500011A804F035FE119A8949844804F0A6FF54
:108A600011A804F0EFFE8249804804F09FFF6420C3
:108A70000EF0AEFF834B84495A687C484FF47A73FA
:108A8000B2FBF3F204F092FF7949784804F08EFFCC
:108A900064200EF09DFF7D4804F084FD7C4B7D49F1
:108AA00053F820200446714804F080FF70496F4855
:108AB00004F07CFF64200EF08BFF012C40F0B381AA
:108AC000754804F04FFD754B754A7649002808BF7C
:108AD0001A46664804F06AFF6549644804F066FF78
:108AE00064200EF075FF704804F050FD6F49024697
:108AF00004465E4804F05AFF5D495C4804F056FFA6
:108B000064200EF065FF6A4B6A4953F824205748E9
:108B100004F04CFF5649554804F048FF64200EF01D
:108B200057FF654804F017FD0446002800F0D48084
:108B300062494E4804F03AFF4D494C4804F036FF74
:108B400064200EF045FF082214A95D4804F0EAFCF9
:108B50009DF8573005939DF8563004939DF8553095
:108B600003939DF8543002939DF8533001939DF880
:108B700052309DF85020534900933C489DF85130A5
:108B800004F014FF3A49394804F010FF64200EF055
:108B90001FFF082214A94C4804F0A0FC9DF8573090
:108BA00005939DF8563004939DF8553003939DF836
:108BB000543002939DF8533001939DF852309DF844
:108BC00050204249009329489DF8513004F0EEFEB0
:108BD0002749264804F0EAFE64200EF0F9FE102230
:108BE00014A93B4804F083FC9DF85F300D939DF879
:108BF0005E300C939DF85D300B939DF85C300A93CA
:108C00009DF85B3009939DF85A3008939DF85930D0
:108C100007939DF8583006939DF8573005939DF8BB
:108C2000563004939DF8553003939DF854300293C9
:108C30009DF8533001939DF8523000939DF85020D9
:108C40009DF851302349094804F0B0FE084907480F
:108C500004F0ACFE64200EF0BBFE0024DDE000BF9B
:108C6000AE060308503E03084D0B0308181F0020F2
:108C7000AC060308A81F00205C0B03086C1F002033
:108C8000670B030808000020730B0308F81F00207F
:108C900010000020830B0308DF1F0020420B030895
:108CA000BA1B0308930B0308F51F00209E0B030853
:108CB0001C000020A90B0308DE1F0020B40B0308D2
:108CC000D91F0020BE0B0308D51F0020E60B0308A8
:108CD000D61F00200E0C03089149924804F066FE4E
:108CE0009149904804F062FE64200EF071FE10225B
:108CF00014A98E4804F004FC9DF85F300D939DF894
:108D00005E300C939DF85D300B939DF85C300A93B8
:108D10009DF85B3009939DF85A3008939DF85930BF
:108D200007939DF8583006939DF8573005939DF8AA
:108D3000563004939DF8553003939DF854300293B8
:108D40009DF8533001939DF852309DF8502078499A
:108D5000009374489DF8513004F028FE7249714820
:108D600004F024FE64200EF033FE102214A9714892
:108D700004F0E1FB9DF85F300D939DF85E300C939D
:108D80009DF85D300B939DF85C300A939DF85B3045
:108D900009939DF85A3008939DF8593007939DF830
:108DA000583006939DF8573005939DF8563004933C
:108DB0009DF8553003939DF8543002939DF853303D
:108DC00001939DF852309DF850205B49009355481F
:108DD0009DF8513004F0EAFD5349524804F0E6FD95
:108DE00064200EF0F5FD042214A9544804F091FB10
:108DF0009DF8533001939DF8523000939DF8502018
:108E00009DF851304E49474804F0D0FD4649454849
:108E100004F0CCFD64200EF0DBFD0EA804F012FD82
:108E2000204618B010BD4748002C52D104F0DBFAA0
:108E3000454902463B4804F0B9FD3B49394804F036
:108E4000B5FD64200EF0C4FD404804F0CEFA404960
:108E50000246344804F0AAFD3349324804F0A6FD26
:108E600064200EF0B5FD3B4804F0C1FA3A490246D1
:108E70002C4804F09BFD2C492A4804F097FD6420FF
:108E80000EF0A6FD354804F0B4FA354902462548EF
:108E900004F08CFD2449234804F088FD64200EF082
:108EA00097FD304804F0A7FA2F4902461D4804F008
:108EB0007DFD1D491B4804F079FD64200EF088FDFE
:108EC0002A4804F09AFA2A490246164804F06EFD30
:108ED0009CE704F088FA1C490246124804F066FD3B
:108EE0001149104804F062FD64200EF071FD214824
:108EF00004F098FA204902460A4804F057FD0A494E
:108F0000084804F053FD64200EF062FD1B4804F095
:108F10008BFA1B490246034804F048FD96E600BF61
:108F2000560C0308181F0020AC060308D71F0020AA
:108F30005F0C0308DB1F0020A80C0308D81F0020CB
:108F4000F00C030804200020090D03080520002070
:108F5000180D030806200020200D0308072000201C
:108F6000280D030808200020300D030809200020E8
:108F7000450D03080D200020530D03080E2000208E
:108F8000600D030807B503230193054B0093054BC0
:108F9000054A0648194604F0D1FB03B05DF804FB0E
:108FA000059000086E0D0308760D0308CE1F002003
:108FB00007B502230193054B0093054B054A06486C
:108FC000194604F0BBFB03B05DF804FBD58900082B
:108FD000C90D0308D00D0308CE1F002008B50021DD
:108FE000064A0748082304F0C0FB014620B9034A9B
:108FF0000348082304F0B9FB012008BD0800002045
:10900000CF1F0020536E012B2DE9F041884603D07D
:1090100002242046BDE8F08116682249224D3046E0
:10902000FDF7AEF86F68044680B942461F492048F4
:109030004FF47A73B7FBF3F304F0B8FC1D491C48F6
:1090400004F0B4FC64200EF0C3FCE2E73046FDF708
:10905000A1F832463044904205D012F8013B303B33
:10906000092BF8D9D4E70A220021304601F0E6FAAC
:109070004FF47A735843104B9842C9D96860002165
:109080000E4804F090FB6A6822B100230B48194691
:1090900004F07FFB6B689F4201D0FFF79FFF002425
:1090A000B7E700BF503E030808000020E70D0308A3
:1090B000181F0020AC0603087F4F1200D11F0020AC
:1090C00037B50024AA250C488DF8005008236A46BD
:1090D0002146019404F03FFB48B19DF80030AB42BB
:1090E000064B06D01D705C60FFF778FF204603B08A
:1090F00030BD019A5A60FAE7CF1F00200800002017
:1091000010B5074B53F82020002332F813408C424F
:10911000D8B203D80133102BF7D1184610BD00BFC9
:10912000D000002038B50446002508462171A571FD
:1091300000F0CEFC65712060204638BD10B50446B5
:10914000006800F0CDFC204610BD0023437170473D
:1091500040797047006870478E294ED8702903D82F
:10916000032943D80120704771391D2945D801A32F
:1091700053F821F065910008FB9100086591000803
:10918000659100086591000865910008FB91000851
:109190006591000865910008FB910008FB910008AB
:1091A000FB91000865910008FB910008FB91000805
:1091B00065910008FB910008659100086591000821
:1091C00065910008659100086591000865910008A7
:1091D00065910008FB910008FB910008FB910008D5
:1091E000FB910008FB91000865910008A1F1640063
:1091F00004288CBF0020012070470020704700BF6A
:10920000882918D8702906D803290FD8012994BFB6
:1092100000200120704771390123C9B203FA01F11E
:10922000064B194214BF012000207047A1F16703CB
:109230005842584170470020704700BF0101A0000C
:109240002DE9F84F04460E4690461D46FFF784FF71
:1092500018B90223A371BDE8F88F8E2E98BF2C4B4E
:1092600094F805909CBF9F5D2A4B227994BF33F8F8
:1092700016B0002709EB070303F1010388BFBB46C3
:10928000934203DB0123A3710020E4E70021284679
:10929000FDF76EFF0021B0F1000A284618BF4FF01D
:1092A000010AFDF765FF08B105F100455846FDF7D5
:1092B00069FD2946FDF7BEFDFDF782FF31460546F3
:1092C0002046FFF79DFF40B1BAF1000F05D0FA002C
:1092D00001239340581E05405D1B236809F10102DC
:1092E000627103F8098063792268591C6171D65450
:1092F000002201326379D1B2B9423B4404D82168DB
:109300009B1ACD542D0AF4E7D8B26071A3E700BFD1
:109310004E0E0308DE0E030808B513460A46022166
:10932000FFF78EFF08BD08B513460A466721FFF711
:1093300087FF08BD08B513460A466821FFF780FF7E
:1093400008BD08B513460A467421FFF779FF08BD2A
:1093500003F012BA03F015BA70470000BFF34F8F45
:109360000549064BCA6802F4E0621343CB60BFF3C1
:109370004F8F00BFFDE700BF00ED00E00400FA05DD
:1093800070B5002386B0CDE904334FF0B0420F4DE5
:10939000D16C41F00201D164D26C039302F002025D
:1093A0004FF48056009201A92846CDE90163009A46
:1093B00010F09AFE3146284610F0B6FF31460446BA
:1093C000284610F03DFF204606B070BD000400485E
:1093D0000D2070474FF0B04382B0DA6C0243DA647C
:1093E000DB6C18400190019B02B070472DE9F04101
:1093F00086B01422002101A800F088FB0220FFF7AC
:10940000E9FF144D144F0420FFF7E4FF4FF480767A
:1094100001230024CDE9016301A903232846CDE9F6
:1094200003434FF4005810F05FFE01A93846CDF811
:10943000048010F059FE22464146384610F07AFF6B
:1094400028462246314610F075FF204606B0BDE89A
:10945000F08100BF0004004800080048032810B550
:109460000ED8012810D868B902460B484FF4807115
:1094700010F060FF002209484FF4005110F05AFF2D
:10948000002010BD0122F0E7002203484FF4807154
:1094900010F050FF0122EEE70004004800080048E9
:1094A00002207047002070470120704710B59AB025
:1094B0004822002108A800F029FB1822002102A858
:1094C00000F024FB10F048FF4FF0B0420024D2F827
:1094D000903023F01803C2F89030D2F8003423F40F
:1094E000C06343F40073C2F80034D2F8003411941E
:1094F00003F4C06301934FF48072019B0C922E23FE
:109500004022089381230B930D920123B02208A8D7
:10951000CDE90E3410931292139411F06FF808B144
:1095200003F07EFA4F23022102A8CDE90234CDE9EF
:109530000444CDE9064411F001FB08B103F070FAD0
:109540001AB010BD13B50378082B11D8DFE803F06B
:10955000128287108E8E05109200047920460CF03E
:10956000B1FF20460CF02EFF002120460CF0B2FF88
:1095700002B010BD00200CF0A5FF012839D1012058
:109580000CF0A0FF012804D001200EF061FE00289D
:109590003DDC02200CF096FF0128E9D002200EF0FD
:1095A00057FE0028E4DD012201A902200EF004FD8F
:1095B00002200CF087FF0028F0D102200EF010FEF0
:1095C00000283FD19DF8041002200CF067FEE5E76B
:1095D000012201A900200EF0EFFC00200CF072FF28
:1095E000044630B90EF0FCFD48B99DF804100CF0AB
:1095F00055FE00200EF02CFE0028E9DCBFE7012814
:10960000F7D19DF8041020460EF042FDF1E701224B
:1096100001A910460EF0D0FC01200CF053FF0028E9
:10962000B2D101200EF0DCFD28B99DF80410012014
:109630000CF034FEA8E70128A6D19DF804100EF026
:1096400027FDA1E70128A9D19DF8041002200EF002
:109650001FFDA3E717F082FE04F086FA88E7074BA8
:109660001B68002B84D04068984781E740680EF063
:109670009DFE7DE740680EF011FB79E7746A0020DB
:1096800030B52D4B2D4A9A6085B00EF0C3FEFFF722
:109690000DFF4FF0B0430B209A6C42F004029A6425
:1096A0009A6C02F004020392039A9A6C42F001024F
:1096B0009A649B6C002203F0010311460293029B03
:1096C0000FF010FB0B200FF03FFB0EF051FE0EF0E1
:1096D00027F90DF001F80024014605462346032230
:1096E0000120CDE900440EF093FB234603222946D6
:1096F0000220CDE900440EF08BFB0CF0AFFE0DF024
:1097000099F806F0C1F9E5B228460CF0DBFE10B975
:1097100028460CF057FE0134032CF4D10EF00CFE59
:109720000DF0A8FD012804D105B0BDE8304006F0D9
:10973000A7BC05B030BD00BF00ED00E00060000830
:109740000EF008BEF7B5FFF79BFF4FF0B0432E4E6B
:10975000DA6C2E4C42F00202DA64DB6C03F0020396
:109760000193019B08F0BEFC294B341B142747438F
:1097700000251C44BD4223D302F01EF9FFF700FE72
:1097800098B3244804F0AEF9234B24481A68244BBC
:10979000196804F0A7F923480EF0D2FB04F096FDF7
:1097A000012824D0022824D010B91F480EF0C8FB8D
:1097B0001E4C0EF0CFFD2378EBB902F0FFF8F8E76E
:1097C0006A46042160190EF01DF9694632460423E9
:1097D00012F801CB11F8010B844518BF02F8010CF7
:1097E000013BF5D104350436C4E71148CAE71148F6
:1097F000DCE71148DAE70CF0ABFE0028D9D00020F6
:109800000EF0D0FAD5E700BFC4040020000000200D
:10981000E8450308FC0F03088C0100201210030820
:10982000A4010020221003083610030800110020B4
:1098300007100308421003084D100308054808B537
:109840000823036011F048FD18B1BDE8084003F09B
:10985000E7B808BD5C6300204FF0B04307B55A6E0F
:1098600042F001025A665B6E002203F0010301938D
:1098700011463220019B0FF035FA322003B05DF81B
:1098800004EB0FF061BA0000024B9868024BC04332
:10989000186070470028004004110020014B186830
:1098A000704700BF04110020034B044A9B681068F6
:1098B000DB43181A704700BF002800400411002045
:1098C000034B187810B1034B9868C043704700BF32
:1098D00001110020002800400320704708B5014610
:1098E0004FF47A720023C003490CFDF789FC08BDD0
:1098F0004FF47A72A0FB0223D00B40EA434070473A
:1099000010B5074B074C0122DA654FF480712046F1
:1099100011F012FA4FF0FF332363002010BD00BF97
:1099200000280040A865002002460021014811F0EF
:1099300018BC00BFA865002002460121014811F0B3
:1099400010BC00BFA865002010B58CB02C220021EF
:10995000044601A800F0DAF8FFF7D2FF0C4B1868B4
:1099600000230444089306934FF00053E443079305
:10997000084802944FF48073012201A90B9311F05F
:10998000F1FA08B103F04CF800200CB010BD00BF94
:1099900004110020A86500200C4B70B59C68064699
:1099A00002210B4811F0E4FBE44300221219C2F338
:1099B0000E044FF47A71A4FB014540F10003E40B5F
:1099C000D00B348040EA434070BD00BF0028004007
:1099D000A86500200148002111F0CABBA86500203D
:1099E0000148012111F0C4BBA8650020F8B5114E53
:1099F0003578E5B9104C2A4629464FF0FF372846FE
:109A0000276302F023FEFFF77BFF4FF480712046AF
:109A100011F092F92046276311F04EFB2A460221ED
:109A2000204611F09EFBFFF72FFF0123337000202B
:109A3000F8BD00BF01110020A865002014F0CEBEC3
:109A400010B5064C0221204611F092FB0221421C67
:109A50002046BDE8104011F084BB00BFA86500207F
:109A60000B460146184600F001B8000010B5044648
:109A70000448134620B10A4602202146AFF3008075
:109A800010BD00BF0000000070B50D4D0D4C641BF3
:109A9000A4100026A64209D10B4D0C4C26F080FCE8
:109AA000641BA4100026A64205D170BD55F8043BE6
:109AB00098470136EEE755F8043B98470136F2E740
:109AC000D0450308D0450308D0450308E045030806
:109AD000024B0146186800F06FB800BFA8010020D3
:109AE000024B0146186800F019B800BFA801002019
:109AF0000A44914200F1FF3300D1704710B511F8CC
:109B0000014B03F8014F9142F9D110BD02440346C5
:109B1000934200D1704703F8011BF9E738B50546B9
:109B2000002945D051F8043C0C1F002BB8BFE418A5
:109B300001F0F0FB1F4A1368104633B963601460EC
:109B40002846BDE8384001F0EBBBA3420BD92168A1
:109B50006218934204BF1A685B68636004BF5218BE
:109B600022600460ECE71A465B680BB1A342FAD9A5
:109B700011685018A0420BD120680144501883424C
:109B80001160DDD118685B68536001441160D7E74C
:109B900002D90C232B60D3E7206821188B4204BF25
:109BA00019685B68636004BF091821605460C7E7E7
:109BB00038BD00BF08110020F8B5CD1C25F0030505
:109BC00008350C2D38BF0C25002D064601DBA942B7
:109BD00003D90C2333600020F8BD01F09BFB214921
:109BE0000A6814469CB9204F3B6823B92146304689
:109BF00000F098FC38602946304600F093FC431C86
:109C000023D10C233360304601F08AFBE3E723685D
:109C10005B1B17D40B2B03D923601C44256004E085
:109C20006368A2420CBF0B605360304601F078FBC2
:109C300004F10B00231D20F00700C21ACCD01B1A20
:109C4000A350C9E722466468CCE7C41C24F003048F
:109C5000A042E3D0211A304600F064FC0130DDD18F
:109C6000CFE700BF081100200C1100202DE9F047BC
:109C700088B0002B1F461446B8BF03F10043129A68
:109C8000109DDDF84CA0B6BF1F4600232D23137096
:109C9000149B23F02008B8F1460F05D0B8F1450F0A
:109CA00000D10135022300E0032307AA049206AA8B
:109CB000CDE902A2CDE9003522463B4600F054FD35
:109CC000B8F1470F064602D1119BDB0722D5B8F148
:109CD000460F06EB050910D13378302B0AD100224C
:109CE000002320463946FCF7D7FE18B9C5F1010517
:109CF000CAF80050DAF800309944002200232046C8
:109D00003946FCF7C9FE08B1CDF81C903022079BFC
:109D10004B4507D3079B159A9B1B3046136008B031
:109D2000BDE8F087591C07911A70F0E7F7B50346B4
:109D30000029B8BF494203F8022BB4BF2D222B22C1
:109D4000092942702ADD0DF10704A4460A27A64618
:109D50000A4691FBF7F607FB16153035632A04F126
:109D6000FF340EF8015C3146F1DC3031AEF1020512
:109D700004F8011C441C294661450AD30DF109026F
:109D8000A2EB0E02654588BF00221344181A03B0E7
:109D9000F0BD11F8012B04F8012FEDE7302330312D
:109DA0008370C170031DF1E72DE9F04F91B00C46AF
:109DB000DDF8688016461F46054601F0A7FA0368DD
:109DC00009931846FCF7E6F900230E93D8F8003003
:109DD0000A90073323F0070303F1080294F8189060
:109DE000D4F800B0C8F80020D3E90023C4E9122356
:109DF000D4E9128A2AF000430B930B999C4B4FF045
:109E0000FF324046FCF77AFE70BB994B0B994FF03E
:109E1000FF324046FCF754FE30BB00220023404690
:109E20005146FCF743FE10B12D2384F84330914B8B
:109E30009148B9F1470F94BF9846804603232361A8
:109E40002BF0040323604FF0000A009733460FAA5B
:109E50002146284600F0D2F9013040F08F804FF0C3
:109E6000FF3011B0BDE8F08F4246534640465146A0
:109E7000FCF744FE40B1BAF1000FBCBF2D2384F8BB
:109E800043307E487E4BD4E763685A1C09F0DF01FB
:109E900042D106236360002206920EAACDE9049205
:109EA0000DAA4BF4806303920DF13302CDE9013228
:109EB0002360636800934246534628460B91FFF7A0
:109EC000D5FE0B99472980460D9908D1C81C02DBA5
:109ED0006368994240DDA9F102095FFA89F9B9F195
:109EE000650F1FD801394A4604F150000D91FFF764
:109EF0001DFF0E9A1318012A8246236102DC226894
:109F0000D20701D5013323619DF83330002B9CD05B
:109F10002D2384F8433098E74729BCD1002BBAD1D0
:109F20000123B7E7B9F1660F18D1002963680BDD8B
:109F3000216113B92268D00702D501330B44236194
:109F4000A1654FF0000ADFE713B92268D20701D5F7
:109F50000233F4E70123F2E74FF067090E9B9942C1
:109F600005DB23682161D807EAD54B1CE7E7002908
:109F7000D4BFC1F1020201221344E0E723685A056D
:109F800007D42369424631462846B84701302BD1D1
:109F900065E7B9F1650F40F2DC80D4E912010022D7
:109FA0000023FCF779FD002833D0364A01233146DF
:109FB0002846B84701303FF452AFDDE90D239A42FD
:109FC00002DB2368D8070FD5DDE90923314628468F
:109FD000B84701303FF443AF4FF0000804F11A09CD
:109FE0000E9B013B434509DC23689B0700F101817F
:109FF000E0680F9B9842B8BF184632E701234A46F3
:10A0000031462846B84701303FF429AF08F101082E
:10A01000E6E70D9B002B37DC1A4A01233146284620
:10A02000B84701303FF41BAFDDE90D23134302D1E4
:10A030002368D907D8D5DDE9092331462846B84732
:10A0400001303FF40CAF4FF0000904F11A0A0D9BE8
:10A050005B424B4501DC0E9B94E70123524631469F
:10A060002846B84701303FF4FAAE09F10109EEE79E
:10A07000FFFFEF7F8D110308911103089911030869
:10A0800095110308DF0703080E9AA36D9A42A8BF33
:10A090001A46002A914637DC4FF0000B29EAE9798D
:10A0A00004F11A02D4F858A0AAEB09035B4533DC8B
:10A0B000DDE90D239A423BDB2368DA0738D40E9A98
:10A0C0000D99A2EB0A03A2EB01099945A8BF994695
:10A0D000B9F1000F34DC4FF0000829EAE97904F106
:10A0E0001A0ADDE90D239B1AA3EB090343457FF709
:10A0F0007BAF0123524631462846B84701303FF432
:10A10000AEAE08F10108ECE7134631464246284658
:10A11000B8470130C0D1A2E60123314628460B9250
:10A12000B84701303FF49BAE0B9A0BF1010BB9E736
:10A13000DDE9092331462846B8470130BFD18EE614
:10A140004B4608EB0A0231462846B8470130C2D1D7
:10A1500085E60E9A012A01DCDB0737D5012342464A
:10A1600031462846B84701303FF479AEDDE909238E
:10A1700031462846B84701303FF471AED4E91201A8
:10A1800000220023FCF788FCD8B90E9B08F10102DD
:10A19000013B31462846B84701300ED15FE6012326
:10A1A0004A4631462846B84701303FF458AE08F1D8
:10A1B00001080E9B013B4345F1DC534604F150027C
:10A1C000E1E64FF0000804F11A09F2E701234246E4
:10A1D000DFE701234A4631462846B84701303FF4BD
:10A1E0003EAE08F10108E3680F995B1A4345F0DCC5
:10A1F000FEE64FF0000804F11909F4E72DE9F047F5
:10A20000164699468A680B69DDF820809342B8BFEC
:10A210001346336091F8432007460C460AB10133D8
:10A2200033602368990642BF336802333360256880
:10A2300015F0060506D104F1190AE36832689B1A85
:10A24000AB4226DC94F84320131E226818BF01237A
:10A2500092062BD404F1430249463846C0470130E8
:10A260001ED02368E568326803F00603042B08BF9C
:10A27000AD1AA36822690CBF25EAE5750025934253
:10A28000C4BF9B1AED1800261A34B5421AD100201B
:10A2900008E00123524649463846C047013003D101
:10A2A0004FF0FF30BDE8F0870135C6E7E1185A1CD2
:10A2B000302081F84300224494F8451082F843107E
:10A2C0000233C7E70123224649463846C0470130DA
:10A2D000E6D00136D9E700002DE9FF470C4691464C
:10A2E000277E0C99782F80469A4604F1430207D8BE
:10A2F000622F0AD8002F00F0D880582F00F0A380DA
:10A3000004F1420684F842703AE0A7F16303152B8A
:10A31000F6D801A050F823F071A3000885A3000827
:10A3200001A3000801A3000801A3000801A300087D
:10A3300085A3000801A3000801A3000801A30008E9
:10A3400001A3000891A40008B5A3000873A40008A5
:10A3500001A3000801A30008B3A4000801A300089A
:10A36000B5A3000801A3000801A300087BA400080E
:10A370000B681A1D1B680A6004F1420684F842301B
:10A380000123A3E0256808682E0600F104030AD51E
:10A3900005680B60002D03DA2D236D4284F84330ED
:10A3A0005E480A2319E015F0400F05680B6018BFDE
:10A3B0002DB2EFE70B682568181D0860280601D547
:10A3C0001D6802E06906FBD51D8854486F2F0CBF3D
:10A3D00008230A23002184F843106668A660002E33
:10A3E000A2BF216821F0040121600DB9002E4DD0DB
:10A3F0001646B5FBF3F103FB1157C75D06F8017D67
:10A400002F46BB420D46F4D9082B0BD12368DF073A
:10A4100008D5236961689942DEBF302306F8013C04
:10A4200006F1FF36921B2261CDF800A04B4603AA2D
:10A4300021464046FFF7E2FE01304CD14FF0FF309D
:10A4400004B0BDE8F087354884F8457023680E688D
:10A450001F0656F8045B0E6014D5D90744BF43F0BD
:10A46000200323601DB9236823F0200323601023F9
:10A47000B0E7236843F0200323607823284884F85A
:10A480004530E3E75E0648BFADB2E6E71646BBE7F8
:10A490000B68266860691D1D0D6035061B6801D5B7
:10A4A000186002E07106FBD5188000232361164670
:10A4B000BAE70B681A1D0A601E6862680021304600
:10A4C000FBF776FE08B1801B6060636823610023A0
:10A4D00084F84330A8E72369324649464046D047CE
:10A4E0000130ABD023689B0713D4E068039B9842EC
:10A4F000B8BF1846A4E70123324649464046D04734
:10A5000001309BD00135E36803995B1AAB42F2DC62
:10A51000EBE7002504F11906F5E700BF9D110308DC
:10A52000AE11030838B5064D0023044608462B60DB
:10A5300001F034FA431C02D12B6803B1236038BD0B
:10A54000686300202DE9F0433B4E86468C4660460A
:10A550001CF8014BA55D15F00805F8D12D2C34D160
:10A560009CF800404FF0010800F1020C002B5ED077
:10A57000102B0CD1302C0AD19CF8000000F0DF0029
:10A5800058284FD19CF8014010230CF1020C4FF0D9
:10A59000FF370025B7FBF3F703FB07F96FEA09095B
:10A5A0002846A4F13006092E18D83446A34224DDEB
:10A5B000002D1FDB87421DD301D1A1451ADB00FB13
:10A5C000034001251CF8014BEBE72B2C08BF9CF83E
:10A5D0000040A84608BF00F1020CC7E7A4F14106FD
:10A5E000192E01D8373CE1E7A4F16106192E04D8F1
:10A5F000573CDBE74FF0FF35E4E7002D07DA222375
:10A60000CEF800304FF0FF3042B9BDE8F083B8F12A
:10A61000000F00D04042002AF7D00DB10CF1FF31FD
:10A620001160F2E73024002BB1D10823AFE7302CC2
:10A63000A2D00A23ABE700BFC011030813460A46A5
:10A64000014602480068FFF77DBF00BFA801002057
:10A650002DE9F74F03690C69A3420746C0F28180D8
:10A66000013C01F1140800F1140505EB840301938A
:10A6700058F8243055F8242001339A424FEA840BCD
:10A6800008EB8409B2FBF3F631D34FF0000E4046DD
:10A69000AC46F24650F8042B93B206FB03E34FEAB4
:10A6A000134E9BB2AAEB0303120CDCF800A006FBCE
:10A6B00002E213FA8AF34FEA124E1FFA82FADCF82A
:10A6C0000020CAEB124202EB23429BB243EA024350
:10A6D00081454CF8043B4FEA224ADBD255F80B3057
:10A6E0002BB9019B043B9D421A462ED33C61384650
:10A6F00001F045F8002824DB013628464FF0000C15
:10A7000058F8042BD0F800E093B2ACEB0303120C22
:10A7100013FA8EF3C2EB1E4202EB23429BB243EAD2
:10A720000243C14540F8043B4FEA224CE8D255F8B9
:10A73000242005EB840322B9043B9D421A460AD328
:10A740003C61304603B0BDE8F08F1268043B002A3C
:10A75000CCD1013CC7E71268043B002AF0D1013C90
:10A76000EBE70020EEE700002DE9F04F446A99B0D6
:10A7700016461F46CDE90467DDF8948005463CB9CE
:10A780001020FFF7A5F9C0E9014468620460C460C5
:10A790006B6A196851B15A684A60012393408B6013
:10A7A000284600F0F7FD6B6A00221A603B1EB9BF15
:10A7B00023F0004305930023C8F80030DDF814901F
:10A7C000A74BBCBF0122C8F8002033EA090319D106
:10A7D000249A42F20F731360C9F31303334300F05A
:10A7E0006D85269B53B99F4B23E09F4B0393083302
:10A7F000269A1360039819B0BDE8F08F994B039324
:10A800000333F5E7DDE90434CDE90C34DDE90C016F
:10A8100000220023FCF740F9804660B1249A01230E
:10A820001360269B002B00F04685904B269A136000
:10A83000013B0393DEE716AB019317AB0093284669
:10A84000DDE90C2301F02CF8C9F30A548346002CEF
:10A850007ED00D9BCDF84C80C3F31303DDE90C01D2
:10A8600043F07F5141F44011A4F2FF34804B0022A9
:10A87000FBF7F2FC74A3D3E90023FBF7A5FE74A356
:10A88000D3E90023FBF7EAFC064620460F46FBF718
:10A8900031FE71A3D3E90023FBF796FE02460B4677
:10A8A00030463946FBF7DAFC06460F46FCF73CF922
:10A8B00000228246002330463946FCF7F7F848B1BB
:10A8C0005046FBF717FE32463B46FCF7E5F808B961
:10A8D0000AF1FF3ABAF1160F57D8664B03EBCA03D9
:10A8E000D3E90023DDE90C01FCF7E0F800284ED0A5
:10A8F0000AF1FF3A00230F93169B1C1B631E09935A
:10A9000045BFC4F101030693002300234CBF099304
:10A910000693BAF1000F3CDB099BCDF838A05344F5
:10A92000099300230A93229B092B00F2B580052B83
:10A93000C4BF043B2293229BA3F10203CCBF00249B
:10A940000124032B00F2B480DFE803F02D987AA4F1
:10A95000DDE916431C4404F23243202BC3BFC3F18C
:10A96000400304F2124009FA03F3C3F12003C6BF07
:10A9700026FA00F0184306FA03F0FBF7ABFD0123BB
:10A98000A1F1F871013C139370E70123B3E70F9035
:10A99000B2E7069BA3EB0A030693CAF100030A93EE
:10A9A00000230E93BFE700230B93239B002B00F3A0
:10A9B00082804FF00109CDF820904B46CDF88C9065
:10A9C0006E6A00227260042202F1140098427168DB
:10A9D00077D9284600F0AAFC6B6A30601B680393A5
:10A9E000089B0E2B00F2EE80002C00F0EB80BAF1F9
:10A9F000000F7ADD1F4A0AF00F0302EBC303D3E90D
:10AA000000341AF4807FCDE910344FEA2A145CD068
:10AA1000194BDDE90C01D3E90823FBF7FFFECDE973
:10AA2000040104F00F040327134E002C4FD1DDE97D
:10AA30001023DDE90401FBF7F1FECDE904016EE02E
:10AA40000123B1E7AFF3008061436F63A787D23F73
:10AA5000B3C8608B288AC63FFB799F501344D33F0D
:10AA60000000F07FC9120308C0120308E0070308C2
:10AA70000000F83FF8120308D012030800230B93DC
:10AA8000239B0AEB030909F10103012B0893B8BFCB
:10AA9000012395E70123F2E70124002322930B947D
:10AAA0004FF0FF390022CDF820901223239287E740
:10AAB00001230B93F4E7DDF88C90CDF820904B4602
:10AAC0007EE70131716052007EE70227ACE7E107C3
:10AAD00008D5DDE91001D6E90023FBF775FDCDE9C6
:10AAE00010010137641008369FE700F0A580CAF115
:10AAF0000004A44BA44E04F00F0203EBC203D3E9FD
:10AB00000023DDE90C01FBF75FFDCDE90401241111
:10AB100000230227002C40F08480002B8DD10F9B56
:10AB2000002B00F08B80DDE90434CDE91034DDE941
:10AB30001001964B0022FBF7B9FF00287ED0089B3E
:10AB4000002B7BD0B9F1000F38DDDDE91001904B0F
:10AB50000022FBF739FDCDE904010AF1FF38013786
:10AB60004C463846FBF7C6FCDDE90423FBF72CFD19
:10AB7000884B0022FBF772FBA1F15076CDE9100162
:10AB80001196002C5DD1DDE90401834B0022FBF717
:10AB900063FB02460B46CDE90423109A3346FBF7CC
:10ABA000A3FF002840F09782DDE90401109A06F126
:10ABB0000043FBF77BFF002840F08B82DDE90C347B
:10ABC000CDE90434179B002BC0F25181BAF10E0F6E
:10ABD00000F34D816B4B03EBCA03D3E90034CDE99D
:10ABE0000634239B002B80F2DB80089B002B00F3B4
:10ABF000D78040F06D82684B0022DDE90601FBF74B
:10AC0000E3FCDDE90423FBF765FF089C26460028EA
:10AC100040F04382039F312307F8013B0AF1010A08
:10AC20003FE2E20705D5D6E90023FBF7CDFC01376B
:10AC30000123641008366DE7022770E7089CD046B0
:10AC40008FE703994F4B214412910B9903EBC403F7
:10AC5000DDE9106753E90223002946D04F4900205F
:10AC6000FBF7DCFD3B463246FBF7F6FACDE9100177
:10AC7000039FDDE90401FBF757FF0446FBF73AFCAD
:10AC800002460B46DDE90401FBF7E6FA30340246E2
:10AC90000B46CDE9042307F8014BDDE91023FBF750
:10ACA00005FF002865D1DDE9042338490020FBF7C2
:10ACB000D3FADDE91023FBF7F9FE002840F0B68057
:10ACC000129B9F423FF47AAFDDE91001304B002226
:10ACD000FBF77AFC2E4BCDE910010022DDE90401DF
:10ACE000FBF772FCCDE90401C3E730463946FBF7B8
:10ACF0006BFCCDE91001129B039C1493DDE9040168
:10AD0000FBF712FF1590FBF7F5FB02460B46DDE95A
:10AD10000401FBF7A1FA159B303304F8013B129BA9
:10AD20009C4206460F464FF0000224D11B4BDDE942
:10AD30001001FBF793FA02460B4630463946FBF703
:10AD4000D3FE002871D1DDE9102314490020FBF760
:10AD500083FA02460B4630463946FBF7A7FE002829
:10AD60003FF42CAF149F7B1E149317F8013C302B3B
:10AD7000F8D0C24649E0064BFBF726FCCDE90401BA
:10AD8000BCE700BFF8120308D01203080000F03F30
:10AD90000000244000001C40000014400000E03F80
:10ADA000DDE90489039FDDE9062340464946FBF7B8
:10ADB00035FDFBF7B9FE0446FBF79CFBDDE90623F6
:10ADC000FBF702FC04F130060B46024649464046BA
:10ADD000FBF742FA07F8016B039E089BBE1BB342C8
:10ADE00038D102460B46FBF739FADDE906238046E7
:10ADF0008946FBF779FE58BBDDE906234046494604
:10AE0000FBF74AFE08B1E10722D42846594600F074
:10AE1000C1FA00233B70249B0AF101001860269BB5
:10AE2000002B3FF4E7AC1F60E4E427463B461F4697
:10AE300013F8012D392A07D1039A9A42F7D10399C1
:10AE4000302208F101080A701A7801321A7090E76E
:10AE5000D046EBE7A14B0022FBF7B6FB0022002314
:10AE600080468946FBF718FE00289CD0CDE70B9A58
:10AE7000002A00F0CD80229A012A00F3AF80139AB5
:10AE8000002A00F0A78003F233430A9C069F069A2B
:10AE90001A440692099A01211A442846099200F0A0
:10AEA0001CFB0646002F0CDD099B002B09DDBB4275
:10AEB000069AA8BF3B46D21A0692099AFF1AD31ADD
:10AEC00009930A9BF3B10B9B002B00F0A580002C8B
:10AED00010DD31462246284600F0A4FB5A460146C2
:10AEE0000646284600F002FB59468046284600F0F8
:10AEF00051FAC3460A9B1A1B04D05946284600F053
:10AF000091FB83460121284600F0E7FA0E9B002BB7
:10AF1000044640F383801A460146284600F082FB2F
:10AF2000229B012B04467CDD4FF00008236904EBD3
:10AF30008303186900F083FAC0F12000099B1844CC
:10AF400010F01F0000F08E80C0F12003042B40F3AE
:10AF50008780C0F11C00069B03440693099B0344B1
:10AF600007440993069B002B05DD59461A462846DF
:10AF700000F0A6FB8346099B002B05DD21461A46FF
:10AF8000284600F09DFB04460F9B002B6CD0214609
:10AF9000584600F0F4FB002866DA002359460A22DE
:10AFA000284600F00EFA0B9B0AF1FF3A8346002B6D
:10AFB00000F08B81314600230A22284600F001FA76
:10AFC000B9F1000F064600F39180229B022B40F35B
:10AFD0008D8051E0169BC3F1360356E7089B5C1E3B
:10AFE0000A9BA342BFBF0A9B0A94E21A0E9BB6BFFC
:10AFF0009B181C1B0E93089BB8BF0024002BB9BFE5
:10B00000069B089A069F089BBCBF9F1A00233EE739
:10B010000A9C069F0B9E45E70A9A6EE7229B012B2E
:10B0200019DC049BBBB9059BC3F313039BB9059BB8
:10B0300023F000431B0D1B0583B1069B01330693D0
:10B04000099B013309934FF001080E9B002B7FF4FD
:10B050006DAF012072E74FF00008F6E79846F4E77D
:10B0600080D018461C3076E7089B002B38DC229BEA
:10B07000022B35DDDDF82090B9F1000F0DD121460E
:10B080004B460522284600F09CF9014604465846E6
:10B0900000F075FB00283FF7BDAD239B039F6FEACF
:10B0A000030A4FF000082146284600F073F9002EED
:10B0B0003FF4ABAEB8F1000F05D0B04503D0414628
:10B0C000284600F067F93146284600F063F99CE60F
:10B0D00000242646E1E7C24626469BE500002440C0
:10B0E0000B9BDDF82090002B00F0F680002F05DD93
:10B0F00031463A46284600F0E3FA0646B8F1000F1A
:10B1000055D07168284600F011F9326902320746BD
:10B11000920006F10C010C30FEF7EAFC01223946E0
:10B12000284600F0CDFA039B01330893039B4B4460
:10B130000A93049B03F00103B04609930646089B5B
:10B140002146013B58460493FFF782FA0346303309
:10B150000690414658460B9300F011FB324681465B
:10B160002146284600F026FBC2680B9B074602BB1F
:10B170000146584600F003FB0B9B02463946284621
:10B18000CDE90B3200F006F9229B0C9A089F43EAA6
:10B190000201099B0B430B9B0DD1392B29D0B9F12F
:10B1A000000F01DD069B3133049A13707BE73046B4
:10B1B000B9E70122E2E7B9F1000F06DB229941EA83
:10B1C0000909099959EA010120D1002AECDD594603
:10B1D00001222846089300F073FA2146834600F0C6
:10B1E000CEFA0028089B02DCDED1DA07DCD5392B49
:10B1F000D8D1049A392313703B461F46013B17F8F8
:10B20000012C392A50D001321A704CE7002A03DD94
:10B21000392BEED00133C7E7089A0A9902F8013CAE
:10B220008A422AD0594600230A22284600F0C9F84B
:10B23000B04583464FF000034FF00A0241462846CE
:10B2400007D100F0BEF880460646089B01330893FC
:10B2500075E700F0B6F83146804600230A222846FA
:10B2600000F0AFF80646F0E7B9F1000F039ACCBF43
:10B270004F46012717444FF000085946012228463F
:10B28000089300F01DFA2146834600F078FA002862
:10B29000B2DC02D1089BDB07AED43B461F4613F855
:10B2A000012D302AFAD0FEE6039A9A42A5D10AF17E
:10B2B000010A312379E7134BFFF7BBBA269B002B1A
:10B2C0007FF493AA104BFFF7B4BAB9F1000F03DC77
:10B2D000229B022B3FF7D0AE039F21465846FFF733
:10B2E000B7F900F1300307F8013B039ABA1A914508
:10B2F000BADD594600230A22284600F062F8834648
:10B30000EBE700BFDF070308C012030800487047DF
:10B31000FC020020014800F020BB00BF7063002049
:10B32000014800F01BBB00BF7063002070B5466A87
:10B3300004460D463EB91020FEF7CAFBC0E901667F
:10B3400060620660C660666AF36883B1636ADB6840
:10B3500053F82500B8B9012101FA05F6721D9200D3
:10B36000204600F0ECFA60B1C0E901560EE021225F
:10B370000421204600F0E3FA636AF060DB68002BEA
:10B38000E4D1002070BD026843F825200023C0E905
:10B390000333F7E770B5466A05460C463EB9102000
:10B3A000FEF796FBC0E9016668620660C6603CB1C4
:10B3B0006B6A6268DB6853F82210216043F8224010
:10B3C00070BD2DE9F0410E69074698460C4601F123
:10B3D000140000230568A9B202FB01814FEA114C59
:10B3E0002D0C02FB05C589B2013301EB05419E42DC
:10B3F00040F8041B4FEA1548ECDCB8F1000F1BD0F5
:10B40000A368B34212DC616838460131FFF78EFF52
:10B410002269023204F10C01054692000C30FEF75D
:10B4200067FB21463846FFF7B5FF2C4604EB860341
:10B430000136C3F8148026612046BDE8F081020C75
:10B4400012040346CAB90304102013F07F4F04BF4F
:10B450001B02083013F0704F04BF1B01043013F0BF
:10B46000404F04BF9B000230002B05DB13F0804FE0
:10B4700000F1010008BF202070470020E5E70368C5
:10B48000024613F007000BD0D90722D4980749BF12
:10B490005B089B08012013605CBF136002207047AB
:10B4A00099B209B91B0C102013F0FF0F04BF1B0A3F
:10B4B0000830190704BF1B090430990704BF9B0813
:10B4C0000230D90703D45B0800F1010003D01360F8
:10B4D0007047002070472020704710B50C460121AE
:10B4E000FFF724FF01224461026110BD2DE9F04FF6
:10B4F00015460A692B699A42B8BF0B460C46BCBF79
:10B500002C461D462769D5F81090A368616807EBA3
:10B510000906B342B8BF013185B0FFF707FF00F15C
:10B52000140101EB86080B46002243451DD304F1AC
:10B53000140305F1140203EB870702EB890302935E
:10B540003B1B153B23F00303043304F11505AF4205
:10B5500038BF04230193029B0392934208D8002E24
:10B560005ADC066105B0BDE8F08F43F8042BDCE738
:10B57000B2F800A0BAF1000F24D004F1140E8946ED
:10B580004FF0000C5EF8045BD9F800B0ABB21FFAC4
:10B590008BFB0AFB03B34FEA154BD9F80050634409
:10B5A0004FEA154C0AFB0BC505EB13459BB243EA6A
:10B5B0000543774549F8043B4FEA154CE2D8019B17
:10B5C00041F803C0039BB3F802900432B9F1000FB5
:10B5D00020D00B6804F1140C8E464FF0000ABCF822
:10B5E0000050BEF802B009FB05B5AA449BB243EA7D
:10B5F0000A434EF8043B5CF8043BBEF800501B0CB9
:10B6000009FB035303EB1A4367454FEA134AE6D895
:10B61000019D4B5104319EE758F8043D002BA0D109
:10B62000013E9CE72DE9F843154612F00302064659
:10B630000F4607D0214C013A002354F82220FFF78F
:10B64000C0FE0746AD1035D0746A3CB91020FEF735
:10B650003FFAC0E9014470620460C460D6F82480F7
:10B66000D8F808404CB940F271213046FFF735FF59
:10B670000023C8F80800044603604FF00009EB07F8
:10B680000AD5394622463046FFF730FF3946804614
:10B690003046FFF77FFE47466D100BD0206838B963
:10B6A000224621463046FFF721FF2060C0F8009077
:10B6B0000446E4E73846BDE8F88300BFC01303083A
:10B6C0002DE9F0470C464968236903EB6218A3682B
:10B6D000074691464FEA621A08F10106B3423FDB82
:10B6E0003846FFF723FE0023054600F1140100F160
:10B6F00010021846534536DB20692AEAEA7A04F13B
:10B70000140319F01F0901EB8A0103EB800C2ED002
:10B71000C9F1200E8A460022186800FA09F0024397
:10B720004AF8042B53F8042B9C4522FA0EF2F3D866
:10B73000ACEB0403153B23F00303043304F11500C1
:10B74000604588BF0423CA500AB108F10206013ED1
:10B7500038462E612146FFF71DFE2846BDE8F087DA
:10B7600001315B00BAE742F8040F0133C2E7043944
:10B7700053F8042B41F8042F9C45F9D8E7E70A69F0
:10B7800003460069801A30B50DD11433143103EB30
:10B79000820401EB820154F8045D51F8042D9542B6
:10B7A00002D004D3012030BDA342F4D3FBE74FF015
:10B7B000FF30F8E72DE9F84F0C46064611462046C3
:10B7C0001746FFF7DCFF051E08D129463046FFF774
:10B7D000ADFD0123C0E90435BDE8F88FA4BF3B46A9
:10B7E000274630467968A6BF1C4600250125FFF78D
:10B7F0009DFD3E69C560256907F1140104F1140936
:10B8000000F1140E07F1100201EB860C09EB85051F
:10B81000F246002759F8043B52F804BF1FFA83F898
:10B8200017FA8BF71B0CA7EB0808C3EB1B4303EBC2
:10B8300028431FFA88F81F144D4548EA03434AF885
:10B84000043BE7D82B1B153B23F0030304331534CB
:10B85000A54238BF0423194473449E460D466545EE
:10B860000ED30CF10302521A22F0030203398C4565
:10B8700038BF00221A4452F8043D7BB10661ABE7A1
:10B8800055F8048B17FA88F4221402EB1842A4B27C
:10B8900044EA02444EF8044B1714E0E7013EEAE79D
:10B8A0002DE9F34101211C46DDE908659046FFF7CB
:10B8B0003DFDC4F31303C4F30A5407462CBB0193A4
:10B8C000B8F1000326D068460093FFF7D8FD009931
:10B8D000F0B1019AC0F1200302FA03F30B43C24016
:10B8E0007B610192019BBB61002B14BF02210121EE
:10B8F0003961C4B1A4F233440444C0F1350034606A
:10B900002860384602B0BDE8F08143F48013D6E7E2
:10B910007961E7E701A8FFF7B2FD019B7B61012197
:10B9200039612030E5E707EB8103A0F23240306057
:10B930001869FFF784FDC0EB41112960E1E738B5D4
:10B9400002FB01F52946FEF737F9044618B12A46ED
:10B950000021FEF7DBF8204638BD7047704782B003
:10B9600001B901A942B14BB113780B601278101ED6
:10B9700018BF012002B070471046FBE76FF00100CE
:10B98000F8E70346084641B1FF2A04D98A221A6023
:10B990004FF0FF3070470A7001207047044A054994
:10B9A0001368002B08BF0B461844106018467047F8
:10B9B00010110020F8810020FCF74EB9FCF7D6BA30
:10B9C0000D48854621F084FC0C480D490D4A0023A2
:10B9D00002E0D458C4500433C4188C42F9D30A4A44
:10B9E0000A4C002301E013600432A242FBD3FEF7AD
:10B9F0004BF8FDF7A7FEFEE700FC0020000000204A
:10BA000028100020E845030828100020F8810020B5
:10BA100000F05AB80368074A934206D1DA69D206A1
:10BA200006D510221A6201F083BA034A9342F5D078
:10BA3000704700BF00800040003801404FF0B04325
:10BA40004FF0FF319A6B9963DA6BD9639A6B0022DE
:10BA50009A63D86BDA63186C1964186C1A64586CA2
:10BA60005964586C5A64986A9962986A9A62D86A5A
:10BA7000D962D86ADA62186B1963196B1A635A6C47
:10BA800042F001025A645A6C22F001025A64D3F85F
:10BA9000902042F48032C3F89020D3F8902022F412
:10BAA0008032C3F89020BFF34F8F0549054BCA6819
:10BAB00002F4E0621343CB60BFF34F8F00BFFDE79A
:10BAC00000ED00E00400FA054FF0B0434FF0FF3105
:10BAD0009A6B9963DA6BD9639A6B00229A63D86B7D
