:020000022000DC
:107000000000042045BE02006DBE02006FBE0200FB
:1070100071BE020073BE020075BE020000000000D7
:1070200000000000000000000000000077BE020029
:1070300079BE020000000000000000000000000017
:10704000695804007BBE0200E9760400415E04003A
:107050007BBE0200A954040081520400E57C0500B7
:107060007BBE0200815D0400955D04007BBE0200D2
:107070007BBE02007BBE02007BBE02007BBE020024
:10708000E9890500812A04007BBE02007BBE020064
:107090007BBE02007BBE02006D7305007BBE02005A
:1070A0007BBE02007BBE0200A95D0400BD5D040042
:1070B0007BBE02007BBE020000000000000000005A
:1070C0007BBE02007BBE02007BBE02002182050067
:1070D000995A04007BBE02007BBE0200F9730400D3
:1070E000EDB605007BBE02002DDE050000000000AD
:1070F000000000007BBE020000000000F1850500DA
:10710000000000000000000000000000000000007F
:10711000000000000000000000000000000000006F
:10712000000000000000000000000000000000005F
:10713000000000000000000000000000000000004F
:10714000000000000000000000000000000000003F
:10715000000000000000000000000000000000002F
:10716000000000000000000000000000000000001F
:10717000000000000000000000000000000000000F
:1071800000000000000000000000000000000000FF
:1071900000000000000000000000000000000000EF
:1071A00000000000000000000000000000000000DF
:1071B00000000000000000000000000000000000CF
:1071C00000000000000000000000000000000000BF
:1071D00000000000000000000000000000000000AF
:1071E000000000000000000000000000000000009F
:1071F000000000000000000000000000000000008F
:1072000010B5054C237833B9044B13B10448AFF3E0
:1072100000800123237010BDA0D2002000000000D8
:1072200060F1060008B5034B1BB103490348AFF3F7
:10723000008008BD00000000A4D2002060F106001C
:10724000154B002B08BF134B9D46A3F5803A002138
:107250008B460F461348144A121A02F04BFC0F4B90
:10726000002B00D098470E4B002B00D098470020F1
:10727000002104000D000D48002802D00C48AFF397
:10728000008002F0F5FB2000290002F07FF902F0F7
:10729000DBFB00BF0000080000000420000000002D
:1072A00000000000A0D2002090BB012000000000E0
:1072B0000000000010B50121222006F00CF9012188
:1072C000242006F008F9054B054801221A70BDE894
:1072D0001040044A0023022105F059BFACD300201E
:1072E00031DA0020E093040010B5044601F02AFDD5
:1072F000204610BD2DE9F0470121222006F0EBF8D1
:1073000001234FF496514148062205F0E3FC404B1F
:107310001978404B002949D03F4991F911000022CA
:107320000828DA809A805A801A80DA819A815A81F4
:107330001A8169DC0E461F46904206F1010605DD02
:1073400096F900C027F802CB0132F5E7334A0E78F0
:1073500016700128498A518014BF102606265670DF
:10736000908093602D4B2E482D4F0ECB00F073FC78
:1073700006F0B6F84FF0000A064641F287384FF0A3
:10738000000906F0ADF8841B6AEB4A05A04579EBCD
:10739000050330DA0021222006F09DF81B4805F095
:1073A000DDFCBDE8F04701200BF0B0BF1D4819809F
:1073B00090F91170102F27DC86460E468C46082265
:1073C00067450DDD1EF9011F91400132D2B20E4317
:1073D000102A36B208BF00220CF1010C0121EFE7A0
:1073E00001B11E800D4A017811700F2151700021EA
:1073F00051809780B5E7384600F026FD384600F00A
:1074000092FB0028BDD1C5E7BDE8F08778D9002000
:10741000ECD20020CED2002098D30020B0D30020A0
:10742000F0D20020BCD2002010B58F4890B005F0FB
:10743000B5FD012840F0FF808C4805F080FD8C4BA5
:1074400018708C4805F02BFD8B4B18708B4805F09D
:1074500086FD8B4B8B491870864805F022FD8A49C2
:10746000844805F02EFD8949824805F022FD01215E
:10747000232006F019F80121232006F02CF8012121
:10748000242006F011F80121242006F024F802231C
:1074900006224FF4E1317E4805F01CFC41F28830B1
:1074A0000BF07CFC7B4907A805F018FF0A2201219C
:1074B00004A805F051FF04A907A805F076FF764956
:1074C00005F07FFF0A22044601210AA805F044FFC7
:1074D0000AA9204605F069FF6F4905F072FF0A22EC
:1074E000044602210DA805F037FF0DA9204605F03E
:1074F0005CFF014601A805F013FF0DA805F0A8FEEA
:107500000AA805F0A5FE04A805F0A2FE07A805F04C
:107510009FFE62490AA805F0EFFD0AA805F066FF84
:1075200001A90DA805F0FCFE0DA95D4805F0DAFDE6
:107530000DA805F08DFE5B49554805F07FFF5A49BF
:10754000534805F07BFF5949514805F077FF5449EE
:107550000DA805F0B1FD0D9A55494D4805F078FF8D
:107560000DA805F075FE534B53491A68484805F0BD
:107570006FFF4D49464805F061FF01F009FB01F03E
:10758000CFFA01F0E5FA01F09FFB0021232005F07E
:10759000A2FF0121222005F087FF0121222005F012
:1075A0009AFF464805F0DAFB4448012306224FF4CF
:1075B000965105F08FFB424A42480123002105F015
:1075C000DCFD414B5A6822B100233E48194605F0C4
:1075D000DEFD3E4A3B480023012105F0CEFD3C4A3A
:1075E00038480023022105F0C8FD1F4805F0D6FCED
:1075F000044668BB0146242005F06DFF2046FFF7D6
:1076000059FE194805F0CAFC0121324805F043FF34
:107610000023062230484FF4E13105F05BFB1E21C8
:107620002E4805F0D0FB0AA805F012FE01A805F0CF
:107630000FFE10B010BD2A492A4805F0F1FB2A4977
:10764000284805F0F5FB2949264805F0F9FB0EE727
:107650000021222005F03FFF184805F07FFB0120A4
:107660000BF054FECDE700BF8DDA002071DA002068
:10767000E0D2002069DA0020E1D2002078DA002090
:1076800094A10020097F0200FD7F0200FB7E020022
:1076900050D90020903506002B9C060014DA0020FB
:1076A000D8D90020A3350600C0350600F7350600FE
:1076B0003736060014A400204736060078D900208B
:1076C000B572020031DA002098A10020F5720200A4
:1076D000C1770200C9D90020B4D9002050DA0020B7
:1076E000058002008EDA0020A9800200B18002002D
:1076F000014805F0C8BE00BFC8D900201FB5274803
:1077000005F04CFC012835D1254805F03BFC04462A
:10771000244801F021FB81B2A0B201F0F5FA102853
:10772000044611D0204805F01AFC844203D21E48BA
:10773000214605F016FC1C4805F011FC844203D9D3
:107740001948214605F00DFC164801F005FB039091
:10775000144801F003FB154B03991B780193144B5C
:107760001B780093134B02461B78134805F071FBFE
:1077700004B010BD0021242005F0ADFE094801F041
:10778000EBFA0390074801F0E9FA039902460B4827
:10779000012304B0BDE8104005F02ABB8DDA0020BB
:1077A0008ADA0020E4D2002078DA0020E1D200203A
:1077B000E0D2002095A1002069DA00208EDA0020B6
:1077C0002DE9F0472DED028B012386B006224FF400
:1077D000965105469C489D4C9D4F05F07BFA4FF411
:1077E000FA700BF0DBFA9A4800F080F94FF4FA6176
:1077F000974800F095F94FF4FA700BF0CFFA4FF676
:10780000FF732381E380A380638023802382E3814D
:10781000A38163818F4B8E489C6040F201321A60D5
:1078200009229A800ECB00F016FA05F059FE4FF0AF
:10783000000A064605F054FE42F20F72B0EB06084D
:107840006AEB4A090023424573EB0903C0F28B80BF
:10785000384600F0F9FA0028ECD0384600F063F919
:107860000028E7D1B4F9003001337CD07A4801F028
:1078700070FAB4F902003BF051F9784B00223BF06A
:10788000E1FA3BF0ADFC032100EE100A724801F072
:107890008FFB20883BF042F9704B00223BF0D2FA7C
:1078A0003BF09EFC022100EE100A6B4801F086FBC3
:1078B000A2886948042101F007FB0A26E388B3FB8C
:1078C000F6F300EE103A0521B8EEC00A624801F066
:1078D00069FB22896048062101F0F6FA62895E4858
:1078E000072101F0F1FAA2895B48082101F0ECFAC6
:1078F000E2895948092101F0E7FA228A56483146BF
:1079000001F0E2FA002D3DD101250021222005F0F1
:10791000E2FD4D4805F022FA01200BF0F7FC0021B2
:10792000242005F0D8FD4E4B00221A70002D00F0E7
:1079300085809FED4C8A4C4D0A24284605F0F2FBC9
:10794000013C38EE008AF8D1B2EE040A88EE000A53
:107950000121414801F038FB06B0BDEC028BBDE8C7
:10796000F047FFF7CBBE002DCFD04049404805F08F
:107970006FFD40493E4805F06BFD3C493E4805F02F
:1079800067FD4FE020883BF0C9F8344B00223BF004
:1079900059FA0646A0880F463BF0C0F8CDE904012D
:1079A000E0883BF0BBF82D4B00223BF04BFACDE9D1
:1079B000020160883BF0B2F8284B00223BF042FA0B
:1079C00032463B46CDE900012C49294805F040FDEF
:1079D0002849274805F03CFD20883BF09FF81F4BC5
:1079E00000223BF02FFA0646A0880F463BF096F89F
:1079F000CDE90401E0883BF091F8184B00223BF000
:107A000021FACDE9020160883BF088F8134B00228F
:107A10003BF018FA3246CDE900013B4617491648BB
:107A200005F016FD1349144805F012FD642006B058
:107A3000BDEC028BBDE8F0470BF0B0B906B0BDEC71
:107A4000028BBDE8F08700BF78D90020CED200209D
:107A5000F0D20020B0D30020E4D200200000244067
:107A6000ACD30020000000002DDA00208A3606008A
:107A700050D90020704E0600B4D9002057360600B9
:107A8000002310B519460C4A0C480D4C00F022F8A2
:107A90000C4B0022012119705A740B4B20461970AF
:107AA0005A745A82FF2101F041F92046074A0849D9
:107AB000BDE8104001F0B4BF78D90020F0D200201A
:107AC000E4D20020BCD2002098D3002090A1002056
:107AD000E972020010B543714FF47A73A0F8963042
:107AE000002302600171C0F8A03010BD10B504463B
:107AF0004079012806D9012105F0D6FC60790021E2
:107B000005F0E9FC206803685B6998470028F9DA0A
:107B10000023A4F88830C4F89030A4F8943010BD45
:107B2000A0F8961070478079704738B504464079C0
:107B3000012802D9002105F0CEFC002584F88850E8
:107B4000206803681B69984780B1206803685B69F7
:107B5000984794F88830E2180133DBB213F0800FB5
:107B6000107218BF012584F88830E9E7B4F8903026
:107B70000133A4F890303DB1B4F894300133A4F847
:107B800094306FF0020038BD94F98800FBE770B5BF
:107B9000083000244FF6FF734AF20105E2B2914229
:107BA0000ED910F8012B5340082203F001065B08A0
:107BB00006B16B40013A12F0FF02F6D10134EDE755
:107BC000180240EA132080B270BD13B590F88810F7
:107BD0000446FFF7DCFF631802121A724B1C54FABA
:107BE00083F302311872607984F88810012802D971
:107BF000012105F070FC206894F88820036804F1E6
:107C000008015B689847206803689B6898470021D3
:107C1000102005F060FC6379012B0ED92068036801
:107C20009B689847D4F8A030019301994B1E0193AB
:107C30000029FAD1607905F04EFC002384F88830E1
:107C400005F04EFCB4F89230C4F89C000133A4F85F
:107C5000923002B010BD7FB5044604A800E90E00C2
:107C60002379BDF80650BDF808009DF804609DF822
:107C70000520BDF808106DBA40BA002B72D1A37967
:107C8000002B72D1731EDBB2F62B71D8039B62728C
:107C9000013AC4F88C30267265810F2A0DD8DFE8CE
:107CA00002F008080808141F0C0C0C0C0C0C0C0C2F
:107CB0002446A081062384F888302046FFF785FFFC
:107CC0000123E380002004B070BDB3F90030002B25
:107CD000D4BF002301235B42237300236373E9E7CE
:107CE00093F9012022731B88F8E7CA0802F0FE020C
:107CF00009071CBF0132D2B20721A273A08184F808
:107D00008810002592B2AEB2B242D6D9710816F0F0
:107D1000010F33F9110094F8881004EB010608BF35
:107D2000001201313072013584F88810EBE7490008
:107D30000722A173A08184F8882019449942BCD0FD
:107D400094F8880093F9015022181572421CD2B29F
:107D500084F88820224433F8025B1572023084F8DC
:107D60008800EBE76FF00100ADE74FF0FF30AAE7C6
:107D70006FF00200A7E7000038B590F8885004467D
:107D8000A91E2544C9B2FFF702FFAA79EB7943EA9D
:107D90000223984206D0B4F894300133A4F894300A
:107DA000FF2038BD94F90930617A002B06DAB4F867
:107DB00094300133A4F89430FB20F2E7094A0823F9
:107DC00012F8010B81420AD0013B13F0FF03F7D1F7
:107DD000B4F894300133A4F894300120E1E7002096
:107DE000DFE700BFA636060070B50021837ACAB26D
:107DF000934212D95508D0F88C40861834F91530C2
:107E0000F67AD2074BBFDBB203F47F4343EA062383
:107E1000334324F815300131E8E770BD10B5002276
:107E2000D1B2847A4B000333B1EB540FDBB20AD2E8
:107E30000344D0F88C101C7A5B7A43EA042321F8BF
:107E400012300132ECE710BD38B504460068036813
:107E50001B699847054605F043FBD4F89C30C01ACF
:107E6000B4F89630984209D94FF47F43E380B4F8D0
:107E700094300133A4F89430002038BD15F0FF058C
:107E8000FAD094F88930AB4206D084F8895005F0D6
:107E900027FBC4F89800EFE705F022FBD4F89830F0
:107EA000C01A0428E8D9002584F889502046FFF735
:107EB0003CFE052806DCB4F89430A5710133A4F823
:107EC0009430DAE72046FFF757FF10B1A57140B2B2
:107ED000D3E7637A022B04D833B12046FFF784FF3F
:107EE00002E0033B012B04D9002394F98800A3711D
:107EF000C3E72046FFF792FFF6E7014610B92420BA
:107F000005F0E9BA704700002DE9F041344F354ED5
:107F100004460025237AAB4207DD636839465A5D83
:107F2000304605F095FA0135F4E72F492D4805F064
:107F30006EFA2378002B50D063681A78AA2A4CD1A5
:107F40005A78552A49D19A780F2A26D1274A0021F2
:107F50001170D978264A117001390F293DD8197945
:107F600093F90400507401390F2936D8191DC3F153
:107F7000FF2303F57F03FC335C18A04202F10102EA
:107F800003DD11F8014F1470F6E7BDE8F041194820
:107F900000236422012105F0FAB8062A01D0102A34
:107FA0001BD1124A01211170D978134A117001397D
:107FB0000F2912D81979518293F905305374590059
:107FC00000231E469942E0DD02EB63056E70606897
:107FD00018440233C0796870F4E7BDE8F08100BF4F
:107FE000E771060050D90020704E0600ECD2002048
:107FF000BCD2002031DA002098D3002000212420B8
:1080000005F069BAF0B585B004AB03E90700214F6C
:10801000019C214E00259DF80830AB4206DD625DD3
:108020003946304605F014FA0135F4E71B491A4881
:1080300005F0EDF92378AA2B2AD16378552B27D1A7
:10804000A3780F2B24D1E278154B1A70013A0F2A2E
:108050001ED8227994F904105974013A0F2A17D8BE
:10806000221DC4F1FF2404F57F04FC34A0188142D2
:1080700003F1010303DD12F8010F1870F6E7094858
:1080800000236422012105B0BDE8F04005F07FB86F
:1080900005B0F0BDE771060050D90020704E060013
:1080A000BCD2002031DA00200021242005F013BAD0
:1080B0007047000013B500240DF107008DF807404C
:1080C000FFF77EFB084B214622201C7005F003FAC7
:1080D000064804F043FE01200BF018F92146232046
:1080E00005F0F9F902B010BDBCD3002078D900200A
:1080F00030B599B0144609490EA805F0EFF80023F1
:10810000CDE91433CDE91633636E012B0AD104494E
:10811000206802F03BFA38B1022486E3724E060072
:1081200080500600002BF7D1B649B748B74D05F08F
:108130008FF9B749B44805F08BF9B249B54805F055
:1081400087F9B349B34805F083F964200AF026FEA5
:10815000B14911A804F0D0FF11A90EA805F0D1F87B
:1081600011A805F075F80EA805F040F90E9AAB4974
:10817000A54805F06DF9A649A34805F069F90E9ADE
:10818000A649A44805F064F9A149A24805F060F9A0
:1081900064200AF003FEA24911A804F08DFF119A91
:1081A000A049994805F054F911A805F051F89849EB
:1081B000954805F04DF99A4911A804F07DFF119AF0
:1081C0009849944805F044F911A805F041F8904900
:1081D000904805F03DF964200AF0E0FD4FF47A7410
:1081E0006A689149B2FBF4F2874805F031F9884991
:1081F000854805F02DF96A688B49B2FBF4F2854891
:108200008A4D05F025F98249824805F021F964205C
:108210000AF0C4FD4FF4967285497B4805F018F9C1
:108220007B49794805F014F94FF4967280497948F2
:1082300005F00EF97649774805F00AF964200AF04E
:10824000ADFD7C4804F0AAFE7B4955F82020044689
:108250006D4805F0FDF86E496B4805F0F9F855F8E2
:10826000242075496B4805F0F3F86949694805F021
:10827000EFF864200AF092FD012C40F0F1826F4883
:108280006F4D704C04F069FE6F49002814BF2A46F8
:1082900022465D4805F0DCF85D495B4805F0D8F8FA
:1082A000664804F05AFE6849002814BF2A46224650
:1082B0005848664D05F0CCF85549564805F0C8F8C1
:1082C00064200AF06BFD624804F05CFE61490446DC
:1082D00002464D4805F0BCF84D494B4805F0B8F84A
:1082E00022465C494B4805F0B3F84949494805F036
:1082F000AFF864200AF052FD55F824205649424850
:1083000005F0A6F84249404805F0A2F855F82420A7
:108310005149404805F09CF83D493E4805F098F821
:1083200064200AF03BFD4D4804F010FE044600288E
:1083300000F054814A49344805F08AF834493248FB
:1083400005F086F84649334805F082F8304931484F
:1083500005F07EF864200AF021FD082214A94148A6
:1083600004F0DBFD9DF8573005939DF856300493DB
:108370009DF8553003939DF8543002939DF8533087
:1083800001939DF852309DF85020374900931E48C4
:108390009DF8513005F05CF81D491B4805F058F870
:1083A0009DF8573005939DF8563004939DF855304D
:1083B00003939DF8543002939DF8533001939DF838
:1083C00052309DF850202849009312489DF85130B2
:1083D00005F03EF80E490F4805F03AF864200AF01F
:1083E000DDFC082214A9214804F073FD9DF85730E4
:1083F00005939DF8563004939DF8553003939DF8EE
:10840000543035E0B936060050D9002098A100203C
:10841000704E0600B4D9002008DA0020C8360600E5
:10842000CCD90020733C0600D3360600A0A1002062
:10843000E33606008DDA0020F736060074DA0020F5
:10844000544B0600AE36060007370600ACA10020EC
:108450008ADA0020123706001D37060073DA002082
:10846000283706006EDA0020323706006ADA00206C
:1084700002939DF8533001939DF852309DF850209F
:108480005049009350489DF8513004F0E1FF4F49A6
:108490004D4804F0DDFF9DF8573005939DF85630A8
:1084A00004939DF8553003939DF8543002939DF842
:1084B000533001939DF852309DF85020414900936C
:1084C00043489DF8513004F0C3FF4049404804F050
:1084D000BFFF64200AF062FC102214A93D4804F09A
:1084E00001FD9DF85F300D939DF85E300C939DF873
:1084F0005D300B939DF85C300A939DF85B300993D7
:108500009DF85A3008939DF8593007939DF85830DC
:1085100006939DF8573005939DF8563004939DF8C7
:10852000553003939DF8543002939DF853300193D6
:108530009DF852309DF850202749009322489DF81D
:10854000513004F085FF21491F4804F081FF9DF858
:108550005F300D939DF85E300C939DF85D300B936A
:108560009DF85C300A939DF85B3009939DF85A3072
:1085700008939DF8593007939DF8583006939DF85D
:10858000573005939DF8563004939DF8553003936A
:108590009DF8543002939DF8533001939DF852306A
:1085A00000939DF850209DF851300B49084804F085
:1085B0004FFF0649064804F04BFF64200AF0EEFB2B
:1085C000002432E15A37060050D90020704E0600D0
:1085D000B4D900206BDA002082370600964997480C
:1085E00004F036FF9649954804F032FF92499548C9
:1085F00004F02EFF9249934804F02AFF64200AF009
:10860000CDFB102214A9904804F075FC9DF85F3052
:108610000D939DF85E300C939DF85D300B939DF8A3
:108620005C300A939DF85B3009939DF85A300893AB
:108630009DF8593007939DF8583006939DF85730B0
:1086400005939DF8563004939DF8553003939DF89B
:10865000543002939DF8533001939DF852309DF8A9
:1086600050207A49009375489DF8513004F0F0FE8F
:108670007349724804F0ECFE9DF85F300D939DF84D
:108680005E300C939DF85D300B939DF85C300A933F
:108690009DF85B3009939DF85A3008939DF8593046
:1086A00007939DF8583006939DF8573005939DF831
:1086B000563004939DF8553003939DF8543002933F
:1086C0009DF8533001939DF852309DF850205F493A
:1086D00000935C489DF8513004F0BAFE584959485F
:1086E00004F0B6FE64200AF059FB102214A9584881
:1086F00004F01CFC9DF85F300D939DF85E300C93E8
:108700009DF85D300B939DF85C300A939DF85B30CB
:1087100009939DF85A3008939DF8593007939DF8B6
:10872000583006939DF8573005939DF856300493C2
:108730009DF8553003939DF8543002939DF85330C3
:1087400001939DF852309DF85020424900933B48D8
:108750009DF8513004F07CFE3949384804F078FE29
:108760009DF85F300D939DF85E300C939DF85D3061
:108770000B939DF85C300A939DF85B3009939DF84C
:108780005A3008939DF8593007939DF85830069356
:108790009DF8573005939DF8563004939DF8553059
:1087A00003939DF8543002939DF8533001939DF844
:1087B00052309DF850202749009322489DF85130AF
:1087C00004F046FE1E491F4804F042FE64200AF0F1
:1087D000E5FA042214A9204804F096FB9DF85330D2
:1087E00001939DF852309DF850201C490093134886
:1087F0009DF8513004F02CFE1149104804F028FE79
:108800009DF8533001939DF8523000939DF850200D
:108810009DF8513011490B4804F01AFE08490948E7
:1088200004F016FE64200AF0B9FA0EA804F010FD58
:10883000204619B030BD00BFCA37060050D900200D
:10884000704E0600B4D900206CDA0020D337060041
:1088500070DA00201C3806006DDA0020643806004B
:108860007448002C40F09B8004F0B6FA724902462E
:10887000724804F0EDFD7249704804F0E9FD6D485E
:1088800004F0AAFA6C4902466E4804F0E1FD6C4916
:108890006C4804F0DDFD64200AF080FA6A4804F0B8
:1088A0009DFA6A490246654804F0D2FD644963486E
:1088B00004F0CEFD644804F091FA64490246614830
:1088C00004F0C6FD5E495F4804F0C2FD64200AF072
:1088D00065FA5F4804F084FA5E490246574804F09E
:1088E000B7FD5749554804F0B3FD594804F078FAEC
:1088F00058490246534804F0ABFD5149514804F031
:10890000A7FD64200AF04AFA534804F06BFA534971
:1089100002464A4804F09CFD4949484804F098FD45
:108920004D4804F05FFA4D490246464804F090FD78
:108930004349444804F08CFD64200AF02FFA48486B
:1089400004F052FA474902463C4804F081FD3C4994
:108950003A4804F07DFD424804F046FA4149024697
:10896000384804F075FD3649364804F071FD64203E
:108970000AF014FA3C4804F039FA3C4902462F4800
:1089800004F066FD2E492D4804F062FD364804F0DF
:108990002DFA364902462B4804F05AFD3EE704F012
:1089A0001BFA25490246254804F052FD2449234874
:1089B00004F04EFD1F4804F00FFA1F4902462148FB
:1089C00004F046FD1E491F4804F042FD64200AF0F1
:1089D000E5F9274804F020FA26490246174804F032
:1089E00037FD1749154804F033FD214804F014FA07
:1089F00020490246134804F02BFD1149114804F0A8
:108A000027FD64200AF0CAF91B4804F007FA1B4945
:108A100002460A4804F01CFD0949084804F018FD04
:108A2000154804F0FBF915490246064804F010FD0C
:108A3000BFE500BF99DA00207D38060050D900203C
:108A4000704E0600B4D900209ADA00208C38060057
:108A50009BDA0020943806009CDA00209C3806003F
:108A60009DDA0020A43806009EDA0020B9380600FE
:108A7000A2DA0020C7380600A3DA0020D4380600A6
:108A800038B5536E012B06D11D49106801F07EFDEB
:108A900018B102202EE0002B2DD11A4B1B7863BB9E
:108AA000194B1A7802F0FF043ABB01251749184800
:108AB0001D7004F0CDFC1749154804F0C9FC13499A
:108AC000154804F0C5FC1349134804F0C1FC6420A8
:108AD0000AF064F92946222004F0FDFC29462320EF
:108AE00004F0F9FC0D48234641F28832032104F0DA
:108AF0004EFB002038BDFCDDCBE70320FAE700BFCA
:108B000080500600ACD30020BCD30020E238060021
:108B100050D90020704E0600B4D9002031DA002070
:108B200007B503230193054B0093054A054B0649FE
:108B3000064804F000FB03B05DF804FBE98B02007B
:108B400000390600F2380600533906002EDA0020FC
:108B500013B5094C094A00230321204604F00DFBFC
:108B600003230193064B0093064A074B0749E01E77
:108B700004F0E1FA02B010BD31DA0020B580020045
:108B8000818A0200673906005B39060073390600E6
:108B900007B502230193054B0093054A054B06498F
:108BA000064804F0C8FA03B05DF804FBF180020047
:108BB00087390600793906009E3906002EDA002032
:108BC00008B50021064A0748082304F0CCFA0146FC
:108BD00020B9034A0348082304F0C5FA012008BD60
:108BE00098A100202FDA00202DE9F843536E012BC5
:108BF0000E4603D002242046BDE8F88315682A49B2
:108C0000DFF8C090284601F0C1FC4F46D9F8048037
:108C10000446E8B932464FF47A752449B8FBF5F3B7
:108C2000234804F015FC2349214804F011FCD9F82D
:108C300004301E49B3FBF5F332461F4804F008FC2C
:108C40001C491D4804F004FC64200AF0A7F8D2E790
:108C5000284601F0A5FC2A462844904205D012F887
:108C6000013B303B092BF8D9C4E70A2200212846F2
:108C700001F01AFD4FF47A735843104B9842B9D95A
:108C8000786000210E4804F08CFA7A6822B1002343
:108C90000B48194604F07BFA7B68984501D0FFF732
:108CA0008FFF0024A7E700BF80500600A53906000B
:108CB00050D90020704E0600B4D90020BF2709000B
:108CC00031DA002098A1002037B50024AA250C48ED
:108CD0008DF8005008236A462146019404F039FAC1
:108CE00048B19DF80030AB42064B06D01D705C6069
:108CF000FFF766FF204603B030BD019A5A60FAE7DD
:108D00002FDA002098A1002010B5074B53F820203F
:108D1000002332F813408C42D8B203D80133102B11
:108D2000F7D1184610BD00BF60A2002038B5044638
:108D3000002508462171A57100F0BEFE6571206016
:108D4000204638BD10B50446006800F0BDFE204640
:108D500010BD002343717047407970470068704729
:108D60008E294ED8702903D8032943D80120704793
:108D700071391D2945D801A353F821F06D8D0200EA
:108D8000038E02006D8D02006D8D02006D8D02005C
:108D90006D8D0200038E02006D8D02006D8D02004C
:108DA000038E0200038E0200038E02006D8D02000E
:108DB000038E0200038E02006D8D0200038E0200FE
:108DC0006D8D02006D8D02006D8D02006D8D0200B3
:108DD0006D8D02006D8D02006D8D0200038E02000C
:108DE000038E0200038E0200038E0200038E020037
:108DF0006D8D0200A1F1640004288CBF00200120C9
:108E000070470020704700BF882918D8702906D8FD
:108E100003290FD8012994BF002001207047713920
:108E20000123C9B203FA01F1064B194214BF012014
:108E300000207047A1F16703584258417047002055
:108E4000704700BF0101A000F8B504460D461E465C
:108E5000FFF786FF10B90223A371F8BD8E2D98BFCE
:108E6000174B607998BF595D94F804C094BF154BB7
:108E7000002100EB010707F1010794BF33F815301B
:108E80000B46674503DB0123A3710020E5E773432D
:108E90002668471C6771325462792068561C6671D7
:108EA0008554002001306279C5B28D420A4404D84D
:108EB0002568121AAB541B0AF4E7D0B26071CCE7F4
:108EC0000C3A06009C3A060008B513460A467D2176
:108ED000FFF7BAFF08BD00002DE9F84304460E462F
:108EE000FFF73EFF18B90223A371BDE8F8838E2E69
:108EF00098BF2A4B94F8058098BF9F5D207994BF56
:108F0000274B002708EB070101F1010194BF33F85B
:108F100016303B46814203DB0123A3710020E4E7C6
:108F200007EE903AB5EEC00AF1EE10FAF8EEE77AE5
:108F300048BFB1EE400A27EE800A3146FCEEC07A07
:108F400020464CBF4FF001094FF0000917EE905A30
:108F5000FFF75AFF40B1B9F1000F05D0F900012326
:108F60008B40591E0D405D1B236808F101016171A2
:108F700003F8082063792268591C6171D6540022D5
:108F800001326379D1B2B9423B4404D821689B1ABB
:108F9000CD542D0AF4E7D8B26071A6E70C3A06006A
:108FA0009C3A060008B50A460321FFF795FF08BD65
:108FB00008B50A466721FFF78FFF08BD08B50A46C6
:108FC0006821FFF789FF08BD08B50A467421FFF73D
:108FD00083FF08BD03F0D6BA03F0D6BA13B50B4C25
:108FE00023780BB900F07EF82B232A22CDE900323A
:108FF00007482D232C22002100F010FB00F058FB25
:1090000023780BB90123237002B010BDBDD300201B
:10901000ACAC01202920704709F0D5BEF8B50C464C
:109020002F2C9DF81850079F0646114605DC631C3F
:10903000047002D012B1012A12D0F8BD012D0DD05A
:10904000022D01D025B9022120460AF011F8B5728F
:1090500020460021BDE8F8400AF008B82946F3E7A9
:1090600020460AF003F8391E204618BF0121BDE84A
:10907000F84009F0FFBF38B5044690F900002F28EA
:109080001D4615DCA3B1022923610DD003290DD0A3
:1090900001290DD1032109F0F1FF94F900002946BF
:1090A000BDE8384009F0ECBF0521F4E70621F2E7FE
:1090B00038BD90F900002F2806DC431C04D000398D
:1090C00018BF012109F0D6BF704708B590F900001C
:1090D0002F2804DC431C02D009F0CEFF08BD00207D
:1090E000FCE7000010B5054C23782BB90449022099
:1090F0000AF090F80123237010BD00BFBED30020FA
:10910000810C040010B502200AF08CF8064B1A6896
:109110001860044600219442596002D203F048F9D5
:109120000444204610BD00BFC0D30020014B186886
:10913000704700BFC0D300200A2070470AF068B80B
:109140000AF064B802200AF06BB8000007B501907D
:10915000022003F0D1F8044A0199022003B05DF81F
:1091600004EB0AF05BB800BFC0D30020FFF7EEBFEE
:10917000022003F0DDB8000008B5034B02201A6896
:1091800000230AF053F808BDC0D3002070B506468E
:1091900002200AF049F84FF47A72002305460C4683
:1091A0003AF06EF80023328028464FF47A72214656
:1091B0003AF066F870BD10B50C4608F09BFC2046EE
:1091C000BDE8104008F0A8BC38B50C46054608F0CC
:1091D0008BFC286008F09AFC206038BD704708B509
:1091E00018F0A0FE18F08EFC0028FBD1642009F0D6
:1091F000EAFDBDE8084002F03ABE08B502200AF0D8
:1092000011F808BD08B507480B460749401AC008C1
:109210000004064940F0010018F0C5FDBDE8084013
:10922000FFF7DDBF5CF30600E4F20600BA3B060080
:1092300013B50B46084C09490092641AE40824044B
:109240000246074944F0010018F0B7FD02B0BDE83E
:109250001040FFF7C4BF00BF5CF30600E4F2060055
:10926000C03B060008B507484FF4004118F0CAFBA0
:1092700018B1054A7121FFF7C5FFBDE8084018F095
:1092800001BB00BFFB910200F23B060013B503785F
:109290000B2B12D8DFE803F0135C82A8B111B9B927
:1092A000BD06D9DD0479204608F032FB204608F0DF
:1092B000D9FA0021204608F033FB02B010BD01208E
:1092C00008F026FB01282ED1002008F021FB012800
:1092D000F3D000200AF032FA0028EEDD012201A9C5
:1092E00000200AF0DBF8002008F012FB04460028FA
:1092F000EFD10AF0EBF918BB9DF8041008F01EFA44
:10930000E7E7012201A910460AF0C8F8012008F099
:10931000FFFA40B901200AF0D9F950B99DF80410BC
:10932000012008F00BFA01200AF008FA0028E8DC16
:10933000CAE70128F7D19DF804100AF01DF9F2E7F9
:109340000128C6D19DF8041020460AF015F9C0E79F
:10935000032008F0DDFA0128AFD003200AF0EEF96F
:109360000028AADD012201A903200AF097F80320B2
:1093700008F0CEFA0028F0D103200AF0A7F928B9A6
:109380009DF80410032008F0D9F9E6E70128E4D19C
:109390009DF8041003200AF0EFF8DEE7042008F03F
:1093A000B7FA012889D004200AF0C8F9002884DD22
:1093B000012201A904200AF071F8042008F0A8FA9B
:1093C0000028F0D104200AF081F928B99DF8041092
:1093D000042008F0B3F9E6E70128E4D19DF8041071
:1093E00004200AF0C9F8DEE71C4B1B6E03B1984756
:1093F0000BF074FC05F05EF95FE7194B1B68002B5E
:109400003FF45BAF4068984757E740680AF070FA4E
:1094100053E7052008F07CFA01283FF44EAF052001
:109420000AF08CF900287FF748AF012201A9052036
:109430000AF034F8052008F06BFA0028EFD19DF807
:109440000410052008F07AF9E9E7002009F0F8FE99
:1094500033E7406809F01AFE2FE700BFA05D060061
:10946000E0A3012070B54FF0804390B000240126A6
:10947000CDE90444CDE9024406948DF81C40C3F8BC
:1094800078651BF08DFCFFF7EDFE374B3748384908
:10949000C01AC008374B00041A6840F0030018F0E7
:1094A00079FC0AF007FA09F091FC09F0BBFB09F01E
:1094B000A3FE0322104623462146CDE9004409F0CD
:1094C000C1FE09F007FC09F03FFC032003F076FB26
:1094D00008F042FB23460546014603222046CDE91B
:1094E000004409F0AFFE2346032229463046CDE969
:1094F000004409F0A7FE08210DEB010004F01EFA5C
:109500009DF80F309DF80D201B49009308A89DF889
:109510000E3001F01BF808A801F042F8C1B208A80B
:1095200009F0E6FB0C2104A808F0EEFB04A809F002
:10953000E1FB2346032229460520CDE9004409F03A
:1095400081FE08F0F1FB05F0F3FEE5B2284608F0D5
:10955000DFF910B9284608F085F90134062CF4D15A
:109560000AF08CF910B070BDE4F206005CF306005E
:109570006F3C060014A400207F3C060008B517F0DD
:10958000D1FCBDE808400AF087B9000007B5FFF735
:1095900069FF194B19481A49C01AC008000440F065
:1095A0000300019018F0F2FB02F048FC1549019805
:1095B00018F0ECFB144809F035FF04F0A9FA012873
:1095C0000DD002280DD010B9104809F02BFF104C17
:1095D000FFF7D4FF237833B902F032FCF8E70D48E7
:1095E000F3E70D48F1E708F0D7F90028F0D00020A4
:1095F00009F0D4FDECE700BFE4F206005CF30600DE
:10960000903C06009A3C0600A93C0600BD3C0600C2
:10961000C8D30020C93C0600D43C06002DE9F34124
:109620000C460025064600F8044B02249DF92080D4
:1096300011461F4622462B46CDE9004517F020F97A
:109640002B462246394606F11800CDE9004517F0B1
:1096500017F906F12C00CDE900452B46224641467C
:1096600017F00EF9204602B0BDE8F0410AF0D6B876
:109670007FB50023ADF80E108DF8173020B90A4AD7
:109680000A484921FFF7BEFD01220023CDE900234E
:109690000DF10E010DF1170302200AF0D7F89DF825
:1096A000170007B05DF804FBDB3C06005EA55EA575
:1096B00073B5174D01240023CDE900342246284616
:1096C0002A2117F0DDF8002300932246A5F1A4001B
:1096D0000194262117F0D4F802260023CDE9006377
:1096E0001A46A5F190002E2117F0CAF80023CDE903
:1096F00000631A46A5F17C002F2117F0C1F823461C
:1097000032462146252002B0BDE8704009F0ACBCCD
:10971000ECAC0120034603220148012117F0B8B840
:1097200070AC01204FF42071012016F0D3BE0A2046
:109730007047012016F0C2BE014B1878704700BF79
:10974000C9D30020014B1870704700BFC9D3002057
:1097500010B50A4C0A2017F091F80021204617F0A6
:1097600099F8142017F08AF82046012117F092F892
:10977000BDE810400A2017F081B800BF48AC0120B6
:1097800010B5034C204617F087F80128FAD010BD19
:109790005CAC012038B50C4C00212046A4F14005FA
:1097A00017F078F8C0212846FFF762FF002128460D
:1097B000FFF75EFF0121204617F06CF8FFF7E0FF8E
:1097C000024B01221A7038BDECAC0120C9D3002035
:1097D000F8B5154606460C4616F07BFC0E480F4FB2
:1097E000002117F057F80D483146FFF741FF254497
:1097F000AC4209D10848012117F04CF8842E09D059
:10980000BDE8F840FFF7BCBF14F8011B3846FFF76E
:109810002FFFEDE7F8BD00BFECAC0120ACAC0120A0
:10982000F8B5154606460C4616F053FC0F48104F87
:10983000002117F02FF831460D48FFF719FF0C48AB
:109840000021FFF715FF2544C6B2AC4207D10748F7
:10985000012117F01FF8FFF793FF3046F8BD0021F4
:109860003846FFF705FF04F8010BEEE7ECAC0120EA
:10987000ACAC012070B5154606460C4616F029FC26
:109880001048002117F006F80D210F48FFF7F0FEF1
:10989000310A0D48FFF7ECFEF1B20B480A4EFFF714
:1098A000E7FE2544AC4207D10648012116F0F2FF3D
:1098B000BDE87040FFF764BF14F8011B3046FFF7A6
:1098C000D7FEEFE7ECAC0120ACAC012007B50122DC
:1098D0008DF807100DF10701FFF7CCFF03B05DF81D
:1098E00004FB000070B5154606460C4616F0F1FB69
:1098F0001348002116F0CEFF1D211248FFF7B8FED5
:10990000310A1048FFF7B4FEF1B20E480D4EFFF7D2
:10991000AFFE0C480021FFF7ABFE2544AC4207D157
:109920000748012116F0B6FFBDE87040FFF728BFD9
:1099300000213046FFF79CFE04F8010BEEE700BF64
:10994000ECAC0120ACAC012007B501220DF1070100
:10995000FFF7C8FF9DF8070003B05DF804FB0000A7
:10996000F8B5144605460E4616F0B3FB0F48104FE7
:10997000002116F08FFF0E210D48FFF779FE2946D2
:109980000B48FFF775FE0025A4B2ABB29C4207D886
:109990000648012116F07EFFBDE8F840FFF7F0BE53
:1099A000715D3846FFF764FE0135EEE7ECAC01204F
:1099B000ACAC0120F8B5144605460E4616F089FBFE
:1099C0001248134F002116F065FF1E211048FFF7C3
:1099D0004FFE29460E48FFF74BFE0D480021FFF7CA
:1099E00047FE0025A4B2ABB29C4207D8074801212C
:1099F00016F050FFBDE8F840FFF7C2BE0021384620
:109A0000FFF736FE70550135EDE700BFECAC0120E5
:109A1000ACAC0120022116F0ABBD70477047704717
:109A20000B460146184600F001B8000010B5054C81
:109A300013462CB10A4601460220AFF3008010BD48
:109A40002046FCE70000000008B5074B044613B1B0
:109A50000021AFF30080054B1868836A03B1984773
:109A6000204602F0E9F900BF00000000483E060071
:109A700070B50D4D0D4C641BA4100026A64209D1F3
:109A80000B4D0C4C39F078FD641BA4100026A64247
:109A900005D170BD55F8043B98470136EEE755F8FF
:109AA000043B98470136F2E748D2002048D2002014
:109AB00048D2002058D20020024B0146186800F01E
:109AC00071B800BF18A40020024B0146186800F0CE
:109AD00019B800BF18A400200A44914200F1FF33D6
:109AE00000D1704710B511F8014B03F8014F9142B6
:109AF000F9D110BD02440346934200D1704703F8E8
:109B0000011BF9E737B5002948D051F8043C019012
:109B1000002BA1F10404B8BFE41801F091FC204A25
:109B200001981368154633B96360146003B0BDE84B
:109B3000304001F08BBCA3420BD9216862189342DC
:109B400004BF1A685B68636004BF521822602C600F
:109B5000ECE71A465B680BB1A342FAD911685518B5
:109B6000A5420BD1246821445418A3421160DDD1D1
:109B70001C685B68536021441160D7E702D90C234D
:109B80000360D3E7256861198B4204BF19685B68DD
:109B9000636004BF491921605460C7E703B030BD5A
:109BA000CCD30020F8B5CD1C25F0030508350C2DCD
:109BB00038BF0C25002D064601DBA94203D90C2332
:109BC00033600020F8BD01F03BFC21490A681446CF
:109BD0009CB9204F3B6823B92146304600F0A6FCD3
:109BE00038602946304600F0A1FC431C23D10C23E9
:109BF0003360304601F02AFCE3E723685B1B17D48F
:109C00000B2B03D923601C44256004E06368A24247
:109C10000CBF0B605360304601F018FC04F10B00E0
:109C2000231D20F00700C21ACCD01B1AA350C9E78D
:109C300022466468CCE7C41C24F00304A042E3D0AD
:109C4000211A304600F072FC0130DDD1CFE700BFB1
:109C5000CCD30020D0D300202DE9FF4755EC104B8A
:109C6000002D0E4619462B46BBBF05F100431D468D
:109C700000232D230B700D9BDDF830A0914623F0BF
:109C80002008BCBF22461446B8F1460F05D0B8F1F3
:109C9000450F00D10136022100E0032103AB0193FF
:109CA00002AB009345EC104B5346324600F094FD56
:109CB000B8F1470F074602D119F0010F22D0B8F1D1
:109CC000460F07EB060910D13B78302B0AD1002252
:109CD00000232046294639F0F3F918B9C6F10106E8
:109CE000CAF80060DAF800309944002200232046C8
:109CF000294639F0E5F908B1CDF80C903022039BE4
:109D00004B4507D3039B0E9ADB1B3846136004B008
:109D1000BDE8F087591C03911A70F0E7F7B50346C8
:109D20000029B8BF494203F8022BB4BF2D222B22D1
:109D3000092942702ADD0DF10704A4460A27A64628
:109D40000A4691FBF7F607FB16153035632A04F136
:109D5000FF340EF8015C3146F1DC3031AEF1020522
:109D600004F8011C441C294661450AD30DF109027F
:109D7000A2EB0E02654588BF00221344181A03B0F7
:109D8000F0BD11F8012B04F8012FEDE7302330313D
:109D90008370C170031DF1E72DE9F04F2DED028BAB
:109DA0008DB00C46DDF8608016461F46054601F072
:109DB000F1FAD0F800A0504600F0F2FB00230A931D
:109DC00023680593D8F8003094F818B0073323F0CF
:109DD000070303F10802C8F80020D3E90023C4E90F
:109DE0001223D4E9128929F000430793CDF8188093
:109DF00008EE100A9F4BDDE906014FF0FF3239F003
:109E000091F988BBDDE906019A4B4FF0FF3239F03A
:109E10006BF948BB002200234046494639F05AF905
:109E200010B12D2384F84330934B9448BBF1470F76
:109E300094BF9846804603232361059B23F00402C8
:109E400022604FF00009009733460BAA21462846AE
:109E500000F0D8F9013040F090804FF0FF300DB0A5
:109E6000BDEC028BBDE8F08F42464B46404649466A
:109E700039F058F940B14B46002BBCBF2D2384F874
:109E800043307F487F4BD1E763680BF0DF020692D7
:109E90005A1C3FD106236360059B616843F48062CE
:109EA000002303930AABCDE901B309AB49EC108B56
:109EB000009322600DF123032846FFF7CDFE069B99
:109EC0000999472B804608D1C81C02DB6368994278
:109ED00041DDABF1020B5FFA8BFBBBF1650F20D8C4
:109EE00001395A4604F150000991FFF717FF0A9A09
:109EF0001318012A8146236102DC2268D20701D5AA
:109F0000013323619DF82330002B9CD02D2384F84E
:109F1000433098E7069A472ABED1002BBCD10123D3
:109F2000B9E7BBF1660F18D1002963680BDD216129
:109F300013B92268D00702D501330B442361A16510
:109F40004FF00009DEE713B92268D20701D50233CA
:109F5000F4E70123F2E74FF0670B0A9B994205DB18
:109F600023682161D807EAD54B1CE7E70029D4BF55
:109F7000C1F1020201221344E0E723685A0507D425
:109F80002369424631462846B84701302CD164E760
:109F9000BBF1650F40F2E080D4E9120100220023FA
:109FA00039F08EF8002834D0374A0123314628464C
:109FB000B84701303FF451AFDDE909239A4202DB93
:109FC0002368D80710D518EE103A52463146284675
:109FD000B84701303FF441AF4FF0000804F11A09CF
:109FE0000A9B013B434509DC23689B0700F105817F
:109FF000E0680B9B9842B8BF184630E701234A46F9
:10A0000031462846B84701303FF427AF08F1010830
:10A01000E6E7099B002B39DC1B4A01233146284621
:10A02000B84701303FF419AFDDE90923134302D1EA
:10A030002368D907D8D518EE103A5246314628463B
:10A04000B84701303FF409AF4FF0000904F11A0A94
:10A05000099B5B424B4501DC0A9B92E70123524678
:10A0600031462846B84701303FF4F7AE09F10109FF
:10A07000EEE700BFFFFFEF7F4C3E0600503E0600BC
:10A08000583E0600543E0600765006000A9AA36D1C
:10A090009A42A8BF1A46002A914637DC4FF0000BBF
:10A0A00029EAE97904F11A02A36D0593A3EB0903E8
:10A0B0005B4533DCDDE909239A423BDB2368DA07A1
:10A0C00038D40A9A059B0999D31AA2EB010999453C
:10A0D000A8BF9946B9F1000F35DC4FF0000829EA16
:10A0E000E97904F11A0ADDE909239B1AA3EB0903B4
:10A0F00043457FF779AF0123524631462846B8479A
:10A1000001303FF4AAAE08F10108ECE713463146EE
:10A1100042462846B8470130C0D19EE60123314669
:10A1200028460592B84701303FF497AE059A0BF1E7
:10A13000010BB9E718EE103A524631462846B847A7
:10A140000130BED189E6059A4B4642443146284645
:10A15000B8470130C1D180E60A9A012A01DCDB0749
:10A1600038D50123424631462846B84701303FF4EE
:10A1700074AE18EE103A524631462846B8470130C0
:10A180003FF46BAED4E912010022002338F098FFAF
:10A19000D8B90A9B08F10102013B31462846B8476D
:10A1A00001300ED159E60123524631462846B847C0
:10A1B00001303FF452AE08F101080A9B013B4345D0
:10A1C000F1DC4B4604F15002DCE64FF0000804F1EC
:10A1D0001A0AF2E701234246DFE701234A463146E5
:10A1E0002846B84701303FF438AE08F10108E3686B
:10A1F0000B995B1A4345F0DCFAE64FF0000804F1D6
:10A200001909F4E72DE9F047164699468A680B6963
:10A21000DDF820809342B8BF1346336091F84320A5
:10A2200007460C460AB1013333602368990642BFE2
:10A23000336802333360256815F0060506D104F152
:10A24000190AE36832689B1AAB4226DC94F8432073
:10A25000131E226818BF012392062BD404F1430277
:10A2600049463846C04701301ED02368E568326849
:10A2700003F00603042B08BFAD1AA36822690CBFC4
:10A2800025EAE57500259342C4BF9B1AED18002608
:10A290001A34B5421AD1002008E00123524649463B
:10A2A0003846C047013003D14FF0FF30BDE8F0879A
:10A2B0000135C6E7E1185A1C302081F843002244DA
:10A2C00094F8451082F843100233C7E70123224671
:10A2D00049463846C0470130E6D00136D9E700008C
:10A2E0002DE9FF470C469146277E0C99782F804632
:10A2F0009A4604F1430207D8622F0AD8002F00F0D3
:10A30000D880582F00F0A38004F1420684F84270F0
:10A310003AE0A7F16303152BF6D801A050F823F01B
:10A3200079A302008DA3020009A3020009A3020081
:10A3300009A3020009A302008DA3020009A30200E1
:10A3400009A3020009A3020009A3020099A40200C4
:10A35000BDA302007BA4020009A3020009A302001E
:10A36000BBA4020009A30200BDA3020009A30200CE
:10A3700009A3020083A402000B681A1D1B680A606F
:10A3800004F1420684F842300123A3E025680868FE
:10A390002E0600F104030AD505680B60002D03DAD0
:10A3A0002D236D4284F843305E480A2319E015F0EE
:10A3B000400F05680B6018BF2DB2EFE70B682568EA
:10A3C000181D0860280601D51D6802E06906FBD546
:10A3D0001D8854486F2F0CBF08230A23002184F8DE
:10A3E00043106668A660002EA2BF216821F0040118
:10A3F00021600DB9002E4DD01646B5FBF3F103FBDD
:10A400001157C75D06F8017D2F46BB420D46F4D9B2
:10A41000082B0BD12368DF0708D5236961689942AF
:10A42000DEBF302306F8013C06F1FF36921B2261A5
:10A43000CDF800A04B4603AA21464046FFF7E2FEB6
:10A4400001304CD14FF0FF3004B0BDE8F087354803
:10A4500084F8457023680E681F0656F8045B0E608A
:10A4600014D5D90744BF43F0200323601DB92368E6
:10A4700023F0200323601023B0E7236843F0200378
:10A4800023607823284884F84530E3E75E0648BF18
:10A49000ADB2E6E71646BBE70B68266860691D1D8E
:10A4A0000D6035061B6801D5186002E07106FBD50A
:10A4B0001880002323611646BAE70B681A1D0A604C
:10A4C0001E6862680021304600F06AFF08B1801BF8
:10A4D000606063682361002384F84330A8E7236940
:10A4E000324649464046D0470130ABD023689B07EF
:10A4F00013D4E068039B9842B8BF1846A4E7012331
:10A50000324649464046D04701309BD00135E3688A
:10A5100003995B1AAB42F2DCEBE7002504F1190664
:10A52000F5E700BF5C3E06006D3E060038B5064DFF
:10A530000023044608462B6001F070FC431C02D146
:10A540002B6803B1236038BDD0A301200EB400B541
:10A550009CB01DAB029006906FF000410948079136
:10A560000491094953F8042B05910068019302A94D
:10A5700001F0EAFA029B00221A701CB05DF804EBAD
:10A5800003B0704718A400200802FFFF10F8012B49
:10A5900011F8013B012A28BF9A42F7D0D01A704720
:10A5A000034613F8012B002AFBD1181A0138704713
:10A5B0002DE9F0433B4E86468C4660461CF8014B25
:10A5C000A55D15F00805F8D12D2C34D19CF800407C
:10A5D0004FF0010800F1020C002B5ED0102B0CD1C3
:10A5E000302C0AD19CF8000000F0DF0058284FD131
:10A5F0009CF8014010230CF1020C4FF0FF370025AE
:10A60000B7FBF3F703FB07F96FEA09092846A4F142
:10A610003006092E18D83446A34224DD002D1FDB56
:10A6200087421DD301D1A1451ADB00FB0340012560
:10A630001CF8014BEBE72B2C08BF9CF80040A84608
:10A6400008BF00F1020CC7E7A4F14106192E01D89A
:10A65000373CE1E7A4F16106192E04D8573CDBE74B
:10A660004FF0FF35E4E7002D07DA2223CEF8003063
:10A670004FF0FF3042B9BDE8F083B8F1000F00D0D1
:10A680004042002AF7D00DB10CF1FF311160F2E722
:10A690003024002BB1D10823AFE7302CA2D00A23FD
:10A6A000ABE700BF7F3E060013460A46014602485C
:10A6B0000068FFF77DBF00BF18A400202DE9F74F09
:10A6C00003690C69A3420746C0F28180013C01F195
:10A6D000140800F1140505EB8403019358F82430A5
:10A6E00055F8242001339A424FEA840B08EB840981
:10A6F000B2FBF3F631D34FF0000E4046AC46F246C3
:10A7000050F8042B93B206FB03E34FEA134E9BB2BF
:10A71000AAEB0303120CDCF800A006FB02E213FA1A
:10A720008AF34FEA124E1FFA82FADCF80020CAEBD5
:10A73000124202EB23429BB243EA024381454CF8AA
:10A74000043B4FEA224ADBD255F80B302BB9019B70
:10A75000043B9D421A462ED33C61384601F0A7F8CF
:10A76000002824DB013628464FF0000C58F8042B53
:10A77000D0F800E093B2ACEB0303120C13FA8EF3A3
:10A78000C2EB1E4202EB23429BB243EA0243C145A5
:10A7900040F8043B4FEA224CE8D255F8242005EB60
:10A7A000840322B9043B9D421A460AD33C613046D9
:10A7B00003B0BDE8F08F1268043B002ACCD1013C05
:10A7C000C7E71268043B002AF0D1013CEBE7002008
:10A7D000EEE70000000000002DE9F04F2DED028BA8
:10A7E00057EC106B95B0456ADDF880800591CDE996
:10A7F0000267044609920F933DB91020FFF75CF9F8
:10A80000C0E9015560620560C560636A196851B1AD
:10A810005A684A60012393408B60204600F050FE46
:10A82000636A00221A603B1EB9BF23F00043039302
:10A830000023C8F80030DDF80C90B74BBCBF0122F4
:10A84000C8F8002033EA09031BD10F9A42F20F73B4
:10A850001360C9F31303334300F07585219B63B97B
:10A86000AE4B25E0AE4B00930833219A136000985D
:10A8700015B0BDEC028BBDE8F08FA84B00930333FD
:10A88000F3E79DED027B002251EC170B00238DEDC9
:10A890000A7B38F015FC804660B10F9A01231360E3
:10A8A000219B002B00F04C859E4B219A1360013BAD
:10A8B0000093DCE79DED0A0B12AA13A9204601F0D4
:10A8C00088F8C9F30A558246002D7ED00B9BCDF83F
:10A8D0004080C3F31303DDE90A6743F07F5747F471
:10A8E0004017A5F2FF35904B00223046394637F02D
:10A8F000C7FF83A3D3E9002338F07AF982A3D3E911
:10A90000002337F0BFFF064628460F4638F006F909
:10A910007FA3D3E9002338F06BF902460B4630469B
:10A92000394637F0AFFF06460F4638F011FC0022DB
:10A93000814600233046394638F0CCFB48B14846C2
:10A9400038F0ECF832463B4638F0BAFB08B909F16A
:10A95000FF39B9F1160F56D8744B03EBC903D3E98D
:10A960000023DDE90A0138F0B5FB00284DD009F1DC
:10A97000FF3900230E93129B5D1B6B1E049343BF94
:10A980000023C5F1010804934FF00008B9F1000F4E
:10A990003DDB049BCDF834904B4404930023069395
:10A9A000059B092B00F29A80052BC4BF043B05933D
:10A9B000059BA3F10203CCBF00250125032B00F268
:10A9C0009980DFE803F02C7D7B89DDE912531D447B
:10A9D00005F23243202BC1BFC3F1400305F2124000
:10A9E00009FA03F326FA00F0DABFC3F1200306FAEE
:10A9F00003F0184338F082F801230646A1F1F877F6
:10AA0000013D10936FE70123B4E70E90B3E7C9F15E
:10AA1000000306930023A8EB09080D93C0E7002369
:10AA20000893099B002B00F385804FF0010BCDF8B4
:10AA300004B05B46CDF824B0666A0022726004223E
:10AA400002F11400984271687AD9204600F004FDA2
:10AA5000636A30601B680093019B0E2B00F2F58047
:10AA6000002D00F0F280B9F1000F7DDD2F4A09F0D2
:10AA70000F0302EBC30393ED007B19F4807F4FEAD1
:10AA80002917B0EE478AF0EE678A5DD0284BDDE9E2
:10AA90000A01D3E9082338F0D5F9CDE9020107F01E
:10AAA0000F070325224E002F50D1DDE9020153ECA0
:10AAB000182B38F0C7F9CDE902016FE00123AFE7A9
:10AAC00000230893099B09EB030B0BF10103012BF6
:10AAD0000193B8BF0123AFE70123F2E7012500236B
:10AAE000059308954FF0FF3B0022CDF804B01223E8
:10AAF0000992A1E701230893F4E700BFAFF30080B8
:10AB000061436F63A787D23FB3C8608B288AC63F73
:10AB1000FB799F501344D33F0000F07F883F06002D
:10AB20007F3F0600775006000000F83FB83F060060
:10AB3000903F0600DDF824B0CDF804B05B467BE71B
:10AB40000131716052007BE70225ABE7F90708D5B8
:10AB500051EC180BD6E9002338F04AF841EC180BF9
:10AB600001357F1008369EE700F0AB80C9F1000682
:10AB7000AA4BAB4F06F00F0203EBC203D3E900234D
:10AB8000DDE90A0138F034F8CDE90201361100237D
:10AB90000225002E40F08A80002B8CD10E9B002BCA
:10ABA00000F09180DDE902679E4B00223046394675
:10ABB00038F090FA002800F08680019B002B00F00E
:10ABC0008280BBF1000F3CDD09F1FF3307930022C7
:10ABD000954B3046394638F00BF8CDE90201013586
:10ABE000CDF830B0DDE90267284637F097FF3246EE
:10ABF0003B4637F0FDFF8D4B002237F043FEA1F1BD
:10AC00005073CDE9020103930C9B002B60D1884B5C
:10AC100000223046394637F033FEDDE9022306468E
:10AC20000F4638F075FA002840F09982DDE90221DC
:10AC3000304601F10043394638F04CFA002840F024
:10AC40008B82DDE90A23CDE90223139B002BC0F29E
:10AC50005B81B9F10E0F00F35781704B03EBC90311
:10AC600093ED007B099BB0EE478AF0EE678A002BDC
:10AC700080F2E280019B002B00F3DE8040F06C82CA
:10AC80006B4B51EC170B002237F0B2FFDDE90223CA
:10AC900038F034FA019E3746002840F04282009D89
:10ACA000312305F8013B09F101093EE2F20705D520
:10ACB000D7E9002337F09CFF0135012376100837D0
:10ACC00067E702256AE7019BCDF81C900C9389E7A2
:10ACD00000990C980C9A514B9DED027B0144029116
:10ACE0000899B0EE478AF0EE678A03EBC20353E996
:10ACF0000223002945D04F49002038F0A3F853EC37
:10AD0000182B37F0BDFD009D41EC180B394630463D
:10AD100038F01EFA0C9037F001FF02460B46304621
:10AD2000394637F0ADFD0C9B303305F8013B53EC51
:10AD3000182B06460F4638F0CDF9002865D132466B
:10AD40003B463849002037F09BFD53EC182B38F078
:10AD5000C1F9002840F0B880029B9D423FF471AFDA
:10AD6000314B51EC180B002237F042FF2E4B41ECD7
:10AD7000180B00223046394637F03AFF06460F4698
:10AD8000C4E751EC170B37F033FF029B009D0C9387
:10AD900041EC180B3946304638F0DAF9119037F0AB
:10ADA000BDFE02460B463046394637F069FD119B21
:10ADB000303305F8013B029B9D4206460F464FF09B
:10ADC000000225D11B4B51EC180B37F05BFD0246FE
:10ADD0000B463046394638F09BF9002874D153ECC5
:10ADE000182B1449002037F04BFD02460B46304625
:10ADF000394638F06FF900283FF423AF0C9D6B1EE5
:10AE00000C9315F8013C302BF8D0DDF81C9049E08C
:10AE1000054B37F0EDFE06460F46BBE7B83F060090
:10AE2000903F06000000F03F0000244000001C405E
:10AE3000000014400000E03FDDE90267009D53EC94
:10AE4000182B3046394637F0FDFF38F081F980463F
:10AE500037F064FE53EC182B37F0CAFE02460B465F
:10AE60003046394608F1300637F00AFD05F8016B27
:10AE7000009E019FAE1BB74202460B4637D137F00A
:10AE800001FD53EC182B06460F4638F041F9C8B9BE
:10AE900053EC182B3046394638F012F910B118F03F
:10AEA000010F0FD12046514600F00AFB00232B7002
:10AEB0000F9B09F101001860219B002B3FF4D7ACD8
:10AEC0001D60D4E4CDF81C902B461D4613F8012DCF
:10AED000392A08D1009A9A42F7D1079A009901328B
:10AEE000079230220A701A7801321A708DE79E4B51
:10AEF000002237F07DFE0022002306460F4638F080
:10AF0000DFF800289BD0CDE7089A002A00F0C68021
:10AF1000059A012A00F3AA80109A002A00F0A28064
:10AF200003F23343069E4546049A01211A44204603
:10AF30009844049200F069FB0746002D0BDD049B4A
:10AF4000002B08DDAB42049AA8BF2B46A8EB0308F0
:10AF5000ED1AD31A0493069BFBB1089B002B00F05B
:10AF6000A180002E11DD39463246204600F0F2FB6A
:10AF7000524601460746204600F050FB51460790D6
:10AF8000204600F09DFA079B9A46069B9A1B04D028
:10AF90005146204600F0DEFB82460121204600F0AB
:10AFA00034FB0D9B002B06467EDD1A4601462046EB
:10AFB00000F0D0FB059B012B064678DD00230693AD
:10AFC000336906EB8303186900F0CFFAC0F1200063
:10AFD000049B184410F01F0000F08880C0F120038B
:10AFE000042B40F38180C0F11C00049B0344804487
:10AFF00005440493B8F1000F05DD51464246204652
:10B0000000F0F6FB8246049B002B05DD31461A4614
:10B01000204600F0EDFB06460E9B002B68D0314623
:10B02000504600F044FC002862DA002351460A2210
:10B03000204600F05CFA089B09F1FF398246002B9C
:10B0400000F08881394600230A22204600F04FFA9A
:10B05000BBF1000F074600F38F80059B022B40F3E6
:10B060008B804DE0129BC3F136035BE7019B5E1EB4
:10B07000069BB342BFBF069B0696F21A0D9BB6BF56
:10B080009B189E1B0D93019BB8BF0026002BB5BFDC
:10B09000A8EB0305019B0023454645E7069E089F54
:10B0A00045464AE7069A73E7059B012B18DC029B8D
:10B0B000B3B9039BC3F31303A3B9039B23F000436A
:10B0C0001B0D1B052BB1049B0133049308F10108F0
:10B0D000012306930D9B002B7FF472AF012077E7CD
:10B0E0000023F6E7029BF4E784D018461C307CE787
:10B0F000019B002B3ADC059B022B37DDDDF804B009
:10B10000BBF1000F0DD131465B460522204600F011
:10B11000EEF901460646504600F0C9FB00283FF70D
:10B12000BEAD099B009D6FEA03094FF00008314650
:10B13000204600F0C5F9002F3FF4B4AEB8F1000F7F
:10B1400005D0B84503D04146204600F0B9F939464C
:10B15000204600F0B5F9A5E600263746E1E70C9E4B
:10B16000DDF81C9037469AE500002440089BDDF886
:10B1700004B0002B00F0F580002D05DD39462A468D
:10B18000204600F035FB0746069B002B55D079681A
:10B19000204600F061F93A6902320546920007F153
:10B1A0000C010C30FEF798FC01222946204600F0E5
:10B1B0001FFB009B01330193009B5B440793029BA1
:10B1C00003F00103B84606930746019B31465046FB
:10B1D00003F1FF3BFFF772FA03463033029041461A
:10B1E0005046089300F063FB3A46049031462046EF
:10B1F00000F079FBC268089B054602BB0146504639
:10B2000000F055FB089B024629462046CDE908324E
:10B2100000F056F9059B099A019D43EA0201069B3D
:10B220000B43089B0DD1392B27D0049A002A01DD4E
:10B23000029B31338BF8003079E73846B9E70122B9
:10B24000E2E70499002904DB0598014306980143CD
:10B2500020D1002AEEDD514601222046019300F064
:10B26000C7FA3146824600F022FB0028019B02DC2F
:10B27000E0D1DA07DED5392BDAD139238BF800306B
:10B280002B461D46013B15F8012C392A50D00132BE
:10B290001A704CE7002A03DD392BEED00133C9E7E1
:10B2A000019A079902F8013C8A422AD051460023AC
:10B2B0000A22204600F01BF9B84582464FF00003F1
:10B2C0004FF00A024146204607D100F010F98046AF
:10B2D0000746019B0133019377E700F008F93946EF
:10B2E000804600230A22204600F001F90746F0E7D5
:10B2F000BBF1000F009ACCBF5D46012515444FF00D
:10B300000008514601222046019300F071FA3146AF
:10B31000824600F0CCFA0028B2DC02D1019BDB07A8
:10B32000AED42B461D4613F8012D302AFAD0FEE686
:10B33000009A9A42A5D1312309F101091370F6E66A
:10B34000124BFFF7B5BA219B002B7FF48BAA104B51
:10B35000FFF7AEBABBF1000F03DC059B022B3FF7F2
:10B36000CFAE009D31465046FFF7A8F900F13003FB
:10B3700005F8013B009AAA1A9345B9DD514600230E
:10B380000A22204600F0B3F88246EBE7765006002A
:10B390007F3F0600004870476CA5002000000000B9
:10B3A00001F0FF01102A2BDB10F0070F08D010F876
:10B3B000013B013A8B422DD010F0070F42B3F6D17A
:10B3C000F0B441EA012141EA014122F007047FF093
:10B3D00000070023F0E80256083C85EA010586EAEA
:10B3E000010685FA47F5A3FA87F586FA47F6A5FA26
:10B3F00087F68EB9EED1F0BC01F0FF0102F0070232
:10B4000032B110F8013B013A83EA010313B1F8D1DC
:10B410000020704701387047002D06BF35460338BD
:10B42000073815F0010F07D1013015F4807F02BFF6
:10B43000013015F4C03F0130F0BC0138704700BF47
:10B44000014800F081BC00BFD4A30120014800F0F6
:10B450007CBC00BFD4A3012070B5466A04460D46EB
:10B460003EB91020FEF728FBC0E901666062066065
:10B47000C660666AF36883B1636ADB6853F82500C7
:10B48000B8B9012101FA05F6721D9200204600F0BC
:10B49000F0FA60B1C0E901560EE0212204212046F5
:10B4A00000F0E7FA636AF060DB68002BE4D100206B
:10B4B00070BD026843F825200023C0E90333F7E795
:10B4C00070B5466A05460C463EB91020FEF7F4FA00
:10B4D000C0E9016668620660C6603CB16B6A62687A
:10B4E000DB6853F82210216043F8224070BD2DE93B
:10B4F000F0410E69074698460C4601F114000023FE
:10B500000568A9B202FB01814FEA114C2D0C02FB28
:10B5100005C589B2013301EB05419E4240F8041B89
:10B520004FEA1548ECDCB8F1000F1BD0A368B3421A
:10B5300012DC616838460131FFF78EFF2269023262
:10B5400004F10C01054692000C30FEF7C5FA2146C5
:10B550003846FFF7B5FF2C4604EB86030136C3F8E7
:10B56000148026612046BDE8F081030C1B04D3B98A
:10B570000004102310F07F4F04BF0002083310F0C6
:10B58000704F04BF0001043310F0404F04BF80002F
:10B590000233002805DB10F0804F03F1010308BFE0
:10B5A0002023184670470023E4E7036813F00702DE
:10B5B00001460BD0DA0724D4980749BF5B089B08E3
:10B5C00001200B605CBF0B600220704798B2B0B9DD
:10B5D0001B0C102013F0FF0F04BF1B0A08301A07C2
:10B5E00004BF1B0904309A0704BF9B080230DA0726
:10B5F00003D45B0800F1010005D00B6070471046D2
:10B60000E8E7002070472020704710B50C46012164
:10B61000FFF722FF01224461026110BD2DE9F04FC6
:10B6200015460A692B699A42B8BF0B460C46BCBF47
:10B630002C461D462769D5F81090A368616807EB72
:10B640000906B342B8BF013185B0FFF705FF00F12D
:10B65000140101EB86080B46002243451DD304F17B
:10B66000140305F1140203EB870702EB890302932D
:10B670003B1B153B23F00303043304F11505AF42D4
:10B6800038BF04230193029B0392934208D8002EF3
:10B690005ADC066105B0BDE8F08F43F8042BDCE707
:10B6A000B2F800A0BAF1000F24D004F1140E8946BC
:10B6B0004FF0000C5EF8045BD9F800B0ABB21FFA93
:10B6C0008BFB0AFB03B34FEA154BD9F800506344D8
:10B6D0004FEA154C0AFB0BC505EB13459BB243EA39
:10B6E0000543774549F8043B4FEA154CE2D8019BE6
:10B6F00041F803C0039BB3F802900432B9F1000F84
:10B7000020D00B6804F1140C8E464FF0000ABCF8F0
:10B710000050BEF802B009FB05B5AA449BB243EA4B
:10B720000A434EF8043B5CF8043BBEF800501B0C87
:10B7300009FB035303EB1A4367454FEA134AE6D864
:10B74000019D4B5104319EE758F8043D002BA0D1D8
:10B75000013E9CE72DE9F843154612F00302064628
:10B760000F4607D0214C013A002354F82220FFF75E
:10B77000BEFE0746AD1035D0746A3CB91020FEF706
:10B780009BF9C0E9014470620460C460D6F824806B
:10B79000D8F808404CB940F271213046FFF735FF28
:10B7A0000023C8F80800044603604FF00009EB07C7
:10B7B0000AD5394622463046FFF730FF39468046E3
:10B7C0003046FFF77DFE47466D100BD0206838B934
:10B7D000224621463046FFF721FF2060C0F8009046
:10B7E0000446E4E73846BDE8F88300BF8040060021
:10B7F0002DE9F0470C464968236903EB6218A368FA
:10B80000074691464FEA621A08F10106B3423FDB50
:10B810003846FFF721FE0023054600F1140100F130
:10B8200010021846534536DB20692AEAEA7A04F109
:10B83000140319F01F0901EB8A0103EB800C2ED0D1
:10B84000C9F1200E8A460022186800FA09F0024366
:10B850004AF8042B53F8042B9C4522FA0EF2F3D835
:10B86000ACEB0403153B23F00303043304F1150090
:10B87000604588BF0423CA500AB108F10206013EA0
:10B8800038462E612146FFF71BFE2846BDE8F087AB
:10B8900001315B00BAE742F8040F0133C2E7043913
:10B8A00053F8042B41F8042F9C45F9D8E7E730B54D
:10B8B00002690C69121B0ED100F11403143103EB61
:10B8C000840001EB840150F8045D51F8044DA54259
:10B8D00003D005D30122104630BD8342F3D3FAE7EB
:10B8E0004FF0FF32F7E72DE9F84F0C4606461146B8
:10B8F00020461746FFF7DBFF051E08D129463046D4
:10B90000FFF7AAFD0123C0E90435BDE8F88FA4BF05
:10B910003B46274630467968A6BF1C4600250125D0
:10B92000FFF79AFD3E69C560256907F1140104F12E
:10B93000140900F1140E07F1100201EB860C09EB5B
:10B940008505F246002759F8043B52F804BF1FFA58
:10B9500083F817FA8BF71B0CA7EB0808C3EB1B4304
:10B9600003EB28431FFA88F81F144D4548EA0343A8
:10B970004AF8043BE7D82B1B153B23F003030433A1
:10B980001534A54238BF0423194473449E460D461E
:10B9900065450ED30CF10302521A22F0030203395B
:10B9A0008C4538BF00221A4452F8043D7BB1066131
:10B9B000ABE755F8048B17FA88F4221402EB18420F
:10B9C000A4B244EA02444EF8044B1714E0E7013EE7
:10B9D000EAE72DE9F7438946012157EC106B9046C1
:10B9E000FFF73AFDC7F30A550446C7F3130335BB07
:10B9F000002E019328D068460096FFF7D6FD0099E7
:10BA000000B3019AC0F1200302FA03F30B43C240D2
:10BA100063610192019BA361002B14BF02220122EA
:10BA20002261D5B1A5F233450544C9F80050C0F1F3
:10BA30003500C8F80000204603B0BDE8F08343F4A9
:10BA40008013D5E76161E5E701A8FFF7AEFD019B33
:10BA50006361012222612030E3E704EB8203A0F25C
:10BA60003240C9F800001869FFF77FFDC0EB4210B3
:10BA7000DFE713B54A4311460192FEF793F80446F7
:10BA800018B1019A0021FEF735F8204602B010BD2A
:10BA90002DE9F0478E689E4282460C4690461F462E
:10BAA00038D88A8912F4906F32D025680969A5EBDD
:10BAB0000109656905EB450505EBD57501334B4477
:10BAC0006D109D4238BF1D46530531D52946FEF7FE
:10BAD00069F8064650B90C23CAF80030A38943F030
:10BAE0004003A3814FF0FF30BDE8F08721694A464B
:10BAF000FDF7F2FFA38923F4906343F08003A38151
:10BB0000266165614E44A5EB09052660A5603E46A9
:10BB1000BE4200D93E4632462068414600F028F930
:10BB2000A36822689B1B3244A36022600020DBE7ED
:10BB30002A4600F037F906460028E1D1216950462F
:10BB4000FDF7E0FFC7E700002DE9F04F98468B892D
:10BB50001B069DB007460D4614460ED50B6963B90A
:10BB60004021FEF71FF82860286120B90C233B60B4
:10BB70004FF0FF30D1E040236B6100230993202375
:10BB80008DF82930CDF80C803023DFF8A8818DF8AE
:10BB90002A304FF0010923469A4613F8012B0AB1C7
:10BBA000252AF9D1BAEB040B0BD05B462246294675
:10BBB0003846FFF76DFF013000F0AA80099A5A4419
:10BBC00009929AF80030002B00F0A28000234FF079
:10BBD000FF32CDE905230AF1010A049307938DF89A
:10BBE00053301A935446052214F8011B5148FFF7AD
:10BBF000D7FB049AD8B9D00644BF20238DF8533020
:10BC0000110744BF2B238DF853309AF800302A2BAC
:10BC100015D0079A544600204FF00A0C214611F81F
:10BC2000013B303B092B4ED9B0B1079214E0A0EB99
:10BC3000080309FA03F313430493A246D2E7039BD4
:10BC4000191D1B680391002BBBBF5B4242F002022F
:10BC500007930793B8BF049223782E2B0CD16378F7
:10BC60002A2B35D1039B1A1D1B680392002BB8BFEA
:10BC70004FF0FF3302340593DFF8C8A02178032288
:10BC80005046FFF78DFB40B14023A0EB0A0003FABA
:10BC900000F0049B03430134049314F8011B26486D
:10BCA0008DF828100622FFF77BFB002838D0234BA5
:10BCB0001BBB039B073323F0070308330393099B44
:10BCC0003344099367E70CFB02320C460120A5E7D9
:10BCD00000230134059319464FF00A0C204610F852
:10BCE000012B303A092A03D9002BC5D00591C3E7AF
:10BCF0000CFB012104460123F0E703AB00932A4625
:10BD00000F4B04A93846FEF747F8421C0646D6D129
:10BD1000AB895B063FF52CAF09981DB0BDE8F08FED
:10BD200003AB00932A46064B04A93846FEF7D8FA1F
:10BD3000EBE700BF8C40060096400600999D02008C
:10BD400091BA0200924006007047704782B001B974
:10BD500001A942B14BB113780B601278101E18BFC5
:10BD6000012002B070471046FBE76FF00100F8E7D2
:10BD7000884210B501EB020402D98442234607D859
:10BD8000431EA14208D011F8012B03F8012FF8E758
:10BD9000024401468A4200D110BD13F8014D02F859
:10BDA000014DF7E7F8B5074614460E4621B9BDE840
:10BDB000F8401146FDF7F6BE22B9FDF7A3FE254671
:10BDC0002846F8BD00F021F8A0420FD2214638469F
:10BDD000FDF7E8FE05460028F2D031462246FDF781
:10BDE0007BFE31463846FDF78DFEE9E73546E7E74D
:10BDF00049B1FF2A85BF8A2303600A704FF0FF30E4
:10BE000098BF012070470846704751F8043C181F3E
:10BE1000002BBCBF0B58C01870470000044A0549EE
:10BE20001368002B08BF0B46184410601846704773
:10BE3000D4D3002090BB0120FEE700BFFBF7F4BA8B
:10BE4000FBF756BC0649074A074B9B1A03DD043B28
:10BE5000C858D050FBDC00F041F8FBF7F1F90000C6
:10BE60006CF4060090A10020A0D20020FEE7FEE7BF
:10BE7000FEE7FEE7FEE7FEE7FEE7FEE7BFF34F8FD4
:10BE80000549064BCA6802F4E0621343CB60BFF376
:10BE90004F8F00BFFDE700BF00ED00E00400FA0592
:10BEA000034B1868A0F1080358425841704700BF7F
:10BEB00030010010064B1B68082B06D1054B1B6890
:10BEC000032B02D8044AD05C70470020704700BFA3
:10BED0003001001034010010A340060008B5FFF740
:10BEE000DFFF40B14FF080430022C3F80C21C3F8BC
:10BEF0001021C3F83825FFF7D3FF002846D04FF0B4
:10BF00008052694BD2F80414C3F82015D2F80814F3
:10BF1000C3F82415D2F80C14C3F82815D2F810145D
:10BF2000C3F82C15D2F81414C3F83015D2F818142D
:10BF3000C3F83415D2F81C14C3F84015D2F82014F5
:10BF4000C3F84415D2F82414C3F84815D2F82814BD
:10BF5000C3F84C15D2F82C14C3F85015D2F830148D
:10BF6000C3F85415D2F83414C3F86015D2F8381455
:10BF7000C3F86415D2F83C14C3F86815D2F840141D
:10BF8000C3F86C15D2F84424C3F87025FFF792FF6C
:10BF900010B1464B464A1A60FFF78CFF18B1454B6B
:10BFA000FB22C3F81825FFF785FF48B14249434BF0
:10BFB0000A681B6822F00F0203F00F0313430B60A3
:10BFC000FFF778FF18B13E4B4FF400721A60FFF78D
:10BFD00067FF48B14FF08043D3F80024D10744BF36
:10BFE0006FF00102C3F80024364AD2F8883043F4D7
:10BFF0007003C2F88830BFF34F8FBFF36F8F4FF0DD
:10C000001023D3F80C22D2071ED52F4B0122C3F8E0
:10C010000425D3F80024002AFBD04FF01022D2F8D8
:10C020000C3223F00103C2F80C32274B1A46D3F826
:10C0300000140029FBD00021C3F80415D2F8003405
:10C04000002BFBD0FFF71AFFD3F80022002A03DBF6
:10C05000D3F80432002B23DA1B4B0122C3F804254A
:10C06000D3F80024002AFBD04FF010221221C2F88E
:10C070000012D3F80024002AFBD04FF01023122224
:10C08000C3F80422104B1A46D3F800140029FBD041
:10C090000021C3F80415D2F80034002BFBD0D1E7FF
:10C0A0000A4B0B4A1A6008BD00C000408C56004085
:10C0B0004881030000F00040E40E004058020010E8
:10C0C0004096024000ED00E000E00140E8A50020BD
:10C0D0000090D0030228F8B50F462FD1194C1A480A
:10C0E0004FF40043B3FBF2F2013A22802146174A93
:10C0F00019F0CAFB054618B1154AA121FDF782F8CF
:10C10000114E0021304619F099FC0121304619F0FA
:10C11000A5FC304619F0B2FC0E4B326818600E4B8D
:10C120001F602388D2F808158B4204D1064819F005
:10C1300011FC2846F8BDC2F80835F3E700231B8040
:10C14000FFDE00BFFCA50020F4A5002089C102008D
:10C15000A7400600F0D30020E0D3002007EE900AAD
:10C160009FED077AF8EE677A67EE877A9FED057A9A
:10C1700067EE877AFCEEE77A17EE900A704700BF09
:10C1800000007A4400000038052870B53CD1254BEA
:10C19000254E1B78254C264D53B301F080FD012818
:10C1A00012D13068FFF7DAFFD4E90023121843F107
:10C1B0000003C4E900233168D5E90023521843F194
:10C1C0000003C5E9002370BDD6ED007A9FED197A12
:10C1D000F8EE677AF2EE046A67EE877AD4E9002314
:10C1E00087EEA67ABCEEC77A17EE101A5218DEE771
:10C1F00031680846FFF7B2FFD4E90023121843F173
:10C200000003C4E90023D7E70028DCD10A4B1B68F0
:10C2100023B1044B1870094807F038FB084B002283
:10C220001A60D0E794AB0120F0D3002010D4002096
:10C23000E8D3002000007A44E0D30020ECA50020E1
:10C24000D8D3002007EE900A9FED077ADFED076A4A
:10C25000F8EE677A67EE877A87EEA67AFCEEC77A01
:10C2600017EE900A704700BF0000004700007A44B4
:10C2700007B500238DF80730044B1B6813B10DF18F
:10C280000700984703B05DF804FB00BFE0D300202F
:10C2900038B504461546FFF71DFF044B012203F88D
:10C2A000342003EBC4035D6038BD00BFF4D300202D
:10C2B00010B50D4C136824685A1802280B4818BF93
:10C2C000002094429CBF091BCA180123002119F0C9
:10C2D00073FB18B1064AD021FCF794FF054B0122ED
:10C2E0001A60002010BD00BFF0D30020F4A500208C
:10C2F000A7400600D8D3002002284FF00001034BCE
:10C300000348196018BF084619F03CBBD8D3002079
:10C31000F4A5002002284FF0000104D1034B1B6854
:10C32000D3F8040570470B68FFDE00BFF4A50020BA
:10C33000022807D1054B1B68D3F80405044B1B6882
:10C340001844704700231B68FFDE00BFF4A50020DF
:10C35000E8D30020022808B502D000231B68FFDEC6
:10C36000074B1B68D3F80405FFF7F8FE054BD3E92C
:10C370000023121843F100031046194608BD00BF00
:10C38000F4A5002010D4002002280AD1064B1B6817
:10C39000D3F80405814282BF044B1B68C018401AC1
:10C3A000704700231B68FFDEF4A50020F0D30020B7
:10C3B000014B1868704700BFF0D300202DE9F84307
:10C3C00001F06DFC012846D0244E254F254D002458
:10C3D00016F83430002B3BD0022C07D0002019F087
:10C3E000C5FA35E0996024E0002330E03B68002B7B
:10C3F000FAD1DFF87C80404619F0B8FAD8F800305E
:10C40000D3F80405FFF7AAFE174AD3F804C5D2E90A
:10C41000008918EB000849F10009C2E90089134AB4
:10C42000D2E9000110EB0C0041F10001C2E900016A
:10C430000121D3F80425002AD4D10D4819F062FA5D
:10C440000C4B0A2219680220FFF744FE01232B70CF
:10C450000134032CBCD1BDE8F88300BFF4D3002025
:10C46000D8D30020DCD3002010D40020E8D3002053
:10C47000F4A50020E0D30020F8B501F010FC01285D
:10C480005CD02F4E2F4F304D002416F83430002B47
:10C4900051D0022C05D0002019F05CFA4BE08A60E4
:10C4A0003BE03B78002B46D0274819F05FFA29681B
:10C4B0009FED267A264801F20453D3ED007AF8EE78
:10C4C000677AF2EE046A67EE877AD0E9002387EE96
:10C4D000A67ABCEEC77A17EE10CA12EB0C0243F133
:10C4E0000003C0E9002301F20453D3ED007A9FED6D
:10C4F000197A1948F8EE677AD0E9002367EE877A4F
:10C5000087EEA67ABCEEC77A17EE10CA12EB0C02C1
:10C5100043F10003C0E900230122D1F80435002BC8
:10C52000BDD1284619F0EEF90C4B4FF400421968C2
:10C530000220FFF7CFFD0134032CA6D1F8BD00BFC8
:10C54000F4D30020DCD30020F4A5002000007A44BE
:10C5500010D4002000000047E8D30020E0D30020E2
:10C56000BFF34F8F0549064BCA6802F4E0621343DC
:10C57000CB60BFF34F8F00BFFDE700BF00ED00E0D1
:10C580000400FA0507F094B907F093B973B5174E94
:10C59000054615F051F80021084615F091F832785B
:10C5A00022B113490422002015F0F2F804210DEB0A
:10C5B000010015F061F99DF805309DF8044004EB89
:10C5C00003249DF8063004EB03449DF8073004EB88
:10C5D000036415F0C1F815F04BF8B4FBF5F0002337
:10C5E00005FB1040337002B070BD00BF18D40020AE
:10C5F00019D4002008B5044816F035F8002814BFF7
:10C600006FF00600002008BD20D40020084B002257
:10C610001A70084A062302F83030074B02EBC002BA
:10C620000C2101FB00335360104607F02FB900BF07
:10C6300094AB012068D4002010D60020084B0022C3
:10C640001A70084A072302F83030074B02EBC00289
:10C650000C2101FB00335360104607F017B900BFEF
:10C6600094AB012040D4002030D5002083680BB16A
:10C67000406818477047003818BF01207047000015
:10C6800008B515F099FF28B1BDE80840024A5821C5
:10C69000FCF7B8BD08BD00BF2B41060037B5034607
:10C6A000042B104696BF0C4A002252F82320019218
:10C6B0000C240A4A5C4315191355A960FFF7DBFFE8
:10C6C000074A014601A815F0ABFF002814BF6FF020
:10C6D0000600002003B030BDB441060010D6002093
:10C6E0000DC602000428F8B598BF154B044698BF44
:10C6F00053F8205013484FF00C0303FB04F300EBF6
:10C700000306C45472604FF400404FF4FA764FF0C1
:10C710000007E0FB01674FF000034FF47A723046E8
:10C72000394688BF002536F0ABFD22460146284633
:10C7300015F081FF002814BF6FF006000020F8BD3F
:10C74000B441060010D60020042808B59CBF0A4B4F
:10C7500053F82020094B4FF00C0101FB003388BF38
:10C76000002200215960104615F07DFF002814BFFB
:10C770006FF00600002008BDB441060010D600206E
:10C7800037B5042896BF0C4B002353F82030019393
:10C790000C460C231146094A4343D518D054AC60CB
:10C7A000074A01A815F03CFF002814BF6FF00600EF
:10C7B000002003B030BD00BFC841060030D50020C6
:10C7C0003DC602000428F8B598BF154B044698BF33
:10C7D00053F8205013484FF00C0303FB04F300EB15
:10C7E0000306C45472604FF400404FF4FA764FF0E1
:10C7F0000007E0FB01674FF000034FF47A72304608
:10C80000394688BF002536F03BFD224601462846C2
:10C8100015F011FF002814BF6FF006000020F8BDCE
:10C82000C841060030D50020042808B59CBF0A4B3B
:10C8300053F82020094B4FF00C0101FB003388BF57
:10C84000002200215960104615F00DFF002814BF8A
:10C850006FF00600002008BDC841060030D500205A
:10C860002DE9F7430646032922D8DFE801F0262404
:10C8700002143B4B3B483C49C01AC008000440F03E
:10C88000030015F083FA39493948012217F014FEE4
:10C89000384B01220BE0324B32483749C01AC008EE
:10C8A000000440F0030015F071FA324B00221A70B8
:10C8B00003B0BDE8F083314BEBE7314B294DDFF896
:10C8C000C8802A4FDFF8C89000241C70244BED1A52
:10C8D000ED0817F0EEFD2D0445F003050246294949
:10C8E000284615F057FA284815F00EFD78BB1F4F63
:10C8F000DFF8A080DFF878905CBB304617F0D5FDFC
:10C900003B78009302464146284615F056FA1749EF
:10C910000122484617F0D0FD0446EDE7304617F0F7
:10C92000C4FD3B7802464946284615F03CFA397862
:10C93000032006F017FF0D490122404615F034FD93
:10C940000A490B48012217F0B7FD0446CBE7002C3B
:10C95000E4D00E4803B0BDE8F04306F097BF00BF37
:10C96000E4F206005CF30600DC410600E0D600209D
:10C970003C43060040D70020004206000CA60020E1
:10C9800094AB0120254206008CF2060004A600208C
:10C990003742060050420600083808B5062845D838
:10C9A000DFE800F00820364444440400BDE80840B5
:10C9B00016F030BA1E4B1F481F49C01AC0080004A9
:10C9C00040F0030015F0E2F9002017F0EDFE17F03B
:10C9D00047FF0028FBD01AF015FA38BBBDE8084025
:10C9E00016F016BA124B13481449C01AC0080004B6
:10C9F00040F0030015F0CAF916F01EFA104815F0C1
:10CA000010FC17F02DFF88B1BDE8084017F006BFF5
:10CA1000074B08480B49C01AC008000440F0030047
:10CA200015F0B4F9BDE8084016F0F6B908BD00BF2E
:10CA3000E4F206005CF306006F4206008242060044
:10CA40008CF206009442060040292DE9F74F064675
:10CA50000D467BD9DFF81891DFF810818C0900278B
:10CA6000402200214846FDF745F806EB8713DFF822
:10CA700000C103F1400E18685968624603C20833CA
:10CA800073459446F7D198F80020DFF8E8A0002A13
:10CA900051D000228AF80020324A42F0010B32487D
:10CAA0004022494617F0E0FC112846D030B99AF8E8
:10CAB00000201AB92D4B1A78002AF8D10137BC4250
:10CAC000CEDC002C18BF2746C4EB84244FEA841424
:10CAD00004F14004A5F1400108BF0024214408BF2F
