:020000022000DC
:107000000000042055BE02007DBE02007FBE0200CB
:1070100081BE020083BE020085BE020000000000A7
:1070200000000000000000000000000087BE020019
:1070300089BE020000000000000000000000000007
:107040007D0504008BBE0200FD230400550B0400E7
:107050008BBE0200BD01040095FF03002D27050033
:107060008BBE0200950A0400A90A04008BBE020030
:107070008BBE02008BBE02008BBE02008BBE0200E4
:107080003134050095D703008BBE02008BBE020091
:107090008BBE02008BBE0200B51D05008BBE020038
:1070A0008BBE02008BBE0200BD0A0400D10A0400A0
:1070B0008BBE02008BBE020000000000000000003A
:1070C0008BBE02008BBE02008BBE0200692C050045
:1070D000AD0704008BBE02008BBE02000D21040030
:1070E000356105008BBE02007588050000000000B8
:1070F000000000008BBE02000000000039300500D7
:10710000000000000000000000000000000000007F
:10711000000000000000000000000000000000006F
:10712000000000000000000000000000000000005F
:10713000000000000000000000000000000000004F
:10714000000000000000000000000000000000003F
:10715000000000000000000000000000000000002F
:10716000000000000000000000000000000000001F
:10717000000000000000000000000000000000000F
:1071800000000000000000000000000000000000FF
:1071900000000000000000000000000000000000EF
:1071A00000000000000000000000000000000000DF
:1071B00000000000000000000000000000000000CF
:1071C00000000000000000000000000000000000BF
:1071D00000000000000000000000000000000000AF
:1071E000000000000000000000000000000000009F
:1071F000000000000000000000000000000000008F
:1072000010B5054C237833B9044B13B10448AFF3E0
:1072100000800123237010BD40D200200000000038
:107220009097060008B5034B1BB103490348AFF321
:10723000008008BD0000000044D2002090970600A6
:10724000154B002B08BF134B9D46A3F5803A002138
:107250008B460F461348144A121A02F051FC0F4B8A
:10726000002B00D098470E4B002B00D098470020F1
:10727000002104000D000D48002802D00C48AFF397
:10728000008002F0FBFB2000290002F085F902F0EB
:10729000E1FB00BF00000800000004200000000027
:1072A0000000000040D2002018B4012000000000BF
:1072B0000000000010B50121222006F014F9012180
:1072C000242006F010F9054B054801221A70BDE88C
:1072D0001040044A0023022105F061BF4CD3002076
:1072E000D1D90020E093040010B5044601F02AFD36
:1072F000204610BD2DE9F0470121222006F0F3F8C9
:1073000001234FF496514148062205F0EBFC404B17
:107310001978404B002949D03F4991F911000022CA
:107320000828DA809A805A801A80DA819A815A81F4
:107330001A8169DC0E461F46904206F1010605DD02
:1073400096F900C027F802CB0132F5E7334A0E78F0
:1073500016700128498A518014BF102606265670DF
:10736000908093602D4B2E482D4F0ECB00F073FC78
:1073700006F0BEF84FF0000A064641F287384FF09B
:10738000000906F0B5F8841B6AEB4A05A04579EBC5
:10739000050330DA0021222006F0A5F81B4805F08D
:1073A000E5FCBDE8F04701200BF036BE1D48198012
:1073B00090F91170102F27DC86460E468C46082265
:1073C00067450DDD1EF9011F91400132D2B20E4317
:1073D000102A36B208BF00220CF1010C0121EFE7A0
:1073E00001B11E800D4A017811700F2151700021EA
:1073F00051809780B5E7384600F026FD384600F00A
:1074000092FB0028BDD1C5E7BDE8F08718D9002060
:107410008CD200206ED2002038D3002050D3002020
:1074200090D200205CD2002010B58F4890B005F0BB
:10743000BDFD012840F0FF808C4805F088FD8C4B95
:1074400018708C4805F033FD8B4B18708B4805F095
:107450008EFD8B4B8B491870864805F02AFD8A49B2
:10746000844805F036FD8949824805F02AFD01214E
:10747000232006F021F80121232006F034F8012111
:10748000242006F019F80121242006F02CF802230C
:1074900006224FF4E1317E4805F024FC41F28830A9
:1074A0000BF002FB7B4907A805F020FF0A2201210F
:1074B00004A805F059FF04A907A805F07EFF764946
:1074C00005F087FF0A22044601210AA805F04CFFB7
:1074D0000AA9204605F071FF6F4905F07AFF0A22DC
:1074E000044603210DA805F03FFF0DA9204605F035
:1074F00064FF014601A805F01BFF0DA805F0B0FED2
:107500000AA805F0ADFE04A805F0AAFE07A805F03C
:10751000A7FE62490AA805F0F7FD0AA805F06EFF6C
:1075200001A90DA805F004FF0DA95D4805F0E2FDD5
:107530000DA805F095FE5B49554805F087FF5A49AF
:10754000534805F083FF5949514805F07FFF5449DE
:107550000DA805F0B9FD0D9A55494D4805F080FF7D
:107560000DA805F07DFE534B53491A68484805F0B5
:1075700077FF4D49464805F069FF01F009FB01F02E
:10758000CFFA01F0E5FA01F09FFB0021232005F07E
:10759000AAFF0121222005F08FFF0121222005F002
:1075A000A2FF464805F0E2FB4448012306224FF4BF
:1075B000965105F097FB424A42480123002105F00D
:1075C000E4FD414B5A6822B100233E48194605F0BC
:1075D000E6FD3E4A3B480023012105F0D6FD3C4A2A
:1075E00038480023022105F0D0FD1F4805F0DEFCDD
:1075F000044668BB0146242005F075FF2046FFF7CE
:1076000059FE194805F0D2FC0121324805F04BFF24
:107610000023062230484FF4E13105F063FB1E21C0
:107620002E4805F0D8FB0AA805F01AFE01A805F0BF
:1076300017FE10B010BD2A492A4805F0F9FB2A4967
:10764000284805F0FDFB2949264805F001FC0EE716
:107650000021222005F047FF184805F087FB012094
:107660000BF0DAFCCDE700BF2DDA002011DA0020A4
:1076700080D2002009DA002081D2002018DA002010
:1076800094A10020097F0200FD7F0200FB7E020022
:10769000F0D80020D8DF050051420600B4D9002000
:1076A00078D90020EBDF050008E005003FE0050089
:1076B0007FE0050014A400208FE0050018D9002009
:1076C000B5720200D1D9002098A10020F572020005
:1076D000C177020069D9002054D90020F0D90020D8
:1076E000058002002EDA0020A9800200B18002008D
:1076F000014805F0D0BE00BF68D900201FB527485B
:1077000005F054FC012835D1254805F043FC04461A
:10771000244801F021FB81B2A0B201F0F5FA102853
:10772000044611D0204805F022FC844203D21E48B2
:10773000214605F01EFC1C4805F019FC844203D9C3
:107740001948214605F015FC164801F005FB039089
:10775000144801F003FB154B03991B780193144B5C
:107760001B780093134B02461B78134805F079FBF6
:1077700004B010BD0021242005F0B5FE094801F039
:10778000EBFA0390074801F0E9FA039902460B4827
:10779000012304B0BDE8104005F032BB2DDA002013
:1077A0002ADA002084D2002018DA002081D20020BA
:1077B00080D2002095A1002009DA00202EDA0020D6
:1077C0002DE9F0472DED028B012386B006224FF400
:1077D000965105469C489D4C9D4F05F083FA4FF409
:1077E000FA700BF061F99A4800F080F94FF4FA61F1
:1077F000974800F095F94FF4FA700BF055F9954859
:1078000001F0A7FA4FF6FF732381E380A380638022
:1078100023802382E381A38163818F4B8C489C600A
:1078200040F201321A6009229A800ECB00F013FA5E
:1078300005F05EFE4FF0000A064605F059FE42F2E2
:107840000F72B0EB06086AEB4A090023424573EB5E
:107850000903C0F2EA80384600F0F6FA0028ECD0BE
:10786000384600F060F90028E7D1B4F90030013360
:1078700000F0DB80B4F9020035F074FE774B002293
:1078800036F004F836F0D0F9032100EE100A714802
:1078900001F094FB208835F065FE704B002235F036
:1078A000F5FF36F0C1F9022100EE100A694801F037
:1078B0008BFBA2886748042101F00DFB0A26E388B0
:1078C000B3FBF6F300EE103A0521B8EEC00A6148AA
:1078D00001F06EFB22895F48062101F0FCFA628903
:1078E0005C48072101F0F7FAA2895A48082101F003
:1078F000F2FAE2895748092101F0EDFA228A554847
:10790000314601F0E8FA002D5BD0208835F02AFEE0
:10791000524B002235F0BAFF0646A0880F4635F0DC
:1079200021FECDE90401E08835F01CFE4B4B00221E
:1079300035F0ACFFCDE90201608835F013FE474B0E
:10794000002235F0A3FF32463B46CDE90001444911
:10795000444805F085FD4449424805F081FD2088F2
:1079600035F000FE3D4B002235F090FF0646A08822
:107970000F4635F0F7FDCDE90401E08835F0F2FD62
:10798000364B002235F082FFCDE90201608835F0E8
:10799000E9FD324B002235F079FF3246CDE9000196
:1079A0003B462F49314805F05BFD2F492F4805F034
:1079B00057FD642006B0BDEC028BBDE8F0470BF02C
:1079C00073B801250021222005F08DFD1E489FED92
:1079D000288A284E05F0CAF901200BF01DFB002172
:1079E000242005F080FD244B00221A700A24304622
:1079F00005F0A0FB013C38EE008AF8D1B2EE040A93
:107A000088EE000A1348012101F0E4FA5DB1224634
:107A10000B21104801F058FA06B0BDEC028BBDE80E
:107A2000F047FFF76BBE0122F2E7002DCAD01349E1
:107A30000C4805F015FD0C490A4805F011FD0F49E9
:107A40000A4805F00DFDB0E718D900206ED20020DD
:107A500090D2002084D2002050D300200000244087
:107A60009FE00500F0D80020B0F8050054D90020B0
:107A700000000000CDD900204CD30020D2E005004A
:107A8000002310B519460C4A0C480D4C00F022F8A2
:107A90000C4B0022012119705A740B4B20461970AF
:107AA0005A745A82FF2101F041F92046074A0849D9
:107AB000BDE8104001F0BABF18D9002090D20020D4
:107AC00084D200205CD2002038D3002090A1002076
:107AD000E972020010B543714FF47A73A0F8963042
:107AE000002302600171C0F8A03010BD10B504463B
:107AF0004079012806D9012105F0DEFC60790021DA
:107B000005F0F1FC206803685B6998470028F9DA02
:107B10000023A4F88830C4F89030A4F8943010BD45
:107B2000A0F8961070478079704738B504464079C0
:107B3000012802D9002105F0D6FC002584F88850E0
:107B4000206803681B69984780B1206803685B69F7
:107B5000984794F88830E2180133DBB213F0800FB5
:107B6000107218BF012584F88830E9E7B4F8903026
:107B70000133A4F890303DB1B4F894300133A4F847
:107B800094306FF0020038BD94F98800FBE770B5BF
:107B9000083000244FF6FF734AF20105E2B2914229
:107BA0000ED910F8012B5340082203F001065B08A0
:107BB00006B16B40013A12F0FF02F6D10134EDE755
:107BC000180240EA132080B270BD13B590F88810F7
:107BD0000446FFF7DCFF631802121A724B1C54FABA
:107BE00083F302311872607984F88810012802D971
:107BF000012105F078FC206894F88820036804F1DE
:107C000008015B689847206803689B6898470021D3
:107C1000102005F068FC6379012B0ED920680368F9
:107C20009B689847D4F8A030019301994B1E0193AB
:107C30000029FAD1607905F056FC002384F88830D9
:107C400005F056FCB4F89230C4F89C000133A4F857
:107C5000923002B010BD7FB5044604A800E90E00C2
:107C60002379BDF80650BDF808009DF804609DF822
:107C70000520BDF808106DBA40BA002B72D1A37967
:107C8000002B72D1731EDBB2F62B71D8039B62728C
:107C9000013AC4F88C30267265810F2A0DD8DFE8CE
:107CA00002F008080808141F0C0C0C0C0C0C0C0C2F
:107CB0002446A081062384F888302046FFF785FFFC
:107CC0000123E380002004B070BDB3F90030002B25
:107CD000D4BF002301235B42237300236373E9E7CE
:107CE00093F9012022731B88F8E7CA0802F0FE020C
:107CF00009071CBF0132D2B20721A273A08184F808
:107D00008810002592B2AEB2B242D6D9710816F0F0
:107D1000010F33F9110094F8881004EB010608BF35
:107D2000001201313072013584F88810EBE7490008
:107D30000722A173A08184F8882019449942BCD0FD
:107D400094F8880093F9015022181572421CD2B29F
:107D500084F88820224433F8025B1572023084F8DC
:107D60008800EBE76FF00100ADE74FF0FF30AAE7C6
:107D70006FF00200A7E7000038B590F8885004467D
:107D8000A91E2544C9B2FFF702FFAA79EB7943EA9D
:107D90000223984206D0B4F894300133A4F894300A
:107DA000FF2038BD94F90930617A002B06DAB4F867
:107DB00094300133A4F89430FB20F2E7094A0823F9
:107DC00012F8010B81420AD0013B13F0FF03F7D1F7
:107DD000B4F894300133A4F894300120E1E7002096
:107DE000DFE700BFEEE0050070B50021837ACAB27C
:107DF000934212D95508D0F88C40861834F91530C2
:107E0000F67AD2074BBFDBB203F47F4343EA062383
:107E1000334324F815300131E8E770BD10B5002276
:107E2000D1B2847A4B000333B1EB540FDBB20AD2E8
:107E30000344D0F88C101C7A5B7A43EA042321F8BF
:107E400012300132ECE710BD38B504460068036813
:107E50001B699847054605F04BFBD4F89C30C01AC7
:107E6000B4F89630984209D94FF47F43E380B4F8D0
:107E700094300133A4F89430002038BD15F0FF058C
:107E8000FAD094F88930AB4206D084F8895005F0D6
:107E90002FFBC4F89800EFE705F02AFBD4F89830E0
:107EA000C01A0428E8D9002584F889502046FFF735
:107EB0003CFE052806DCB4F89430A5710133A4F823
:107EC0009430DAE72046FFF757FF10B1A57140B2B2
:107ED000D3E7637A022B04D833B12046FFF784FF3F
:107EE00002E0033B012B04D9002394F98800A3711D
:107EF000C3E72046FFF792FFF6E7014610B92420BA
:107F000005F0F1BA704700002DE9F041344F354ECD
:107F100004460025237AAB4207DD636839465A5D83
:107F2000304605F09DFA0135F4E72F492D4805F05C
:107F300076FA2378002B50D063681A78AA2A4CD19D
:107F40005A78552A49D19A780F2A26D1274A0021F2
:107F50001170D978264A117001390F293DD8197945
:107F600093F90400507401390F2936D8191DC3F153
:107F7000FF2303F57F03FC335C18A04202F10102EA
:107F800003DD11F8014F1470F6E7BDE8F041194820
:107F900000236422012105F002B9062A01D0102A2B
:107FA0001BD1124A01211170D978134A117001397D
:107FB0000F2912D81979518293F905305374590059
:107FC00000231E469942E0DD02EB63056E70606897
:107FD00018440233C0796870F4E7BDE8F08100BF4F
:107FE00017190600F0D80020B0F805008CD2002048
:107FF0005CD20020D1D9002038D3002000212420D9
:1080000005F071BAF0B585B004AB03E90700214F64
:10801000019C214E00259DF80830AB4206DD625DD3
:108020003946304605F01CFA0135F4E71B491A4879
:1080300005F0F5F92378AA2B2AD16378552B27D19F
:10804000A3780F2B24D1E278154B1A70013A0F2A2E
:108050001ED8227994F904105974013A0F2A17D8BE
:10806000221DC4F1FF2404F57F04FC34A0188142D2
:1080700003F1010303DD12F8010F1870F6E7094858
:1080800000236422012105B0BDE8F04005F087B867
:1080900005B0F0BD17190600F0D80020B0F80500B3
:1080A0005CD20020D1D900200021242005F01BBA89
:1080B0007047000013B500240DF107008DF807404C
:1080C000FFF77EFB084B214622201C7005F00BFABF
:1080D000064804F04BFE01200AF09EFF21462320B3
:1080E00005F001FA02B010BD5CD3002018D90020C1
:1080F00030B599B0144609490EA805F0F7F80023E9
:10810000CDE91433CDE91633636E012B0AD104494E
:10811000206802F041FA38B1022486E3B2F8050083
:10812000C0FA0500002BF7D1B649B748B74D05F0A6
:1081300097F9B749B44805F093F9B249B54805F045
:108140008FF9B349B34805F08BF964200AF0ACFC11
:10815000B14911A804F0D8FF11A90EA805F0D9F86B
:1081600011A805F07DF80EA805F048F90E9AAB4964
:10817000A54805F075F9A649A34805F071F90E9ACE
:10818000A649A44805F06CF9A149A24805F068F990
:1081900064200AF089FCA24911A804F095FF119A05
:1081A000A049994805F05CF911A805F059F89849DB
:1081B000954805F055F99A4911A804F085FF119AE0
:1081C0009849944805F04CF911A805F049F89049F0
:1081D000904805F045F964200AF066FC4FF47A7483
:1081E0006A689149B2FBF4F2874805F039F9884989
:1081F000854805F035F96A688B49B2FBF4F2854889
:108200008A4D05F02DF98249824805F029F964204C
:108210000AF04AFC4FF4967285497B4805F020F934
:108220007B49794805F01CF94FF4967280497948EA
:1082300005F016F97649774805F012F964200AF03E
:1082400033FC7C4804F0B2FE7B4955F820200446FC
:108250006D4805F005F96E496B4805F001F955F8D0
:10826000242075496B4805F0FBF86949694805F019
:10827000F7F864200AF018FC012C40F0F1826F48F6
:108280006F4D704C04F071FE6F49002814BF2A46F0
:1082900022465D4805F0E4F85D495B4805F0E0F8EA
:1082A000664804F062FE6849002814BF2A46224648
:1082B0005848664D05F0D4F85549564805F0D0F8B1
:1082C00064200AF0F1FB624804F064FE6149044650
:1082D00002464D4805F0C4F84D494B4805F0C0F83A
:1082E00022465C494B4805F0BBF84949494805F02E
:1082F000B7F864200AF0D8FB55F8242056494248C4
:1083000005F0AEF84249404805F0AAF855F8242097
:108310005149404805F0A4F83D493E4805F0A0F811
:1083200064200AF0C1FB4D4804F018FE0446002802
:1083300000F054814A49344805F092F834493248F3
:1083400005F08EF84649334805F08AF8304931483F
:1083500005F086F864200AF0A7FB082214A941481A
:1083600004F0E3FD9DF8573005939DF856300493D3
:108370009DF8553003939DF8543002939DF8533087
:1083800001939DF852309DF85020374900931E48C4
:108390009DF8513005F064F81D491B4805F060F860
:1083A0009DF8573005939DF8563004939DF855304D
:1083B00003939DF8543002939DF8533001939DF838
:1083C00052309DF850202849009312489DF85130B2
:1083D00005F046F80E490F4805F042F864200AF00F
:1083E00063FB082214A9214804F07BFD9DF8573057
:1083F00005939DF8563004939DF8553003939DF8EE
:10840000543035E001E10500F0D8002098A10020AB
:10841000B0F8050054D90020A8D9002010E10500CB
:108420006CD90020BBE605001BE10500A0A10020DF
:108430002BE105002DDA00203FE1050014DA0020D1
:1084400094F50500F6E005004FE10500ACA1002021
:108450002ADA00205AE1050065E1050013DA002060
:1084600070E105000EDA00207AE105000ADA00204A
:1084700002939DF8533001939DF852309DF850209F
:108480005049009350489DF8513004F0E9FF4F499E
:108490004D4804F0E5FF9DF8573005939DF85630A0
:1084A00004939DF8553003939DF8543002939DF842
:1084B000533001939DF852309DF85020414900936C
:1084C00043489DF8513004F0CBFF4049404804F048
:1084D000C7FF64200AF0E8FA102214A93D4804F00E
:1084E00009FD9DF85F300D939DF85E300C939DF86B
:1084F0005D300B939DF85C300A939DF85B300993D7
:108500009DF85A3008939DF8593007939DF85830DC
:1085100006939DF8573005939DF8563004939DF8C7
:10852000553003939DF8543002939DF853300193D6
:108530009DF852309DF850202749009322489DF81D
:10854000513004F08DFF21491F4804F089FF9DF848
:108550005F300D939DF85E300C939DF85D300B936A
:108560009DF85C300A939DF85B3009939DF85A3072
:1085700008939DF8593007939DF8583006939DF85D
:10858000573005939DF8563004939DF8553003936A
:108590009DF8543002939DF8533001939DF852306A
:1085A00000939DF850209DF851300B49084804F085
:1085B00057FF0649064804F053FF64200AF074FA96
:1085C000002432E1A2E10500F0D80020B0F8050057
:1085D00054D900200BDA0020CAE1050096499748DB
:1085E00004F03EFF9649954804F03AFF92499548B9
:1085F00004F036FF9249934804F032FF64200AF0F9
:1086000053FA102214A9904804F07DFC9DF85F30C5
:108610000D939DF85E300C939DF85D300B939DF8A3
:108620005C300A939DF85B3009939DF85A300893AB
:108630009DF8593007939DF8583006939DF85730B0
:1086400005939DF8563004939DF8553003939DF89B
:10865000543002939DF8533001939DF852309DF8A9
:1086600050207A49009375489DF8513004F0F8FE87
:108670007349724804F0F4FE9DF85F300D939DF845
:108680005E300C939DF85D300B939DF85C300A933F
:108690009DF85B3009939DF85A3008939DF8593046
:1086A00007939DF8583006939DF8573005939DF831
:1086B000563004939DF8553003939DF8543002933F
:1086C0009DF8533001939DF852309DF850205F493A
:1086D00000935C489DF8513004F0C2FE5849594857
:1086E00004F0BEFE64200AF0DFF9102214A95848F5
:1086F00004F024FC9DF85F300D939DF85E300C93E0
:108700009DF85D300B939DF85C300A939DF85B30CB
:1087100009939DF85A3008939DF8593007939DF8B6
:10872000583006939DF8573005939DF856300493C2
:108730009DF8553003939DF8543002939DF85330C3
:1087400001939DF852309DF85020424900933B48D8
:108750009DF8513004F084FE3949384804F080FE19
:108760009DF85F300D939DF85E300C939DF85D3061
:108770000B939DF85C300A939DF85B3009939DF84C
:108780005A3008939DF8593007939DF85830069356
:108790009DF8573005939DF8563004939DF8553059
:1087A00003939DF8543002939DF8533001939DF844
:1087B00052309DF850202749009322489DF85130AF
:1087C00004F04EFE1E491F4804F04AFE64200AF0E1
:1087D0006BF9042214A9204804F09EFB9DF8533045
:1087E00001939DF852309DF850201C490093134886
:1087F0009DF8513004F034FE1149104804F030FE69
:108800009DF8533001939DF8523000939DF850200D
:108810009DF8513011490B4804F022FE08490948DF
:1088200004F01EFE64200AF03FF90EA804F018FDC3
:10883000204619B030BD00BF12E20500F0D800207C
:10884000B0F8050054D900200CDA00201BE2050026
:1088500010DA002064E205000DDA0020ACE2050029
:108860007448002C40F09B8004F0BEFA7249024626
:10887000724804F0F5FD7249704804F0F1FD6D484E
:1088800004F0B2FA6C4902466E4804F0E9FD6C4906
:108890006C4804F0E5FD64200AF006F96A4804F02B
:1088A000A5FA6A490246654804F0DAFD644963485E
:1088B00004F0D6FD644804F099FA64490246614820
:1088C00004F0CEFD5E495F4804F0CAFD64200AF062
:1088D000EBF85F4804F08CFA5E490246574804F012
:1088E000BFFD5749554804F0BBFD594804F080FAD4
:1088F00058490246534804F0B3FD5149514804F029
:10890000AFFD64200AF0D0F8534804F073FA5349DD
:1089100002464A4804F0A4FD4949484804F0A0FD35
:108920004D4804F067FA4D490246464804F098FD68
:108930004349444804F094FD64200AF0B5F84848DF
:1089400004F05AFA474902463C4804F089FD3C4984
:108950003A4804F085FD424804F04EFA4149024687
:10896000384804F07DFD3649364804F079FD64202E
:108970000AF09AF83C4804F041FA3C4902462F4874
:1089800004F06EFD2E492D4804F06AFD364804F0CF
:1089900035FA364902462B4804F062FD3EE704F002
:1089A00023FA25490246254804F05AFD2449234864
:1089B00004F056FD1F4804F017FA1F4902462148EB
:1089C00004F04EFD1E491F4804F04AFD64200AF0E1
:1089D0006BF8274804F028FA26490246174804F0A5
:1089E0003FFD1749154804F03BFD214804F01CFAEF
:1089F00020490246134804F033FD1149114804F0A0
:108A00002FFD64200AF050F81B4804F00FFA1B49B0
:108A100002460A4804F024FD0949084804F020FDF4
:108A2000154804F003FA15490246064804F018FDFB
:108A3000BFE500BF39DA0020C5E20500F0D800200C
:108A4000B0F8050054D900203ADA0020D4E205003D
:108A50003BDA0020DCE205003CDA0020E4E205001D
:108A60003DDA0020ECE205003EDA002001E30500DB
:108A700042DA00200FE3050043DA00201CE3050082
:108A800038B5536E012B06D11D49106801F084FDE5
:108A900018B102202EE0002B2DD11A4B1B7863BB9E
:108AA000194B1A7802F0FF043ABB01251749184800
:108AB0001D7004F0D5FC1749154804F0D1FC13498A
:108AC000154804F0CDFC1349134804F0C9FC642098
:108AD00009F0EAFF2946222004F005FD294623205B
:108AE00004F001FD0D48234641F28832032104F0D1
:108AF00056FB002038BDFCDDCBE70320FAE700BFC2
:108B0000C0FA05004CD300205CD300202AE3050006
:108B1000F0D80020B0F8050054D90020D1D90020A9
:108B200007B503230193054B0093054A054B0649FE
:108B3000064804F008FB03B05DF804FBE98B020073
:108B400048E305003AE305009BE30500CED9002089
:108B500013B5094C094A00230321204604F015FBF4
:108B600003230193064B0093064A074B0749E01E77
:108B700004F0E9FA02B010BDD1D90020B58002009E
:108B8000818A0200AFE30500A3E30500BBE3050013
:108B900007B502230193054B0093054A054B06498F
:108BA000064804F0D0FA03B05DF804FBF18002003F
:108BB000CFE30500C1E30500E6E30500CED90020C0
:108BC00008B50021064A0748082304F0D4FA0146F4
:108BD00020B9034A0348082304F0CDFA012008BD58
:108BE00098A10020CFD900202DE9F843536E012B26
:108BF0000E4603D002242046BDE8F88315682A49B2
:108C0000DFF8C090284601F0C7FC4F46D9F8048031
:108C10000446E8B932464FF47A752449B8FBF5F3B7
:108C2000234804F01DFC2349214804F019FCD9F81D
:108C300004301E49B3FBF5F332461F4804F010FC24
:108C40001C491D4804F00CFC642009F02DFFD2E7FC
:108C5000284601F0ABFC2A462844904205D012F881
:108C6000013B303B092BF8D9C4E70A2200212846F2
:108C700001F020FD4FF47A735843104B9842B9D954
:108C8000786000210E4804F094FA7A6822B100233B
:108C90000B48194604F083FA7B68984501D0FFF72A
:108CA0008FFF0024A7E700BFC0FA0500EDE3050031
:108CB000F0D80020B0F8050054D90020BF270900E3
:108CC000D1D9002098A1002037B50024AA250C484E
:108CD0008DF8005008236A462146019404F041FAB9
:108CE00048B19DF80030AB42064B06D01D705C6069
:108CF000FFF766FF204603B030BD019A5A60FAE7DD
:108D0000CFD9002098A1002010B5074B53F82020A0
:108D1000002332F813408C42D8B203D80133102B11
:108D2000F7D1184610BD00BF60A2002038B5044638
:108D3000002508462171A57100F0C4FE6571206010
:108D4000204638BD10B50446006800F0C3FE20463A
:108D500010BD002343717047407970470068704729
:108D60008E294ED8702903D8032943D80120704793
:108D700071391D2945D801A353F821F06D8D0200EA
:108D8000038E02006D8D02006D8D02006D8D02005C
:108D90006D8D0200038E02006D8D02006D8D02004C
:108DA000038E0200038E0200038E02006D8D02000E
:108DB000038E0200038E02006D8D0200038E0200FE
:108DC0006D8D02006D8D02006D8D02006D8D0200B3
:108DD0006D8D02006D8D02006D8D0200038E02000C
:108DE000038E0200038E0200038E0200038E020037
:108DF0006D8D0200A1F1640004288CBF00200120C9
:108E000070470020704700BF882918D8702906D8FD
:108E100003290FD8012994BF002001207047713920
:108E20000123C9B203FA01F1064B194214BF012014
:108E300000207047A1F16703584258417047002055
:108E4000704700BF0101A000F8B504460D461E465C
:108E5000FFF786FF10B90223A371F8BD8E2D98BFCE
:108E6000174B607998BF595D94F804C094BF154BB7
:108E7000002100EB010707F1010794BF33F815301B
:108E80000B46674503DB0123A3710020E5E773432D
:108E90002668471C6771325462792068561C6671D7
:108EA0008554002001306279C5B28D420A4404D84D
:108EB0002568121AAB541B0AF4E7D0B26071CCE7F4
:108EC00054E40500E4E4050008B513460A46002111
:108ED000FFF7BAFF08BD08B513460A467D21FFF724
:108EE000B3FF08BD2DE9F84304460E46FFF738FFEF
:108EF00018B90223A371BDE8F8838E2E98BF2A4BC0
:108F000094F8058098BF9F5D207994BF274B002778
:108F100008EB070101F1010194BF33F816303B461D
:108F2000814203DB0123A3710020E4E707EE903ABE
:108F3000B5EEC00AF1EE10FAF8EEE77A48BFB1EEEE
:108F4000400A27EE800A3146FCEEC07A20464CBF2C
:108F50004FF001094FF0000917EE905AFFF754FF48
:108F600040B1B9F1000F05D0F90001238B40591E23
:108F70000D405D1B236808F10101617103F80820B1
:108F800063792268591C6171D654002201326379D9
:108F9000D1B2B9423B4404D821689B1ACD542D0A62
:108FA000F4E7D8B26071A6E754E40500E4E40500F4
:108FB00008B50A460321FFF795FF08BD08B50A4624
:108FC0006721FFF78FFF08BD08B50A466821FFF744
:108FD00089FF08BD08B50A467421FFF783FF08BD65
:108FE00003F0D8BA03F0D8BA13B50B4C23780BB9F9
:108FF00000F07EF82B232A22CDE9003207482D23EA
:109000002C22002100F010FB00F058FB23780BB954
:109010000123237002B010BD5DD3002034A50120D0
:109020002920704709F055BDF8B50C462F2C9DF846
:109030001850079F0646114605DC631C047002D0D9
:1090400012B1012A12D0F8BD012D0DD0022D01D090
:1090500025B90221204609F091FEB5722046002173
:10906000BDE8F84009F088BE2946F3E7204609F03C
:1090700083FE391E204618BF0121BDE8F84009F0E3
:109080007FBE38B5044690F900002F281D4615DC38
:10909000A3B1022923610DD003290DD001290DD1DF
:1090A000032109F071FE94F900002946BDE838401B
:1090B00009F06CBE0521F4E70621F2E738BD90F90E
:1090C00000002F2806DC431C04D0003918BF012102
:1090D00009F056BE704708B590F900002F2804DC4F
:1090E000431C02D009F04EFE08BD0020FCE7000042
:1090F00010B5054C23782BB90449022009F010FF64
:109100000123237010BD00BF5ED3002095B903007A
:1091100010B5022009F00CFF064B1A6818600446CF
:1091200000219442596002D203F04AF904442046D7
:1091300010BD00BF60D30020014B1868704700BF0E
:1091400060D300200A20704709F0E8BE09F0E4BEB1
:10915000022009F0EBBE000007B50190022003F0E9
:10916000D3F8044A0199022003B05DF804EB09F03A
:10917000DBBE00BF60D30020FFF7EEBF022003F08C
:10918000DFB8000008B5034B02201A68002309F07D
:10919000D3FE08BD60D3002070B50646022009F05A
:1091A000C9FE4FF47A72002305460C4634F08CFD5C
:1091B0000023328028464FF47A72214634F084FD31
:1091C00070BD10B50C4608F031FB2046BDE81040DC
:1091D00008F03EBB38B50C46054608F021FB286078
:1091E00008F030FB206038BD704708B513F024FD4F
:1091F00013F012FB0028FBD1642009F06AFCBDE8E3
:10920000084002F03CBE08B5022009F091FE08BDFE
:1092100008B507480B460749401AC008000406492C
:1092200040F0010013F049FCBDE80840FFF7DDBF46
:109230008C9906001499060002E6050013B50B464A
:10924000084C09490092641AE408240402460749BC
:1092500044F0010013F03BFC02B0BDE81040FFF702
:10926000C4BF00BF8C9906001499060008E60500EB
:1092700008B507484FF4004113F04EFA18B1054AFB
:109280007121FFF7C5FFBDE8084013F085B900BFA5
:10929000079202003AE6050013B503780B2B12D8AB
:1092A000DFE803F0135C82A8B111B9B9BD06D9DDBE
:1092B0000479204608F0C8F9204608F06FF900212B
:1092C000204608F0C9F902B010BD012008F0BCF931
:1092D00001282ED1002008F0B7F90128F3D0002092
:1092E0000AF0B2F80028EEDD012201A9002009F001
:1092F0005BFF002008F0A8F904460028EFD10AF02F
:109300006BF818BB9DF8041008F0B4F8E7E70122E9
:1093100001A9104609F048FF012008F095F940B96D
:1093200001200AF059F850B99DF80410012008F006
:10933000A1F801200AF088F80028E8DCCAE7012833
:10934000F7D19DF8041009F09DFFF2E70128C6D17E
:109350009DF80410204609F095FFC0E7032008F0AF
:1093600073F90128AFD003200AF06EF80028AADDB7
:10937000012201A9032009F017FF032008F064F976
:109380000028F0D103200AF027F828B99DF804102E
:10939000032008F06FF8E6E70128E4D19DF80410F7
:1093A000032009F06FFFDEE7042008F04DF90128E3
:1093B00089D004200AF048F8002884DD012201A9A0
:1093C000042009F0F1FE042008F03EF90028F0D155
:1093D00004200AF001F828B99DF80410042008F0D0
:1093E00049F8E6E70128E4D19DF80410042009F0CB
:1093F00049FFDEE71C4B1B6E03B198470BF0F4FAF4
:1094000005F03CF85FE7194B1B68002B3FF45BAF9E
:109410004068984757E740680AF0F0F853E705209E
:1094200008F012F901283FF44EAF05200AF00CF8BD
:1094300000287FF748AF012201A9052009F0B4FEFA
:10944000052008F001F90028EFD19DF8041005204F
:1094500008F010F8E9E7002009F078FD33E74068EC
:1094600009F09AFC2FE700BFD8040600689C012091
:1094700070B54FF0804390B000240126CDE904443C
:10948000CDE9024406948DF81C40C3F8786516F0C7
:1094900011FBFFF7EDFE374B37483849C01AC008BB
:1094A000374B00041A6840F0030013F0FDFA0AF08D
:1094B00087F809F011FB09F03BFA09F023FD0322BC
:1094C000104623462146CDE9004409F041FD09F04C
:1094D00087FA09F0BFFA032003F078FB08F0D8F907
:1094E00023460546014603222046CDE9004409F003
:1094F0002FFD2346032229463046CDE9004409F0DA
:1095000027FD08210DEB010004F020FA9DF80F3033
:109510009DF80D201B49009308A89DF80E3001F01E
:109520001BF808A801F042F8C1B208A809F066FAD1
:109530000C2104A808F084FA04A809F061FA234673
:10954000032229460520CDE9004409F001FD08F079
:1095500087FA05F0D1FDE5B2284608F075F810B994
:10956000284608F01BF80134062CF4D10AF00CF858
:1095700010B070BD149906008C990600B7E605007E
:1095800014A40020C7E6050008B512F055FBBDE89D
:1095900008400AF007B8000007B5FFF769FF194B4C
:1095A00019481A49C01AC008000440F0030001908D
:1095B00013F076FA02F04AFC1549019813F070FA9C
:1095C000144809F0B5FD04F0DDF901280DD002289A
:1095D0000DD010B9104809F0ABFD104CFFF7D4FFC7
:1095E000237833B902F034FCF8E70D48F3E70D486F
:1095F000F1E708F06DF80028F0D0002009F054FCE5
:10960000ECE700BF149906008C990600D8E6050027
:10961000E2E60500F1E6050005E7050068D3002055
:1096200011E705001CE705002DE9F3410C46002574
:10963000064600F8044B02249DF9208011461F467F
:1096400022462B46CDE9004511F0A4FF2B462246C9
:10965000394606F11800CDE9004511F09BFF06F1EF
:109660002C00CDE900452B462246414611F092FFE1
:10967000204602B0BDE8F04109F056BF7FB5002397
:10968000ADF80E108DF8173020B90A4A0A48492162
:10969000FFF7BEFD01220023CDE900230DF10E01ED
:1096A0000DF11703022009F057FF9DF8170007B0CE
:1096B0005DF804FB23E705005EA55EA573B5174DB5
:1096C00001240023CDE90034224628462A2111F046
:1096D00061FF002300932246A5F1A40001942621F6
:1096E00011F058FF02260023CDE900631A46A5F1C8
:1096F00090002E2111F04EFF0023CDE900631A46A1
:10970000A5F17C002F2111F045FF2346324621466A
:10971000252002B0BDE8704009F02CBB74A50120E3
:10972000034603220148012111F03CBFF8A40120A7
:109730004FF42071012011F057BD0A20704701201D
:1097400011F046BD014B1878704700BF69D3002067
:10975000014B1870704700BF69D3002010B50A4C48
:109760000A2011F015FF0021204611F01DFF1420E2
:1097700011F00EFF2046012111F016FFBDE8104048
:109780000A2011F005BF00BFD0A4012010B5034C82
:10979000204611F00BFF0128FAD010BDE4A40120EF
:1097A00038B50C4C00212046A4F1400511F0FCFE18
:1097B000C0212846FFF762FF00212846FFF75EFF21
:1097C0000121204611F0F0FEFFF7E0FF024B0122DD
:1097D0001A7038BD74A5012069D30020F8B515466C
:1097E00006460C4611F0FFFA0E480F4F002111F00B
:1097F000DBFE0D483146FFF741FF2544AC4209D15D
:109800000848012111F0D0FE842E09D0BDE8F840AF
:10981000FFF7BCBF14F8011B3846FFF72FFFEDE739
:10982000F8BD00BF74A5012034A50120F8B5154688
:1098300006460C4611F0D7FA0F48104F002111F0E0
:10984000B3FE31460D48FFF719FF0C480021FFF722
:1098500015FF2544C6B2AC4207D10748012111F0DB
:10986000A3FEFFF793FF3046F8BD00213846FFF70F
:1098700005FF04F8010BEEE774A5012034A50120D3
:1098800070B5154606460C4611F0ADFA1048002199
:1098900011F08AFE0D210F48FFF7F0FE310A0D4846
:1098A000FFF7ECFEF1B20B480A4EFFF7E7FE254446
:1098B000AC4207D10648012111F076FEBDE87040A8
:1098C000FFF764BF14F8011B3046FFF7D7FEEFE740
:1098D00074A5012034A5012007B501228DF80710D9
:1098E0000DF10701FFF7CCFF03B05DF804FB0000AA
:1098F00070B5154606460C4611F075FA134800215E
:1099000011F052FE1D211248FFF7B8FE310A10482F
:10991000FFF7B4FEF1B20E480D4EFFF7AFFE0C4854
:109920000021FFF7ABFE2544AC4207D107480121D7
:1099300011F03AFEBDE87040FFF728BF0021304625
:10994000FFF79CFE04F8010BEEE700BF74A50120B1
:1099500034A5012007B501220DF10701FFF7C8FF6B
:109960009DF8070003B05DF804FB0000F8B514464D
:1099700005460E4611F037FA0F48104F002111F03E
:1099800013FE0E210D48FFF779FE29460B48FFF71D
:1099900075FE0025A4B2ABB29C4207D8064801214F
:1099A00011F002FEBDE8F840FFF7F0BE715D3846E9
:1099B000FFF764FE0135EEE774A5012034A5012010
:1099C000F8B5144605460E4611F00DFA1248134F2D
:1099D000002111F0E9FD1E211048FFF74FFE294636
:1099E0000E48FFF74BFE0D480021FFF747FE00250C
:1099F000A4B2ABB29C4207D80748012111F0D4FDB4
:109A0000BDE8F840FFF7C2BE00213846FFF736FE3A
:109A100070550135EDE700BF74A5012034A5012084
:109A2000022111F02FBC7047704770470B4601466A
:109A3000184600F001B8000010B5054C13462CB1D3
:109A40000A4601460220AFF3008010BD2046FCE725
:109A50000000000008B5074B044613B10021AFF326
:109A60000080054B1868836A03B19847204602F0CE
:109A7000EBF900BF0000000090E8050070B50D4D47
:109A80000D4C641BA4100026A64209D10B4D0C4CB2
:109A900034F096FA641BA4100026A64205D170BDCE
:109AA00055F8043B98470136EEE755F8043B9847D4
:109AB0000136F2E7FCD10020FCD10020FCD10020CF
:109AC0000CD20020024B0146186800F071B800BFAC
:109AD00018A40020024B0146186800F019B800BF16
:109AE00018A400200A44914200F1FF3300D17047CE
:109AF00010B511F8014B03F8014F9142F9D110BD97
:109B000002440346934200D1704703F8011BF9E772
:109B100037B5002948D051F8043C0190002BA1F141
:109B20000404B8BFE41801F093FC204A01981368BC
:109B3000154633B96360146003B0BDE8304001F0EE
:109B40008DBCA3420BD921686218934204BF1A68E6
:109B50005B68636004BF521822602C60ECE71A4611
:109B60005B680BB1A342FAD911685518A5420BD115
:109B7000246821445418A3421160DDD11C685B683D
:109B8000536021441160D7E702D90C230360D3E767
:109B9000256861198B4204BF19685B68636004BF64
:109BA000491921605460C7E703B030BD6CD3002071
:109BB000F8B5CD1C25F0030508350C2D38BF0C2554
:109BC000002D064601DBA94203D90C233360002097
:109BD000F8BD01F03DFC21490A6814469CB9204FAC
:109BE0003B6823B92146304600F0A6FC3860294680
:109BF000304600F0A1FC431C23D10C2333603046D7
:109C000001F02CFCE3E723685B1B17D40B2B03D973
:109C100023601C44256004E06368A2420CBF0B6013
:109C20005360304601F01AFC04F10B00231D20F0B4
:109C30000700C21ACCD01B1AA350C9E72246646899
:109C4000CCE7C41C24F00304A042E3D0211A304620
:109C500000F072FC0130DDD1CFE700BF6CD30020F3
:109C600070D300202DE9FF4755EC104B002D0E4618
:109C700019462B46BBBF05F100431D4600232D238B
:109C80000B700D9BDDF830A0914623F02008BCBF7F
:109C900022461446B8F1460F05D0B8F1450F00D161
:109CA0000136022100E0032103AB019302AB0093D4
:109CB00045EC104B5346324600F092FDB8F1470F89
:109CC000074602D119F0010F22D0B8F1460F07EB79
:109CD000060910D13B78302B0AD100220023204600
:109CE000294633F011FF18B9C6F10106CAF8006021
:109CF000DAF800309944002200232046294633F048
:109D000003FF08B1CDF80C903022039B4B4507D3DD
:109D1000039B0E9ADB1B3846136004B0BDE8F08746
:109D2000591C03911A70F0E7F7B503460029B8BF34
:109D3000494203F8022BB4BF2D222B22092942707D
:109D40002ADD0DF10704A4460A27A6460A4691FB20
:109D5000F7F607FB16153035632A04F1FF340EF8C9
:109D6000015C3146F1DC3031AEF1020504F8011C32
:109D7000441C294661450AD30DF10902A2EB0E02EB
:109D8000654588BF00221344181A03B0F0BD11F8CE
:109D9000012B04F8012FEDE7302330318370C170BF
:109DA000031DF1E72DE9F04F2DED028B8DB00C4630
:109DB000DDF8608016461F46054601F0EFFAD0F840
:109DC00000A0504600F0F2FB00230A93236805939D
:109DD000D8F8003094F818B0073323F0070303F1E4
:109DE0000802C8F80020D3E90023C4E91223D4E90B
:109DF000128929F000430793CDF8188008EE100A65
:109E00009F4BDDE906014FF0FF3233F0AFFE88BB18
:109E1000DDE906019A4B4FF0FF3233F089FE48BB73
:109E2000002200234046494633F078FE10B12D232E
:109E300084F84330934B9448BBF1470F94BF984646
:109E4000804603232361059B23F0040222604FF028
:109E50000009009733460BAA2146284600F0D8F99E
:109E6000013040F090804FF0FF300DB0BDEC028B20
:109E7000BDE8F08F42464B464046494633F076FEF9
:109E800040B14B46002BBCBF2D2384F843307F48A4
:109E90007F4BD1E763680BF0DF0206925A1C3FD17B
:109EA00006236360059B616843F48062002303938B
:109EB0000AABCDE901B309AB49EC108B00932260EA
:109EC0000DF123032846FFF7CDFE069B0999472B8A
:109ED000804608D1C81C02DB6368994241DDABF1C2
:109EE000020B5FFA8BFBBBF1650F20D801395A4694
:109EF00004F150000991FFF717FF0A9A1318012A7D
:109F00008146236102DC2268D20701D50133236137
:109F10009DF82330002B9CD02D2384F8433098E704
:109F2000069A472ABED1002BBCD10123B9E7BBF169
:109F3000660F18D1002963680BDD216113B922680F
:109F4000D00702D501330B442361A1654FF000090E
:109F5000DEE713B92268D20701D50233F4E7012303
:109F6000F2E74FF0670B0A9B994205DB23682161FA
:109F7000D807EAD54B1CE7E70029D4BFC1F102029C
:109F800001221344E0E723685A0507D423694246B7
:109F900031462846B84701302CD164E7BBF1650F44
:109FA00040F2E080D4E912010022002333F0ACFD3E
:109FB000002834D0374A012331462846B8470130BB
:109FC0003FF451AFDDE909239A4202DB2368D80749
:109FD00010D518EE103A524631462846B84701309F
:109FE0003FF441AF4FF0000804F11A090A9B013B0E
:109FF000434509DC23689B0700F10581E0680B9B62
:10A000009842B8BF184630E701234A4631462846F1
:10A01000B84701303FF427AF08F10108E6E7099B94
:10A02000002B39DC1B4A012331462846B847013052
:10A030003FF419AFDDE90923134302D12368D9079F
:10A04000D8D518EE103A524631462846B847013066
:10A050003FF409AF4FF0000904F11A0A099B5B4273
:10A060004B4501DC0A9B92E70123524631462846C4
:10A07000B84701303FF4F7AE09F10109EEE700BF40
:10A08000FFFFEF7F94E8050098E80500A0E80500D1
:10A090009CE80500B6FA05000A9AA36D9A42A8BF8B
:10A0A0001A46002A914637DC4FF0000B29EAE9797D
:10A0B00004F11A02A36D0593A3EB09035B4533DC9E
:10A0C000DDE909239A423BDB2368DA0738D40A9A90
:10A0D000059B0999D31AA2EB01099945A8BF994696
:10A0E000B9F1000F35DC4FF0000829EAE97904F1F5
:10A0F0001A0ADDE909239B1AA3EB090343457FF7FD
:10A1000079AF0123524631462846B84701303FF423
:10A11000AAAE08F10108ECE713463146424628464C
:10A12000B8470130C0D19EE601233146284605924A
:10A13000B84701303FF497AE059A0BF1010BB9E730
:10A1400018EE103A524631462846B8470130BED183
:10A1500089E6059A4B46424431462846B8470130C5
:10A16000C1D180E60A9A012A01DCDB0738D5012338
:10A17000424631462846B84701303FF474AE18EEE7
:10A18000103A524631462846B84701303FF46BAE8C
:10A19000D4E912010022002333F0B6FCD8B90A9B9F
:10A1A00008F10102013B31462846B84701300ED183
:10A1B00059E60123524631462846B84701303FF45C
:10A1C00052AE08F101080A9B013B4345F1DC4B46C6
:10A1D00004F15002DCE64FF0000804F11A0AF2E73D
:10A1E00001234246DFE701234A4631462846B84765
:10A1F00001303FF438AE08F10108E3680B995B1AAF
:10A200004345F0DCFAE64FF0000804F11909F4E7E1
:10A210002DE9F047164699468A680B69DDF82080DB
:10A220009342B8BF1346336091F8432007460C466B
:10A230000AB1013333602368990642BF33680233A1
:10A240003360256815F0060506D104F1190AE368A4
:10A2500032689B1AAB4226DC94F84320131E226816
:10A2600018BF012392062BD404F143024946384615
:10A27000C04701301ED02368E568326803F006034A
:10A28000042B08BFAD1AA36822690CBF25EAE57547
:10A2900000259342C4BF9B1AED1800261A34B5421C
:10A2A0001AD1002008E00123524649463846C047EB
:10A2B000013003D14FF0FF30BDE8F0870135C6E72C
:10A2C000E1185A1C302081F84300224494F84510CC
:10A2D00082F843100233C7E7012322464946384635
:10A2E000C0470130E6D00136D9E700002DE9FF472D
:10A2F0000C469146277E0C99782F80469A4604F1A9
:10A30000430207D8622F0AD8002F00F0D880582FB8
:10A3100000F0A38004F1420684F842703AE0A7F10D
:10A320006303152BF6D801A050F823F085A3020093
:10A3300099A3020015A3020015A3020015A30200B1
:10A3400015A3020099A3020015A3020015A30200A1
:10A3500015A3020015A30200A5A40200C9A30200D0
:10A3600087A4020015A3020015A30200C7A40200DF
:10A3700015A30200C9A3020015A3020015A3020041
:10A380008FA402000B681A1D1B680A6004F14206C4
:10A3900084F842300123A3E0256808682E0600F106
:10A3A00004030AD505680B60002D03DA2D236D42E6
:10A3B00084F843305E480A2319E015F0400F056821
:10A3C0000B6018BF2DB2EFE70B682568181D0860F9
:10A3D000280601D51D6802E06906FBD51D88544892
:10A3E0006F2F0CBF08230A23002184F843106668EE
:10A3F000A660002EA2BF216821F0040121600DB9E2
:10A40000002E4DD01646B5FBF3F103FB1157C75D87
:10A4100006F8017D2F46BB420D46F4D9082B0BD11F
:10A420002368DF0708D5236961689942DEBF3023BE
:10A4300006F8013C06F1FF36921B2261CDF800A020
:10A440004B4603AA21464046FFF7E2FE01304CD1BD
:10A450004FF0FF3004B0BDE8F087354884F8457010
:10A4600023680E681F0656F8045B0E6014D5D907E2
:10A4700044BF43F0200323601DB9236823F0200369
:10A4800023601023B0E7236843F020032360782380
:10A49000284884F84530E3E75E0648BFADB2E6E7FA
:10A4A0001646BBE70B68266860691D1D0D60350602
:10A4B0001B6801D5186002E07106FBD518800023E7
:10A4C00023611646BAE70B681A1D0A601E686268A7
:10A4D0000021304600F06CFF08B1801B60606368AB
:10A4E0002361002384F84330A8E7236932464946B4
:10A4F0004046D0470130ABD023689B0713D4E068B7
:10A50000039B9842B8BF1846A4E701233246494648
:10A510004046D04701309BD00135E36803995B1A70
:10A52000AB42F2DCEBE7002504F11906F5E700BFCA
:10A53000A4E80500B5E8050038B5064D002304463B
:10A5400008462B6001F072FC431C02D12B6803B15A
:10A55000236038BD589C01200EB400B59CB01DABE3
:10A56000029006906FF00041094807910491094953
:10A5700053F8042B05910068019302A901F0ECFA4D
:10A58000029B00221A701CB05DF804EB03B0704708
:10A5900018A400200802FFFF10F8012B11F8013B5E
:10A5A000012A28BF9A42F7D0D01A7047034613F801
:10A5B000012B002AFBD1181A013870472DE9F0430E
:10A5C0003B4E86468C4660461CF8014BA55D15F057
:10A5D0000805F8D12D2C34D19CF800404FF001082B
:10A5E00000F1020C002B5ED0102B0CD1302C0AD1C4
:10A5F0009CF8000000F0DF0058284FD19CF8014083
:10A6000010230CF1020C4FF0FF370025B7FBF3F7D6
:10A6100003FB07F96FEA09092846A4F13006092E61
:10A6200018D83446A34224DD002D1FDB87421DD3FA
:10A6300001D1A1451ADB00FB034001251CF8014BA9
:10A64000EBE72B2C08BF9CF80040A84608BF00F1A0
:10A65000020CC7E7A4F14106192E01D8373CE1E707
:10A66000A4F16106192E04D8573CDBE74FF0FF3503
:10A67000E4E7002D07DA2223CEF800304FF0FF3058
:10A6800042B9BDE8F083B8F1000F00D04042002A83
:10A69000F7D00DB10CF1FF311160F2E73024002B3F
:10A6A000B1D10823AFE7302CA2D00A23ABE700BF1B
:10A6B000C7E8050013460A46014602480068FFF74E
:10A6C0007DBF00BF18A400202DE9F74F03690C6976
:10A6D000A3420746C0F28180013C01F1140800F159
:10A6E000140505EB8403019358F8243055F8242011
:10A6F00001339A424FEA840B08EB8409B2FBF3F66C
:10A7000031D34FF0000E4046AC46F24650F8042BD1
:10A7100093B206FB03E34FEA134E9BB2AAEB03038B
:10A72000120CDCF800A006FB02E213FA8AF34FEAEF
:10A73000124E1FFA82FADCF80020CAEB124202EB3A
:10A7400023429BB243EA024381454CF8043B4FEA63
:10A75000224ADBD255F80B302BB9019B043B9D42BA
:10A760001A462ED33C61384601F0A9F8002824DBB4
:10A77000013628464FF0000C58F8042BD0F800E0C2
:10A7800093B2ACEB0303120C13FA8EF3C2EB1E422E
:10A7900002EB23429BB243EA0243C14540F8043B2B
:10A7A0004FEA224CE8D255F8242005EB840322B965
:10A7B000043B9D421A460AD33C61304603B0BDE8D3
:10A7C000F08F1268043B002ACCD1013CC7E7126825
:10A7D000043B002AF0D1013CEBE70020EEE700004B
:10A7E0002DE9F04F2DED028B57EC106B95B0456ABB
:10A7F000DDF880800591CDE90267044609920F9348
:10A800003DB91020FFF75EF9C0E9015560620560AF
:10A81000C560636A196851B15A684A600123934060
:10A820008B60204600F054FE636A00221A603B1ED3
:10A83000B9BF23F0004303930023C8F80030DDF8CC
:10A840000C90B74BBCBF0122C8F8002033EA0903C3
:10A850001BD10F9A42F20F731360C9F313033343F2
:10A8600000F07585219B63B9AE4B25E0AE4B00939C
:10A870000833219A1360009815B0BDEC028BBDE837
:10A88000F08FA84B00930333F3E79DED027B00228A
:10A8900051EC170B00238DED0A7B33F035F9804620
:10A8A00060B10F9A01231360219B002B00F04C85AF
:10A8B0009E4B219A1360013B0093DCE79DED0A0B50
:10A8C00012AA13A9204601F08CF8C9F30A55824652
:10A8D000002D7ED00B9BCDF84080C3F31303DDE940
:10A8E0000A6743F07F5747F44017A5F2FF35904BB6
:10A8F00000223046394632F0E7FC83A3D3E9002337
:10A9000032F09AFE82A3D3E9002332F0DFFC064640
:10A9100028460F4632F026FE7FA3D3E9002332F00B
:10A920008BFE02460B463046394632F0CFFC0646D7
:10A930000F4633F031F90022814600233046394674
:10A9400033F0ECF848B1484632F00CFE32463B4654
:10A9500033F0DAF808B909F1FF39B9F1160F56D812
:10A96000744B03EBC903D3E90023DDE90A0133F09B
:10A97000D5F800284DD009F1FF3900230E93129B22
:10A980005D1B6B1E049343BF0023C5F101080493B4
:10A990004FF00008B9F1000F3DDB049BCDF8349077
:10A9A0004B44049300230693059B092B00F29A80E5
:10A9B000052BC4BF043B0593059BA3F10203CCBF49
:10A9C00000250125032B00F29980DFE803F02C7DA0
:10A9D0007B89DDE912531D4405F23243202BC1BFB0
:10A9E000C3F1400305F2124009FA03F326FA00F01E
:10A9F000DABFC3F1200306FA03F0184332F0A2FDD8
:10AA000001230646A1F1F877013D10936FE701237A
:10AA1000B4E70E90B3E7C9F1000306930023A8EB57
:10AA200009080D93C0E700230893099B002B00F34E
:10AA300085804FF0010BCDF804B05B46CDF824B013
:10AA4000666A00227260042202F114009842716862
:10AA50007AD9204600F008FD636A30601B680093D5
:10AA6000019B0E2B00F2F580002D00F0F280B9F171
:10AA7000000F7DDD2F4A09F00F0302EBC30393EDB6
:10AA8000007B19F4807F4FEA2917B0EE478AF0EE79
:10AA9000678A5DD0284BDDE90A01D3E9082332F04B
:10AAA000F5FECDE9020107F00F070325224E002F26
:10AAB00050D1DDE9020153EC182B32F0E7FECDE96D
:10AAC00002016FE00123AFE700230893099B09EB24
:10AAD000030B0BF10103012B0193B8BF0123AFE777
:10AAE0000123F2E701250023059308954FF0FF3B72
:10AAF0000022CDF804B012230992A1E701230893A4
:10AB0000F4E700BFAFF3008061436F63A787D23FD4
:10AB1000B3C8608B288AC63FFB799F501344D33F4C
:10AB20000000F07FD0E90500C7E90500B7FA05008D
:10AB30000000F83F00EA0500D8E90500DDF824B080
:10AB4000CDF804B05B467BE70131716052007BE7D2
:10AB50000225ABE7F90708D551EC180BD6E900231D
:10AB600032F06AFD41EC180B01357F1008369EE784
:10AB700000F0AB80C9F10006AA4BAB4F06F00F0204
:10AB800003EBC203D3E90023DDE90A0132F054FDEF
:10AB9000CDE90201361100230225002E40F08A8003
:10ABA000002B8CD10E9B002B00F09180DDE9026719
:10ABB0009E4B00223046394632F0B0FF002800F0AC
:10ABC0008680019B002B00F08280BBF1000F3CDDF2
:10ABD00009F1FF3307930022954B3046394632F096
:10ABE0002BFDCDE902010135CDF830B0DDE902677A
:10ABF000284632F0B7FC32463B4632F01DFD8D4B05
:10AC0000002232F063FBA1F15073CDE902010393FE
:10AC10000C9B002B60D1884B00223046394632F025
:10AC200053FBDDE9022306460F4632F095FF00286C
:10AC300040F09982DDE90221304601F100433946B6
:10AC400032F06CFF002840F08B82DDE90A23CDE969
:10AC50000223139B002BC0F25B81B9F10E0F00F3AE
:10AC60005781704B03EBC90393ED007B099BB0EE5A
:10AC7000478AF0EE678A002B80F2E280019B002B6E
:10AC800000F3DE8040F06C826B4B51EC170B00221E
:10AC900032F0D2FCDDE9022332F054FF019E374648
:10ACA000002840F04282009D312305F8013B09F164
:10ACB00001093EE2F20705D5D7E9002332F0BCFCDA
:10ACC000013501237610083767E702256AE7019B03
:10ACD000CDF81C900C9389E700990C980C9A514B75
:10ACE0009DED027B014402910899B0EE478AF0EE97
:10ACF000678A03EBC20353E90223002945D04F4979
:10AD0000002032F0C3FD53EC182B32F0DDFA009D29
:10AD100041EC180B3946304632F03EFF0C9032F0D1
:10AD200021FC02460B463046394632F0CDFA0C9BE8
:10AD3000303305F8013B53EC182B06460F4632F032
:10AD4000EDFE002865D132463B463849002032F0FE
:10AD5000BBFA53EC182B32F0E1FE002840F0B8802B
:10AD6000029B9D423FF471AF314B51EC180B002216
:10AD700032F062FC2E4B41EC180B00223046394673
:10AD800032F05AFC06460F46C4E751EC170B32F07E
:10AD900053FC029B009D0C9341EC180B3946304646
:10ADA00032F0FAFE119032F0DDFB02460B463046DF
:10ADB000394632F089FA119B303305F8013B029B8A
:10ADC0009D4206460F464FF0000225D11B4B51EC29
:10ADD000180B32F07BFA02460B463046394632F009
:10ADE000BBFE002874D153EC182B1449002032F01C
:10ADF0006BFA02460B463046394632F08FFE002889
:10AE00003FF423AF0C9D6B1E0C9315F8013C302BC7
:10AE1000F8D0DDF81C9049E0054B32F00DFC0646F9
:10AE20000F46BBE700EA0500D8E905000000F03F47
:10AE30000000244000001C40000014400000E03FDF
:10AE4000DDE90267009D53EC182B3046394632F09D
:10AE50001DFD32F0A1FE804632F084FB53EC182B2E
:10AE600032F0EAFB02460B463046394608F130061E
:10AE700032F02AFA05F8016B009E019FAE1BB74223
:10AE800002460B4637D132F021FA53EC182B064616
:10AE90000F4632F061FEC8B953EC182B30463946E4
:10AEA00032F032FE10B118F0010F0FD1204651469A
:10AEB00000F00EFB00232B700F9B09F101001860BE
:10AEC000219B002B3FF4D7AC1D60D4E4CDF81C903F
:10AED0002B461D4613F8012D392A08D1009A9A42B3
:10AEE000F7D1079A00990132079230220A701A7836
:10AEF00001321A708DE79E4B002232F09DFB00223A
:10AF0000002306460F4632F0FFFD00289BD0CDE718
:10AF1000089A002A00F0C680059A012A00F3AA8048
:10AF2000109A002A00F0A28003F23343069E4546A1
:10AF3000049A01211A4420469844049200F06DFBC3
:10AF40000746002D0BDD049B002B08DDAB42049A65
:10AF5000A8BF2B46A8EB0308ED1AD31A0493069B4F
:10AF6000FBB1089B002B00F0A180002E11DD3946BB
:10AF70003246204600F0F6FB524601460746204680
:10AF800000F054FB51460790204600F0A1FA079BC1
:10AF90009A46069B9A1B04D05146204600F0E2FBDD
:10AFA00082460121204600F038FB0D9B002B06460F
:10AFB0007EDD1A460146204600F0D4FB059B012B9E
:10AFC000064678DD00230693336906EB8303186990
:10AFD00000F0D3FAC0F12000049B184410F01F00C9
:10AFE00000F08880C0F12003042B40F38180C0F181
:10AFF0001C00049B0344804405440493B8F1000FF3
:10B0000005DD51464246204600F0FAFB8246049B8D
:10B01000002B05DD31461A46204600F0F1FB0646BE
:10B020000E9B002B68D03146504600F048FC0028AB
:10B0300062DA002351460A22204600F060FA089B9B
:10B0400009F1FF398246002B00F088813946002340
:10B050000A22204600F053FABBF1000F074600F326
:10B060008F80059B022B40F38B804DE0129BC3F138
:10B0700036035BE7019B5E1E069BB342BFBF069B88
:10B080000696F21A0D9BB6BF9B189E1B0D93019B53
:10B09000B8BF0026002BB5BFA8EB0305019B00231A
:10B0A000454645E7069E089F45464AE7069A73E7E8
:10B0B000059B012B18DC029BB3B9039BC3F313035D
:10B0C000A3B9039B23F000431B0D1B052BB1049B6D
:10B0D0000133049308F10108012306930D9B002B13
:10B0E0007FF472AF012077E70023F6E7029BF4E7D5
:10B0F00084D018461C307CE7019B002B3ADC059B72
:10B10000022B37DDDDF804B0BBF1000F0DD1314665
:10B110005B460522204600F0F2F9014606465046FD
:10B1200000F0CDFB00283FF7BEAD099B009D6FEA04
:10B1300003094FF000083146204600F0C9F9002FFE
:10B140003FF4B4AEB8F1000F05D0B84503D0414686
:10B15000204600F0BDF93946204600F0B9F9A5E6D1
:10B1600000263746E1E70C9EDDF81C9037469AE54D
:10B1700000002440089BDDF804B0002B00F0F580AF
:10B18000002D05DD39462A46204600F039FB0746EA
:10B19000069B002B55D07968204600F065F93A6986
:10B1A00002320546920007F10C010C30FEF79AFCC2
:10B1B00001222946204600F023FB009B0133019326
:10B1C000009B5B440793029B03F00103B846069380
:10B1D0000746019B3146504603F1FF3BFFF774FAE7
:10B1E00003463033029041465046089300F067FB17
:10B1F0003A4604903146204600F07DFBC268089B29
:10B20000054602BB0146504600F059FB089B02462A
:10B2100029462046CDE9083200F05AF9059B099AE3
:10B22000019D43EA0201069B0B43089B0DD1392B7C
:10B2300027D0049A002A01DD029B31338BF80030BD
:10B2400079E73846B9E70122E2E70499002904DBEF
:10B25000059801430698014320D1002AEEDD5146AE
:10B2600001222046019300F0CBFA3146824600F0DD
:10B2700026FB0028019B02DCE0D1DA07DED5392B62
:10B28000DAD139238BF800302B461D46013B15F8E7
:10B29000012C392A50D001321A704CE7002A03DD04
:10B2A000392BEED00133C9E7019A079902F8013C26
:10B2B0008A422AD0514600230A22204600F01FF974
:10B2C000B84582464FF000034FF00A02414620463F
:10B2D00007D100F014F980460746019B0133019322
:10B2E00077E700F00CF93946804600230A22204611
:10B2F00000F005F90746F0E7BBF1000F009ACCBF5C
:10B300005D46012515444FF00008514601222046B4
:10B31000019300F075FA3146824600F0D0FA002819
:10B32000B2DC02D1019BDB07AED42B461D4613F8DD
:10B33000012D302AFAD0FEE6009A9A42A5D1312397
:10B3400009F101091370F6E6124BFFF7B5BA219B1C
:10B35000002B7FF48BAA104BFFF7AEBABBF1000FA6
:10B3600003DC059B022B3FF7CFAE009D31465046D4
:10B37000FFF7AAF900F1300305F8013B009AAA1A79
:10B380009345B9DD514600230A22204600F0B7F864
:10B390008246EBE7B6FA0500C7E9050000487047AA
:10B3A0006CA500200000000000000000000000006C
:10B3B00001F0FF01102A2BDB10F0070F08D010F866
:10B3C000013B013A8B422DD010F0070F42B3F6D16A
:10B3D000F0B441EA012141EA014122F007047FF083
:10B3E00000070023F0E80256083C85EA010586EADA
:10B3F000010685FA47F5A3FA87F586FA47F6A5FA16
:10B4000087F68EB9EED1F0BC01F0FF0102F0070221
:10B4100032B110F8013B013A83EA010313B1F8D1CC
:10B420000020704701387047002D06BF35460338AD
:10B43000073815F0010F07D1013015F4807F02BFE6
:10B44000013015F4C03F0130F0BC0138704700BF37
:10B45000014800F081BC00BF5C9C0120014800F065
:10B460007CBC00BF5C9C012070B5466A04460D465A
:10B470003EB91020FEF726FBC0E901666062066057
:10B48000C660666AF36883B1636ADB6853F82500B7
:10B49000B8B9012101FA05F6721D9200204600F0AC
:10B4A000F0FA60B1C0E901560EE0212204212046E5
:10B4B00000F0E7FA636AF060DB68002BE4D100205B
:10B4C00070BD026843F825200023C0E90333F7E785
:10B4D00070B5466A05460C463EB91020FEF7F2FAF2
:10B4E000C0E9016668620660C6603CB16B6A62686A
:10B4F000DB6853F82210216043F8224070BD2DE92B
:10B50000F0410E69074698460C4601F114000023ED
:10B510000568A9B202FB01814FEA114C2D0C02FB18
:10B5200005C589B2013301EB05419E4240F8041B79
:10B530004FEA1548ECDCB8F1000F1BD0A368B3420A
:10B5400012DC616838460131FFF78EFF2269023252
:10B5500004F10C01054692000C30FEF7C3FA2146B7
:10B560003846FFF7B5FF2C4604EB86030136C3F8D7
:10B57000148026612046BDE8F081030C1B04D3B97A
:10B580000004102310F07F4F04BF0002083310F0B6
:10B59000704F04BF0001043310F0404F04BF80001F
:10B5A0000233002805DB10F0804F03F1010308BFD0
:10B5B0002023184670470023E4E7036813F00702CE
:10B5C00001460BD0DA0724D4980749BF5B089B08D3
:10B5D00001200B605CBF0B600220704798B2B0B9CD
:10B5E0001B0C102013F0FF0F04BF1B0A08301A07B2
:10B5F00004BF1B0904309A0704BF9B080230DA0716
:10B6000003D45B0800F1010005D00B6070471046C1
:10B61000E8E7002070472020704710B50C46012154
:10B62000FFF722FF01224461026110BD2DE9F04FB6
:10B6300015460A692B699A42B8BF0B460C46BCBF37
:10B640002C461D462769D5F81090A368616807EB62
:10B650000906B342B8BF013185B0FFF705FF00F11D
:10B66000140101EB86080B46002243451DD304F16B
:10B67000140305F1140203EB870702EB890302931D
:10B680003B1B153B23F00303043304F11505AF42C4
:10B6900038BF04230193029B0392934208D8002EE3
:10B6A0005ADC066105B0BDE8F08F43F8042BDCE7F7
:10B6B000B2F800A0BAF1000F24D004F1140E8946AC
:10B6C0004FF0000C5EF8045BD9F800B0ABB21FFA83
:10B6D0008BFB0AFB03B34FEA154BD9F800506344C8
:10B6E0004FEA154C0AFB0BC505EB13459BB243EA29
:10B6F0000543774549F8043B4FEA154CE2D8019BD6
:10B7000041F803C0039BB3F802900432B9F1000F73
:10B7100020D00B6804F1140C8E464FF0000ABCF8E0
:10B720000050BEF802B009FB05B5AA449BB243EA3B
:10B730000A434EF8043B5CF8043BBEF800501B0C77
:10B7400009FB035303EB1A4367454FEA134AE6D854
:10B75000019D4B5104319EE758F8043D002BA0D1C8
:10B76000013E9CE72DE9F843154612F00302064618
:10B770000F4607D0214C013A002354F82220FFF74E
:10B78000BEFE0746AD1035D0746A3CB91020FEF7F6
:10B7900099F9C0E9014470620460C460D6F824805D
:10B7A000D8F808404CB940F271213046FFF735FF18
:10B7B0000023C8F80800044603604FF00009EB07B7
:10B7C0000AD5394622463046FFF730FF39468046D3
:10B7D0003046FFF77DFE47466D100BD0206838B924
:10B7E000224621463046FFF721FF2060C0F8009036
:10B7F0000446E4E73846BDE8F88300BFC8EA050020
:10B800002DE9F0470C464968236903EB6218A368E9
:10B81000074691464FEA621A08F10106B3423FDB40
:10B820003846FFF721FE0023054600F1140100F120
:10B8300010021846534536DB20692AEAEA7A04F1F9
:10B84000140319F01F0901EB8A0103EB800C2ED0C1
:10B85000C9F1200E8A460022186800FA09F0024356
:10B860004AF8042B53F8042B9C4522FA0EF2F3D825
:10B87000ACEB0403153B23F00303043304F1150080
:10B88000604588BF0423CA500AB108F10206013E90
:10B8900038462E612146FFF71BFE2846BDE8F0879B
:10B8A00001315B00BAE742F8040F0133C2E7043903
:10B8B00053F8042B41F8042F9C45F9D8E7E730B53D
:10B8C00002690C69121B0ED100F11403143103EB51
:10B8D000840001EB840150F8045D51F8044DA54249
:10B8E00003D005D30122104630BD8342F3D3FAE7DB
:10B8F0004FF0FF32F7E72DE9F84F0C4606461146A8
:10B9000020461746FFF7DBFF051E08D129463046C3
:10B91000FFF7AAFD0123C0E90435BDE8F88FA4BFF5
:10B920003B46274630467968A6BF1C4600250125C0
:10B93000FFF79AFD3E69C560256907F1140104F11E
:10B94000140900F1140E07F1100201EB860C09EB4B
:10B950008505F246002759F8043B52F804BF1FFA48
:10B9600083F817FA8BF71B0CA7EB0808C3EB1B43F4
:10B9700003EB28431FFA88F81F144D4548EA034398
:10B980004AF8043BE7D82B1B153B23F00303043391
:10B990001534A54238BF0423194473449E460D460E
:10B9A00065450ED30CF10302521A22F0030203394B
:10B9B0008C4538BF00221A4452F8043D7BB1066121
:10B9C000ABE755F8048B17FA88F4221402EB1842FF
:10B9D000A4B244EA02444EF8044B1714E0E7013ED7
:10B9E000EAE72DE9F7438946012157EC106B9046B1
:10B9F000FFF73AFDC7F30A550446C7F3130335BBF7
:10BA0000002E019328D068460096FFF7D6FD0099D6
:10BA100000B3019AC0F1200302FA03F30B43C240C2
:10BA200063610192019BA361002B14BF02220122DA
:10BA30002261D5B1A5F233450544C9F80050C0F1E3
:10BA40003500C8F80000204603B0BDE8F08343F499
:10BA50008013D5E76161E5E701A8FFF7AEFD019B23
:10BA60006361012222612030E3E704EB8203A0F24C
:10BA70003240C9F800001869FFF77FFDC0EB4210A3
:10BA8000DFE713B54A4311460192FEF791F80446E9
:10BA900018B1019A0021FEF733F8204602B010BD1C
:10BAA0002DE9F0478E689E4282460C4690461F461E
:10BAB00038D88A8912F4906F32D025680969A5EBCD
:10BAC0000109656905EB450505EBD57501334B4467
:10BAD0006D109D4238BF1D46530531D52946FEF7EE
:10BAE00067F8064650B90C23CAF80030A38943F022
:10BAF0004003A3814FF0FF30BDE8F08721694A463B
:10BB0000FDF7F0FFA38923F4906343F08003A38142
:10BB1000266165614E44A5EB09052660A5603E4699
:10BB2000BE4200D93E4632462068414600F028F920
:10BB3000A36822689B1B3244A36022600020DBE7DD
:10BB40002A4600F037F906460028E1D1216950461F
:10BB5000FDF7DEFFC7E700002DE9F04F98468B891F
:10BB60001B069DB007460D4614460ED50B6963B9FA
:10BB70004021FEF71DF82860286120B90C233B60A6
:10BB80004FF0FF30D1E040236B6100230993202365
:10BB90008DF82930CDF80C803023DFF8A8818DF89E
:10BBA0002A304FF0010923469A4613F8012B0AB1B7
:10BBB000252AF9D1BAEB040B0BD05B462246294665
:10BBC0003846FFF76DFF013000F0AA80099A5A4409
:10BBD00009929AF80030002B00F0A28000234FF069
:10BBE000FF32CDE905230AF1010A049307938DF88A
:10BBF00053301A935446052214F8011B5148FFF79D
:10BC0000D7FB049AD8B9D00644BF20238DF853300F
:10BC1000110744BF2B238DF853309AF800302A2B9C
:10BC200015D0079A544600204FF00A0C214611F80F
:10BC3000013B303B092B4ED9B0B1079214E0A0EB89
:10BC4000080309FA03F313430493A246D2E7039BC4
:10BC5000191D1B680391002BBBBF5B4242F002021F
:10BC600007930793B8BF049223782E2B0CD16378E7
:10BC70002A2B35D1039B1A1D1B680392002BB8BFDA
:10BC80004FF0FF3302340593DFF8C8A02178032278
:10BC90005046FFF78DFB40B14023A0EB0A0003FAAA
:10BCA00000F0049B03430134049314F8011B26485D
:10BCB0008DF828100622FFF77BFB002838D0234B95
:10BCC0001BBB039B073323F0070308330393099B34
:10BCD0003344099367E70CFB02320C460120A5E7C9
:10BCE00000230134059319464FF00A0C204610F842
:10BCF000012B303A092A03D9002BC5D00591C3E79F
:10BD00000CFB012104460123F0E703AB00932A4614
:10BD10000F4B04A93846FEF745F8421C0646D6D11B
:10BD2000AB895B063FF52CAF09981DB0BDE8F08FDD
:10BD300003AB00932A46064B04A93846FEF7D6FA11
:10BD4000EBE700BFD4EA0500DEEA0500A59D02008E
:10BD5000A1BA0200DAEA05007047704782B001B963
:10BD600001A942B14BB113780B601278101E18BFB5
:10BD7000012002B070471046FBE76FF00100F8E7C2
:10BD8000884210B501EB020402D98442234607D849
:10BD9000431EA14208D011F8012B03F8012FF8E748
:10BDA000024401468A4200D110BD13F8014D02F849
:10BDB000014DF7E7F8B5074614460E4621B9BDE830
:10BDC000F8401146FDF7F4BE22B9FDF7A1FE254665
:10BDD0002846F8BD00F021F8A0420FD2214638468F
:10BDE000FDF7E6FE05460028F2D031462246FDF773
:10BDF00079FE31463846FDF78BFEE9E73546E7E741
:10BE000049B1FF2A85BF8A2303600A704FF0FF30D3
:10BE100098BF012070470846704751F8043C181F2E
:10BE2000002BBCBF0B58C01870470000044A0549DE
:10BE30001368002B08BF0B46184410601846704763
:10BE400074D3002018B40120FEE700BFFBF7ECBA62
:10BE5000FBF74EBC0649074A074B9B1A03DD043B20
:10BE6000C858D050FBDC00F041F8FBF7E9F90000BE
:10BE70009C9A060090A1002040D20020FEE7FEE739
:10BE8000FEE7FEE7FEE7FEE7FEE7FEE7BFF34F8FC4
:10BE90000549064BCA6802F4E0621343CB60BFF366
:10BEA0004F8F00BFFDE700BF00ED00E00400FA0582
:10BEB000034B1868A0F1080358425841704700BF6F
:10BEC00030010010064B1B68082B06D1054B1B6880
:10BED000032B02D8044AD05C70470020704700BF93
:10BEE0003001001034010010EBEA050008B5FFF73F
:10BEF000DFFF40B14FF080430022C3F80C21C3F8AC
:10BF00001021C3F83825FFF7D3FF002846D04FF0A3
:10BF10008052694BD2F80414C3F82015D2F80814E3
:10BF2000C3F82415D2F80C14C3F82815D2F810144D
:10BF3000C3F82C15D2F81414C3F83015D2F818141D
:10BF4000C3F83415D2F81C14C3F84015D2F82014E5
:10BF5000C3F84415D2F82414C3F84815D2F82814AD
:10BF6000C3F84C15D2F82C14C3F85015D2F830147D
:10BF7000C3F85415D2F83414C3F86015D2F8381445
:10BF8000C3F86415D2F83C14C3F86815D2F840140D
:10BF9000C3F86C15D2F84424C3F87025FFF792FF5C
:10BFA00010B1464B464A1A60FFF78CFF18B1454B5B
:10BFB000FB22C3F81825FFF785FF48B14249434BE0
:10BFC0000A681B6822F00F0203F00F0313430B6093
:10BFD000FFF778FF18B13E4B4FF400721A60FFF77D
:10BFE00067FF48B14FF08043D3F80024D10744BF26
:10BFF0006FF00102C3F80024364AD2F8883043F4C7
:10C000007003C2F88830BFF34F8FBFF36F8F4FF0CC
:10C010001023D3F80C22D2071ED52F4B0122C3F8D0
:10C020000425D3F80024002AFBD04FF01022D2F8C8
:10C030000C3223F00103C2F80C32274B1A46D3F816
:10C0400000140029FBD00021C3F80415D2F80034F5
:10C05000002BFBD0FFF71AFFD3F80022002A03DBE6
:10C06000D3F80432002B23DA1B4B0122C3F804253A
:10C07000D3F80024002AFBD04FF010221221C2F87E
:10C080000012D3F80024002AFBD04FF01023122214
:10C09000C3F80422104B1A46D3F800140029FBD031
:10C0A0000021C3F80415D2F80034002BFBD0D1E7EF
:10C0B0000A4B0B4A1A6008BD00C000408C56004075
:10C0C0004881030000F00040E40E004058020010D8
:10C0D0004096024000ED00E000E00140E8A50020AD
:10C0E0000090D0030228F8B50F462FD1194C1A48FA
:10C0F0004FF40043B3FBF2F2013A22802146174A83
:10C1000014F04CFA054618B1154AA121FDF780F844
:10C11000114E0021304614F01BFB0121304614F073
:10C1200027FB304614F034FB0E4B326818600E4B80
:10C130001F602388D2F808158B4204D1064814F0FA
:10C1400093FA2846F8BDC2F80835F3E700231B80B0
:10C15000FFDE00BFFCA50020F4A5002099C102006D
:10C16000EFEA050090D3002080D3002007EE900A6C
:10C170009FED077AF8EE677A67EE877A9FED057A8A
:10C1800067EE877AFCEEE77A17EE900A704700BFF9
:10C1900000007A4400000038052870B53CD1254BDA
:10C1A000254E1B78254C264D53B301F0B2FC0128D7
:10C1B00012D13068FFF7DAFFD4E90023121843F1F7
:10C1C0000003C4E900233168D5E90023521843F184
:10C1D0000003C5E9002370BDD6ED007A9FED197A02
:10C1E000F8EE677AF2EE046A67EE877AD4E9002304
:10C1F00087EEA67ABCEEC77A17EE101A5218DEE761
:10C2000031680846FFF7B2FFD4E90023121843F162
:10C210000003C4E90023D7E70028DCD10A4B1B68E0
:10C2200023B1044B1870094807F0B6F9084B0022F7
:10C230001A60D0E71CA4012090D30020B0D30020C6
:10C2400088D3002000007A4480D30020ECA5002091
:10C2500078D3002007EE900A9FED077ADFED076A9A
:10C26000F8EE677A67EE877A87EEA67AFCEEC77AF1
:10C2700017EE900A704700BF0000004700007A44A4
:10C2800007B500238DF80730044B1B6813B10DF17F
:10C290000700984703B05DF804FB00BF80D300207F
:10C2A00038B504461546FFF71DFF044B012203F87D
:10C2B000342003EBC4035D6038BD00BF94D300207D
:10C2C00010B50D4C136824685A1802280B4818BF83
:10C2D000002094429CBF091BCA180123002114F0BE
:10C2E000F5F918B1064AD021FCF792FF054B01225F
:10C2F0001A60002010BD00BF90D30020F4A50020DC
:10C30000EFEA050078D3002002284FF00001034B2C
:10C310000348196018BF084614F0BEB978D300204E
:10C32000F4A5002002284FF0000104D1034B1B6844
:10C33000D3F8040570470B68FFDE00BFF4A50020AA
:10C34000022807D1054B1B68D3F80405044B1B6872
:10C350001844704700231B68FFDE00BFF4A50020CF
:10C3600088D30020022808B502D000231B68FFDE16
:10C37000074B1B68D3F80405FFF7F8FE054BD3E91C
:10C380000023121843F100031046194608BD00BFF0
:10C39000F4A50020B0D3002002280AD1064B1B6868
:10C3A000D3F80405814282BF044B1B68C018401AB1
:10C3B000704700231B68FFDEF4A5002090D3002007
:10C3C000014B1868704700BF90D300202DE9F84357
:10C3D00001F09FFB012846D0244E254F254D002417
:10C3E00016F83430002B3BD0022C07D0002014F07C
:10C3F00047F935E0996024E0002330E03B68002BEA
:10C40000FAD1DFF87C80404614F03AF9D8F80030D1
:10C41000D3F80405FFF7AAFE174AD3F804C5D2E9FA
:10C42000008918EB000849F10009C2E90089134AA4
:10C43000D2E9000110EB0C0041F10001C2E900015A
:10C440000121D3F80425002AD4D10D4814F0E4F8D2
:10C450000C4B0A2219680220FFF744FE01232B70BF
:10C460000134032CBCD1BDE8F88300BF94D3002075
:10C4700078D300207CD30020B0D3002088D30020C4
:10C48000F4A5002080D30020F8B501F042FB01287C
:10C490005CD02F4E2F4F304D002416F83430002B37
:10C4A00051D0022C05D0002014F0DEF84BE08A6059
:10C4B0003BE03B78002B46D0274814F0E1F8296890
:10C4C0009FED267A264801F20453D3ED007AF8EE68
:10C4D000677AF2EE046A67EE877AD0E9002387EE86
:10C4E000A67ABCEEC77A17EE10CA12EB0C0243F123
:10C4F0000003C0E9002301F20453D3ED007A9FED5D
:10C50000197A1948F8EE677AD0E9002367EE877A3E
:10C5100087EEA67ABCEEC77A17EE10CA12EB0C02B1
:10C5200043F10003C0E900230122D1F80435002BB8
:10C53000BDD1284614F070F80C4B4FF40042196836
:10C540000220FFF7CFFD0134032CA6D1F8BD00BFB8
:10C5500094D300207CD30020F4A5002000007A446E
:10C56000B0D300200000004788D3002080D30020F3
:10C57000BFF34F8F0549064BCA6802F4E0621343CC
:10C58000CB60BFF34F8F00BFFDE700BF00ED00E0C1
:10C590000400FA0507F012B807F011B873B5174E8A
:10C5A00005460FF0D3FE002108460FF013FF327846
:10C5B00022B11349042200200FF074FF04210DEB77
:10C5C00001000FF0E3FF9DF805309DF8044004EBF7
:10C5D00003249DF8063004EB03449DF8073004EB78
:10C5E00003640FF043FF0FF0CDFEB4FBF5F0002322
:10C5F00005FB1040337002B070BD00BFB8D30020FF
:10C60000B9D3002008B5044810F0B7FE002814BFC5
:10C610006FF00600002008BDC0D30020084B0022A8
:10C620001A70084A062302F83030074B02EBC002AA
:10C630000C2101FB00335360104606F0ADBF00BF74
:10C640001CA4012008D40020B0D50020084B0022F3
:10C650001A70084A072302F83030074B02EBC00279
:10C660000C2101FB00335360104606F095BF00BF5C
:10C670001CA40120E0D30020D0D4002083680BB19B
:10C68000406818477047003818BF01207047000005
:10C6900008B510F01BFE28B1BDE80840024A582139
:10C6A000FCF7B6BD08BD00BF73EB050037B5034608
:10C6B000042B104696BF0C4A002252F82320019208
:10C6C0000C240A4A5C4315191355A960FFF7DBFFD8
:10C6D000074A014601A810F02DFE002814BF6FF094
:10C6E0000600002003B030BDFCEB0500B0D50020F3
:10C6F0001DC602000428F8B598BF154B044698BF24
:10C7000053F8205013484FF00C0303FB04F300EBE5
:10C710000306C45472604FF400404FF4FA764FF0B1
:10C720000007E0FB01674FF000034FF47A723046D8
:10C73000394688BF002531F0C7FA2246014628460F
:10C7400010F003FE002814BF6FF006000020F8BDB3
:10C75000FCEB0500B0D50020042808B59CBF0A4BAF
:10C7600053F82020094B4FF00C0101FB003388BF28
:10C77000002200215960104610F0FFFD002814BF70
:10C780006FF00600002008BDFCEB0500B0D50020CE
:10C7900037B5042896BF0C4B002353F82030019383
:10C7A0000C460C231146094A4343D518D054AC60BB
:10C7B000074A01A810F0BEFD002814BF6FF0060064
:10C7C000002003B030BD00BF10EC0500D0D4002025
:10C7D0004DC602000428F8B598BF154B044698BF13
:10C7E00053F8205013484FF00C0303FB04F300EB05
:10C7F0000306C45472604FF400404FF4FA764FF0D1
:10C800000007E0FB01674FF000034FF47A723046F7
:10C81000394688BF002531F057FA2246014628469E
:10C8200010F093FD002814BF6FF006000020F8BD43
:10C8300010EC0500D0D40020042808B59CBF0A4B9A
:10C8400053F82020094B4FF00C0101FB003388BF47
:10C85000002200215960104610F08FFD002814BFFF
:10C860006FF00600002008BD10EC0500D0D40020B9
:10C870002DE9F7430646032922D8DFE801F02624F4
:10C8800002143B4B3B483C49C01AC008000440F02E
:10C89000030010F005F939493948012212F096FCDD
:10C8A000384B01220BE0324B32483749C01AC008DE
:10C8B000000440F0030010F0F3F8324B00221A702D
:10C8C00003B0BDE8F083314BEBE7314B294DDFF886
:10C8D000C8802A4FDFF8C89000241C70244BED1A42
:10C8E000ED0812F070FC2D0445F0030502462949BD
:10C8F000284610F0D9F8284810F090FB78BB1F4F5D
:10C90000DFF8A080DFF878905CBB304612F057FC6F
:10C910003B78009302464146284610F0D8F8174964
:10C920000122484612F052FC0446EDE7304612F070
:10C9300046FC3B7802464946284610F0BEF8397856
:10C94000032006F095FD0D490122404610F0B6FB8C
:10C950000A490B48012212F039FC0446CBE7002CAF
:10C96000E4D00E4803B0BDE8F04306F015BE00BFAA
:10C97000149906008C99060024EC050080D600204E
:10C980007CED0500E0D6002048EC05000CA6002058
:10C990001CA401206DEC0500BC98060004A6002034
:10C9A0007FEC050098EC0500083808B5062845D846
:10C9B000DFE800F00820364444440400BDE80840A5
:10C9C00011F0B2B81E4B1F481F49C01AC00800041E
:10C9D00040F0030010F064F8002012F06FFD12F038
:10C9E000C9FD0028FBD015F097F838BBBDE808401A
:10C9F00011F098B8124B13481449C01AC00800042B
:10CA000040F0030010F04CF811F0A0F8104810F0BE
:10CA100092FA12F0AFFD88B1BDE8084012F088BD6F
:10CA2000074B08480B49C01AC008000440F0030037
:10CA300010F036F8BDE8084011F078B808BD00BF26
:10CA4000149906008C990600B7EC0500CAEC0500A5
:10CA5000BC980600DCEC050040292DE9F74F06469E
:10CA60000D467BD9DFF81891DFF810818C0900277B
:10CA7000402200214846FDF743F806EB8713DFF814
:10CA800000C103F1400E18685968624603C20833BA
:10CA900073459446F7D198F80020DFF8E8A0002A03
:10CAA00051D000228AF80020324A42F0010B32486D
:10CAB0004022494612F062FB112846D030B99AF85C
:10CAC00000201AB92D4B1A78002AF8D10137BC4240
:10CAD000CEDC002C18BF2746C4EB84244FEA841414
