:020000021000EC
:10400000002B0010519A0100499A01000D6E010029
:104010004B9A01004B9A01004B9A010000000000EE
:10402000000000000000000000000000719D020080
:104030004D9A010000000000E19D0200459E020033
:104040004D9A01004D9A01004D9A01004D9A0100D0
:104050004D9A01004D9A01004D9A01004D9A0100C0
:10406000E5D001004D9A01004D9A01004D9A0100E2
:10407000C1A60100E51F040099BE01001DDD01007D
:1040800025DE01004D9A0100351B04004D9A010008
:104090004D9A01004D9A0100DDBE0100E19F020032
:1040A00001A002004D9A01004D9A01004D9A0100B5
:1040B0004D9A01004D9A01004D9A01004D9A010060
:1040C00000000000000000000000000000000000F0
:1040D00000000000000000000000000000000000E0
:1040E00000000000000000000000000000000000D0
:1040F00000000000000000000000000000000000C0
:1041000010F8012B11F8013B012A28BF9A42F7D081
:10411000D01A7047034613F8012B002AFBD1181A56
:10412000013870470000000000000000000000009F
:1041300001F0FF01102A2BDB10F0070F08D010F858
:10414000013B013A8B422DD010F0070F42B3F6D15C
:10415000F0B441EA012141EA014122F007047FF075
:1041600000070023F0E80256083C85EA010586EACC
:10417000010685FA47F5A3FA87F586FA47F6A5FA08
:1041800087F68EB9EED1F0BC01F0FF0102F0070214
:1041900032B110F8013B013A83EA010313B1F8D1BF
:1041A0000020704701387047002D06BF35460338A0
:1041B000073815F0010F07D1013015F4807F02BFD9
:1041C000013015F4C03F0130F0BC0138704700BF2A
:1041D00081F0004102E000BF83F0004330B54FEAB8
:1041E00041044FEA430594EA050F08BF90EA020F25
:1041F0001FBF54EA000C55EA020C7FEA645C7FEAB8
:10420000655C00F0E2804FEA5454D4EB5555B8BFDA
:104210006D420CDD2C4480EA020281EA030382EA4B
:10422000000083EA010180EA020281EA0303362DDD
:1042300088BF30BD11F0004F4FEA01314FF4801CB0
:104240004CEA113102D0404261EB410113F0004FC2
:104250004FEA03334CEA133302D0524263EB430379
:1042600094EA050F00F0A780A4F10104D5F1200E17
:104270000DDB02FA0EFC22FA05F2801841F1000172
:1042800003FA0EF2801843FA05F359410EE0A5F146
:1042900020050EF1200E012A03FA0EFC28BF4CF077
:1042A000020C43FA05F3C01851EBE37101F000452D
:1042B00007D54FF0000EDCF1000C7EEB00006EEB3A
:1042C0000101B1F5801F1BD3B1F5001F0CD34908C4
:1042D0005FEA30004FEA3C0C04F101044FEA44521B
:1042E00012F5800F80F09A80BCF1004F08BF5FEAA2
:1042F000500C50F1000041EB045141EA050130BD82
:104300005FEA4C0C404141EB0101013C28BFB1F593
:10431000801FE9D291F0000F04BF01460020B1FADE
:1043200081F308BF2033A3F10B03B3F120020CDAB1
:104330000C3208DD02F1140CC2F10C0201FA0CF08F
:1043400021FA02F10CE002F11402D8BFC2F1200CF4
:1043500001FA02F120FA0CFCDCBF41EA0C019040AA
:10436000E41AA2BF01EB0451294330BD6FEA0404F3
:104370001F3C1CDA0C340EDC04F11404C4F12002DE
:1043800020FA04F001FA02F340EA030021FA04F3F0
:1043900045EA030130BDC4F10C04C4F1200220FA47
:1043A00002F001FA04F340EA0300294630BD21FA85
:1043B00004F0294630BD94F0000F83F4801306BF4B
:1043C00081F480110134013D4EE77FEA645C18BF3F
:1043D0007FEA655C29D094EA050F08BF90EA020FD6
:1043E00005D054EA000C04BF1946104630BD91EACE
:1043F000030F1EBF0021002030BD5FEA545C05D1D1
:104400004000494128BF41F0004130BD14F580040F
:104410003CBF01F5801130BD01F0004545F0FE4183
:1044200041F470014FF0000030BD7FEA645C1ABFB8
:10443000194610467FEA655C1CBF0B46024650EAEF
:10444000013406BF52EA033591EA030F41F400211B
:1044500030BD00BF90F0000F04BF0021704730B5A1
:104460004FF4806404F132044FF000054FF0000176
:1044700050E700BF90F0000F04BF0021704730B537
:104480004FF4806404F1320410F0004548BF40420C
:104490004FF000013EE700BF42004FEAE2014FEA61
:1044A00031014FEA02701FBF12F07F4393F07F4F3C
:1044B00081F06051704732F07F4208BF704793F03F
:1044C0007F4F04BF41F40021704730B54FF4607452
:1044D00001F0004521F000411CE700BF50EA010255
:1044E00008BF704730B54FF000050AE050EA0102FE
:1044F00008BF704730B511F0004502D5404261EB6E
:1045000041014FF4806404F132045FEA915C3FF4AE
:10451000D8AE4FF003025FEADC0C18BF03325FEA4B
:10452000DC0C18BF033202EBDC02C2F1200300FAFC
:1045300003FC20FA02F001FA03FE40EA0E0021FA21
:1045400002F11444BDE600BF70B54FF0FF0C4CF40F
:10455000E06C1CEA11541DBF1CEA135594EA0C0FC1
:1045600095EA0C0F00F0DEF82C4481EA030621EAFC
:104570004C5123EA4C5350EA013518BF52EA033537
:1045800041F4801143F4801338D0A0FB02CE4FF0E9
:104590000005E1FB02E506F00042E0FB03E54FF019
:1045A0000006E1FB03569CF0000F18BF4EF0010E11
:1045B000A4F1FF04B6F5007F64F5407404D25FEA0D
:1045C0004E0E6D4146EB060642EAC62141EA5551C0
:1045D0004FEAC52040EA5E504FEACE2EB4F1FD0C02
:1045E00088BFBCF5E06F1ED8BEF1004F08BF5FEA80
:1045F000500E50F1000041EB045170BD06F0004632
:1046000046EA010140EA020081EA0301B4EB5C04DE
:10461000C2BFD4EB0C0541EA045170BD41F48011D6
:104620004FF0000E013C00F3AB8014F1360FDEBFFB
:10463000002001F0004170BDC4F10004203C35DAD7
:104640000C341BDC04F11404C4F1200500FA05F35A
:1046500020FA04F001FA05F240EA020001F00042FB
:1046600021F0004110EBD37021FA04F642EB060171
:104670005EEA430E08BF20EAD37070BDC4F10C049B
:10468000C4F1200500FA04F320FA05F001FA04F25F
:1046900040EA020001F0004110EBD37041F100014B
:1046A0005EEA430E08BF20EAD37070BDC4F1200556
:1046B00000FA05F24EEA020E20FA04F301FA05F2BE
:1046C00043EA020321FA04F001F0004121FA04F266
:1046D00020EA020000EBD3705EEA430E08BF20EA36
:1046E000D37070BD94F0000F0FD101F00046400070
:1046F00041EB010111F4801F08BF013CF7D041EAF2
:10470000060195F0000F18BF704703F000465200F5
:1047100043EB030313F4801F08BF013DF7D043EAC6
:104720000603704794EA0C0F0CEA135518BF95EA7C
:104730000C0F0CD050EA410618BF52EA4306D1D103
:1047400081EA030101F000414FF0000070BD50EA22
:10475000410606BF1046194652EA430619D094EAAC
:104760000C0F02D150EA013613D195EA0C0F05D196
:1047700052EA03361CBF104619460AD181EA0301EA
:1047800001F0004141F0FE4141F470014FF00000A2
:1047900070BD41F0FE4141F4780170BD70B54FF03D
:1047A000FF0C4CF4E06C1CEA11541DBF1CEA1355BD
:1047B00094EA0C0F95EA0C0F00F0A7F8A4EB05049F
:1047C00081EA030E52EA03354FEA013100F0888096
:1047D0004FEA03334FF0805545EA131343EA12635F
:1047E0004FEA022245EA111545EA10654FEA002614
:1047F0000EF000419D4208BF964244F1FD0404F5CD
:10480000407402D25B084FEA3202B61A65EB030528
:104810005B084FEA32024FF480104FF4002CB6EBE5
:10482000020E75EB030E22BFB61A754640EA0C0065
:104830005B084FEA3202B6EB020E75EB030E22BFA5
:10484000B61A754640EA5C005B084FEA3202B6EBE6
:10485000020E75EB030E22BFB61A754640EA9C00A5
:104860005B084FEA3202B6EB020E75EB030E22BF75
:10487000B61A754640EADC0055EA060E18D04FEA33
:10488000051545EA16754FEA06164FEAC30343EAD3
:1048900052734FEAC2025FEA1C1CC0D111F4801FA0
:1048A0000BD141EA00014FF000004FF0004CB6E799
:1048B00011F4801F04BF01430020B4F1FD0C88BF38
:1048C000BCF5E06F3FF6AFAEB5EB030C04BFB6EB43
:1048D000020C5FEA500C50F1000041EB045170BD36
:1048E0000EF0004E4EEA113114EB5C04C2BFD4EB63
:1048F0000C0541EA045170BD41F480114FF0000EE7
:10490000013C90E645EA060E8DE60CEA135594EA62
:104910000C0F08BF95EA0C0F3FF43BAF94EA0C0F65
:104920000AD150EA01347FF434AF95EA0C0F7FF4DA
:1049300025AF104619462CE795EA0C0F06D152EA2E
:1049400003353FF4FDAE1046194622E750EA410612
:1049500018BF52EA43067FF4C5AE50EA41047FF423
:104960000DAF52EA43057FF4EBAE12E74FF0FF3C88
:1049700006E000BF4FF0010C02E000BF4FF0010C59
:104980004DF804CD4FEA410C7FEA6C5C4FEA430CD2
:1049900018BF7FEA6C5C1BD001B050EA410C0CBF21
:1049A00052EA430C91EA030F02BF90EA020F002083
:1049B000704710F1000F91EA030F58BF994208BFEA
:1049C00090422CBFD8176FEAE37040F001007047A7
:1049D0004FEA410C7FEA6C5C02D150EA013C07D1FE
:1049E0004FEA430C7FEA6C5CD6D152EA033CD3D049
:1049F0005DF8040B704700BF8446104662468C4643
:104A00001946634600E000BF01B5FFF7B7FF002875
:104A100048BF10F1000F01BD4DF808EDFFF7F4FF9E
:104A20000CBF012000205DF808FB00BF4DF808ED29
:104A3000FFF7EAFF34BF012000205DF808FB00BF4C
:104A40004DF808EDFFF7E0FF94BF012000205DF86E
:104A500008FB00BF4DF808EDFFF7CEFF94BF012023
:104A600000205DF808FB00BF4DF808EDFFF7C4FF1C
:104A700034BF012000205DF808FB00BF4FEA410C65
:104A80007FEA6C5C02D150EA013C0AD14FEA430C48
:104A90007FEA6C5C02D152EA033C02D14FF0000085
:104AA00070474FF0010070474FEA410212F50012C3
:104AB00015D211D56FF47873B3EB625212D94FEA65
:104AC000C12343F0004343EA505311F0004F23FA4F
:104AD00002F018BF404270474FF00000704750EAA4
:104AE000013005D111F0004008BF6FF00040704761
:104AF0004FF00000704700BF4FEA4102B2F1E043BF
:104B000024BFB3F5001CDCF1FE5C0DD901F0004CB4
:104B10004FEAC0024CEA5070B2F1004F40EB830004
:104B200008BF20F00100704711F0804F21D113F130
:104B30003872BCBF01F00040704741F480114FEA69
:104B40005252C2F11802C2F1200C10FA0CF320FAF2
:104B500002F018BF40F001004FEAC1234FEAD3230F
:104B600003FA0CFC40EA0C0023FA02F34FEA430379
:104B7000CCE77FEA625307D150EA01331EBF4FF002
:104B8000FE4040F44000704701F0004040F0FE401D
:104B900040F40000704700BF53B94AB9002908BF6C
:104BA00000281CBF4FF0FF314FF0FF3000F06EB90E
:104BB000ADF1080C6DE904CE00F006F8DDF804E074
:104BC000DDE9022304B070472DE9F047089D044653
:104BD0008C46002B40F083808A42174647D9B2FAB0
:104BE00082F242B1C2F1200024FA00F091409740D5
:104BF00040EA010C94404FEA1748230CBCFBF8F63E
:104C00001FFA87FE08FB16C143EA014306FB0EF1BB
:104C1000994209D9FB1806F1FF3080F019819942B9
:104C200040F21681023E3B445B1AA4B2B3FBF8F09B
:104C300008FB103344EA034400FB0EFEA64509D9E5
:104C40003C1900F1FF3380F00581A64540F2028156
:104C500002383C4440EA0640A4EB0E0400261DB195
:104C6000D4400023C5E900433146BDE8F08702B9CE
:104C7000FFDEB2FA82F2002A50D1CB1B4FEA174E68
:104C80001FFA87F80126B3FBFEFC210C0EFB1C3338
:104C900041EA034108FB0CF38B4207D979180CF168
:104CA000FF3002D28B4200F2E9808446C91AA3B2D7
:104CB000B1FBFEF00EFB101143EA014408FB00F8C3
:104CC000A04507D93C1900F1FF3302D2A04500F2FC
:104CD000D9801846A4EB080440EA0C40BFE78B4299
:104CE00009D9002D00F0B1800026C5E90001304649
:104CF0003146BDE8F087B3FA83F6002E4AD18B42E5
:104D000002D3824200F2B880841A61EB03010120D1
:104D10008C46002DA8D0C5E9004CA5E7C2F12003C0
:104D200020FA03F6974001FA02F04FEA174ED940F5
:104D30003043030CB1FBFEF61FFA87F80EFB161189
:104D400043EA014306FB08F1994204FA02F409D947
:104D5000FB1806F1FF3C80F08D80994240F28A807A
:104D6000023E3B445B1A81B2B3FBFEF00EFB1033F4
:104D700041EA034100FB08F38B4207D9791800F19F
:104D8000FF3C73D28B4271D902383944CB1A40EAC6
:104D9000064678E7C6F1200C03FA06F422FA0CF373
:104DA0001C4320FA0CF701FA06F34FEA144E21FADD
:104DB0000CF11F433B0CB1FBFEF91FFA84F80EFB0C
:104DC000191143EA014109FB08FA8A4502FA06F281
:104DD00000FA06F308D9611809F1FF3048D28A4574
:104DE00046D9A9F102092144A1EB0A01BFB2B1FBE6
:104DF000FEF00EFB101147EA014700FB08F8B8452A
:104E000007D9E71900F1FF312ED2B8452CD9023865
:104E1000274440EA0940A7EB0807A0FB02894F4559
:104E2000C64649461AD317D05DB1B3EB0E0267EB05
:104E3000010707FA0CFCF2404CEA0202F740C5E910
:104E4000002700263146BDE8F0872E4628460BE7AE
:104E50000646E9E61846FDE64345E5D2B8EB020E04
:104E600069EB04010138DFE70846D2E760468DE7C9
:104E70008146B9E7664675E730464AE7ACF1020C71
:104E8000394413E702383C4424E700BF704700BFB1
:104E900010B50121042009F06EFE01212D2009F03A
:104EA0006AFE054B054801221A70BDE81040044A0D
:104EB0000023022109F0EDBC7054001001760010AF
:104EC000E09304002DE9F0470121042009F053FE8E
:104ED00001234FF496514148062209F085FA404BD0
:104EE0001978404B002949D03F4991F9110000221F
:104EF0000828DA809A805A801A80DA819A815A8149
:104F00001A8169DC0E461F46904206F1010605DD56
:104F100096F900C027F802CB0132F5E7334A0E7844
:104F200016700128498A518014BF10260626567033
:104F3000908093602D4B2E482D4F0ECB00F069FCD6
:104F400009F01EFE4FF0000A064641F287384FF086
:104F5000000909F015FE841B6AEB4A05A04579EBB0
:104F6000050330DA0021042009F005FE1B4809F092
:104F70007FFABDE8F04701200FF026BD1D481980DB
:104F800090F91170102F27DC86460E468C460822B9
:104F900067450DDD1EF9011F91400132D2B20E436B
:104FA000102A36B208BF00220CF1010C0121EFE7F4
:104FB00001B11E800D4A017811700F21517000213E
:104FC00051809780B5E7384600F01CFD384600F068
:104FD00088FB0028BDD1C5E7BDE8F0875C750010EF
:104FE000B0530010925300105C5400107454001021
:104FF000B45300108053001010B58F4890B009F0E2
:105000004FFB012840F0FF808C4809F01AFB8C4BC5
:1050100018708C4809F0C5FA8B4B18708B4809F052
:1050200020FB8B4B8B491870864809F0BCFA8A49E3
:10503000844809F0C8FA8949824809F0BCFA01217C
:105040002C2009F081FD01212C2009F094FD012183
:105050002D2009F079FD01212D2009F08CFD02237E
:1050600006224FF4E1317E4809F0BEF941F2883062
:105070000FF0D0F97B4907A809F080FC0A22012132
:1050800004A809F0B9FC04A907A809F0DEFC7649D8
:1050900009F0E7FC0A22044601210AA809F0ACFC49
:1050A0000AA9204609F0D1FC6F4909F0DAFC0A226E
:1050B000044602210DA809F09FFC0DA9204609F025
:1050C000C4FC014601A809F07BFC0DA809F010FC06
:1050D0000AA809F00DFC04A809F00AFC07A809F0C9
:1050E00007FC62490AA809F089FB0AA809F0CEFC6E
:1050F00001A90DA809F064FC0DA95D4809F074FB35
:105100000DA809F0F5FB5B49554809F0E7FC5A4941
:10511000534809F0E3FC5949514809F0DFFC544970
:105120000DA809F04BFB0D9A55494D4809F0E0FCDC
:105130000DA809F0DDFB534B53491A68484809F0A4
:10514000D7FC4D49464809F0C9FC01F0FFFA01F0CF
:10515000C5FA01F0DBFA01F095FB00212C2009F0E3
:105160000AFD0121042009F0EFFC0121042009F0CF
:1051700002FD464809F07CF94448012306224FF419
:10518000965109F031F9424A42480123002109F0C1
:1051900076FB414B5A6822B100233E48194609F07C
:1051A00078FB3E4A3B480023012109F068FB3C4A5A
:1051B00038480023022109F062FB1F4809F070FA09
:1051C000044668BB01462D2009F0D5FC2046FFF7B8
:1051D0005FFE194809F064FA0121324809F0ABFC7E
:1051E0000023062230484FF4E13109F0FDF81E217A
:1051F0002E4809F06AF90AA809F07AFB01A809F01B
:1052000077FB10B010BD2A492A4809F08BF92A49CA
:10521000284809F08FF92949264809F093F90EE743
:105220000021042009F0A7FC184809F021F9012009
:105230000FF0CAFBCDE700BF5C760010407600108F
:10524000A453001038760010A553001047760010C4
:10525000002B0010C55A0100B95B0100B75A0100CC
:105260003475001090AA04006BB90400E4750010B6
:10527000A8750010A3AA0400C0AA0400F7AA04009D
:1052800037AB0400842D001047AB04005C750010A0
:10529000914E010001760010042B0010C54E010054
:1052A000915301009975001084750010207600104C
:1052B000C15B01005D760010655C01006D5C010062
:1052C000014809F030BC00BF987500101FB5274891
:1052D00009F0E6F9012835D1254809F0D5F9044649
:1052E000244801F010FB81B2A0B201F0EBFA1028C3
:1052F000044611D0204809F0B4F9844203D21E4874
:10530000214609F0B0F91C4809F0ABF9844203D9F1
:105310001948214609F0A7F9164801F0F4FA03905C
:10532000144801F0F2FA154B03991B780193144BC2
:105330001B780093134B02461B78134809F00BF9B6
:1053400004B010BD00212D2009F015FC094801F022
:10535000DAFA0390074801F0D8FA039902460B489D
:10536000012304B0BDE8104009F0C4B85C76001019
:1053700059760010A853001047760010A55300106E
:10538000A4530010012B0010387600105D76001039
:105390002DE9F0472DED028B012386B006224FF454
:1053A000965105469C489D4C9D4F09F01DF84FF4C1
:1053B000FA700FF02FF89A4800F076F94FF4FA617E
:1053C000974800F08BF94FF4FA700FF023F84FF67E
:1053D000FF732381E380A380638023802382E381A2
:1053E000A38163818F4B8E489C6040F201321A602A
:1053F00009229A800ECB00F00CFA09F0C1FB4FF0A5
:10540000000A064609F0BCFB42F20F72B0EB060838
:105410006AEB4A090023424573EB0903C0F28B8013
:10542000384600F0EFFA0028ECD0384600F059F981
:105430000028E7D1B4F9003001337CD07A4801F07C
:105440005FFAB4F90200FFF715F8784B0022FFF776
:10545000A5F9FFF751FB032100EE100A724801F095
:105460007FFB2088FFF706F8704B0022FFF796F9C4
:10547000FFF742FB022100EE100A6B4801F076FBB9
:10548000A2886948042101F0F7FA0A26E388B3FBF1
:10549000F6F300EE103A0521B8EEC00A624801F0BA
:1054A00059FB22896048062101F0E6FA62895E48CC
:1054B000072101F0E1FAA2895B48082101F0DCFA3A
:1054C000E2895948092101F0D7FA228A5648314623
:1054D00001F0D2FA002D3DD101250021042009F070
:1054E0004AFB4D4808F0C4FF01200FF06DFA00217F
:1054F0002D2009F040FB4E4B00221A70002D00F0C9
:1055000085809FED4C8A4C4D0A24284609F08CF981
:10551000013C38EE008AF8D1B2EE040A88EE000AA7
:105520000121414801F028FB06B0BDEC028BBDE82B
:10553000F047FFF7CBBE002DCFD04049404809F0DF
:10554000D7FA40493E4809F0D3FA3C493E4809F0B1
:10555000CFFA4FE02088FEF78DFF344B0022FFF793
:105560001DF90646A0880F46FEF784FFCDE9040129
:10557000E088FEF77FFF2D4B0022FFF70FF9CDE902
:1055800002016088FEF776FF284B0022FFF706F93C
:1055900032463B46CDE900012C49294809F0A8FADA
:1055A0002849274809F0A4FA2088FEF763FF1F4B1B
:1055B0000022FFF7F3F80646A0880F46FEF75AFFD1
:1055C000CDE90401E088FEF755FF184B0022FFF7F4
:1055D000E5F8CDE902016088FEF74CFF134B00228D
:1055E000FFF7DCF83246CDE900013B461749164883
:1055F00009F07EFA1349144809F07AFA642006B0DB
:10560000BDEC028BBDE8F0470EF004BF06B0BDEC68
:10561000028BBDE8F08700BF5C750010925300104C
:10562000B453001074540010A8530010000024401C
:105630007054001000000000FD7500108AAB0400DB
:1056400034750010BCCC04008475001057AB040006
:1056500008B500231946094A094800F019F8094B12
:1056600009480121002219705A74084B19705A74A4
:105670005A82FF21BDE8084001F036B95C75001080
:10568000B453001080530010A85300105C54001055
:1056900010B543714FF47A73A0F89630002302607E
:1056A0000171C0F8A03010BD10B504464079012842
:1056B00006D9012109F048FA6079002109F05BFA66
:1056C000206803685B6998470028F9DA0023A4F88A
:1056D0008830C4F89030A4F8943010BDA0F896102B
:1056E00070478079704738B504464079012802D95F
:1056F000002109F040FA002584F8885020680368EA
:105700001B69984780B1206803685B69984794F8E3
:105710008830E2180133DBB213F0800F107218BF2B
:10572000012584F88830E9E7B4F890300133A4F813
:1057300090303DB1B4F894300133A4F894306FF058
:10574000020038BD94F98800FBE770B508300024EA
:105750004FF6FF734AF20105E2B291420ED910F8FA
:10576000012B5340082203F001065B0806B16B4091
:10577000013A12F0FF02F6D10134EDE7180240EAD7
:10578000132080B270BD13B590F888100446FFF75F
:10579000DCFF631802121A724B1C54FA83F30231B5
:1057A0001872607984F88810012802D9012109F063
:1057B000E2F9206894F88820036804F108015B6826
:1057C0009847206803689B68984700212A2009F0C1
:1057D000D2F96379012B0ED9206803689B6898473A
:1057E000D4F8A030019301994B1E01930029FAD1FE
:1057F000607909F0C0F9002384F8883009F0C0F915
:10580000B4F89230C4F89C000133A4F8923002B08E
:1058100010BD7FB5044604A800E90E002379BDF849
:105820000650BDF808009DF804609DF80520BDF8FD
:1058300008106DBA40BA002B72D1A379002B72D137
:10584000731EDBB2F62B71D8039B6272013AC4F867
:105850008C30267265810F2A0DD8DFE802F0080827
:105860000808141F0C0C0C0C0C0C0C0C2446A0810A
:10587000062384F888302046FFF785FF0123E38064
:10588000002004B070BDB3F90030002BD4BF00235A
:1058900001235B42237300236373E9E793F901203B
:1058A00022731B88F8E7CA0802F0FE0209071CBF32
:1058B0000132D2B20721A273A08184F8881000259A
:1058C00092B2AEB2B242D6D9710816F0010F33F9D6
:1058D000110094F8881004EB010608BF0012013192
:1058E0003072013584F88810EBE749000722A17374
:1058F000A08184F8882019449942BCD094F888008B
:1059000093F9015022181572421CD2B284F88820F3
:10591000224433F8025B1572023084F88800EBE70A
:105920006FF00100ADE74FF0FF30AAE76FF0020023
:10593000A7E7000038B590F888500446A91E254412
:10594000C9B2FFF702FFAA79EB7943EA0223984232
:1059500006D0B4F894300133A4F89430FF2038BD59
:1059600094F90930617A002B06DAB4F894300133E7
:10597000A4F89430FB20F2E7094A082312F8010B3F
:1059800081420AD0013B13F0FF03F7D1B4F8943001
:105990000133A4F894300120E1E70020DFE700BFE5
:1059A000A6AB040070B50021837ACAB2934212D923
:1059B0005508D0F88C40861834F91530F67AD2079D
:1059C0004BBFDBB203F47F4343EA0623334324F89F
:1059D00015300131E8E770BD10B50022D1B2847AEC
:1059E0004B000333B1EB540FDBB20AD20344D0F8BF
:1059F0008C101C7A5B7A43EA042321F812300132BE
:105A0000ECE710BD38B50446006803681B69984789
:105A1000054609F0B5F8D4F89C30C01AB4F89630B1
:105A2000984209D94FF47F43E380B4F894300133AE
:105A3000A4F89430002038BD15F0FF05FAD094F892
:105A40008930AB4206D084F8895009F099F8C4F83F
:105A50009800EFE709F094F8D4F89830C01A0428B9
:105A6000E8D9002584F889502046FFF73CFE052838
:105A700006DCB4F89430A5710133A4F89430DAE769
:105A80002046FFF757FF10B1A57140B2D3E7637A04
:105A9000022B04D833B12046FFF784FF02E0033B1A
:105AA000012B04D9002394F98800A371C3E7204691
:105AB000FFF792FFF6E7014610B92D2009F05BB819
:105AC000704700002DE9F041344F354E0446002563
:105AD000237AAB4207DD636839465A5D304609F0E8
:105AE00007F80135F4E72F492D4808F0E0FF237847
:105AF000002B50D063681A78AA2A4CD15A78552ABC
:105B000049D19A780F2A26D1274A00211170D978D5
:105B1000264A117001390F293DD8197993F90400EB
:105B2000507401390F2936D8191DC3F1FF2303F52D
:105B30007F03FC335C18A04202F1010203DD11F87F
:105B4000014F1470F6E7BDE8F041194800236422C4
:105B5000012108F09EBE062A01D0102A1BD1124A4C
:105B600001211170D978134A117001390F2912D807
:105B70001979518293F905305374590000231E4658
:105B80009942E0DD02EB63056E70606818440233F1
:105B9000C0796870F4E7BDE8F08100BF80B104000F
:105BA00034750010BCCC0400B053001080530010BA
:105BB000017600105C54001000212D2008F0DBBF9E
:105BC000F0B585B004AB03E90700214F019C214EDD
:105BD00000259DF80830AB4206DD625D394630464F
:105BE00008F086FF0135F4E71B491A4808F05FFF0B
:105BF0002378AA2B2AD16378552B27D1A3780F2B92
:105C000024D1E278154B1A70013A0F2A1ED8227956
:105C100094F904105974013A0F2A17D8221DC4F1BF
:105C2000FF2404F57F04FC34A018814203F1010332
:105C300003DD12F8010F1870F6E70948002364220B
:105C4000012105B0BDE8F04008F023BE05B0F0BD6D
:105C500080B1040034750010BCCC040080530010E7
:105C60000176001000212D2008F085BF704700004C
:105C700013B500240DF107008DF80740FFF788FBEE
:105C8000084B214604201C7008F075FF064808F0F8
:105C9000EFFB01200EF098FE21462C2008F06BFF50
:105CA00002B010BD805400105C75001030B599B082
:105CB000144609490EA808F061FE0023CDE914330B
:105CC000CDE91633636E012B0AD104492068FEF733
:105CD00017FA38B1022486E38F0E0500CCCE0400FB
:105CE000002BF7D1B649B748B74D08F001FFB749C7
:105CF000B44808F0FDFEB249B54808F0F9FEB349D2
:105D0000B34808F0F5FE64200EF084FBB14911A8F9
:105D100008F074FD11A90EA808F043FE11A808F0C0
:105D2000E7FD0EA808F0B2FE0E9AAB49A54808F0B0
:105D3000DFFEA649A34808F0DBFE0E9AA649A44858
:105D400008F0D6FEA149A24808F0D2FE64200EF069
:105D500061FBA24911A808F031FD119AA0499948A8
:105D600008F0C6FE11A808F0C3FD9849954808F050
:105D7000BFFE9A4911A808F021FD119A984994484C
:105D800008F0B6FE11A808F0B3FD9049904808F05D
:105D9000AFFE64200EF03EFB4FF47A746A689149BE
:105DA000B2FBF4F2874808F0A3FE8849854808F062
:105DB0009FFE6A688B49B2FBF4F285488A4D08F071
:105DC00097FE8249824808F093FE64200EF022FB81
:105DD0004FF4967285497B4808F08AFE7B497948E2
:105DE00008F086FE4FF496728049794808F080FEEC
:105DF0007649774808F07CFE64200EF00BFB7C4867
:105E000008F04EFC7B4955F8202004466D4808F008
:105E10006FFE6E496B4808F06BFE55F824207549FB
:105E20006B4808F065FE6949694808F061FE642026
:105E30000EF0F0FA012C40F0F1826F486F4D704C7B
:105E400008F00DFC6F49002814BF2A4622465D4821
:105E500008F04EFE5D495B4808F04AFE664808F0CF
:105E6000FEFB6849002814BF2A4622465848664D62
:105E700008F03EFE5549564808F03AFE64200EF000
:105E8000C9FA624808F000FC6149044602464D48E0
:105E900008F02EFE4D494B4808F02AFE22465C4988
:105EA0004B4808F025FE4949494808F021FE642086
:105EB0000EF0B0FA55F824205649424808F018FE72
:105EC0004249404808F014FE55F824205149404802
:105ED00008F00EFE3D493E4808F00AFE64200EF030
:105EE00099FA4D4808F0B4FB0446002800F05481AC
:105EF0004A49344808F0FCFD3449324808F0F8FDBE
:105F00004649334808F0F4FD3049314808F0F0FDC7
:105F100064200EF07FFA082214A9414808F07FFBA4
:105F20009DF8573005939DF8563004939DF85530F1
:105F300003939DF8543002939DF8533001939DF8DC
:105F400052309DF85020374900931E489DF851303B
:105F500008F0CEFD1D491B4808F0CAFD9DF85730DA
:105F600005939DF8563004939DF8553003939DF8A2
:105F7000543002939DF8533001939DF852309DF8B0
:105F800050202849009312489DF8513008F0B0FD88
:105F90000E490F4808F0ACFD64200EF03BFA0822D1
:105FA00014A9214808F017FB9DF8573005939DF878
:105FB000563004939DF8553003939DF8543035E0E6
:105FC000B9AB040034750010042B0010BCCC0400E5
:105FD00084750010D8750010C8AB04009C750010C3
:105FE00068B10400D3AB04000C2B0010E3AB040039
:105FF0005C760010F7AB040043760010A2C90400E1
:10600000AEAB040007AC0400182B0010597600104A
:1060100012AC04001DAC04004276001028AC040051
:106020003D76001032AC04003976001002939DF8E2
:10603000533001939DF852309DF850205049009301
:1060400050489DF8513008F053FD4F494D4808F035
:106050004FFD9DF8573005939DF8563004939DF8F9
:10606000553003939DF8543002939DF853300193BB
:106070009DF852309DF850204149009343489DF8C7
:10608000513008F035FD4049404808F031FD6420AA
:106090000EF0C0F9102214A93D4808F0A5FA9DF8A9
:1060A0005F300D939DF85E300C939DF85D300B933F
:1060B0009DF85C300A939DF85B3009939DF85A3047
:1060C00008939DF8593007939DF8583006939DF832
:1060D000573005939DF8563004939DF8553003933F
:1060E0009DF8543002939DF8533001939DF852303F
:1060F0009DF850202749009322489DF8513008F020
:10610000F7FC21491F4808F0F3FC9DF85F300D9320
:106110009DF85E300C939DF85D300B939DF85C30DC
:106120000A939DF85B3009939DF85A3008939DF8C7
:10613000593007939DF8583006939DF857300593D2
:106140009DF8563004939DF8553003939DF85430D4
:1061500002939DF8533001939DF8523000939DF8BF
:1061600050209DF851300B49084808F0C1FC064901
:10617000064808F0BDFC64200EF04CF9002432E122
:106180005AAC040034750010BCCC040084750010B7
:106190003A76001082AC04009649974808F0A8FCB3
:1061A0009649954808F0A4FC9249954808F0A0FC4F
:1061B0009249934808F09CFC64200EF02BF91022C1
:1061C00014A9904808F019FA9DF85F300D939DF8D6
:1061D0005E300C939DF85D300B939DF85C300A9314
:1061E0009DF85B3009939DF85A3008939DF859301B
:1061F00007939DF8583006939DF8573005939DF806
:10620000563004939DF8553003939DF85430029313
:106210009DF8533001939DF852309DF850207A49F3
:10622000009375489DF8513008F062FC734972483C
:1062300008F05EFC9DF85F300D939DF85E300C9386
:106240009DF85D300B939DF85C300A939DF85B30B0
:1062500009939DF85A3008939DF8593007939DF89B
:10626000583006939DF8573005939DF856300493A7
:106270009DF8553003939DF8543002939DF85330A8
:1062800001939DF852309DF850205F4900935C487F
:106290009DF8513008F02CFC5849594808F028FC6A
:1062A00064200EF0B7F8102214A9584808F0C0F97D
:1062B0009DF85F300D939DF85E300C939DF85D3036
:1062C0000B939DF85C300A939DF85B3009939DF821
:1062D0005A3008939DF8593007939DF8583006932B
:1062E0009DF8573005939DF8563004939DF855302E
:1062F00003939DF8543002939DF8533001939DF819
:1063000052309DF85020424900933B489DF851304F
:1063100008F0EEFB3949384808F0EAFB9DF85F3099
:106320000D939DF85E300C939DF85D300B939DF8B6
:106330005C300A939DF85B3009939DF85A300893BE
:106340009DF8593007939DF8583006939DF85730C3
:1063500005939DF8563004939DF8553003939DF8AE
:10636000543002939DF8533001939DF852309DF8BC
:1063700050202749009322489DF8513008F0B8FB7F
:106380001E491F4808F0B4FB64200EF043F80422B5
:1063900014A9204808F03AF99DF8533001939DF86C
:1063A00052309DF850201C49009313489DF85130FD
:1063B00008F09EFB1149104808F09AFB9DF85330F5
:1063C00001939DF8523000939DF850209DF8513074
:1063D00011490B4808F08CFB0849094808F088FB74
:1063E00064200EF017F80EA808F082FA204619B0C3
:1063F00030BD00BFCAAC040034750010BCCC040032
:10640000847500103B760010D3AC04003F7600107A
:106410001CAD04003C76001064AD04007448002CF0
:1064200040F09B8008F05AF872490246724808F022
:106430005FFB7249704808F05BFB6D4808F04EF84E
:106440006C4902466E4808F053FB6C496C4808F0F2
:106450004FFB64200DF0DEFF6A4808F041F86A49FE
:106460000246654808F044FB6449634808F040FB75
:10647000644808F035F864490246614808F038FB82
:106480005E495F4808F034FB64200DF0C3FF5F48AD
:1064900008F028F85E490246574808F029FB57499A
:1064A000554808F025FB594808F01CF858490246A1
:1064B000534808F01DFB5149514808F019FB64206E
:1064C0000DF0A8FF534808F00FF8534902464A4818
:1064D00008F00EFB4949484808F00AFB4D4808F00F
:1064E00003F84D490246464808F002FB4349444838
:1064F00008F0FEFA64200DF08DFF484807F0F6FF23
:10650000474902463C4808F0F3FA3C493A4808F04B
:10651000EFFA424807F0EAFF41490246384808F0DE
:10652000E7FA3649364808F0E3FA64200DF072FFC6
:106530003C4807F0DDFF3C4902462F4808F0D8FAF6
:106540002E492D4808F0D4FA364807F0D1FF3649D5
:1065500002462B4808F0CCFA3EE707F0BFFF25497A
:106560000246254808F0C4FA2449234808F0C0FA36
:106570001F4807F0B3FF1F490246214808F0B8FA48
:106580001E491F4808F0B4FA64200DF043FF274865
:1065900007F0C4FF26490246174808F0A9FA174930
:1065A000154808F0A5FA214807F0B8FF204902462F
:1065B000134808F09DFA1149114808F099FA64202F
:1065C0000DF028FF1B4807F0ABFF1B4902460A48A5
:1065D00008F08EFA0949084808F08AFA154807F0C9
:1065E0009FFF15490246064808F082FABFE500BF42
:1065F000687600107DAD040034750010BCCC04003A
:1066000084750010697600108CAD04006A76001065
:1066100094AD04006B7600109CAD04006C76001005
:10662000A4AD04006D760010B9AD040071760010C1
:10663000C7AD040072760010D4AD040038B5536EB7
:10664000012B06D11D491068FDF75AFD18B1022033
:106650002EE0002B2DD11A4B1B7863BB194B1A78F7
:1066600002F0FF043ABB0125174918481D7008F0D5
:106670003FFA1749154808F03BFA1349154808F046
:1066800037FA1349134808F033FA64200DF0C2FEBC
:106690002946042008F06FFA29462C2008F06BFAEE
:1066A0000D48234641F28832032108F0F2F8002019
:1066B00038BDFCDDCBE70320FAE700BFCCCE0400F9
:1066C0007054001080540010E2AD040034750010C6
:1066D000BCCC0400847500100176001007B50323BC
:1066E0000193054B0093054A054B0649064808F0FF
:1066F000A4F803B05DF804FBA567010000AE040038
:10670000F2AD040053AE0400FE75001013B5094C41
:10671000094A00230321204608F0B1F8032301931E
:10672000064B0093064A074B0749E01E08F085F820
:1067300002B010BD01760010715C01003D660100E1
:1067400067AE04005BAE040073AE040007B502231D
:106750000193054B0093054A054B0649064808F08E
:106760006CF803B05DF804FBAD5C010087AE04007B
:1067700079AE04009EAE0400FE75001008B500213D
:10678000064A0748082308F070F8014620B9034A72
:106790000348082308F069F8012008BD042B001005
:1067A000FF7500102DE9F843536E012B0E4603D000
:1067B00002242046BDE8F88315682A49DFF8C09016
:1067C0002846FDF79DFC4F46D9F804800446E8B9F9
:1067D00032464FF47A752449B8FBF5F3234808F0A4
:1067E00087F92349214808F083F9D9F804301E4974
:1067F000B3FBF5F332461F4808F07AF91C491D48EF
:1068000008F076F964200DF005FED2E72846FDF782
:1068100081FC2A462844904205D012F8013B303BC7
:10682000092BF8D9C4E70A220021284601F020FDEF
:106830004FF47A735843104B9842B9D978600021CD
:106840000E4808F030F87A6822B100230B48194648
:1068500008F01FF87B68984501D0FFF78FFF0024F0
:10686000A7E700BFCCCE0400A5AE0400347500102D
:10687000BCCC040084750010BF270900017600100D
:10688000042B001037B50024AA250C488DF80050C1
:1068900008236A462146019407F0DDFF48B19DF8C0
:1068A0000030AB42064B06D01D705C60FFF766FF00
:1068B000204603B030BD019A5A60FAE7FF75001018
:1068C000042B001010B5074B53F82020002332F89A
:1068D00013408C42D8B203D80133102BF7D118469D
:1068E00010BD00BFCC2B001038B50446002508466B
:1068F0002171A57100F0DCFE65712060204638BD75
:10690000002343717047407970470068704700006A
:106910008E294ED8702903D8032943D80120704707
:1069200071391D2945D801A353F821F01D690100D3
:10693000B36901001D6901001D6901001D690100A5
:106940001D690100B36901001D6901001D69010095
:10695000B3690100B3690100B36901001D69010059
:10696000B3690100B36901001D690100B369010049
:106970001D6901001D6901001D6901001D690100FB
:106980001D6901001D6901001D690100B369010055
:10699000B3690100B3690100B3690100B369010083
:1069A0001D690100A1F1640004288CBF00200120B2
:1069B00070470020704700BF882918D8702906D872
:1069C00003290FD8012994BF002001207047713995
:1069D0000123C9B203FA01F1064B194214BF012089
:1069E00000207047A1F167035842584170470020CA
:1069F000704700BF0101A000F8B504460D461E46D1
:106A0000FFF786FF10B90223A371F8BD8E2D98BF42
:106A1000174B607998BF595D94F804C094BF154B2B
:106A2000002100EB010707F1010794BF33F815308F
:106A30000B46674503DB0123A3710020E5E77343A1
:106A40002668471C6771325462792068561C66714B
:106A50008554002001306279C5B28D420A4404D8C1
:106A60002568121AAB541B0AF4E7D0B26071CCE768
:106A70000CAF04009CAF040008B513460A467D2104
:106A8000FFF7BAFF08BD00002DE9F84304460E46A3
:106A9000FFF73EFF18B90223A371BDE8F8838E2EDD
:106AA00098BF2A4B94F8058098BF9F5D207994BFCA
:106AB000274B002708EB070101F1010194BF33F8D0
:106AC00016303B46814203DB0123A3710020E4E73B
:106AD00007EE903AB5EEC00AF1EE10FAF8EEE77A5A
:106AE00048BFB1EE400A27EE800A3146FCEEC07A7C
:106AF00020464CBF4FF001094FF0000917EE905AA5
:106B0000FFF75AFF40B1B9F1000F05D0F90001239A
:106B10008B40591E0D405D1B236808F10101617116
:106B200003F8082063792268591C6171D654002249
:106B300001326379D1B2B9423B4404D821689B1A2F
:106B4000CD542D0AF4E7D8B26071A6E70CAF04006B
:106B50009CAF040008B50A460321FFF795FF08BD66
:106B600008B50A466721FFF78FFF08BD08B50A463A
:106B70006821FFF789FF08BD08B50A467421FFF7B1
:106B800083FF08BD05F0E4BE05F0E7BE13B50B4C6E
:106B900023780BB900F07EF808230B22CDE90032F0
:106BA000074809230A22002100F02EFB00F06CFBAD
:106BB00023780BB90123237002B010BD815400105B
:106BC000A0730210292070470DF039BCF8B50C46AF
:106BD0002F2C9DF81850079F0646114605DC631CB4
:106BE000047002D012B1012A12D0F8BD012D0DD0CF
:106BF000022D01D025B9022120460DF075FDB57298
:106C000020460021BDE8F8400DF06CBD2946F3E7B1
:106C100020460DF067FD391E204618BF0121BDE852
:106C2000F8400DF063BD38B5044690F900002F28F8
:106C30001D4615DCA3B1022923610DD003290DD017
:106C400001290DD103210DF055FD94F900002946CD
:106C5000BDE838400DF050BD0521F4E70621F2E70C
:106C600038BD90F900002F2806DC431C04D0003901
:106C700018BF01210DF03ABD704708B590F900002A
:106C80002F2804DC431C02D00DF032FD08BD00208B
:106C9000FCE7000010B5054C23782BB9044902200D
:106CA0000DF038FE0123237010BD00BF8254001088
:106CB0000519040010B502200DF034FE064B1A68C9
:106CC0001860044600219442596002D205F01EFA71
:106CD0000444204610BD00BF88540010014B1868C2
:106CE000704700BF885400100A2070470DF010BE96
:106CF0000DF00CBE02200DF013BE000007B5019090
:106D0000022005F0CBF9044A0199022003B05DF896
:106D100004EB0DF003BE00BF88540010FFF7EEBF78
:106D2000022005F0D1B9000008B5034B02201A6813
:106D300000230DF0FBFD08BD8854001070B5064619
:106D400002200DF0F1FD4FF47A72002305460C4647
:106D5000FDF722FF0023328028464FF47A72214645
:106D6000FDF71AFF70BD10B50C460CF011FA204665
:106D7000BDE810400CF01EBA38B50C4605460CF0C4
:106D800001FA28600CF010FA206038BD704708B591
:106D9000012012F091FB002008BD704700BEFDE706
:106DA000FEE70000BFF34F8F0549064BCA6802F4A7
:106DB000E0621343CB60BFF34F8F00BFFDE700BF1E
:106DC00000ED00E00400FA0570B50C4D0C4C641B9E
:106DD000A4100026A64207D10A4D0B4C641BA41038
:106DE0000026A64205D170BD55F8043B98470136F0
:106DF000F0E755F8043B98470136F2E70000000041
:106E00000000000078A9040084A9040008B5FFF779
:106E1000C9FF08B5FFF7C6FF13B50378092B11D8D2
:106E2000DFE803F0126A909910A1A105A5A90479E1
:106E300020460CF0BBF820460CF060F800212046FC
:106E40000CF0BCF802B010BD01200CF0AFF8012826
:106E500023D100200CF0AAF80128F3D0484B1B786E
:106E60001BB142F2107004F073FB00200DF0B6FF6E
:106E70000028E7DD012201A900200DF05FFE0020BF
:106E80000CF094F804460028EFD10DF06FFF58BBCA
:106E90009DF804100BF09EFFE7E7394B1B781BB100
:106EA00042F2107004F054FB01200DF097FF00280F
:106EB000CFDD012201A910460DF040FE01200CF0AB
:106EC00075F80028F0D101200DF050FF28B99DF889
:106ED000041001200BF07EFFE6E70128E4D19DF8C5
:106EE00004100DF099FEDFE70128BED19DF80410D3
:106EF00020460DF091FEB8E703200CF057F801286A
:106F0000A0D003200DF06AFF00289BDD012201A91B
:106F100003200DF013FE03200CF048F80028F0D1F8
:106F200003200DF023FF28B99DF8041003200BF077
:106F300051FFE6E70128E4D19DF8041003200DF08D
:106F40006BFEDEE70F4B1B6E03B198471FF084F911
:106F500008F004FF76E70C4B1B68002B3FF472AF80
:106F6000406898476EE740680EF012F86AE7002024
:106F70000DF0E6FC66E740680DF0C4FB62E700BF79
:106F8000945400109C120500FC20021030B5434BB5
:106F9000434A1B68434999B000240193424B009334
:106FA000204640F2CD13CDE903441DF097FF0DF0CC
:106FB000D1FF0DF047FA0DF077F90CF01BF92346DD
:106FC0000146054603222046CDE900440DF0BAFCF7
:106FD00023462946CDE90044032201200DF0B2FCEE
:106FE00032494FF478231A68501C0ED002F0030087
:106FF000012810D022F00302B2F5801F0BD2043317
:107000008B42F0D11B68013305D108AA08214FF447
:10701000782012F0C5F90DF09FF903F06DFB0DF02B
:10702000D3F9082103A807F0DDFF9DF813309DF880
:1070300011201F49009308A89DF8123001F07AF83A
:1070400008A8FDF767F8C1B208A80DF091F90C2166
:1070500005A80CF0A7F905A80DF08CF90021032074
:107060000BF0ACFF00240322234629461046CDE94D
:1070700000440DF067FC0CF0A5F909F0ADFCE5B299
:1070800028460BF093FF10B928460BF037FF013468
:10709000042CF4D10DF042FF19B030BD842D001046
:1070A000DCB004005CB1040064B1040024800F0073
:1070B00074B10400F8B5FFF769FF02F0C1FC1D4888
:1070C0000DF000FD08F078F8012822D0022822D027
:1070D00010B919480DF0F6FC184F194D194E0DF066
:1070E0002BFF3C78CCB92B7883B142F210700DF0B5
:1070F00091F923460722314620462C7006F034FFD2
:10710000234607223146012006F02EFF02F09AFCAA
:10711000E5E70D48DEE70D48DCE70BF08BFF0028C4
:10712000DDD02B7803F0FF00002BD8D10DF0AEFBA3
:10713000D5E700BF85B1040099B104009454001054
:1071400070620010BCB10400A5B10400B0B104002D
:107150000DF0F2BE07B5FFF737FE1DF0B3FE234B6F
:10716000234A2449009300204FF41C731DF0B6FEFF
:10717000002108460FF0D4FD024620B11C4940F220
:107180007A201DF0D3FE1C480FF0FAFC024620B115
:1071900017494FF420701DF0C9FE0FF013FD024691
:1071A00020B1134940F282201DF0C0FE12F0E4F934
:1071B000012012F0E9F911F0CDFF024620B10C498F
:1071C00040F293201DF0B2FE12F084F80B4B0193B5
:1071D00001230B4900934FF480520023094813F018
:1071E000FDFB13F005FDFFF7DDFD00BFC4B104009A
:1071F000DCB004005CB1040058F4040090540010AA
:10720000DDB10400B57001002DE9F3410C46002505
:10721000064600F8044B02249DF9208011461F46C3
:1072200022462B46CDE900452AF06CF92B46224632
:10723000394606F11800CDE900452AF063F906F158
:107240002C00CDE900452B46224641462AF05AF94A
:10725000012002B0BDE8F0410DF030BE7FB5012243
:107260000023ADF80E108DF81730019300920DF148
:1072700017030DF10E0110460DF038FE9DF81700B2
:1072800007B05DF804FB000073B5174E002401251C
:1072900023462A463046CDE900450B212AF032F933
:1072A00023462A46A6F1A400CDE9004511212AF083
:1072B00029F923462246A6F19000CDE90044102189
:1072C0002AF020F923462246A6F17C00CDE90044AD
:1072D0000F212AF017F92B4602222946122002B06C
:1072E000BDE870400DF0FCB9E073021003460322C4
:1072F000014801212AF00EB9647302104FF4207185
:10730000012029F029BF0A207047012029F018BF69
:10731000014B1878704700BF95540010014B18704E
:10732000704700BF9554001010B50A4C0A202AF08F
:10733000E7F8002120462AF0EFF814202AF0E0F8C0
:10734000204601212AF0E8F8BDE810400A202AF082
:10735000D7B800BF3C73021010B5034C20462AF08A
:10736000DDF80128FAD010BD5073021038B50C4C6E
:1073700000212046A4F140052AF0CEF8C02128467D
:10738000FFF76CFF00212846FFF768FF0121204628
:107390002AF0C2F8FFF7E0FF024B01221A7038BD55
:1073A000E073021095540010F8B5154606460C46D9
:1073B00029F0D1FC0E480F4F00212AF0ADF80D48FE
:1073C0003146FFF74BFF2544AC4209D10848012163
:1073D0002AF0A2F8842E09D0BDE8F840FFF7BCBF20
:1073E00014F8011B3846FFF739FFEDE7F8BD00BF81
:1073F000E0730210A0730210F8B5154606460C465D
:1074000029F0A9FC0F48104F00212AF085F83146D9
:107410000D48FFF723FF0C480021FFF71FFF25440D
:10742000C6B2AC4207D1074801212AF075F8FFF730
:1074300093FF3046F8BD00213846FFF70FFF04F8F0
:10744000010BEEE7E0730210A073021070B5154651
:1074500006460C4629F07FFC104800212AF05CF813
:107460000D210F48FFF7FAFE310A0D48FFF7F6FE2F
:10747000F1B20B480A4EFFF7F1FE2544AC4207D1AA
:10748000064801212AF048F8BDE87040FFF764BFC4
:1074900014F8011B3046FFF7E1FEEFE7E07302103E
:1074A000A073021007B501228DF807100DF1070136
:1074B000FFF7CCFF03B05DF804FB000070B5154684
:1074C00006460C4629F047FC134800212AF024F810
:1074D0001D211248FFF7C2FE310A1048FFF7BEFE19
:1074E000F1B20E480D4EFFF7B9FE0C480021FFF730
:1074F000B5FE2544AC4207D1074801212AF00CF81B
:10750000BDE87040FFF728BF00213046FFF7A6FE18
:1075100004F8010BEEE700BFE0730210A073021045
:1075200007B501220DF10701FFF7C8FF9DF807001D
:1075300003B05DF804FB0000F8B5144605460E469E
:1075400029F009FC0F48104F002129F0E5FF0E211A
:107550000D48FFF783FE29460B48FFF77FFE002505
:10756000A4B2ABB29C4207D80648012129F0D4FF4F
:10757000BDE8F840FFF7F0BE715D3846FFF76EFEDC
:107580000135EEE7E0730210A0730210F8B514465F
:1075900005460E4629F0DFFB1248134F002129F063
:1075A000BBFF1E211048FFF759FE29460E48FFF782
:1075B00055FE0D480021FFF751FE0025A4B2ABB2E5
:1075C0009C4207D80748012129F0A6FFBDE8F840F2
:1075D000FFF7C2BE00213846FFF740FE7055013567
:1075E000EDE700BFE0730210A0730210022129F042
:1075F00001BE704770477047074B0849186843F24F
:10760000390201FB002018606FF00043B0FBF3F378
:10761000C3EBC373C01A7047642D00106D4EC64192
:10762000014B1860704700BF642D001038B5054647
:107630000C46FFF7E1FF611B013190FBF1F303FB07
:107640001100284438BD01380A44914200D17047E6
:1076500011F8013B00F8013FF7E710440A4491425A
:1076600000D1704711F8013B00F8013DF7E70244F3
:10767000904200D1704700F8011BF9E730B530B1F6
:107680000A4D01444FF0FF33814201D1D84330BD50
:1076900010F8012B5340082243F30004013A2C4018
:1076A00092B284EA5303002AF6D1EDE72083B8EDC5
:1076B000024B0146186800F069B800BF882D001021
:1076C000024B0146186800F011B800BF882D001069
:1076D0000A44914200F1FF3300D1704710B511F810
:1076E000014B03F8014F9142F9D110BD37B5002984
:1076F00048D051F8043C0190002BA1F10404B8BF1C
:10770000E41801F02FFC204A01981368154633B99C
:107710006360146003B0BDE8304001F029BCA342AF
:107720000BD921686218934204BF1A685B686360D2
:1077300004BF521822602C60ECE71A465B680BB15C
:10774000A342FAD911685518A5420BD124682144E7
:107750005418A3421160DDD11C685B68536021445A
:107760001160D7E702D90C230360D3E725686119BC
:107770008B4204BF19685B68636004BF49192160CC
:107780005460C7E703B030BD98540010F8B5CD1C65
:1077900025F0030508350C2D38BF0C25002D0646B5
:1077A00001DBA94203D90C2333600020F8BD01F0AE
:1077B000D9FB21490A6814469CB9204F3B6823B97C
:1077C0002146304600F0A6FC38602946304600F0DD
:1077D000A1FC431C23D10C233360304601F0C8FBCD
:1077E000E3E723685B1B17D40B2B03D923601C44EE
:1077F000256004E06368A2420CBF0B605360304612
:1078000001F0B6FB04F10B00231D20F00700C21AA3
:10781000CCD01B1AA350C9E722466468CCE7C41C2D
:1078200024F00304A042E3D0211A304600F072FC99
:107830000130DDD1CFE700BF985400109C540010F8
:107840002DE9FF4755EC104B002D0E4619462B46EF
:10785000BBBF05F100431D4600232D230B700D9B7C
:10786000DDF830A0914623F02008BCBF2246144624
:10787000B8F1460F05D0B8F1450F00D1013602210D
:1078800000E0032103AB019302AB009345EC104BE6
:107890005346324600F084FDB8F1470F074602D147
:1078A00019F0010F22D0B8F1460F07EB060910D1ED
:1078B0003B78302B0AD10022002320462946FDF7D1
:1078C000ABF818B9C6F10106CAF80060DAF8003062
:1078D00099440022002320462946FDF79DF808B16F
:1078E000CDF80C903022039B4B4507D3039B0E9A97
:1078F000DB1B3846136004B0BDE8F087591C0391C8
:107900001A70F0E7F7B503460029B8BF494203F8FB
:10791000022BB4BF2D222B22092942702ADD0DF142
:107920000704A4460A27A6460A4691FBF7F607FB7A
:1079300016153035632A04F1FF340EF8015C314628
:10794000F1DC3031AEF1020504F8011C441C29467B
:1079500061450AD30DF10902A2EB0E02654588BF0D
:1079600000221344181A03B0F0BD11F8012B04F8DB
:10797000012FEDE7302330318370C170031DF1E733
:107980002DE9F04F2DED028B8DB00C46DDF86080B7
:1079900016461F46054601F0E1FAD0F800A0504611
:1079A000FCF7B8FB00230A9323680593D8F800304E
:1079B00094F818B0073323F0070303F10802C8F85E
:1079C0000020D3E90023C4E91223D4E9128929F065
:1079D00000430793CDF8188008EE100A9F4BDDE9AD
:1079E00006014FF0FF32FDF749F888BBDDE90601DB
:1079F0009A4B4FF0FF32FDF723F848BB00220023DB
:107A000040464946FDF712F810B12D2384F8433063
:107A1000934B9448BBF1470F94BF9846804603238D
:107A20002361059B23F0040222604FF000090097B8
:107A300033460BAA2146284600F0D8F9013040F021
:107A400090804FF0FF300DB0BDEC028BBDE8F08FA1
:107A500042464B4640464946FDF710F840B14B467A
:107A6000002BBCBF2D2384F843307F487F4BD1E7E8
:107A700063680BF0DF0206925A1C3FD10623636055
:107A8000059B616843F48062002303930AABCDE950
:107A900001B309AB49EC108B009322600DF1230375
:107AA0002846FFF7CDFE069B0999472B804608D153
:107AB000C81C02DB6368994241DDABF1020B5FFA3F
:107AC0008BFBBBF1650F20D801395A4604F15000F9
:107AD0000991FFF717FF0A9A1318012A81462361BB
:107AE00002DC2268D20701D5013323619DF82330DF
:107AF000002B9CD02D2384F8433098E7069A472A20
:107B0000BED1002BBCD10123B9E7BBF1660F18D160
:107B1000002963680BDD216113B92268D00702D503
:107B200001330B442361A1654FF00009DEE713B96F
:107B30002268D20701D50233F4E70123F2E74FF0C0
:107B4000670B0A9B994205DB23682161D807EAD5B8
:107B50004B1CE7E70029D4BFC1F102020122134404
:107B6000E0E723685A0507D4236942463146284690
:107B7000B84701302CD164E7BBF1650F40F2E080DB
:107B8000D4E9120100220023FCF746FF002834D07C
:107B9000374A012331462846B84701303FF451AFF8
:107BA000DDE909239A4202DB2368D80710D518EED5
:107BB000103A524631462846B84701303FF441AFAB
:107BC0004FF0000804F11A090A9B013B434509DC08
:107BD00023689B0700F10581E0680B9B9842B8BFC2
:107BE000184630E701234A4631462846B847013057
:107BF0003FF427AF08F10108E6E7099B002B39DCC9
:107C00001B4A012331462846B84701303FF419AFDB
:107C1000DDE90923134302D12368D907D8D518EE2B
:107C2000103A524631462846B84701303FF409AF72
:107C30004FF0000904F11A0A099B5B424B4501DC35
:107C40000A9B92E70123524631462846B847013045
:107C50003FF4F7AE09F10109EEE700BFFFFFEF7F48
:107C6000D7B20400DBB20400E3B20400DFB20400C8
:107C7000C2CE04000A9AA36D9A42A8BF1A46002AEF
:107C8000914637DC4FF0000B29EAE97904F11A023A
:107C9000A36D0593A3EB09035B4533DCDDE9092301
:107CA0009A423BDB2368DA0738D40A9A059B099984
:107CB000D31AA2EB01099945A8BF9946B9F1000F63
:107CC00035DC4FF0000829EAE97904F11A0ADDE908
:107CD00009239B1AA3EB090343457FF779AF0123DF
:107CE000524631462846B84701303FF4AAAE08F163
:107CF0000108ECE71346314642462846B8470130B2
:107D0000C0D19EE60123314628460592B84701308E
:107D10003FF497AE059A0BF1010BB9E718EE103A54
:107D2000524631462846B8470130BED189E6059A09
:107D30004B46424431462846B8470130C1D180E61F
:107D40000A9A012A01DCDB0738D501234246314675
:107D50002846B84701303FF474AE18EE103A524648
:107D600031462846B84701303FF46BAED4E91201E2
:107D700000220023FCF750FED8B90A9B08F101024B
:107D8000013B31462846B84701300ED159E6012360
:107D9000524631462846B84701303FF452AE08F10A
:107DA00001080A9B013B4345F1DC4B4604F15002BC
:107DB000DCE64FF0000804F11A0AF2E7012342461C
:107DC000DFE701234A4631462846B84701303FF4F1
:107DD00038AE08F10108E3680B995B1A4345F0DC03
:107DE000FAE64FF0000804F11909F4E72DE9F0472D
:107DF000164699468A680B69DDF820809342B8BF21
:107E00001346336091F8432007460C460AB101330C
:107E100033602368990642BF3368023333602568B4
:107E200015F0060506D104F1190AE36832689B1AB9
:107E3000AB4226DC94F84320131E226818BF0123AE
:107E400092062BD404F1430249463846C04701301C
:107E50001ED02368E568326803F00603042B08BFD0
:107E6000AD1AA36822690CBF25EAE5750025934287
:107E7000C4BF9B1AED1800261A34B5421AD100204F
:107E800008E00123524649463846C047013003D135
:107E90004FF0FF30BDE8F0870135C6E7E1185A1C06
:107EA000302081F84300224494F8451082F84310B2
:107EB0000233C7E70123224649463846C04701300E
:107EC000E6D00136D9E700002DE9FF470C46914680
:107ED000277E0C99782F80469A4604F1430207D8F2
:107EE000622F0AD8002F00F0D880582F00F0A3800E
:107EF00004F1420684F842703AE0A7F16303152BBF
:107F0000F6D801A050F823F0617F0100757F0100D1
:107F1000F17E0100F17E0100F17E0100F17E0100A1
:107F2000757F0100F17E0100F17E0100F17E01000C
:107F3000F17E010081800100A57F010063800100C6
:107F4000F17E0100F17E0100A3800100F17E0100BD
:107F5000A57F0100F17E0100F17E01006B80010030
:107F60000B681A1D1B680A6004F1420684F842304F
:107F70000123A3E0256808682E0600F104030AD552
:107F800005680B60002D03DA2D236D4284F8433021
:107F90005E480A2319E015F0400F05680B6018BF12
:107FA0002DB2EFE70B682568181D0860280601D57B
:107FB0001D6802E06906FBD51D8854486F2F0CBF71
:107FC00008230A23002184F843106668A660002E67
:107FD000A2BF216821F0040121600DB9002E4DD00F
:107FE0001646B5FBF3F103FB1157C75D06F8017D9B
:107FF0002F46BB420D46F4D9082B0BD12368DF076F
:1080000008D5236961689942DEBF302306F8013C38
:1080100006F1FF36921B2261CDF800A04B4603AA61
:1080200021464046FFF7E2FE01304CD14FF0FF30D1
:1080300004B0BDE8F087354884F8457023680E68C1
:108040001F0656F8045B0E6014D5D90744BF43F0F1
:10805000200323601DB9236823F02003236010232D
:10806000B0E7236843F0200323607823284884F88E
:108070004530E3E75E0648BFADB2E6E71646BBE72C
:108080000B68266860691D1D0D6035061B6801D5EB
:10809000186002E07106FBD51880002323611646A4
:1080A000BAE70B681A1D0A601E6862680021304634
:1080B000FCF73EF808B1801B606063682361002311
:1080C00084F84330A8E72369324649464046D04702
:1080D0000130ABD023689B0713D4E068039B984220
:1080E000B8BF1846A4E70123324649464046D04768
:1080F00001309BD00135E36803995B1AAB42F2DC97
:10810000EBE7002504F11906F5E700BFE7B204002C
:10811000F8B2040038B5064D0023044608462B602B
:1081200001F080FC431C02D12B6803B1236038BDF1
:10813000640002100EB400B59CB01DAB0290069016
:108140006FF00041094807910491094953F8042B45
:1081500005910068019302A901F088FA029B0022B0
:108160001A701CB05DF804EB03B07047882D001046
:108170000802FFFF2DE9F0433B4E86468C466046E1
:108180001CF8014BA55D15F00805F8D12D2C34D154
:108190009CF800404FF0010800F1020C002B5ED06B
:1081A000102B0CD1302C0AD19CF8000000F0DF001D
:1081B00058284FD19CF8014010230CF1020C4FF0CD
:1081C000FF370025B7FBF3F703FB07F96FEA09094F
:1081D0002846A4F13006092E18D83446A34224DDDF
:1081E000002D1FDB87421DD301D1A1451ADB00FB07
:1081F000034001251CF8014BEBE72B2C08BF9CF832
:108200000040A84608BF00F1020CC7E7A4F14106F0
:10821000192E01D8373CE1E7A4F16106192E04D8E4
:10822000573CDBE74FF0FF35E4E7002D07DA222368
:10823000CEF800304FF0FF3042B9BDE8F083B8F11E
:10824000000F00D04042002AF7D00DB10CF1FF31F1
:108250001160F2E73024002BB1D10823AFE7302CB6
:10826000A2D00A23ABE700BF0AB30400FFF782BF26
:1082700013460A46014602480068FFF77BBF00BF6D
:10828000882D00102DE9F74F03690C69A3420746BA
:10829000C0F28180013C01F1140800F1140505EBE6
:1082A0008403019358F8243055F8242001339A426E
:1082B0004FEA840B08EB8409B2FBF3F631D34FF09D
:1082C000000E4046AC46F24650F8042B93B206FB33
:1082D00003E34FEA134E9BB2AAEB0303120CDCF844
:1082E00000A006FB02E213FA8AF34FEA124E1FFACD
:1082F00082FADCF80020CAEB124202EB23429BB266
:1083000043EA024381454CF8043B4FEA224ADBD260
:1083100055F80B302BB9019B043B9D421A462ED3D6
:108320003C61384601F055F8002824DB0136284628
:108330004FF0000C58F8042BD0F800E093B2ACEBEF
:108340000303120C13FA8EF3C2EB1E4202EB23421C
:108350009BB243EA0243C14540F8043B4FEA224C3A
:10836000E8D255F8242005EB840322B9043B9D4252
:108370001A460AD33C61304603B0BDE8F08F12685C
:10838000043B002ACCD1013CC7E71268043B002A19
:10839000F0D1013CEBE70020EEE700000000000018
:1083A0002DE9F04F2DED028B57EC106B95B0456A1F
:1083B000DDF880800591CDE90267044609920F93AC
:1083C0003DB91020FFF774F9C0E9015560620560FE
:1083D000C560636A196851B15A684A6001239340C5
:1083E0008B60204600F0FEFD636A00221A603B1E8F
:1083F000B9BF23F0004303930023C8F80030DDF831
:108400000C90B74BBCBF0122C8F8002033EA090327
:108410001BD10F9A42F20F731360C9F31303334356
:1084200000F07585219B63B9AE4B25E0AE4B009300
:108430000833219A1360009815B0BDEC028BBDE89B
:10844000F08FA84B00930333F3E79DED027B0022EE
:1084500051EC170B00238DED0A7BFCF7DDFA80460B
:1084600060B10F9A01231360219B002B00F04C8513
:108470009E4B219A1360013B0093DCE79DED0A0BB4
:1084800012AA13A9204601F036F8C9F30A5582460C
:10849000002D7ED00B9BCDF84080C3F31303DDE9A4
:1084A0000A6743F07F5747F44017A5F2FF35904B1A
:1084B000002230463946FBF78FFE83A3D3E9002321
:1084C000FCF742F882A3D3E90023FBF787FE0646B8
:1084D00028460F46FBF7CEFF7FA3D3E90023FCF726
:1084E00033F802460B4630463946FBF777FE064620
:1084F0000F46FCF7D9FA0022814600233046394660
:10850000FCF794FA48B14846FBF7B4FF32463B46C5
:10851000FCF782FA08B909F1FF39B9F1160F56D8FC
:10852000744B03EBC903D3E90023DDE90A01FCF72F
:108530007DFA00284DD009F1FF3900230E93129BDC
:108540005D1B6B1E049343BF0023C5F10108049318
:108550004FF00008B9F1000F3DDB049BCDF83490DB
:108560004B44049300230693059B092B00F29A8049
:10857000052BC4BF043B0593059BA3F10203CCBFAD
:1085800000250125032B00F29980DFE803F02C7D04
:108590007B89DDE912531D4405F23243202BC1BF14
:1085A000C3F1400305F2124009FA03F326FA00F082
:1085B000DABFC3F1200306FA03F01843FBF74AFFC2
:1085C00001230646A1F1F877013D10936FE70123DF
:1085D000B4E70E90B3E7C9F1000306930023A8EBBC
:1085E00009080D93C0E700230893099B002B00F3B3
:1085F00085804FF0010BCDF804B05B46CDF824B078
:10860000666A00227260042202F1140098427168C6
:108610007AD9204600F0B2FC636A30601B68009390
:10862000019B0E2B00F2F580002D00F0F280B9F1D5
:10863000000F7DDD2F4A09F00F0302EBC30393ED1A
:10864000007B19F4807F4FEA2917B0EE478AF0EEDD
:10865000678A5DD0284BDDE90A01D3E90823FCF7DE
:108660009DF8CDE9020107F00F070325224E002FE8
:1086700050D1DDE9020153EC182BFCF78FF8CDE95E
:1086800002016FE00123AFE700230893099B09EB88
:10869000030B0BF10103012B0193B8BF0123AFE7DB
:1086A0000123F2E701250023059308954FF0FF3BD6
:1086B0000022CDF804B012230992A1E70123089308
:1086C000F4E700BFAFF3008061436F63A787D23F39
:1086D000B3C8608B288AC63FFB799F501344D33FB1
:1086E0000000F07F13B404000AB40400C3CE0400F9
:1086F0000000F83F40B4040018B40400DDF824B0D2
:10870000CDF804B05B467BE70131716052007BE736
:108710000225ABE7F90708D551EC180BD6E9002381
:10872000FBF712FF41EC180B01357F1008369EE76E
:1087300000F0AB80C9F10006AA4BAB4F06F00F0268
:1087400003EBC203D3E90023DDE90A01FBF7FCFEDA
:10875000CDE90201361100230225002E40F08A8067
:10876000002B8CD10E9B002B00F09180DDE902677D
:108770009E4B002230463946FCF758F9002800F09D
:108780008680019B002B00F08280BBF1000F3CDD56
:1087900009F1FF3307930022954B30463946FBF72A
:1087A000D3FECDE902010135CDF830B0DDE9026735
:1087B0002846FBF75FFE32463B46FBF7C5FE8D4B76
:1087C0000022FBF70BFDA1F15073CDE902010393E9
:1087D0000C9B002B60D1884B002230463946FBF7BA
:1087E000FBFCDDE9022306460F46FCF73DF90028B5
:1087F00040F09982DDE90221304601F1004339461B
:10880000FCF714F9002840F08B82DDE90A23CDE95A
:108810000223139B002BC0F25B81B9F10E0F00F312
:108820005781704B03EBC90393ED007B099BB0EEBE
:10883000478AF0EE678A002B80F2E280019B002BD2
:1088400000F3DE8040F06C826B4B51EC170B002282
:10885000FBF77AFEDDE90223FCF7FCF8019E3746C0
:10886000002840F04282009D312305F8013B09F1C8
:1088700001093EE2F20705D5D7E90023FBF764FEC4
:10888000013501237610083767E702256AE7019B67
:10889000CDF81C900C9389E700990C980C9A514BD9
:1088A0009DED027B014402910899B0EE478AF0EEFB
:1088B000678A03EBC20353E90223002945D04F49DD
:1088C0000020FBF76BFF53EC182BFBF785FC009D9A
:1088D00041EC180B39463046FCF7E6F80C90FBF7F4
:1088E000C9FD02460B4630463946FBF775FC0C9B2A
:1088F000303305F8013B53EC182B06460F46FCF7C6
:1089000095F8002865D132463B4638490020FBF7F0
:1089100063FC53EC182BFCF789F8002840F0B88072
:10892000029B9D423FF471AF314B51EC180B00227A
:10893000FBF70AFE2E4B41EC180B0022304639465D
:10894000FBF702FE06460F46C4E751EC170BFBF798
:10895000FBFD029B009D0C9341EC180B3946304601
:10896000FCF7A2F81190FBF785FD02460B46304656
:108970003946FBF731FC119B303305F8013B029B74
:108980009D4206460F464FF0000225D11B4B51EC8D
:10899000180BFBF723FC02460B4630463946FCF722
:1089A00063F8002874D153EC182B14490020FBF70E
:1089B00013FC02460B4630463946FCF737F80028D0
:1089C0003FF423AF0C9D6B1E0C9315F8013C302B2C
:1089D000F8D0DDF81C9049E0054BFBF7B5FD0646E5
:1089E0000F46BBE740B4040018B404000000F03F99
:1089F0000000244000001C40000014400000E03F44
:108A0000DDE90267009D53EC182B30463946FBF731
:108A1000C5FEFCF749F88046FBF72CFD53EC182BFC
:108A2000FBF792FD02460B463046394608F1300608
:108A3000FBF7D2FB05F8016B009E019FAE1BB7420E
:108A400002460B4637D1FBF7C9FB53EC182B064601
:108A50000F46FCF709F8C8B953EC182B30463946D5
:108A6000FBF7DAFF10B118F0010F0FD12046514685
:108A700000F0B8FA00232B700F9B09F10100186079
:108A8000219B002B3FF4D7AC1D60D4E4CDF81C90A3
:108A90002B461D4613F8012D392A08D1009A9A4217
:108AA000F7D1079A00990132079230220A701A789A
:108AB00001321A708DE79E4B0022FBF745FD002224
:108AC000002306460F46FBF7A7FF00289BD0CDE703
:108AD000089A002A00F0C680059A012A00F3AA80AD
:108AE000109A002A00F0A28003F23343069E454606
:108AF000049A01211A4420469844049200F017FB7E
:108B00000746002D0BDD049B002B08DDAB42049AC9
:108B1000A8BF2B46A8EB0308ED1AD31A0493069BB3
:108B2000FBB1089B002B00F0A180002E11DD39461F
:108B30003246204600F0A0FB52460146074620463A
:108B400000F0FEFA51460790204600F04BFA079BD2
:108B50009A46069B9A1B04D05146204600F08CFB97
:108B600082460121204600F0E2FA0D9B002B0646CA
:108B70007EDD1A460146204600F07EFB059B012B58
:108B8000064678DD00230693336906EB83031869F4
:108B900000F07DFAC0F12000049B184410F01F0083
:108BA00000F08880C0F12003042B40F38180C0F1E5
:108BB0001C00049B0344804405440493B8F1000F57
:108BC00005DD51464246204600F0A4FB8246049B48
:108BD000002B05DD31461A46204600F09BFB064679
:108BE0000E9B002B68D03146504600F0F2FB002867
:108BF00062DA002351460A22204600F00AFA089B56
:108C000009F1FF398246002B00F0888139460023A4
:108C10000A22204600F0FDF9BBF1000F074600F3E1
:108C20008F80059B022B40F38B804DE0129BC3F19C
:108C300036035BE7019B5E1E069BB342BFBF069BEC
:108C40000696F21A0D9BB6BF9B189E1B0D93019BB7
:108C5000B8BF0026002BB5BFA8EB0305019B00237E
:108C6000454645E7069E089F45464AE7069A73E74C
:108C7000059B012B18DC029BB3B9039BC3F31303C1
:108C8000A3B9039B23F000431B0D1B052BB1049BD1
:108C90000133049308F10108012306930D9B002B77
:108CA0007FF472AF012077E70023F6E7029BF4E739
:108CB00084D018461C307CE7019B002B3ADC059BD6
:108CC000022B37DDDDF804B0BBF1000F0DD13146CA
:108CD0005B460522204600F09CF9014606465046B8
:108CE00000F077FB00283FF7BEAD099B009D6FEABF
:108CF00003094FF000083146204600F073F9002FB9
:108D00003FF4B4AEB8F1000F05D0B84503D04146EA
:108D1000204600F067F93946204600F063F9A5E6E1
:108D200000263746E1E70C9EDDF81C9037469AE5B1
:108D300000002440089BDDF804B0002B00F0F58013
:108D4000002D05DD39462A46204600F0E3FA0746A5
:108D5000069B002B55D07968204600F00FF93A6940
:108D600002320546920007F10C010C30FEF7B0FC10
:108D700001222946204600F0CDFA009B01330193E1
:108D8000009B5B440793029B03F00103B8460693E4
:108D90000746019B3146504603F1FF3BFFF772FA4D
:108DA00003463033029041465046089300F011FBD1
:108DB0003A4604903146204600F027FBC268089BE3
:108DC000054602BB0146504600F003FB089B0246E5
:108DD00029462046CDE9083200F004F9059B099A9E
:108DE000019D43EA0201069B0B43089B0DD1392BE1
:108DF00027D0049A002A01DD029B31338BF8003022
:108E000079E73846B9E70122E2E70499002904DB53
:108E1000059801430698014320D1002AEEDD514612
:108E200001222046019300F075FA3146824600F097
:108E3000D0FA0028019B02DCE0D1DA07DED5392B1D
:108E4000DAD139238BF800302B461D46013B15F84B
:108E5000012C392A50D001321A704CE7002A03DD68
:108E6000392BEED00133C9E7019A079902F8013C8A
:108E70008A422AD0514600230A22204600F0C9F82F
:108E8000B84582464FF000034FF00A0241462046A3
:108E900007D100F0BEF880460746019B01330193DD
:108EA00077E700F0B6F83946804600230A222046CC
:108EB00000F0AFF80746F0E7BBF1000F009ACCBF17
:108EC0005D46012515444FF0000851460122204619
:108ED000019300F01FFA3146824600F07AFA00282A
:108EE000B2DC02D1019BDB07AED42B461D4613F842
:108EF000012D302AFAD0FEE6009A9A42A5D13123FC
:108F000009F101091370F6E6124BFFF7B5BA219B80
:108F1000002B7FF48BAA104BFFF7AEBABBF1000F0A
:108F200003DC059B022B3FF7CFAE009D3146504638
:108F3000FFF7A8F900F1300305F8013B009AAA1ADF
:108F40009345B9DD514600230A22204600F061F81E
:108F50008246EBE7C2CE04000AB404000048704722
:108F6000DC2E0010014800F0EBBC00BF68000210CE
:108F7000014800F0E6BC00BF6800021070B5466A08
:108F800004460D463EB91020FEF792FBC0E901668B
:108F900060620660C660666AF36883B1636ADB6814
:108FA00053F82500B8B9012101FA05F6721D9200A7
:108FB000204600F0F0FA60B1C0E901560EE021222F
:108FC0000421204600F0E7FA636AF060DB68002BBA
:108FD000E4D1002070BD026843F825200023C0E9D9
:108FE0000333F7E770B5466A05460C463EB91020D4
:108FF000FEF75EFBC0E9016668620660C6603CB1D0
:109000006B6A6268DB6853F82210216043F82240E3
:1090100070BD2DE9F0410E69074698460C4601F1F6
:10902000140000230568A9B202FB01814FEA114C2C
:109030002D0C02FB05C589B2013301EB05419E42AF
:1090400040F8041B4FEA1548ECDCB8F1000F1BD0C8
:10905000A368B34212DC616838460131FFF78EFF26
:109060002269023204F10C01054692000C30FEF731
:109070002FFB21463846FFF7B5FF2C4604EB86034D
:109080000136C3F8148026612046BDE8F081030C48
:109090001B04D3B90004102310F07F4F04BF00025B
:1090A000083310F0704F04BF0001043310F0404F3C
:1090B00004BF80000233002805DB10F0804F03F16D
:1090C000010308BF2023184670470023E4E7036824
:1090D00013F0070201460BD0DA0724D4980749BFE2
:1090E0005B089B0801200B605CBF0B60022070478F
:1090F00098B2B0B91B0C102013F0FF0F04BF1B0A6D
:1091000008301A0704BF1B0904309A0704BF9B08E4
:109110000230DA0703D45B0800F1010005D00B60D0
:1091200070471046E8E7002070472020704710B5D0
:109130000C460121FFF722FF01224461026110BDAC
:109140002DE9F04F15460A692B699A42B8BF0B46C4
:109150000C46BCBF2C461D462769D5F81090A36865
:10916000616807EB0906B342B8BF013185B0FFF76C
:1091700005FF00F1140101EB86080B460022434570
:109180001DD304F1140305F1140203EB870702EB6E
:10919000890302933B1B153B23F00303043304F1C3
:1091A0001505AF4238BF04230193029B03929342FB
:1091B00008D8002E5ADC066105B0BDE8F08F43F8F0
:1091C000042BDCE7B2F800A0BAF1000F24D004F1C0
:1091D000140E89464FF0000C5EF8045BD9F800B01D
:1091E000ABB21FFA8BFB0AFB03B34FEA154BD9F85E
:1091F000005063444FEA154C0AFB0BC505EB1345C1
:109200009BB243EA0543774549F8043B4FEA154CC6
:10921000E2D8019B41F803C0039BB3F802900432EB
:10922000B9F1000F20D00B6804F1140C8E464FF0FA
:10923000000ABCF80050BEF802B009FB05B5AA440C
:109240009BB243EA0A434EF8043B5CF8043BBEF889
:1092500000501B0C09FB035303EB1A4367454FEA0D
:10926000134AE6D8019D4B5104319EE758F8043D5E
:10927000002BA0D1013E9CE72DE9F843154612F0E2
:10928000030206460F4607D0214C013A002354F84A
:109290002220FFF7BEFE0746AD1035D0746A3CB9F8
:1092A0001020FEF705FAC0E9014470620460C46052
:1092B000D6F82480D8F808404CB940F271213046E5
:1092C000FFF735FF0023C8F80800044603604FF09D
:1092D0000009EB070AD5394622463046FFF730FF32
:1092E000394680463046FFF77DFE47466D100BD06D
:1092F000206838B9224621463046FFF721FF20601A
:10930000C0F800900446E4E73846BDE8F88300BFA3
:1093100008B504002DE9F0470C464968236903EBC2
:109320006218A368074691464FEA621A08F10106DF
:10933000B3423FDB3846FFF721FE0023054600F12C
:10934000140100F110021846534536DB20692AEA61
:10935000EA7A04F1140319F01F0901EB8A0103EB07
:10936000800C2ED0C9F1200E8A460022186800FA1F
:1093700009F002434AF8042B53F8042B9C4522FAC7
:109380000EF2F3D8ACEB0403153B23F003030433D4
:1093900004F11500604588BF0423CA500AB108F1E2
:1093A0000206013E38462E612146FFF71BFE284685
:1093B000BDE8F08701315B00BAE742F8040F0133E2
:1093C000C2E7043953F8042B41F8042F9C45F9D81F
:1093D000E7E730B502690C69121B0ED100F11403E6
:1093E000143103EB840001EB840150F8045D51F863
:1093F000044DA54203D005D30122104630BD83425F
:10940000F3D3FAE74FF0FF32F7E72DE9F84F0C46B8
:109410000646114620461746FFF7DBFF051E08D11A
:1094200029463046FFF7AAFD0123C0E90435BDE80F
:10943000F88FA4BF3B46274630467968A6BF1C4636
:1094400000250125FFF79AFD3E69C560256907F1F2
:10945000140104F1140900F1140E07F1100201EBDC
:10946000860C09EB8505F246002759F8043B52F8B3
:1094700004BF1FFA83F817FA8BF71B0CA7EB080839
:10948000C3EB1B4303EB28431FFA88F81F144D4519
:1094900048EA03434AF8043BE7D82B1B153B23F06B
:1094A000030304331534A54238BF0423194473441D
:1094B0009E460D4665450ED30CF10302521A22F06A
:1094C000030203398C4538BF00221A4452F8043D88
:1094D0007BB10661ABE755F8048B17FA88F42214C8
:1094E00002EB1842A4B244EA02444EF8044B1714AB
:1094F000E0E7013EEAE72DE9F7438946012157EC11
:10950000106B9046FFF73AFDC7F30A550446C7F3C0
:10951000130335BB002E019328D068460096FFF751
:10952000D6FD009900B3019AC0F1200302FA03F3BB
:109530000B43C24063610192019BA361002B14BFE6
:10954000022201222261D5B1A5F233450544C9F8B2
:109550000050C0F13500C8F80000204603B0BDE857
:10956000F08343F48013D5E76161E5E701A8FFF7D5
:10957000AEFD019B6361012222612030E3E704EB31
:109580008203A0F23240C9F800001869FFF77FFD9E
:10959000C0EB4210DFE713B54A4311460192FEF7D4
:1095A000F5F8044618B1019A002100F0F7F92046B9
:1095B00002B010BD2DE9F0478E689E4282460C46EF
:1095C00090461F4638D88A8912F4906F32D02568A9
:1095D0000969A5EB0109656905EB450505EBD5753D
:1095E00001334B446D109D4238BF1D46530531D5A4
:1095F0002946FEF7CBF8064650B90C23CAF80030CE
:10960000A38943F04003A3814FF0FF30BDE8F0870A
:1096100021694A46FEF75CF8A38923F4906343F07E
:109620008003A381266165614E44A5EB0905266090
:10963000A5603E46BE4200D93E46324620684146BD
:1096400000F092F9A36822689B1B3244A360226059
:109650000020DBE72A4600F0A9F906460028E1D100
:1096600021695046FEF742F8C7E700002DE9F04FA8
:1096700098468B891B069DB007460D4614460ED5AD
:109680000B6963B94021FEF781F82860286120B991
:109690000C233B604FF0FF30D1E040236B6100238F
:1096A000099320238DF82930CDF80C803023DFF882
:1096B000A8818DF82A304FF0010923469A4613F805
:1096C000012B0AB1252AF9D1BAEB040B0BD05B466A
:1096D000224629463846FFF76DFF013000F0AA8088
:1096E000099A5A4409929AF80030002B00F0A2809F
:1096F00000234FF0FF32CDE905230AF1010A04935C
:1097000007938DF853301A935446052214F8011B21
:109710005148FAF70DFD049AD8B9D00644BF20236A
:109720008DF85330110744BF2B238DF853309AF82E
:1097300000302A2B15D0079A544600204FF00A0C0F
:10974000214611F8013B303B092B4ED9B0B10792AD
:1097500014E0A0EB080309FA03F313430493A246B1
:10976000D2E7039B191D1B680391002BBBBF5B4213
:1097700042F0020207930793B8BF049223782E2B7E
:109780000CD163782A2B35D1039B1A1D1B680392D9
:10979000002BB8BF4FF0FF3302340593DFF8C8A0A9
:1097A000217803225046FAF7C3FC40B14023A0EBD6
:1097B0000A0003FA00F0049B03430134049314F8F5
:1097C000011B26488DF828100622FAF7B1FC002864
:1097D00038D0234B1BBB039B073323F0070308330D
:1097E0000393099B3344099367E70CFB02320C4651
:1097F0000120A5E700230134059319464FF00A0C18
:10980000204610F8012B303A092A03D9002BC5D085
:109810000591C3E70CFB012104460123F0E703ABEC
:1098200000932A460F4B04A93846FEF7A9F8421CBC
:109830000646D6D1AB895B063FF52CAF09981DB023
:10984000BDE8F08F03AB00932A46064B04A93846C7
:10985000FEF73AFBEBE700BF14B504001EB50400A9
:1098600081790100B59501001AB5040038B50C46A0
:109870000968054609B1FFF7F9FF21462846BDE80A
:109880003840FDF733BF00002C4B1B68834270B596
:10989000044651D0436A43B1DB68002B4AD1636A66
:1098A000196811B12046FDF721FF616911B1204609
:1098B000FDF71CFF616A11B12046FDF717FFA16B90
:1098C00011B12046FDF712FFE16B11B12046FDF703
:1098D0000DFF216C11B12046FDF708FFE16D11B1BC
:1098E0002046FDF703FFA16D11B12046FDF7FEFEF6
:1098F000616B11B12046FDF7F9FEA369E3B1A36ADC
:1099000020469847A16CB9B12046BDE87040FFF7EA
:10991000ADBF495941B90435636A802DD968F8D182
:109920002046FDF7E3FEBAE70E682046FDF7DEFEAF
:109930003146EFE70025EFE770BD00BF882D00102E
:109940007047704782B001B901A942B14BB1137899
:109950000B601278101E18BF012002B0704710462D
:10996000FBE76FF00100F8E7884210B501EB020455
:1099700002D98442234607D8431EA14208D011F8D9
:10998000012B03F8012FF8E7024401468A4200D177
:1099900010BD13F8014D02F8014DF7E702440346EC
:1099A000934200D1704703F8011BF9E7F8B5074669
:1099B00014460E4621B9BDE8F8401146FDF7E6BE53
:1099C00022B9FDF793FE25462846F8BD00F021F8A0
:1099D000A0420FD221463846FDF7D8FE05460028A2
:1099E000F2D031462246FDF773FE31463846FDF788
:1099F0007DFEE9E73546E7E749B1FF2A85BF8A23BF
:109A000003600A704FF0FF3098BF0120704708468E
:109A1000704751F8043C181F002BBCBF0B58C018EE
:109A200070470000044A05491368002B08BF0B4625
:109A30001844106018467047A0540010C47C0210EF
:109A4000FBF7DABAFBF73CBCFEE7FEE7FEE70000F7
:109A5000114812490160D1F800D01148016841F461
:109A600070010160BFF34F8FBFF36F8F0D480E4938
:109A70000E4A50F8043B41F8043B9142F9DB0C4894
:109A80000C494FF000028842B8BF40F8042BFADBC3
:109A9000FDF760FB00BE000008ED00E000400100A3
:109AA00088ED00E078350500002B00107C53001095
:109AB00080530010C47C0210034B5868C0F30800A8
:109AC000003818BF0120704700ED00E007B5064BD5
:109AD0000093064A064940F2415300201BF0FEF96C
